S01B00006275696C642F72656C656173652F7A69676265652E73333714
S21400400008100020E57C000079C4000025070300A6
S2140040102507030081C4000089C4000025070300AB
S21400402025070300250703002507030025070300CF
S2140040308DC40000584A0400250703002507030026
S214004040250703002507030025070300FD7700006A
S214004050250703002507030025070300250703009F
S21400406025070300250703008DC900002507030068
S214004070250703002507030025070300250703007F
S214004080250703002507030025070300250703006F
S214004090250703002507030025070300250703005F
S2140040A025070300AD80000091800000250703006F
S2140040B0250703002507030025070300751D0200DA
S2140040C03762030033620300D91402004D62030016
S2140040D03B620300351D02003F62030069010200D7
S2140040E0B51D02002507030025070300250703006A
S2140040F025070300250703002507030025070300FF
S21400410025070300250703002507030025070300EE
S21400411025070300250703002507030025070300DE
S21400412025070300250703002507030025070300CE
S2080041302507030057
S214004134F0B5114A114C124E00F00105E3695F0711
S21400414413D40DB9334213D103EA00078F4207D1C3
S2140041540B4A1A40002A14BF6FF001000020F0BD7D
S214004164013AEBD16FF00200F9E74FF0FF30F6E7C3
S2140041746FF00100F3E700BF80969800000003503C
S214004184020001000B4B70B5D96911F480310DD1D2
S21400419401244FF48072084E084DF46020462C64C7
S2140041A41A61FFF7C5FF3464EC6070BD6FF0010060
S2140041B4FBE700BF0000035000100350002003502C
S2140041C438B541F6713301220C4C0021E569E363EE
S2140041D40B4B05F48035DA600223606121202361ED
S2140041E4FFF7A6FF10B92120FFF7A2FF0122054B17
S2140041F4DA600DB10023E36338BD00BF000003504E
S214004204001003500020035070B5134C6061E3693E
S2140042145B071ED40E4656F8043B8D18A361AE42C7
S2140042240BD10423002121202361FFF781FF58B915
S214004234BDE870402120FFF77BBF08210846FFF742
S21400424477FF10B10423236170BD56F8043BA361C5
S214004254E5E74FF0FF30F7E7000003502DE9F84399
S214004264154641F67132164B8946DF69DA63012238
S214004274064603F58053DFF8508007F48037DA608B
S21400428455B9284601220F4BDA601FB10022A3F568
S2140042940053DA63BDE8F88306F5005404EA08041C
S2140042A4A41BAC4228BF2C46494622463046FFF79C
S2140042B4ABFF0028E6D12644A1442D1BE0E700BF4F
S2100042C4000003500020035000E0FFFF45
S2140042D02DE9F04F4FF0FD0BC9B09A460DF11B09C2
S2140042E09DF8503108AFCDF80C90CDF808B0019786
S2140042F0059303890446009383790E4690464188C9
S2140043008288407812F082FA054650B10090A38861
S214004310002062883A4912F0BDFD284649B0BDE843
S214004320F08F99F800002FF0D8FA38B12846A38805
S2140043306288344912F0AEFD8D25EEE75A463946BE
S21400434099F800002FF071FA8346002851D0529B4E
S2140043501BB1BDF84C3198424BD8002399F8009019
S2140043600793A9F14102012A5FFA8BF123D8384658
S2140043700139254ADFF898C05FFA81FE734513DBE2
S214004380059B04210792C3B907AF18221F489FED6B
S2140043901A7B02FB060420460A460830394684ED9E
S2140043A0027B17F09FFA11E010F8011F013351400D
S2140043B00CFB01F2E2E7059B33B123464A4638463A
S2140043C0009610F0A5F9A8E70829DED9B8F1000F85
S2140043D001D088F80090BAF1000F01D0AAF800B01A
S2140043E0529B002B99D05A46184608A917F07AFA1D
S2140043F093E7012591E700BF0000000000000000E1
S2140044002AF303005FF30300C59D1C818010002083
S21400441093010001000000002DE9F04F93B0CDE9B4
S2140044200A32DDE91C530E9353EC102BCDE908013C
S214004430104619468DED060B1E9E16F0DDFC80B16B
S214004440DDE906014FF0FF32C54B16F0FDFC40B922
S214004450DDE906014FF0FF326FF4801316F0D6FC4C
S21400446070B1DDE908019DED060B0E9B1E96CDE9A9
S2140044701C53DDE90A3213B0BDE8F04F00F088B9EE
S2140044800022DDE90601002316F0C0FC002800F03B
S2140044903381DDE906A303F1004BCBF30A5016F493
S2140044A08063A0F2FF3008BF06250F9316F0D2F9FE
S2140044B09BA3D3E9002316F037FA9BA3D3E9002386
S2140044C016F07CF8CBF31304894644F07F518046FF
S2140044D00022A44B504641F4401116F06DF894A308
S2140044E0D3E9002316F020FA02460B46404649461A
S2140044F016F064F816F0B2FC044616F0ABF98EA37C
S214004500D3E900238046894616F00EFA0022964B21
S21400451016F054F816F0A2FC89A3D3E90023074648
S2140045204946404616F000FA80463846894616F058
S21400453091F985A3D3E9002316F0F6F902460B4657
S2140045404046494616F038F802460B46CDE90C239D
S21400455016F0EAF9DDE90C2380468946104619462E
S21400456016F02CF80022CDE91001804B4046494653
S21400457016F004FB00227E4B16F020F802460B468F
S2140045804046494616F0FAFA00227A4B16F016F81C
S21400459002460B464046494616F0F0FADDE90C2383
S2140045A08046894600204FF0804116F005F8024606
S2140045B00B464046494616F001F802460B46DDE932
S2140045C0100116F0DBFA07F2FF3700226A4B15F0EF
S2140045D0F5FF00223B0516F0A7F952465B468046DB
S2140045E0894616F031FC002840F08980CDE90C8918
S2140045F004F16303C62B8CBF0527042731051BD5A2
S21400460053A3D3E900235046594616F013FC00285E
S2140046107FD051A3D3E900235046594616F0F6FB47
S214004620002876D00027A542C6BF2C1B04F1FF3514
S21400463000253C4646F480660E9B9F422CBF4FF0FA
S2140046400008A3EB070816F0020903D0002F18BFD6
S2140046504FF000083CB1DDE90C235046594616F0F1
S2140046608DFA82468B46DDE906010022002316F00D
S214004670CDFB10B10BF100439B46DDE9080126F4A3
S2140046800063CDE90183DDE90A324BEC10AB0095FF
S21400469000F07EF802465FB3DDE9091316F0200F3E
S2140046A000F10105089E0CBF65204520B047DDE9F6
S2140046B008010523002205930A23002CCDE90232C7
S2140046C007F1FF374FEAD473B8BF64422A46019316
S2140046D004970A9B009430F01CFF0246B9F1000FC5
S2140046E006D00B9BC41A0B9B1A190E9BA34245D8E7
S2140046F0104613B0BDE8F08FDDE906ABCDE600222C
S214004700404649461A4B16F039FA013CCDE90C01F1
S2140047106EE7002D90D00F9B002B8DD0013D8BE7D0
S214004720FB799F501344D33FB3C8608B288AC63F9B
S21400473061436F63A787D23F71A379094F930A40FD
S2140047401655B5BBB16B0240EF39FAFE422EE63F76
S2140047502D431CEBE2361A3F0000000080842E41F9
S214004760FFFFEF7F0000F83F0000E03F00002C4016
S21400477000002440000018400000F03F2020DDE943
S2140047800913089DA8470134ADE700BF00000000EC
S2140047902DE9F04F5BEC10AB97B0CDE90501DDE9F4
S2140047A02058CDE90723504652465B465946229F7D
S2140047B016F022FB70B90323CDE902870193AA4BBA
S2140047C00093DDE90501DDE9072330F0D4FD17B0DD
S2140047D0BDE8F08F4FF0FF326FF480135046594615
S2140047E016F014FB28B10423CDE9028701939F4BF2
S2140047F0E6E74FF0FF32504659469D4B16F024FB35
S21400480068B19C4A07F00403002B08BF03229A4BAA
S2140048101CBF13460422CDE902870192D0E750461A
S2140048208DA3D3E90023594616F00EFB38B98CA3A6
S214004830D3E900235046594616F0E8FA68B1DDE998
S2140048400723DDE905014BEC10ABCDE92187209568
S21400485017B0BDE8F04FFFF7DFBD0022002350463B
S214004860594616F0D3FA002800F091805B4652466F
S2140048700020002115F0A0FE012382468B460993F6
S21400488017F4806400F08580092D40F285800024AE
S21400489030210EABA5F109020134202C03F8011BD0
S2140048A0A5EB040901D09442F6D15946504616F0BD
S2140048B0D5FA724B054603EBC90393ED007B8DEDED
S2140048C00A7B15F0C7FF02460B465046594615F0C0
S2140048D073FEDDE90A2316F027F802460B46CDE9FB
S2140048E00C2316F0E3FA064615F0A4FF02460B4624
S2140048F0DDE90C0115F060FE02460B46CDE90C23FF
S21400490000225F4B16F0A0FA002848D00136304649
S21400491015F090FF02460B46DDE90A0116F080FA14
S21400492008B100260135B9F1000F45D1284615F02B
S21400493091FF02460B465046594615F03DFE0022B2
S2140049404F4B16F063FA10B9E90700D501350A2176
S2140049500EAB1A19202C0AD095FBF1F001FB10556E
S214004960303502F8015B013405460028F2D107F025
S2140049700302012A55D1B8F1000F52D0099A12B994
S21400498017F00C0F01D008F1FF38302240E00990F4
S21400499076E74FF0060988E7A946002485E7002257
S2140049A0DDE90C01364B16F031FA0028BBD10EB10A
S2140049B0F007B8D50136B6E70A210EAB1A19202C37
S2140049C00DD0B6FBF1F001FB1063092E03F13003A6
S2140049D009F1FF3904F1010402F8013B11D8302136
S2140049E0A1440EAA202CB2D04C4504F101030AD1F2
S2140049F004F158020DEB02042E2204F8202C1C466B
S214004A00A5E70646DBE7A1541C46EBE71A5501343A
S214004A10444506D2202CF9D1CDE9028701940EAB8D
S214004A20CEE6202CF8D0099B3BB12D2204F158038A
S214004A306B4403F8202C0134EEE77A0704D504F122
S214004A4058032B226B44F4E73B07E5D504F15803E3
S214004A5020226B44EDE700BF0000000065CDCD418D
S214004A600000000065CDCDC14D10040051100400BB
S214004A70FFFFEF7F44100400491004009059040023
S214004A800000E03F0000000070B58EB02C22002130
S214004A9003A816F097FD64234FF002320893CDE981
S214004AA005230B2301218DF834305B4B8DF8101055
S214004AB01D880D4040F0A980084634F085FD0A2286
S214004AC0564B574C1A704FF42873ADF812304FF00F
S214004AD0FF332360534B54491B8820460B82534BAD
S214004AE0534A1B68CD828B61524B0D621B884B82EA
S214004AF0514B1B68CB611DF0D3F920B14FF41B71ED
S214004B004E4835F0FCFD0521206830F0F5FE20B15A
S214004B1040F27D21494835F0F2FD206815F008FD89
S214004B20474B2068196830F0AAFF0C2535F0B4F919
S214004B306843099035F0B0F968430DEB050107901E
S214004B40206817F001FC20B140F295213B4835F073
S214004B50D6FD25681FF0DCFB00220146284631F012
S214004B6006F820B140F29721344835F0C8FD40F2EF
S214004B700353344D344E2B80052396F90000AB705A
S214004B807F2801D11DF082FA3378EB7035F084F976
S214004B9000EB80008000A88035F07EF90023C0007E
S214004BA04FF0FF31E880AB604FF0FF3018A3D3E939
S214004BB0002334F05BFE2549206830F091FF206822
S214004BC002A931F0ADFB20B14FF434711B4835F02B
S214004BD096FD042220680DEB020130F025FF042824
S214004BE004D040F2D721154835F089FD01A90120EF
S214004BF030F026FB07F084FC01201DF0CBFE2CF0E5
S214004C0089FB1DF0F1FE1DF0D9F90EB070BD00BF96
S214004C100A0020FF420300009E5A0020CB610020BD
S214004C20C45400203E7304007C68002044730400D3
S214004C30F19503003C730400407304001649040019
S214004C40C4650020B8540020526B0020659603000F
S214004C500348044B834202D0034B03B11847704706
S214004C60806B0020806B002000000000064B074988
S214004C70C91A891048BF0131491003D0044B0BB143
S214004C8001481847704700BF806B0020806B0020EB
S214004C900000000010B5064C237843B9FFF7D8FF94
S214004CA0044B13B10448AFF300800123237010BDFA
S214004CB0B015002000000000C496040008B5044BA0
S214004CC01BB104490448AFF30080BDE80840CDE7B7
S214004CD000000000B4150020C4960400A3F5803A36
S214004CE0704700BF154B002B08BF114B9D46FFF7C2
S214004CF0F5FF00218B460F461148124A121A16F08D
S214004D0061FC0C4B002B00D098470B4B002B00D0BF
S214004D1098470020002104000D000B4816F098FF6D
S214004D2016F028FC200029002BF0F8F916F07EFF7C
S214004D30000008000000000000000000081000202E
S214004D400810002020620020B9BC010007B5012130
S214004D5020200DF1070201F039F858B10223012195
S214004D6020200DF107028DF8073001F03FF803B060
S214004D705DF804FB9DF807100229F8D002220948C6
S214004D8015F00EFB022301210DF1070220208DF8FD
S214004D90073001F02BF82BF01BF94FF4FA6000F007
S214004DA05FFEE4E728AB030038B501F0E3FF01F04F
S214004DB0ABF9012805D001F0A7F9022801D001F0CF
S214004DC0C9F9064D2B783BB901F09EF90128044637
S214004DD002D12BF086F92C7038BD00BF7C5B00201A
S214004DE010B5044600882BF0C7F8A37884F8440072
S214004DF0834202BF0123E3702371074B04F11C00BA
S214004E00C4E9073401F038F8224620880349BDE893
S214004E10104000F075BF00BF0FFD0200D9FC020075
S214004E2070B5C37804460D461646002B34D1D1B172
S214004E30214815F0B5FA0123E370E36CA6600BB1C8
S214004E40E06D9847E368F61A63699E4221D2217E98
S214004E501A480131C9B2217615F0A2FAA36D13B132
S214004E60217EE06D9847E5702BF0C5F815B32379E1
S214004E7003BBA268238A801A83421BD801231048EA
S214004E80237115F08DFA236DA3B1E06DBDE8704077
S214004E90184701232376E6E70029E4D1094815F0F0
S214004EA07FFA636DE660E5702571002BDBD0E06D60
S214004EB09847D8E770BD00BF50AB030061AB030056
S214004EC08FAB03007CAB030070B51E468388044698
S214004ED00D46C18002810BB1868070BD8178008846
S214004EE02AF036FF0123E370064BA680C4E903349C
S214004EF00C34204600F0C0FF29462046BDE870402E
S214004F002BF070B85BFD020010B501790446B1FACB
S214004F1081F1008849092AF092FF21796088B1FA68
S214004F2081F149092AF08BFF034B1A68A24204BF9D
S214004F3000221A6010BD00BFCC15002070B5437962
S214004F400446A3B100880E4E04F10805336813B179
S214004F500C4B1B786BB121792AF071FF64210A4B48
S214004F603460A3602846BDE870402BF03BB840880C
S214004F70E9E7064815F014FA054B3221A360F1E77D
S214004F80CC1500207D5B0020094F0000A5AB030078
S214004F903D4F000010B50446E0B10F4815F000FA8A
S214004FA001236371A37953B9217920882AF047FF3A
S214004FB0236B7BB1606B0121BDE81040184720468B
S214004FC0FFF7A2FF04F108002BF011F82046FFF7C8
S214004FD0B5FFEDE710BD00BFDBAB030010B5044620
S214004FE0F8B1104815F0DCF900236371A3796BB9AA
S214004FF021792088B1FA81F149092AF020FF236B34
S2140050007BB1606B0021BDE8104018472046FFF7D3
S2140050107BFF04F108002AF0EAFF2046FFF78EFF28
S214005020EDE710BDE6AB030010B5044668B10748CF
S21400503015F0B6F9637920461BB1BDE81040FFF7BE
S214005040CDBFBDE81040FFF7A5BF10BDF2AB030013
S21400505010B50E4C0E48214615F0A2F982210D48D7
S21400506015F09EF982210220A21E00F0BFFE014626
S21400507030B134F8022C0848BDE8104015F090B95D
S2140050800648BDE8104015F08BB900BF0A56002050
S21400509001AC03001CAC030027AC03006BAC0300A0
S2140050A038B5124C82212246022000F08FFEA51C45
S2140050B0014698B122880E4815F072F92A460D4B23
S2140050C003F1240153F8040B8B4242F8040BF9D188
S2140050D019889B78118093702623238035F8021C4C
S2140050E0054A0648BDE8384015F05AB9085600206B
S2140050F076AC0300F6AC03000A560020D4AC0300DE
S214005100034B1B781BB18B4201D82AF061BF704756
S214005110F86A002010B5044601460E4815F040F91E
S214005120012C11D10C4B0D481A884FF6FF739A428A
S2140051301EBF0022094B5A742AF067FE01F070FF6A
S214005140BDE8104001F042BE0448BDE810402AF019
S2140051505EBE00BF1DAD0300AC6A00205065002097
S21400516070B500241A4D1B4E3378A3421BDC002476
S214005170194D1A4E3378A3421BDC0024184D194EE5
S2140051803378A3421BDC00F0BFFF012816481CD171
S2140051902AF03BFE01F044FF01F018FEBDE8704027
S2140051A0124800F0D1BF2846FFF71AFE01346035DA
S2140051B0DAE728462AF00FFE01343435DAE72846C7
S2140051C02AF042FE01343835DAE72AF020FEE5E719
S2140051D018220020835B002038260020845B0020F5
S2140051E0E81F0020825B002050650020155100005B
S2140051F02DE9F04F87B0FFF753FFB94B05A805938D
S2140052002AF046FE054616F0D9F8B64CC2B21F2A5A
S214005210627004D9B44815F0C3F800F015FC2946AE
S214005220A01C16F05FFB05A82AF032FE054616F015
S214005230C5F8C2B21F2A84F8212001D9AB48EAE794
S214005240294604F1220016F04DFB05A82AF020FEA0
S2140052503226044600272578002D40F09F80A44C77
S214005260FFF77EFF2378DFF8C8A2DFF8C882A14FD9
S21400527000939AF8003098F8002039789E4815F088
S2140052808FF83A7898F800109AF8000053180344FC
S214005290DFF894B220782C4603445846DBB2AA4284
S2140052A000F3E482012B38BF0123944E029332466A
S2140052B0002335464FF482714FF6FF74029801338F
S2140052C0984213705180948002F10C02F6DC8C4BED
S2140052D08A498448AB6000F0EDFFE879AB68DFF8F8
S2140052E0449200EB400003EB800000F0B9FDEB7940
S2140052F0B9F800200133A242EB7103D07F49814800
S21400530001F0DAF84FF6FF73B9F800207B49D21A9D
S21400531018BF01227C4801F099FC4FF00009784C38
S2140053203A784A4500F3CA8200264FF00C09774ABD
S214005330DFF8C8B198F800003978B04200F3D2829E
S21400534046180C21002501FB06B19AF800009423AC
S214005350A8426F4A00F3E4820C253E7898F80030A5
S21400536000274FF070081E44064405FB06B5DFF81C
S214005370C8A15F4B1B78BB4200F3E58202995F48E9
S21400538000F0FCFD059B56491A468B4240F0EE8223
S214005390604807B0BDE8F04F15F002B8532D0FD1A6
S2140053A063784C2B40F04881A378502B40F0448122
S2140053B00122594B1A7005A82AF06AFD04464AE7EE
S2140053C0442D13D16378303B092BF4D8601C2AF0A7
S2140053D06CFD524B524A1978002386B2994202F16C
S2140053E06002E8DD22F8466C0133F7E7422D0BD168
S2140053F06378542B54D1A01C00F0D0FC494B188085
S21400540018462AF046FCD6E7582D33D8412DD2D977
S214005410433D152DCFD801A353F825F0DB570000E8
S214005420B7530000B7530000B7530000B75300004F
S214005430B75300008B550000B7530000B753000069
S2140054403D55000087540000B7530000B7530000D6
S214005450B7530000B7530000BD5600003956000091
S214005460B7530000B7530000B7530000B75300000F
S21400547033570000692D9ED1601C2AF016FD80B2BD
S2140054802AF0A2FD97E71B4B012019780023264A35
S214005490994202F1D0028EDD02F8CE0C0133F7E716
S2140054A0601C00F07BFC0546E01C2AF076FD01211E
S2140054B0024628462AF02DFD60211848184C03782D
S2140054C05943621865524FF4FA6111824FF44871DD
S2140054D05161164956831165013303706BE700BFAF
S2140054E00A560020646400203CAD030053AD030060
S2140054F07E5B0020815B002063AD030098160020D1
S2140055001017002048160020D01500209C1B0020F5
S214005510E0190020B3AD03007D5B0020835B002014
S21400552018220020AC6A00209C1C00207BFE020093
S2140055307F5B0020805B002090180020601C00F03D
S2140055402DFC00224FF034088146CC4F11462AF03D
S214005550E0FC3878CA4D08FB00F325F80390EA18FB
S214005560E3781046693B18BF012393702AF033FC9A
S2140055700021C44A3B785160012103FB08550B44C7
S2140055803B7015600F46117415E7601C00F006FCB2
S2140055900022114681462AF0BCFC3422B74DDFF8C3
S2140055A0E082287802FB00F328F8039008EB03015A
S2140055B0E3780846693B18BF01238B702AF00BFC82
S2140055C0B14A00231046916B31BB00EB83103423A5
S2140055D02A7802FB03838363AC4A00231046D2F882
S2140055E0A410F9B9D02202FB030034232A7802FB68
S2140055F00383C0F8A4305FB9A24A3B46114652F86E
S214005600040BA8B93422287800FB028241F8232034
S2140056102B7801332B70CEE60133042B02F14002C7
S214005620D1D1D9E70133042B02F1D002D7D1E2E77A
S2140056300133042BE3D1EBE7601C00F0AFFB8046A0
S214005640E01C2AF0AAFC0121024640462AF061FC32
S21400565060218F488F4D0278DFF854C251436B1893
S21400566025F801804FF44871198259618A495E8392
S2140056709965E178D024642904BF012199709CF8CB
S2140056800030DFF808E25C430EEB04010EF804304D
S2140056904FF400744C8003240C718C7102EB4204AE
S2140056A005EB441532240133DBB201324B718D60B9
S2140056B081F8A04002708CF800307CE6601C00F098
S2140056C06DFB00224FF0380A8146DFF8DC81114678
S2140056D02AF01FFC98F80030704D0AFB03F325F8FB
S2140056E003904FF00109EA1882F80490E37873B14A
S2140056F0E01C00F053FB0022044611462AF009FC89
S21400570098F800300AFB03535C8083F806906448E0
S2140057105D4A03789901535498F8001002EB8314FD
S214005720C1EBC10205EBC2054A1C656388F8002080
S214005730D2E6601C00F032FB8046E01C00F02EFB38
S2140057400546601D2AF029FC044602460121404613
S2140057502AF0DFFB2246284601212AF0DAFB6020E9
S2140057604FF4487CDFF828E14A4A9EF8003000FBF8
S21400577003F422F80480DFF820811119A1F810C084
S214005780C1F814C04E83C1F85880591CC9B24843AA
S2140057901418A4F810C0C4F814C06683C4F858805F
S2140057A0942415523F4D981C8EF800002878DFF898
S2140057B004C1444303EB430301EB41010CEB040E2D
S2140057C002EB431302EB41120CF80400CEF804304F
S2140057D0CEF8082001302870EDE5601C00F0DEFAF7
S2140057E08046E01C00F0DAFA0022054611464046E4
S2140057F02AF08FFB00223824114628462AF089FB1F
S2140058002948264A03784FF0000E04FB03FC22F8D2
S2140058100C804FF0010802EB0C0181F806E081F8DD
S214005820048003EB0801C9B24C4302EB040C155389
S2140058309C1C047070241D4D8CF806E028788CF8AB
S21400584004804443DFF870C0C3EBC303C1EBC1015F
S2140058500CEB040E02EBC30302EBC1020CF80400CF
S214005860CEF80430CEF808204044B4E74679013537
S2140058708E4284BF04714471D03010E5845B0020F2
S21400588038260020506500209C1B00209C1C002011
S214005890835B00201822002001510000E81F002032
S2140058A0805B00207F5B0020825B00207E5B002008
S2140058B0815B0020E019002090180020B9F1000F4D
S2140058C006D016F8052C02EB420204EB8204B46004
S2140058D03146584601F07EFD09F101090BF1D00B67
S2140058E00C361DE571180AD0481E09FB00B0C079B9
S2140058F000EB400004EB800409FB01B08460104616
S21400590009FB0151039201F01DFB39781C48314414
S21400591009FB015101F084F8039A0136403209E58B
S214005920F54218BF11F8050C03911EBF00EB4000AE
S21400593004EB80048C6003FB052000F081FF0399D4
S21400594001350C3101E5F74218BF15F8053C29462C
S2140059501CBF03EB430304EB830408FB07A018BF3C
S214005960AC6000F043FE01370C3502E513F8011D6C
S21400597000297FF408AD3B2102F8011C03E500BFB7
S214005980DC1F002007B5012121200DF1070200F0E1
S2140059901DFA18B99DF80720024B1A7003B05DF87F
S2140059A004FB00BFF86A002007B5064B8DF8070019
S2140059B0187001210DF10702212000F017FA03B03C
S2140059C05DF804FBF86A002007B5022101200DF1FE
S2140059D0060200F0FBF938B9044814F0E1FCBDF803
S2140059E0060003B05DF804FB0020FAE7D0AD030024
S2140059F007B50221ADF806000DF10602012000F001
S214005A00F5F9014610B1034814F0CAFC03B05DF87E
S214005A1004FB00BFF1AD030010B5FFF7D5FF044649
S214005A200146074814F0BCFC0121064814F0B8FCF7
S214005A3024B9BDE810400120FFF7DABF10BD00BF53
S214005A4021AE030033AE030008B5044814F0A8FCEA
S214005A5000F0DCF92AF0BCFA2AF0B7FA49AE0300E7
S214005A6038B50446084D094B28462B6000F004FA6A
S214005A70002C18BF21462846BDE8384008BF4FF422
S214005A8096712AF0AFBA00BF3C270020C9FE02007C
S214005A902DE9F043384D91B008AC0746894690464C
S214005AA00FCD0FC495E80F00002684E80F000125EF
S214005AB00323324C3248CDE90366CDE905668DF8FE
S214005AC00E300796029534F0C3FD2E4834F0C0FD24
S214005AD032462D4920468DF8176004F0ADFD33465A
S214005AE032462A498DF81900009020468DF82390FA
S214005AF0CDF82C808DF8216004F0B8FD0A90204681
S214005B008DF8097004F01AFD204608AA05A904F0CD
S214005B10D3FD02AA204603A92BF058FB4FF40072CF
S214005B201B4B5A62194BE560626A920510D46BB93A
S214005B304FF40072164B11485A6204F0FFFC1148ED
S214005B4034F089FD002011B0BDE8F083013BEBE79F
S214005B50002BEDD0094908A82BF06BFB4FF4007220
S214005B600B4B06485A6204F0E9FC064834F073FD15
S214005B70BDF82000E7E700BF104A04000040005AC6
S214005B80B84C0400B44C040080841E0040420F0051
S214005B900060005A0122034B1870034B1980034B18
S214005BA01A707047865B0020B46A0020855B002070
S214005BB0F8B5454B1B780BB90020F8BD434B1B7856
S214005BC0012B03D1BDE8F8402AF081B9404B1C8870
S214005BD04FF6FF739C42EFD03E4834F039FD002369
S214005BE0260AE4B21A462146304604F067FC012E27
S214005BF0354604F0010335D015D9B51E012DDBD886
S214005C00002B0BBF4FF480754FF080754FF470611A
S214005C104FF070610BBF01274FF480370F204FF411
S214005C2070202D4B11E0002B0BBF4FF480754FF00A
S214005C3080754FF470614FF070610BBF01274FF411
S214005C4080370F204FF47020244B1A6802401CD077
S214005C50BA421AD01A680A4032D11A6822EA0102F9
S214005C602A4316E0002B0BBF4FF480754FF080756B
S214005C704FF470614FF070610BBF01274FF480370F
S214005C800F204FF47020164BDFE71A6822EA000256
S214005C903A431A602AF01BF9054600288CD00836CD
S214005CA044EA06102A460321C0B2FFF7F1FE40F68A
S214005CB0FF73684300F2FF70B0FBF3F080B27CE73E
S214005CC095427FF479AFC8E7855B0020865B0020AD
S214005CD0B46A0020B84C040028C3035020C3035005
S214005CE024C3035010B5044C237823B9034834F07A
S214005CF0AFFC0123237010BD885B0020B84C040065
S214005D002DE9F0431F4C85B0074688469146FFF7BD
S214005D10E9FF23781BB902F081F8012323707BBAD0
S214005D20ADF80C3030220023174E02FB03F4315D31
S214005D30A51901BB012333554FF0FF3304F11000C2
S214005D4012493044AB606F80C5F80480C5F80C90EB
S214005D5009F0F6FA04F10801042231440C4B0095D0
S214005D6003A802F031F9A96802460A4814F018FBA5
S214005D7005B0BDE8F0830133102BD6D1064814F0E9
S214005D800FFBF5E7875B002064270020F3FE020088
S214005D9005FF020056AE030084AE030080B1027811
S214005DA0A2F14103032B0BD840783038C0B2082844
S214005DB006D8054B134413F8413C40EA03207047CD
S214005DC04FF6FF70704700BF304A040008B50B4618
S214005DD042B101460448006803F03AFABDE80840BC
S214005DE02AF0ECB8022008BDBC65002008B50B46BA
S214005DF042B101460448006803F0B2FBBDE8084023
S214005E002AF0DCB8022008BDBC650020F0B50026EC
S214005E10124F8DB0FF2300930A223346386802A93A
S214005E202AF091FFC0B102AB1D4603EB800404E0EC
S214005E3055F8043BB34228BF5E1CAC423868E9D92B
S214005E40296803F013FD0028F2D02D28F0D00DB0FD
S214005E50BDE8F0402AF0B2B80DB0F0BDBC65002039
S214005E6028B1034B0360034B4360002383607047F5
S214005E701900000364650020FF2307B50021044ACB
S214005E800093083009F0E0F903B05DF804FB00BFAA
S214005E90DFFF02000B4604490246086803490978FA
S214005EA008B12AF0C3B87047702A00208A5B002029
S214005EB0F7B50C4618B12921194834F020FC24689F
S214005EC023685E795F8830463946FFF7E3FFF0B116
S214005ED08568E5B1A089227D3946904291BF0020B1
S214005EE0801AA36880B294BF03469B18E27C009099
S214005EF03046A8470138032803D8DFE800F0080F2B
S214005F000B0D002420462EF050FA204600E081209B
S214005F1003B0F0BD8024F5E79324F3E78724F1E788
S214005F20ACAE0300F8B515460D4A044610680D4A97
S214005F300B46117850B122462AF078F8034628B16D
S214005F4000210C27C678B14201DB0020F8BD07FB14
S214005F5001F45A681019125BAA42F7D00131F2E731
S214005F60702A00208A5B002008B5034B1B6803B12B
S214005F709847002008BD00BF6C2A00202DE9F74F87
S214005F8004460D460026454B454F1860454B197094
S214005F9033010021F85C013610F026FA0C2EF7D1FA
S214005FA00C2D28BF0C254FF0000901953C4EDFF85C
S214005FB000A13D4DDFF8FC80019B4B4502DC03B0A1
S214005FC0BDE8F08F23784FF0000B33706388738042
S214005FD0A388B380A379C6F80880B371E379C8F8BC
S214005FE0005088F804304FF00003A768A8F8063081
S214005FF0E3795B450ADC012116F8100B10F0F4F982
S21400600008F1080809F101090C34D5E74FF0000340
S21400601038886B812880FB784FF0000C2B81BA788B
S214006020C5F804A0002A00920CBF802240222A73E2
S21400603079680AF10C02634513DC03EB43030AEBB1
S214006040830ABB6843B1009A4FF6FF71B2FA82F238
S214006050164B52092EF039F914350BF1010B0C379B
S214006060C6E7B1F800E00CF1010C22F80CEC91F850
S21400607002E00C3202F816EC91F804E00C3102F85B
S21400608015EC11F809ECBEF1010F14BF4FF0100E1D
S2140060904FF0110E02F814ECCDE700BF702A002076
S2140060A0A84100208A5B002074300020B15E00000A
S2140060B0742A0020F4320020014B1860704700BF9D
S2140060C0682A0020014B1860704700BF6C2A002029
S2140060D070B5128805460E46FFF724FF044670B1D9
S2140060E002790499806815F0BFFA064B1B680BB955
S2140060F0002070BD3146284622889847F8E786205B
S214006100F7E700BF682A002008B50FF009FA022852
S21400611006D0012806D0044B18784000C0B208BD4F
S2140061200120FCE70220FAE7895B0020054B10B54A
S2140061301C682CB1FFF7E8FF2346BDE8104018475F
S21400614010BD00BF642A0020014B1860704700BFD6
S214006150642A0020034B1A781AB901221A700BF031
S2140061603FBA7047895B00200022024B1A70FFF787
S214006170DDBF00BF895B002037B50446002832D05B
S2140061800FF0CEF9022830D160892EF070FCE0794D
S214006190237A003818BF0120012B637A08BF40F02D
S2140061A008000BB140F0100063890BB140F004000A
S2140061B0257CA188A2790DB1E36873B90C4B10F069
S2140061C0EFFC2178084610F067FD2DF079FF0028D7
S2140061D014BF0320002003B030BDCDE90035054BC9
S2140061E010F0DEFCEDE70220F5E70120F3E700BF44
S2140061F077FF030040CF030008B50DF04FFB0146C4
S21400620030B1044814F0CCF8BDE808400DF0EABE02
S21400621008BD00BF1EAF0300034B044A5B7C012190
S21400622003201370FFF7E2BD506500208B5B002053
S21400623010B50446FFF7F0FFB4F57F4F0BD10024EE
S2140062400F4B1A8813449C70FEF702FF2046BDE8E9
S2140062501040FFF705BC4FF601739C4204D1BDE821
S2140062601040084829F0B9BD4FF602739C4205D18C
S214006270BDE81040044B1878FFF796BB10BD00BF72
S2140062800856002050650020F86A002010B5074C1C
S214006290012122460320FFF799FD28B92378044AF6
S2140062A0003B18BF0123537410BD00BF8B5B00205A
S2140062B050650020F8B5564B564C1A884FF6FF73BB
S2140062C09A4218BF03234FF0080218BF2370524BA0
S2140062D030251A7032225A70DA70DA7133229D70C5
S2140062E05D7137251A724FF400129D714B4D36269C
S2140062F0C5644B4D426405654A4D012285654A4D8D
S2140063001E71C565494D86184566494DC667856642
S214006310484D494E0567494D80F848204567202579
S21400632080F8785080F8845000F12105C0F8885035
S214006330434D80F85420C0F88C5080F8602080F8D8
S2140063406C20C0F8806080F89020C0F89440C0F8B8
S214006350B8303C4B3C4CC0F8BC300223C0F89840E8
S2140063603A4C80F8C030C0F8A4400F24384B80F870
S214006370A840C0F8C430374B374CC0F8C83082232A
S214006380C0F8AC40354C80F8CC30C0F8B04009249A
S214006390334B344DC0F8D030334B80F8B440C0F89F
S2140063A0D4302C7C314B80F89C20C0F8A00080F8BC
S2140063B0D820C0F8DC3044B12D4B80F8E420C0F87B
S2140063C0E03005F11103C0F8E8304FF0000CCA7950
S2140063D08E6802EB42039F00443006EB830326F8E8
S2140063E007C0586001200D349870DC701318CB710C
S2140063F0FFF7C8FAFFF74AFFFFF786FE012806D127
S2140064002B7C23B1BDE8F840164829F0E6BCF8BD61
S214006410AC6A0020F96A00208C5B0020494A040020
S21400642001002000484A040002002000474A0400F9
S21400643003002000464A0400050042000400420013
S21400644007003000FDFF210012001001004042004E
S214006450444A040000FF4401344A04000600420097
S214006460085600205065002002FF2001F86A002030
S21400647001FF100113B504460D4829F015FC6422EF
S214006480C0F30F43637083B2B3FBF2F3A0782370BC
S2140064902022012129F0ECFDA0782122012129F0FB
S2140064A0E7FD0449201D02B0BDE8104029F09ABD62
S2140064B0AC6A0020E09304000B7870B583704CF64D
S2140064C01E0303804FF02013C362012380F8303090
S2140064D080F83C30C3180364124B0446436402231E
S2140064E0114A80F84830114B8263C3644063CA790E
S2140064F08D6802EB420305EB830004F12C06466030
S2140065000B4E45F8236000238360531CCB71094B68
S214006510201DC4E90134FFF7AFFC2046BDE87040FB
S214006520FFF7A8BFFDFF2100210020004A4A040013
S2140065300100010375640000437B044A01211370C7
S21400654000781130C0B2FFF751BC00BF965B002048
S21400655038B504460078054D11302A460121C0B2F0
S214006560FFF734FC08B92B78637338BD965B0020C0
S214006570024B53F8200029F056BE00BF54330020CB
S214006580012908B506D0022907D049B929F042FEEC
S214006590002008BD29F041FEFAE729F041FEF7E7A2
S2140065A0024813F0FDFE0120F3E700BF4BAF0300E7
S2140065B010B4054C114654F820001A46BDF80430B5
S2140065C05DF8044BFFF7DCBF54330020002310B502
S2140065D0044683810364A0F844304830FFF74CFC3F
S2140065E0014BC4E9123410BD0D02030038B5044651
S2140065F00B781A4A43700D4642F82300FFF7E6FF71
S2140066002046FFF7A5FF4FF4401323610123144AE9
S2140066102375A261134A84F82030E261124A84F896
S2140066202C306262114A84F83830A26204F10C02FF
S21400663022630F4A04F10D036263E363EA79A868F4
S21400664002EB420300EB830110344C60094C40F827
S2140066502340094B8B60531CEB7138BD543300202C
S214006660955B002008002000FA6A002000FF30003A
S21400667001FF100102010104B165000010B470248E
S214006680427B0D48013A012904FB020006D002298C
S21400669008D059B95DF8044B29F0BCBD5DF8044B31
S2140066A029F0BBBD5DF8044B29F0BABD03485DF880
S2140066B0044B13F075BE00BF9018002067AF0300B0
S2140066C0B0F85C302DE9F0418B4204460E4638D0D7
S2140066D0437B077C8BB31C4A12789A422DD37025D5
S2140066E01A4A013B05FB032390F80F801B7B4246AA
S2140066F029F0A7FDB845054601D1FF281FD13A4627
S2140067003146204694F8903029F09BFD2F460546EA
S214006710552212216078A4F85C6029F0A9FCFF2FAE
S21400672003D039462046FFF7A9FFFF2D09D029469A
S2140067302046BDE8F04129F0C4BDFF25DFE7074647
S214006740E6E7BDE8F08100BF7E5B002090180020E1
S21400675041688268C978D27849B112B10321FFF73F
S214006760AFBF837B002B0CBF01210221F7E72AB1C4
S214006770837B002B0CBF02210121F0E7014813F0B8
S2140067800FBE00BF78AF0300037BD3B14368DA784F
S21400679012B18268D278A2B91B7933B1837B002B01
S2140067A00CBF04210521FFF78BBF83681B792BB133
S2140067B0837B002B0CBF05210421F4E7014813F06E
S2140067C0EFBD7047AAAF0300084A437B052113704C
S2140067D0837B5370C37B9370037CD370037B1371EE
S2140067E000780E30C0B2FFF701BB00BF975B0020F9
S2140067F038B5044600780C4D0E302A460521C0B246
S214006800FFF7E4FA20B1BDE83840084813F0C8BDE9
S2140068102B7863736B78A373AB78E373EB7823748E
S2140068202B79237338BD00BF975B0020E6AF0300CB
S214006830024B53F8200029F08EBD00BF7C330020A9
S214006840F8B504460B78424A43700D4642F82300DA
S214006850404E29F09EFDFFF7CBFF6268A3683E48D6
S2140068603E49D6641165D4655065C3E91410DE64EC
S214006870DC654FF0987302266361012304F10C0176
S214006880E16137491032216204F10D01A1623549F8
S2140068902376E16204F10E016163334984F8243003
S2140068A0A16304F10F012164304984F8303061643B
S2140068B004F11001E1642E4984F83C3084F8483035
S2140068C0216584F85460A265E879A96800EB400267
S2140068D001EB820704F1140CC7F804C04FF4817C66
S2140068E0244F41F82270C218D2B202EB420241F89D
S2140068F022C001EB820700227A601F4A84F87030BB
S21400690022661E4A84F88830A2661D4A1D4BE2663F
S2140069101D4AC4F88C3062671C4A8319A26704F1CA
S2140069205C02C4F88020DBB2194A03EB4303C4F8C8
S214006930842084F8646084F87C6001EB8302603411
S2140069405460144A033041F82320E871F8BD00BFB4
S2140069507C3300205167000019030300896700009C
S2140069600100200102001001030030010400300184
S2140069700500210101FC01064A0021004C4A0400E2
S214006980510010004E4A04004F4A040055002100F2
S2140069906F0018001200010470B50D460646144636
S2140069A013460A4601461A4813F0FAFC25B9204653
S2140069B0BDE87040FFF73CBC072D05D121463046A8
S2140069C0BDE8704000F0CABC4FF601439D4205D1B9
S2140069D021463046BDE87040FFF72ABF062D05D198
S2140069E021463046BDE8704000F066BAB5F5817FB6
S2140069F005D121463046BDE87040FFF7B9BD202DD1
S214006A0004D12046BDE8704000F0ECB870BD00BF71
S214006A1015B003000148FFF74FBB00BF996900009F
S214006A204FF4C01330B5036001230371074B8C6825
S214006A308360CA7902EB420304EB8305686004486E
S214006A4044F82300531CCB7130BD00BF504A0400ED
S214006A50040001010368064A0C2113604368536072
S214006A6003891381438922205381FFF7BFB900BFF2
S214006A70A433002010B50368044686B0FBB1114865
S214006A8013F08EFCA37B104A8DF804304FF482730B
S214006A90ADF806300123CDE90223002301A80493B4
S214006AA08DF81430FFF768FB2046618929F081FCD9
S214006AB02046FA2150F8143B594329F093FA06B0C1
S214006AC010BD00BF48B003002000000110B5064C02
S214006AD0236843B1054813F063FC2068BDE8104006
S214006AE0418929F066BC10BDB033002069B00300B0
S214006AF070B5364910460C68BDF81020002C5ED0E4
S214006B0003285CD8DFE800F0021E2745002B5AD089
S214006B10022A58D91D78B3F80160291E18BF012132
S214006B2032462B4813F03CFC2DB13146204629F066
S214006B3040FC002070BDE573FA206368584329F0D6
S214006B40D8FAF6E7234813F02BFCE37B002B38D06B
S214006B500023E373F0E7002B35D0032A33D91D68F2
S214006B601D48294613F01CFC1C4B2A1F9A4201D9CB
S214006B700220DFE723680BB19D42F9D823899D42A6
S214006B80F6D3E37B6560B3B9FA20684329F0B1FA1F
S214006B9011E0002BCED0012ACCD91D8810482946FA
S214006BA013F0FEFB002DE3D063689D42E0D8E37B44
S214006BB02581002BE8D12046FFF74CFFB9E70120DE
S214006BC0B8E70420B6E70320B4E700BFB0330020E0
S214006BD08CB00300C3B00300E2B00300FCFF6D00FE
S214006BE00DB1030038B5154B1C6834B3F0B92168F5
S214006BF0134813F0D5FB23683BB16268934204D276
S214006C00104813F0CDFB6368236004F11405284692
S214006C1029F0EDF9236823B1FA212846594329F0D3
S214006C20E1F92046BDE83840FFF714BF032804D139
S214006C306189054813F0B4FBF3E738BDB033002094
S214006C4038B1030066B103009BB1030070B53E4B3C
S214006C500D46044609781860002A6FD101231A46AB
S214006C60A1730021E1730121A1814FF46151C4E9B0
S214006C7000132823354E22810C21324622206381C0
S214006C80FFF7A4F860B9D6E900230AB19A4207D301
S214006C90318999429FBFC4E90023738921816381AA
S214006CA02B4B2C4AE363042384F8403084F84C30A2
S214006CB0E3182365284BA2646365022304F10802E7
S214006CC0E265264A84F85830226604F10A02A26673
S214006CD0234A84F8643084F8703004F10C03E266CA
S214006CE063676464EA79A86802EB420300EB8301F9
S214006CF004F13C064E601B4E40F82360FA261A4B01
S214006D001A488B60531CEB71FFF7DCF9208904F1FD
S214006D101405704329F0EDF96189204629F049FBF6
S214006D20134B2846C4E90534FFF7A6F8216849B195
S214006D3028467143BDE8704029F054B94FF4F0730B
S214006D4002228DE770BD00BFB0330020A4330020C0
S214006D50000023010100230002002100030021019E
S214006D60FDFF210020000105F16A0000CD6A000049
S214006D70756A0000134B10B51C680CB3E37BEBB1CF
S214006D8029F039F92369C01A002809DB0E4813F0E8
S214006D9007FB0023FA20E3736368584329F0A9F938
S214006DA0E37B5BB12489FA235C4329F0ADF9A0426A
S214006DB006D02046BDE8104029F09BB96468F2E78B
S214006DC010BD00BFB0330020C8B1030038B50024A2
S214006DD0044D55F8040B08B129F0FEFA01340A2CCC
S214006DE0F7D138BDB4330020042908B50AD172B1F2
S214006DF06BB113781BB929F01AFB002008BD29F0E7
S214006E000CFBFAE7034813F0CBFA0120F6E7032061
S214006E10F4E700BF02B2030010B4054C114654F864
S214006E2020001A46BDF804305DF8044BFFF7DCBFBF
S214006E30B43300200229024608B50ED004D839B96A
S214006E40104629F0F4FA06E04029F9D0412907D186
S214006E50104629F0E2FA002008BD29F0F2FAFAE717
S214006E60024813F09DFA0120F6E700BF22B20300A5
S214006E7010B4054C114654F820001A46BDF80430EC
S214006E805DF8044BFFF7D6BFB4330020426B094BC6
S214006E9052791A7082785A70C2789A70826B12B1E0
S214006EA090F83C20DA70007804210930014AC0B21C
S214006EB0FEF79CBF9C5B0020024B53F8200029F095
S214006EC0DCBA00BFB433002038B504460078084D5D
S214006ED009302A460421C0B2FEF778FF30B96B7835
S214006EE0A370AB78E370EB7884F83C3038BD00BF15
S214006EF09C5B002038B504460078114D09302A46C0
S214006F000421C0B2FEF762FFC8B9A3782A78022B24
S214006F100CD004D863B9204629F089FA01E0FF2B8B
S214006F200AD02046BDE8384029F056BA002AF2D1E9
S214006F30204629F072FAF4E7002AF9D1EBE738BDCB
S214006F409C5B0020F8B504460B78284A0D4642F8AC
S214006F5023004370FFF7B8FF636B254A5C631A6330
S214006F602046FFF7C7FF204629F036FA4FF4801375
S214006F7063600123626BA66B0532E2601D4A2372D2
S214006F802261A21C2375A26166B11B4A84F82030D8
S214006F90E261E21C6262194A84F82C3004F13C0378
S214006FA0A26223630627EA79A96802EB4203002E51
S214006FB021F8237001EB83000CBF02230423C37067
S214006FC0012383700E4B04348360531C4460DBB291
S214006FD00C4C03EB430341F8234001EB83000023F2
S214006FE04360094B02328360EA71F8BDB433002077
S214006FF0570403000340300101FF300102FF100177
S214007000716E000008000100196E000028B1034BE5
S2140070101B78834234BF002001207047805B00202D
S21400702070B500250A4C0B4E3378AB4200DC70BDC1
S214007030D4F8A42042B123791BB16079FFF7E6FFAC
S21400704010B9104628F0BAFE0135D034ECE700BF80
S2140070509C1C0020815B002008B542790146104642
S214007060FFF7D4FFA8B1CB780A48013A042B00EB0F
S21400707082100ED8012B08D81BB9BDE8084029F0AD
S214007080CCB9BDE8084029F0D2B9BDE8084029F0DF
S214007090D8B908BD9C1B002008B5427901461046A9
S2140070A0FFF7B4FFA8B1CB780A48013A042B00EBEF
S2140070B082100ED8012B08D81BB9BDE8084029F06D
S2140070C0B6B9BDE8084029F0A8B9BDE8084029F0DF
S2140070D0B8B908BD9C1B002010B586B00446FFF763
S2140070E013F8012830D1E278042A2DD8DFE802F020
S2140070F013323403030061790846FFF787FF58B35D
S2140071001648032A00EB811050F80C3C58791DD124
S214007110003818BF012063784FF480728DF8043071
S2140071204FF48273ADF806300623ADF8083001231D
S2140071308DF80B3000238DF80A0001A8CDE9032353
S2140071408DF81430FFF718F806B010BDB0FA80F0CE
S2140071504009E0E70020DEE70220DCE79C1B002079
S21400716010B586B00446FEF7CFFF012830D1E2788E
S214007170042A2DD8DFE802F01313320303006179E6
S2140071800846FFF743FF48B31548032A00EB811073
S21400719050F80C3C5B791DD11A1E18BF012263788B
S2140071A08DF80A208DF804304FF48273ADF806305F
S2140071B00623ADF8083001234FF480728DF80B30AB
S2140071C0002301A8CDE903238DF81430FEF7D4FF81
S2140071D006B010BDB3FA83F25209E0E70222DEE7FA
S2140071E09C1B002010B586B00446FEF78DFF0128D4
S2140071F012D16378094A8DF804304FF48273ADF8E3
S21400720006304FF48073CDE90223002301A80493CF
S2140072108DF81430FEF7B0FF06B010BD0800070169
S21400722010B586B00446FEF76FFF012820D16278BD
S214007230104B8DF804204FF4827294F8A01094F846
S214007240A10059701870ADF8062004934FF48072B0
S2140072500223094901A88DF81430CDE90212FEF781
S2140072608BFF94F8A130013B18BF012384F8A130AE
S21400727006B010BDA05B00200800050110B583789D
S214007280044633B30379022B0AD142791046FFF73E
S214007290BDFE28B10F48013A00EB821029F0D1F864
S2140072A0A379022B02D12046FFF716FF2046FFF7F0
S2140072B0B7FF022360781221A4F86C30552228F01C
S2140072C0D7FE04F1A8004FF4FA71BDE8104028F08C
S2140072D089BE10BD9C1B00204388094A08211380E4
S2140072E08388538083681B8A938090F8A0309371BC
S2140072F08379D37100780430C0B2FEF777BD00BF43
S2140073008A56002038B50D4604460178114813F019
S21400731047F84FF602739D420ED10F4B1B782BB9E0
S21400732063712046BDE83840FFF7D6BF62790AB1E0
S2140073309342F6D20123F3E7B5F57F4FF1D120460D
S21400734029F038F9A378022B0CBF01220022A3688B
S2140073509A70E6E73EB20300805B0020024B53F8CB
S2140073602000FFF7CFBF00BFDC33002038B504464F
S2140073700078144D04302A460821C0B2FEF726FDD8
S21400738020B1BDE83840104813F00AB82B88638057
S2140073906B88E978A380AA88A3681A82AB7984F8F8
S2140073A0A030EB79A371094B1B780BB9637138BD1C
S2140073B009B19942FBD9064812F0F2FF237801334F
S2140073C0F4E700BF8A56002058B20300805B002016
S2140073D081B20300F8B504460B784B4A0D4642F8D6
S2140073E023004370FFF7C2FF484B04F1A800C4E92E
S2140073F02A34FEF741FDA268454BD465D364454B5D
S21400740002265365444BA11C13654FF44013E360FA
S21400741001236161E1624149103221632265211D29
S2140074203F4AA1633F484049626504F1A002A0615B
S214007430E163E265E01C611D3C4A206261643C48F1
S2140074403C492266A21D2374237784F8283084F8EA
S214007450343084F84030A16484F84C6084F85830A6
S21400746084F864306062A266E879AA6800EB40019E
S21400747002EB810704F10C0CC7F804C04FF0060CB1
S2140074802D4F42F82170C118C9B201EB410142F8F4
S21400749021C002EB810700217960284F84F88030F4
S2140074A02767274F84F89830A767264F264BE7674D
S2140074B0264F84F8746084F88C60C4F89C3004F11D
S2140074C06C06831CC4F88470C4F89060204F214E6C
S2140074D0DBB203EB4303C4F89460C4F8887002EB95
S2140074E083067034746008261B4C42F82340C31C85
S2140074F0DBB203EB430302EB8304043042F8236061
S2140075006160E871F8BD00BFDC330020A104030011
S214007510FB0403004D0503007D72000001FF3001EF
S21400752004FF20011000300102FF200105FF30019A
S21400753000FF300103FF2101070001084A00210077
S214007540524A040051001000544A0400554A0400F0
S214007550550021006F0018001200010400239B6AEA
S214007560B3F5804F03D21968064A914203D0002330
S214007570037083607047012202709A689B694260BC
S214007580F7E700BF07B0CD5E024B034A1A602AF049
S21400759035BC00BF0000002002020FF073B53F4B61
S2140075A004461A781AB102221A7002B070BDCDE9EC
S2140075B000220028F9D001261E7032F0ABFF384DAD
S2140075C0384B186017F0CEFC2B785BB902F0F2F956
S2140075D040B935480823354A3549006801F038FE79
S2140075E000B92E70334B5A68E260334A9A601A6EBE
S2140075F022605A6E6260D3F87021A2601B6E5C0433
S2140076002CD52E4AD368D807FCD42D4B1A68531CA9
S21400761029D04FF4801393402A4A13660423294C3A
S2140076204FF0804223664FF4806323661023236660
S2140076304FF400536846236601A92266636628F065
S214007640D1FF009B2366019B63662B78002BACD092
S214007650164B1A6822665B686366A6E71A4AD36802
S214007660D907FCD4D1E7194B1B78002BD6D1184B81
S2140076705A68144B12B94FF480121A66154A5268AB
S21400768012B94FF400121A66134B5B68002BC5D173
S2140076904FF480020B4B1A66C0E700BFA35B0020C6
S2140076A0A45B002014340020BC65002018340020A1
S2140076B0007108000080004455CEAC000000044075
S2140076C0886500200090004400000450A25B002063
S2140076D00080055000C005500000065038B5224D09
S2140076E004462B78012B02D001232B7038BD0028CE
S2140076F0FCD028F09CFF013009D028F098FF40F21B
S2140077000113984203D0194AD368DB07FCD42268D9
S214007710174B1A6662685A66A268C3F87021E26858
S214007720D40744BF00229A60124B1A68013213D164
S214007730114A127882B911494968C80748BF1A60C9
S2140077400F4A5268D10744BF01221A600D4A526898
S214007750D20744BF02221A6017F00CFC0A4B1868C6
S21400776032F0D3FE0023C0E7A35B002000000440F5
S2140077700080004488650020A25B00200080055041
S21400778000C00550000006501434002070B50024D8
S214007790A36AB3F5804F23D21A68134B9A421FD1BF
S2140077A0124E337813F0FD0518D14FF4803410488C
S2140077B0FFF7F4FE032004F04FFC0E4B0320DC60C2
S2140077C004F02EFC0C4B1C61AB6ADB699847044640
S2140077D00748FFF783FF0CB901233370204670BDBE
S2140077E04FF48174FAE700BF07B0CD5EA25B0020BD
S2140077F00434002000A000440090004413B5204B41
S2140078001B7803B9FEE700231E4CCDE900336A4619
S21400781008231D49206801F01BFDF8B91B4AD2F861
S2140078204031D2F840211F2B4FF0010311D9203AE6
S2140078309340019A1A43019208236A461249206827
S21400784001F08EFE124B134A1A602AF0D7FA02B0E5
S21400785010BD9340009A1A430092EDE72D28F1D10F
S2140078600A4AD2F84031D2F840211F2B4FF00103CC
S21400787085BF203A93409340019398BF0093DBE77F
S214007880A35B0020BC650020007108000080004457
S214007890000000200B020FF038B50025AB6A044646
S2140078A0B3F5804F10D21B6BB3F5804F0CD2074850
S2140078B0FFF774FEAB6A20461B6B5B689847BDE813
S2140078C038400248FFF70ABF38BD00BF203400200A
S2140078D013B50024A36A0190B3F5804F13D21B6B37
S2140078E0B3F5804F0FD20948FFF758FEA36A01216F
S2140078F01B6B01A89B69984704460448FFF7EEFEF9
S214007900204602B010BD4FF48174F9E72034002001
S21400791070B50026B36A0446B3F5804F0D4612D202
S2140079201B6BB3F5804F0ED20848FFF737FEB36ADD
S21400793020461B6B29469B69984704460348FFF779
S214007940CDFE204670BD4FF48174FAE72034002047
S21400795070B50026B36A0446B3F5804F0D4612D2C2
S2140079601B6BB3F5804F0ED20848FFF717FEB36ABD
S21400797020461B6B2946DB69984704460348FFF7F9
S214007980ADFE204670BD4FF48174FAE72034002027
S214007990F8B50027BB6A0446B3F5804F0D46164679
S2140079A011D21B6B7BB10948FFF7F8FDBB6A204676
S2140079B01B6B324629465B6A984704460348FFF726
S2140079C08DFE2046F8BD4FF40174FAE720340020FF
S2140079D070B50026B36A0446B3F5804F0D4612D242
S2140079E01B6BB3F5804F0ED20848FFF7D7FDB36A7E
S2140079F020461B6B29469B6A984704460348FFF7B8
S214007A006DFE204670BD4FF40174FAE72034002066
S214007A10F0B50027BB6A0446B3F5804F0D46164600
S214007A20ADF5337D20D21B6BB3F5804F1CD21048CA
S214007A30FFF7B4FDBB6A20461B6B40F2C1225B6AAF
S214007A4001A99847044630B10948FFF747FE20468B
S214007A500DF5337DF0BD836A32461B6B2946DB6A23
S214007A6001A898470446EFE74FF40174EFE700BF1C
S214007A702034002010B50024A36AB3F5804F10D23E
S214007A801B6BB3F5804F0CD20748FFF787FDA36A40
S214007A901B6B1B6B984704460348FFF71FFE2046E8
S214007AA010BD0124FBE700BF20340020F0B58FB0E6
S214007AB0044601A80E461546FFF7EEFE9DF80C306C
S214007AC0012B12D1B5F5402F27D8B4F5402F24D876
S214007AD06319B3F5402F20D821462A46304613F0C6
S214007AE001FF002420460FB0F0BD0027BB6AB3F5A7
S214007AF0804F15D21B6BB3F5804F11D20A48FFF7A3
S214007B004DFDBB6A2A461B6B314620465B6B984789
S214007B1004460548FFF7E2FDE4E740F20244E1E7E9
S214007B2040F20114DEE700BF20340020F0B58FB02D
S214007B30044601A80E461546FFF7AEFE9DF80C302B
S214007B40012B1FD1B5F5402F06D8B4F5402F03D82A
S214007B506319B3F5402F13D940F2024420460FB004
S214007B60F0BDE258013225D104339D42F9D82A46A9
S214007B703146204628F08BFD0028EDD00024EDE7A6
S214007B800023F2E70027BB6AB3F5804F15D21B6BC4
S214007B90B3F5804F11D20A48FFF700FDBB6A2A46AC
S214007BA01B6B314620469B6B984704460448FFF7FC
S214007BB095FDD3E740F20344D0E740F20114CDE749
S214007BC02034002070B58EB0044601A80D46FFF79D
S214007BD063FE9DF80C30012B22D144EA0503C3F363
S214007BE00C03002B33D1B5F5402F04D940F20244E4
S214007BF020460EB070BDB4F5402FF7D82544B5F535
S214007C00402FF3D8204604F5005428F039FDAC4246
S214007C1002D00028F6D1E9E70028E7D00024E7E7FD
S214007C200026B36AB3F5804F14D21B6BB3F5804FB2
S214007C3010D20A48FFF7B2FCB36A29461B6B2046EF
S214007C40DB6B984704460548FFF748FDD0E740F24F
S214007C500444CDE740F20114CAE700BF20340020F8
S214007C60BFF34F8F0549064BCA6802F4E062134320
S214007C70CB60BFF34F8F00BFFDE700BF00ED00E015
S214007C800400FA0570B5D0B1C9B10E4E431E0139D5
S214007C9013F8014F2046325D02F00302012A11F864
S214007CA0012F08BF04F12000B55C05F00305012D87
S214007CB008BF2032801A01D1002CE9D170BD012006
S214007CC0FCE700BF2D7204000348044A0449121A58
S214007CD0921028F028BD00BF34410000D0420000BA
S214007CE0BC62002008B5154B83F30A8800F030F814
S214007CF0FFF7EAFF124B13498B4212D30020124BB8
S214007D0012498B4218D3FCF7EDFF186850F8224052
S214007D10586840F82240013298688242F5D30C3306
S214007D20EAE70022F8E71C6844F8220001325C68A3
S214007D30A242F8D30833E4E70022F8E70800002060
S214007D40CC960400D8960400D8960400D896040072
S214007D50124B134A70B59A60D3F88820114D42F43E
S214007D607002C3F888206FF0010205F50054226601
S214007D7041F2FF7262660222C3F8D020BFF34F8F33
S214007D80BFF36F8F4FF44036032004F065F90320ED
S214007D90E66004F045F92E6170BD00BF00ED00E01E
S214007DA00040000000800044014B1860704700BF90
S214007DB090650020054B1860054B1B6F03F007030A
S214007DC0032B01D130F0FEBC704700BF9865002041
S214007DD0008000502DE9F04104464FF001080C25C4
S214007DE00D4E0CB9BDE8F08194FAA4F0B0FA80F01C
S214007DF00F2808FA00F2C8BF103824EA0204CABFE7
S214007E0005FB006205FB0062B4325768002FE8D01D
S214007E109168C0B2B847E4E73034002008B50C4893
S214007E2032F016FC192004F009F928B1192004F0E4
S214007E3013F9192004F0F4F81A2004F0FFF828B11A
S214007E401A2004F009F91A2004F0EAF8002008BD08
S214007E50B84C04002DE9F0410E461746054618B307
S214007E600F2923D80378DBB1013BDBB2022B19D8EC
S214007E70104AD35C6A78D340DB0717D50E4BD3F88D
S214007E801043ACB932F046FB80463A4628463146A7
S214007E9002F042FE404632F038FB2046BDE8F08154
S214007EA07F23E7E70023E5E72224F6E72124F4E72B
S214007EB00224F2E7A84A040000C0035010B50446A6
S214007EC010B30378E3B1013BDBB2022B1AD8104A99
S214007ED0D35C6278D340DB0718D532F01BFB012257
S214007EE0617823788A4030214B4341F2100103F138
S214007EF0A04303F570335A5032F007FB002010BD44
S214007F007F23E6E70023E4E72220F8E72120F6E7D0
S214007F10A84A040010B5044610B30378E3B1013B49
S214007F20DBB2022B1AD8104AD35C6278D340DB0748
S214007F3018D532F0EFFA0122617823788A40302192
S214007F404B4342F2100103F1A04303F570335A503D
S214007F5032F0DBFA002010BD7F23E6E70023E4E7DB
S214007F602220F8E72120F6E7A84A040038B50D4697
S214007F70044618B311B30378E3B1013BDBB2022B1E
S214007F801AD8104AD35C6278D340DB0718D532F093
S214007F90C1FA30222378534303F1A04303F570332C
S214007FA05B696278D34003F001032B7032F0ADFAC0
S214007FB0002038BD7F23E6E70023E4E72220F8E729
S214007FC02120F6E7A84A04002DE9F0410D461646A2
S214007FD09846044600284FD000294DD00178002945
S214007FE040D04B1EDBB2022B3ED8254AD25C6378CB
S214007FF0DA40D20701D4FF2940D1022E01D9042E3F
S2140080003CD132F087FA23780746FF2B05D032465C
S2140080102046296802F0C6FD28602B68013309D186
S2140080202378FF2B06D1174B6078D3F8241429F059
S21400803055F9286029684B1C18D00C23124A03FBFC
S2140080400122069BC2F8048093602378FF2B04D09D
S21400805001230E4A8B40C2F82434384632F055FAD3
S214008060002007E07F22C2E70022C0E7384632F051
S2140080704CFA2D20BDE8F0812220FBE72120F9E70D
S214008080A84A040000C003503034002000D003503B
S21400809008B502F037FD044B00F05530C3F8200455
S2140080A0BDE80840FFF796BE00E0035008B502F0B2
S2140080B029FD044B00F0AA30C3F82004BDE80840B0
S2140080C0FFF788BE00E003502DE9F04F1446054642
S2140080D00E469B46C36B87B001225B6902A96068A7
S2140080E09847EB6B01225B6903A93046984702A8C4
S2140080F028F018FF074648B10023A37563754FF0B4
S214008100FF33A360002007B0BDE8F08F03A828F077
S21400811016FF0123A375237E04EBC303DE611F84D1
S2140081206368B3420ED1206003A828F02AFF4FF000
S214008130FF332075A360237D043B022B26D8002343
S214008140A375DFE723681A1A53425341A37503A8A1
S21400815028F017FF237D834218BFA77503A828F0D1
S214008160F2FE074602A828F0EEFE874218BF00235C
S21400817003A818BFA37528F0EEFE074602A828F04D
S214008180EAFE87421CBF0023A375D4E703A828F0A5
S214008190DAFE80B1EB6B022230465B6904A9984791
S2140081A004A828F0DFFE0346207D032839D8DFE840
S2140081B000F03838040903A8F3E7CC22237E04EB4A
S2140081C0C3031A8401F06EFC109B187003A8277E68
S2140081D028F0ADFE04EBC70787F82200237E03A82D
S2140081E004EBC303B3F8209093F8227028F0ABFE9C
S2140081F0804603A828F0AFFE8246B8F1000F15D0DF
S214008200EB6B022230465B6904A9984704A828F065
S2140082106EFE6075637D6BB90023A3754FF0000892
S21400822038E0227E04EBC2021384CBE703A828F0D2
S21400823049FEEEE794F81680B8F1000FEED0B9F1DB
S214008240000F09D1DFB10123E375637E002B4FD108
S214008250012F42D1677614E06B6C06EB0A015A4296
S21400826086EA010010421CBF0022A2755A1E0A4070
S2140082709B1A9945D0D8A37D002BE3D1CEE7E37DAA
S21400828043B94FF000084B4652463146284628F080
S21400829094FBA060A27D12B123694B4423611A4966
S2140082A0237E097899422AD901332376BBF1000F41
S2140082B027D032B3E37D23B3B8F1000F21D1032FCB
S2140082C01FD0A1684B1C1CD0109B2246009328464A
S2140082D00123FFF7F9FEA07513E095F8343063B973
S2140082E0EB6A0133CFD1032FCDD10123A376C8E7A4
S2140082F0012FCFD0032FC4D1F7E79846C3E700235A
S214008300A375A07DFFE600BFCC4A04002DE9F04F20
S2140083100E46984600238BB004464FF0FF311046B9
S21400832017468DF8133001F0A7FBB6F5801F20D254
S214008330314605AA04F1080028F046FD451C014612
S21400834003D1237CBBB92D2010E0384601F094FB06
S2140083500122394620460DF1130328F080FB002841
S214008360EFD09DF8133088F8003000200BB0BDE841
S214008370F08FB01CE5D1E56A691C36D12046616AEB
S21400838028F061FA0546B31C18BF0123DFF8CC902D
S2140083900193636A626C0293236805A902FB053A9F
S2140083A0E36B05225B695046984705A828F055FE02
S2140083B028F078FE504628F080FE4FF0000B8246EC
S2140083C001464B1C05D0636C81EA0A025B421342ED
S2140083D011D02946204628F036FA029BAB422CD014
S2140083E0BBF1000F2CD10546D3E72368ED1A636C6A
S2140083F0B5FBF3F5C7E7484601F03EFB0DF1130366
S21400840049462046019A28F02AFB034690B1B21C42
S21400841003D0D9F80020B2420CD19DF81320039364
S2140084200D4B88F8002049461A68384613F05AFA69
S214008430039B9B46D9F80810C3E7BBF1000F82D018
S214008440B6F5801F91D2314698F800307A6804F16C
S214008450080001F03FFA88E7C84A04000C3C0020F8
S2140084602DE9F3410446174698460E46184D816A94
S214008470E36A8B4201D04B1C02D102B0BDE8F0810A
S214008480284601F0F9FA0122294620460DF1070395
S21400849028F0E5FA38B14346294620469DF80720DD
S2140084A0B8470028E9D0A9684A1C04D16968204664
S2140084B028F056FA0146012EDAD16B6881EA0302EB
S2140084C0636C5B421A4218BF4FF0FF31D0E700BF23
S2140084D0E03B00202DE9F04F4FF0FF334FF6FF72E0
S2140084E00025044600F10806C0E909238BB0C362E4
S2140084F0056205633046884628F037FC204628F09B
S21400850072F960BB2046414628F0EDF9204628F077
S2140085106AF960BB5E200BB0BDE8F08F2368E26BA3
S214008520606C576900FB0530052205A9B84705A809
S21400853028F093FD012807460CD12946204628F04E
S214008540A3F9012F024600D101322946204628F021
S21400855069F903E028F0ABFD0028EED10135E369A8
S2140085609D42DBD3204628F03EF90028CAD00025DD
S2140085704FF0FF394FF6FF73CA46A846C4E90853C2
S214008580E36998450AD3A5EB0905012D2CD84FF6CB
S214008590FF72636A93423CD16720BCE72368E26BB4
S2140085A0606C576900FB0830052205A9B84705A886
S2140085B028F053FD834605A828F026FD07465846B2
S2140085C028F070FD68B1574538BFC4F82480B94517
S2140085D028BFB946BD4238BF3D46BA46236A013376
S2140085E0236208F10108CBE74FF6FF7300256362AC
S2140085F0E3699D42CBD2676C2068E36B052207FBDC
S21400860005005B6905A9984705A828F0FDFC01351B
S214008610EEE7E26B676C2068694607FB0300556966
S2140086200522A847684628F0EFFC626A2368606C5B
S2140086304B4D00FB023028F040FD4FF0FF33A062A8
S214008640E3622A466FF00101204605ABFFF75EFEA7
S214008650002846D1AD6829462046E56228F09FF8F6
S214008660206320B92046E16A28F07AF9E0622946BC
S214008670204628F075F90546A36A9D4233D1204668
S21400868028F060F800278046B946E36999453CD350
S214008690B84559D92046616A28F0D5F8002605461F
S2140086A004F1400AB74212D8626C2368694602FB9E
S2140086B00539E36B05225B6948469847684628F00B
S2140086C0A3FC534602464946E06B28F0F8FC2946D0
S2140086D0204628F0B8F80136B0450546E2D16420B9
S2140086E019E7A56AB7E72946204628F058F8236B0D
S2140086F02946034407462363204628F031F90546F9
S214008700002FB9D1C4E90B07B6E7636C25680522CC
S21400871003FB0955E36B05A95B692846984705A83E
S21400872028F09BFC28F0BEFC58B1284628F0C5FC73
S2140087300146204628F033F8636C143B984208BF85
S214008740013709F10109A0E7304628F00EFB0023A7
S21400875020461946034AFFF783FE0020DBE600BFEB
S214008760383C00204D0A03002DE9F041036B90468B
S214008770826B07689A4288BF8363426C436A90B0F4
S21400878002FB0377C36B0E46052201A95B6904460C
S2140087903846984701A828F060FC0128014630704A
S2140087A057D0656CE26B2368606AD2F814C005FB8C
S2140087B00030052206A9E04706A828F04EFC01284E
S2140087C04FF0000523D0D4E90A3201219342CDE9C7
S2140087D00B458DF834800E958DF83C102AD119463D
S2140087E0204628F0BDF8236B626C14339B1AE062B7
S2140087F023630C9B53B99DF83C303BB1626A616CB5
S2140088002368E06B01FB023128F0DFFB0C9DE36B75
S21400881005225B6901A93846984701A828F01DFC87
S21400882030702846236BA26B9A4288BFA36310B0B1
S214008830BDE8F081237C33B91C490BAA04F108007B
S21400884001F096F8D5E72046194A0BABFFF708FE6D
S214008850CFE7237C23BB2246164904F1080001F02B
S21400886087F8616A204628F00FF8616A421C2046A5
S21400887027F0D8FF054620B9236B626C1344143BDF
S21400888023632046A16A28F06BF82368A062C01A0A
S214008890636CB0FBF3F06062204628F0A4F8B6E7FD
S2140088A000232046044AFFF7DBFDDAE70D900000C0
S2140088B0898F0000E70A0300830A030073B50D469C
S2140088C0D11E4A421C461B7E4A419A4226D129683E
S2140088D02368994222D3636899421FD8114E0DF13E
S2140088E007033246FFF712FDC0B972686B689A42FA
S2140088F014D19DF80730DA1E53425341227E93422C
S2140089000CD1636901336361D4E90323934205D232
S2140089102968A26842F8231001332361012002B0BF
S21400892070BD00BF383C00202DE9F04F9B4689B053
S2140089309DF848309046514A0193136907465B45B7
S2140089400D46C0F09580D94653680093B9F1000FE4
S2140089507BD0FB6B01225B6905A90098984705A8A8
S21400896028F0EDFA454B1B68984240F0848005A835
S21400897028F0F1FA0428064615D105A828F0F2FAE0
S214008980009B04461E44019B002B3ED1804512D915
S2140089901C46A8EB00083846009927F0E1FFA9EB33
S2140089A004090090D2E7FB6B02225B69009806A9D7
S2140089B0984706A8E2E7A0EB08045C4528BF5C469B
S2140089C0032C4644ABEB040B1DD9FB6B2946304603
S2140089D05B69A208984724F0030304F0030A1E44C8
S2140089E01D44DDF80480BAF1000FD4D0FB6B0122E1
S2140089F006A930465B6998475246284606A912F0F3
S214008A0071FF5544C7E7A246EBE7824600F0030332
S214008A1002932B1803930644039BA6EB0A00A3EBD2
S214008A200A05029B9A4514D1BAF1000FB3D0FB6B2E
S214008A30012206A95B6998475246284606A913F004
S214008A400DF90028DDD04FF03609484609B0BDE8DC
S214008A50F08FFB6B012206A95B6998470422284623
S214008A6006A913F0FBF80028EDD1AAF1040AD3E713
S214008A704FF06309E9E74FF06F09E6E7643C002032
S214008A802DE9F0410F4616469846044688B060B376
S214008A9090F83450FDB1012127F09AFE00210E9B7C
S214008AA0CDE90511CDE902379DF83C30CDF80480BC
S214008AB08DF81C30237C04968BB90D4901AA04F16D
S214008AC0080000F055FFDDE90553E06B002E08BFF7
S214008AD01D4628F016F8284608B0BDE8F081204666
S214008AE0044A01ABFFF7BCFCEDE70546F3E700BF21
S214008AF0B10A0300BD8800007FB590F842600446C6
S214008B0001920DF10B030A463046114928F001F890
S214008B10012E0546E36B17D132465B6903A99847D9
S214008B209DF80B10039B019A59B19BB243EA02438E
S214008B30012228460393E36B03A99B69984704B078
S214008B4070BD62F30F03F3E701229B6901A9F5E705
S214008B50643C00202DE9F04F99B00E460D920A694C
S214008B60416C0B931439D31DB3FBF1F3013302EBC5
S214008B70C302036B04469342C0F001820023DFF871
S214008B8004940893E36A48461946059300F074FF78
S214008B90D6E9033707930B9B022B4DD1CC2F40F021
S214008BA0D7810D9B3BB13146204628F008F8656C0E
S214008BB01490012044E00120079B656C1B68149309
S214008BC000F0010000280CBF04230823782F0E9322
S214008BD049D8059A6B1E1340ED1A3B1D9D423CD2A8
S214008BE0002F3DD0082D3ED80023042506934FF0D5
S214008BF0040A336806990B98C9F80030C9F8107053
S214008C0028F0C3F94FEA9A030F93059B89F81400DE
S214008C100393002309930C9304930A93616C039BBC
S214008C204A1E1A408B1A27B35544AB4223D8236BEF
S214008C305B1A134423632FE1782F656CB9D8F07D57
S214008C400D9B002BBCD0E36B01225B69706816A9F4
S214008C50984716A828F077F9B4E700250695C6E7E2
S214008C6004250697C3E7012300254FF0080A06935C
S214008C70BFE75345DBD3A3EB0A029742039BB846F4
S214008C8028BF90469742534428D90122D9F810109D
S214008C9089F817208F4226D10399C9F80410049248
S214008CA099F817200AB399F818100398CA1C09EB0C
S214008CB0C202506004980131A2F80880907289F8C8
S214008CC01810B8F1000F07D00B9A022A40F08180E6
S214008CD0099A72B1012209929B46ABE0049A002AD7
S214008CE018BF0322DBE70222D9E7039AC9F804205B
S214008CF0E7E70C9A4244032AEED9E26B18469569D8
S214008D0014A901220993A847099B05460028E1D02B
S214008D103D2D40F01E8104F1080303932368059A55
S214008D20606CA2EB030ABAFBF0FA00FB0A3028F0EC
S214008D30C4F9E16A8046204627F012FEA26A824203
S214008D4000F00F81626CD9F80830511E0B40216B81
S214008D502768891A0B442363089BE062DF1BB7FB76
S214008D60F2F7BA4540F0FA80059BB3EB080A12D03A
S214008D70E36B4FEA9A0241469B6998478346E36A4B
S214008D80059A5344E362236B03989B1A4344236378
S214008D9027F0EBFFDA462368616CE06B01FB0731D6
S214008DA028F000F9204627F01EFD204627F01BFE7F
S214008DB02063BAF1000F00F0D4803269616CD31DD5
S214008DC01439B3FBF1F3013302EBC3029042A5D290
S214008DD0BFE00D9A002A77D1B8F1030F4FEA980248
S214008DE06ED9E16B18468D6907991093A847109BBA
S214008DF00546C0B918F0030515D0079A28F0030BEE
S214008E0002EB0B019B444FF0FF3215A815922A4641
S214008E10109312F067FDE26B5846956915A901227A
S214008E20A8470546109B9B46079A42440792002D8A
S214008E3040F08B80049B16A80193069B009399F83C
S214008E4014204346316800F0CDFDE36B0F9A9B6912
S214008E50039816A99847039A051E089B18BF134641
S214008E600893434652462046039927F0A6FD236BF7
S214008E7008F10302A3EB0A0322F003029B1AC9F8C7
S214008E8008002363002D7FF443AF0C9BA7EB080775
S214008E9043440C93CDF80CB02046039927F060FDB0
S214008EA000250390002F7FF4B9AE364A31689368E8
S214008EB004F10800E36252680B9B00F00BFD49E0EA
S214008EC09B46454607999EE79B4606F12002109270
S214008ED0F27D7068A2B1002296F818C00A99D5B241
S214008EE0AC4511D9109D02F1010E35F832508D4275
S214008EF028D90E9806EBC2020144D069084403E064
S214008F000E9A0A990A441044E26B15A95569012283
S214008F101193A847159A0A9B1392E26B043395693E
S214008F205846012213A90A93A847119B054603EB4E
S214008F300802A2EB0B02042A7FF679AF28B90BF1E0
S214008F40040BC5E77246491BC9E7CDF820B088E791
S214008F5070252F46384619B0BDE8F08F4FF0000A4E
S214008F6019E73269616CD31D1439B3FBF1F3013391
S214008F7002EBC302236B9342BFF404AEE9E71C275F
S214008F80E8E700BF0C3C0020032A2DE9F341064623
S214008F900D4617461C4606D1237A012B23D0012006
S214008FA002B0BDE8F081DFF86080096842460DF146
S214008FB00703FFF7ABF960600028EDD19DF80720A6
S214008FC0237A032AE8D0D8F804106A689142E3D1DD
S214008FD0012B2969D4F80CC007D172690CEB010388
S214008FE0934202D92074207CDAE708316144E160BC
S214008FF03B46012229463046FFF7ACFD606000285C
S214009000CAD00020CCE700BF383C00202DE9F34151
S214009010089C032A1746266806D1237A012B24D0FB
S214009020012002B0BDE8F081DFF89080304642466D
S2140090300DF10703FFF76AF960600028EDD1256897
S214009040D8F80400A96AD5F844C04840CCF100031B
S2140090501840227AE1D1012A09D1E268D8F8103006
S21400906013447269934202D92074207CD9E7286899
S214009070EB6A1B1A081AB3FBFCF3B0FBFCF0834246
S2140090800BD1706CF36A421E1340326B121A1344F3
S2140090902846336327F064FCE862D8F81020E368BB
S2140090A008321344E36001223B4604492068FFF778
S2140090B051FD60600028B0D00020B2E7383C0020A8
S2140090C02DE9F0410025604B0E46D3F8008004469B
S2140090D01D6018B921252846BDE8F08190F8347047
S2140090E007B30A6803689A4240F0A3804A68436858
S2140090F09A4240F09E808A6883689A4240F099803F
S214009100CA68C3689A4240F094800A6943699A42E2
S21400911040F08F808A69C36B9A4240F08A804B6920
S2140091208361D8E768223946856B12F04BFAD6E998
S2140091300212336804F1080023607368A563636055
S214009140336963617369A36127F021FEB36904F193
S2140091504000E3639B68984720B9676C17B1636863
S214009160B3FBF7F794F84330E761002BB2D0002347
S214009170656C2366002D64D0002F62D02368B3FB95
S214009180F5F205FB1233002B55D16668B6FBF5F3F6
S21400919005FB1363002B4ED1204627F0F0FAA36997
S2140091A0043303449E4248D340F634726369CC3B92
S2140091B0934244D8B5F5805F43D30321204627F079
S2140091C007FBD4E90001E36B1B6898470546E36B91
S2140091D00220DB689847CDB941462046FFF77AF96A
S2140091E06428054604D141462046FFF773F9054634
S2140091F0666C5DB9236A2046143E5E4327F0BFFACC
S214009200A369043303449E4238BF5A25002D0CBF81
S2140092100123002384F8343007D1D4E900010B4A37
S21400922013680133136027F04CFEE06B27F069FCEF
S21400923051E75D254FE759254DE75A254BE75F2552
S21400924049E75B2547E700BF9C350020983500209E
S2140092502DE9FF410C4616461F46054680B390F89A
S21400926034307BB3B1F5801F2ED2DFF86080012149
S21400927027F0AEFA2146424628460DF10F03FFF7C7
S21400928045F8044670B99DF80F30012B11D1D8F877
S2140092901030BB4212D10246009031462846FFF7F6
S2140092A043FB0446E86B27F02CFC204604B0BDE8E0
S2140092B0F081022B14BF2D246024F3E76324F1E72A
S2140092C02124F2E71124F0E72924EEE7643C00208D
S2140092D02DE9F04385B00C4617461E460546DDF8D8
S2140092E0308098B390F8343093B3B1F5801F31D204
S2140092F0DFF86490012127F06BFA21464A4628469B
S2140093000DF10F03FFF702F8044688B99DF80F30F9
S214009310012B14D1D9F8102006EB08039A4213D378
S21400932000904346324639462846FFF7FDFA044683
S214009330E86B27F0E6FB204605B0BDE8F083022B7D
S21400934014BF2D246024F3E76324F1E72124F2E719
S2140093501124F0E72924EEE7643C002073B50C46A0
S2140093601646054630B390F834302BB3B1F5801F5F
S21400937024D2012127F02CFA21462846104A0DF166
S2140093800703FEF7C3FF044680B99DF80730032B9A
S2140093900CD0022B0CD12846094927F010FC30606F
S2140093A0E86B27F0AEFB204602B070BD2D24F7E731
S2140093B06124F5E72124F6E71124F4E72924F2E7EF
S2140093C0643C00202DE9F3411E4600230C46174658
S2140093D00546336050B390F834304BB3B1F5801F78
S2140093E028D2DFF85480012127F0F2F921464246C0
S2140093F028460DF10703FEF789FF0446A0B99DF83D
S2140094000730032B10D0022B03BF01233B6004233D
S214009410D8F8103018BF38603360E86B27F071FB5F
S214009420204602B0BDE8F0812D24F6E72124F7E7B8
S2140094301124F5E72924F3E7643C002073B50446BD
S214009440056B27F09CF9636E03449D422CBF0023F6
S2140094500123854294BF00252D1A207C84F85030C5
S214009460656584F85800A8B100230C4E1A461946C4
S2140094702046009627F067FC002305461A46194644
S2140094802046009627F068FCE3682844984294BF7C
S2140094900020C01AE06502B070BD00BFFFFF0F00DD
S2140094A02DE9F3471E4643690446B34288461746ED
S2140094B09DF828904ED300258DF80750204627F0BB
S2140094C05EF9D4F830A082450AD2236AB5EB430F82
S2140094D006D2002220460DF10701FFF745F9B8B382
S2140094E09DF80730012B05D1002220460DF107011B
S2140094F0FFF73AF9B9F1030F06D03146204627F0B8
S2140095002EF9256B854227D3144D4FF0FF312846A0
S21400951000F0B2FA4B46294600222046C5E90376FB
S214009520C5F80080FFF716FB236E054663B120469C
S214009530FFF784FF94F8503013B994F858301BB1F5
S214009540236E04F150009847284602B0BDE8F08725
S2140095500135B3E76225F7E71C25F5E7383C002020
S2140095602DE9FF410F4690461E46054698B390F8F3
S214009570343093B3B1F5801F31D21A4C022127F054
S21400958027F92246394628460DF10F03FEF7BEFEA0
S214009590024678B1012342460093394633462846B0
S2140095A0FFF77EFF0446E86B27F0ABFA204604B0D0
S2140095B0BDE8F0819DF80F30012BEBD12169B14257
S2140095C0E8D10093414633462846FFF7ADF90446F6
S2140095D00028DFD1E7E72124E8E71124E6E729247D
S2140095E0E4E700BF643C00202DE9F04790F84230E5
S2140095F086B0012B05460391A1EB020740F0AA8036
S214009600FF2F03D81E464FF0640807E00226012B02
S21400961014BF4FF032084FF06408013600244FF6AE
S214009620FF79DFF844A195F84230012B14BF3223AE
S21400963064239C4202D35FFA88F40DE005AB224611
S2140096405146284627F099FA95F84230012B059B9B
S21400965034D14B452DD1E4B295F84230012B14BFDE
S21400966032226422121BB24217D3012E39D10022B5
S214009670012B05978DF8132027D1082205A90DF197
S214009680130027F036FD9DF81330059A42EA0322B0
S21400969021462846FFF730FA40B1022332490093AC
S2140096A02846CC23096803AAFFF7FAFE06B0BDE8F1
S2140096B0F087DBB203B902340134B4E7591CCAD0D0
S2140096C09BB2002BF8D10134F6E7102205A90DF164
S2140096D0130027F00EFD9DF81330059A42EA034268
S2140096E0D6E7039A012B059223D10823202205A949
S2140096F00DF113008DF8133027F0FBFC9DF81320B6
S214009700120221462846FFF7F7F995F84230611C09
S214009710012BC9B21AD10028BFD12846BDF81420A3
S214009720FFF7EAF90028B8D10234BDF81620E1B2F6
S214009730AFE71023202205A90DF113008DF8133092
S21400974027F0D7FC9DF813201204DAE70028A4D1EE
S214009750059A9EE7B7F5803F4FF00106BFF457AF76
S2140097604FF032085AE700BF643C002070B586B060
S2140097700E4605460392A0B390F834309BB3B1F57D
S214009780801F32D2022127F023F831462846184A95
S2140097900DF11703FEF7BAFD044618B99DF8173009
S2140097A0032B0ED10223314600932846CC2303AA6E
S2140097B0FFF776FE0446E86B27F0A3F9204606B0CE
S2140097C070BD022B0BD10A49284627F0F8F90399F9
S2140097D002468142EFD02846FFF706FFEAE76124FB
S2140097E0E9E72124EAE71124E8E72924E6E700BFB1
S2140097F0643C0020F7B50C461646054668B390F85C
S214009800343063B3B1F5801F2BD2022126F0E0FF7F
S21400981021462846144A0DF10703FEF777FDC0B926
S2140098209DF80730032B14D0022B14D10E4928467E
S21400983027F0C5F9471C024639462846FFF7D4FEEE
S214009840044606B13760E86B27F05BF9204603B0A4
S214009850F0BD2D24F7E76124F5E72124F6E711246F
S214009860F4E72924F2E700BF643C002030B50C463C
S214009870054685B028B390F8343023B3B1F5801F81
S21400988023D2022126F0A4FF0DF10F03214628461D
S2140098900F4AFEF73BFD034688B99DF80F20032AC2
S2140098A00DD003222146009202462846FFF7F8FD17
S2140098B00446E86B27F025F9204605B030BD2D2478
