S01B00006275696C642F72656C656173652F7A69676265652E73333714
S21400600008100020C59A0000E5E20000AB6B030014
S214006010AB6B0300EDE20000F5E20000AB6B0300A3
S214006020AB6B0300AB6B0300AB6B0300AB6B030007
S214006030F9E200009CAF0400AB6B0300AB6B0300FF
S214006040AB6B0300AB6B0300AB6B030095950000D6
S214006050AB6B0300AB6B0300AB6B0300AB6B0300D7
S214006060AB6B0300AB6B0300AB6B0300AB6B0300C7
S21400607065E80000AB6B0300AB6B0300AB6B030083
S214006080AB6B0300AB6B0300AB6B0300AB6B0300A7
S214006090AB6B0300AB6B0300AB6B0300AB6B030097
S2140060A0AB6B0300919E0000719E0000AB6B03007B
S2140060B0AB6B03003D270200AB6B0300A13102006F
S2140060C0ABC40300A7C403007D290200C1C40300BB
S2140060D0AFC4030071310200B3C40300E131020013
S2140060E04D380200491502004D320200AB6B03002A
S2140060F0AB6B0300AB6B0300AB6B0300AB6B030037
S214006100AB6B0300AB6B0300AB6B0300AB6B030026
S214006110AB6B0300AB6B0300AB6B0300AB6B030016
S214006120AB6B0300AB6B0300AB6B0300AB6B030006
S214006130AB6B0300AB6B0300AB6B0300AB6B0300F6
S21400614082B030BF074BD3F8F030DB0704D500230E
S2140061500193019B052B01DD02B07047019B0133C3
S214006160F6E700BF00ED00E0F0B5114A114C124E04
S21400617000F00105E3695F0713D40DB9334213D16C
S21400618003EA00078F4207D10B4A1A40002A14BFC1
S2140061906FF001000020F0BD013AEBD16FF0020075
S2140061A0F9E74FF0FF30F6E76FF00100F3E700BFC6
S2140061B08096980000000350020001000B4B70B55B
S2140061C0D96911F480310DD101244FF48072084E44
S2140061D0084DF46020462C641A61FFF7C5FF34644E
S2140061E0EC6070BD6FF00100FBE700BF00000350DD
S2140061F000100350002003504FF4003238B50F4B08
S2140062000F4C9A6641F671330122E569E3630D4B44
S2140062100021DA60022360612120236105F48035C5
S214006220FFF7A2FF10B92120FFF79EFF0122064BC1
S214006230DA600DB10023E36338BD00BF0090005064
S21400624000000350001003500020035070B5134C9C
S2140062506061E3695B071ED40E4656F8043B8D1852
S214006260A361AE420BD10423002121202361FFF756
S2140062707BFF58B9BDE870402120FFF775BF0821A5
S2140062800846FFF771FF10B10423236170BD56F86E
S214006290043BA361E5E74FF0FF30F7E7000003504B
S2140062A02DE9F84315464FF40032184B89469A6696
S2140062B041F6713203F51C33DF69DA6301220646C4
S2140062C003F58053DFF84C8007F48037DA6055B961
S2140062D0284601220E4BDA601FB10022A3F50053B8
S2140062E0DA63BDE8F88306F5005404EA0804A41B44
S2140062F0AC4228BF2C46494622463046FFF7A6FF4A
S2140063000028E6D12644A1442D1BE0E7009000506B
S20C0063100020035000E0FFFF2F
S2140063182DE9F04F4FF0FD0BC9B09A460DF11B0959
S2140063289DF8503108AFCDF80C90CDF808B001971D
S214006338059303890446009383790E469046418860
S2140063488288407811F03AFF054650B10090A3883D
S214006358002062883A4912F075FA284649B0BDE826
S214006368F08F99F8000033F076FB38B12846A388FA
S2140063786288344912F066FA8D25EEE75A463946A1
S21400638899F8000033F00FFB8346002851D0529B43
S2140063981BB1BDF84C3198424BD8002399F80090B1
S2140063A80793A9F14102012A5FFA8BF123D83846F0
S2140063B80139254ADFF898C05FFA81FE734513DB7A
S2140063C8059B04210792C3B907AF18221F489FED03
S2140063D81A7B02FB060420460A460830394684ED36
S2140063E8027B17F0B1F811E010F8011F0133514095
S2140063F80CFB01F2E2E7059B33B123464A463846D2
S21400640800960FF003FEA8E70829DED9B8F1000FBA
S21400641801D088F80090BAF1000F01D0AAF800B0B1
S214006428529B002B99D05A46184608A917F08CF8A4
S21400643893E7012591E700BF000000000000000078
S214006448285904005D590400C59D1C818010002051
S21400645893010001000000002DE9F04F93B0CDE94C
S2140064680A32DDE91C530E9353EC102BCDE90801D4
S214006478104619468DED060B1E9E16F0EFFA80B1F3
S214006488DDE906014FF0FF32C54B16F00FFB40B9A9
S214006498DDE906014FF0FF326FF4801316F0E8FAD4
S2140064A870B1DDE908019DED060B0E9B1E96CDE941
S2140064B81C53DDE90A3213B0BDE8F04F00F088B986
S2140064C80022DDE90601002316F0D2FA002800F0C3
S2140064D83381DDE906A303F1004BCBF30A5016F42B
S2140064E88063A0F2FF3008BF06250F9315F0E4FF7F
S2140064F89BA3D3E9002316F049F89BA3D3E900230E
S21400650815F08EFECBF31304894644F07F5180467F
S2140065180022A44B504641F4401115F07FFE94A388
S214006528D3E9002316F032F802460B4640464946A1
S21400653815F076FE16F0C4FA044615F0BDFF8EA3D5
S214006548D3E900238046894616F020F80022964BA9
S21400655815F066FE16F0B4FA89A3D3E900230746B9
S2140065684946404616F012F880463846894615F0E1
S214006578A3FF85A3D3E9002316F008F802460B46C6
S2140065884046494615F04AFE02460B46CDE90C231E
S21400659815F0FCFFDDE90C238046894610461946AF
S2140065A815F03EFE0022CDE91001804B40464946D4
S2140065B816F016F900227E4B15F032FE02460B4600
S2140065C84046494616F00CF900227A4B15F028FE8C
S2140065D802460B464046494616F002F9DDE90C230A
S2140065E88046894600204FF0804115F017FE024687
S2140065F80B464046494615F013FE02460B46DDE9B3
S214006608100116F0EDF807F2FF3700226A4B15F076
S21400661807FE00223B0515F0B9FF52465B4680464A
S214006628894616F043FA002840F08980CDE90C899F
S21400663804F16303C62B8CBF0527042731051BD539
S21400664853A3D3E900235046594616F025FA0028E6
S2140066587FD051A3D3E900235046594616F008FACE
S214006668002876D00027A542C6BF2C1B04F1FF35AC
S21400667800253C4646F480660E9B9F422CBF4FF092
S2140066880008A3EB070816F0020903D0002F18BF6E
S2140066984FF000083CB1DDE90C235046594616F089
S2140066A89FF882468B46DDE906010022002316F095
S2140066B8DFF910B10BF100439B46DDE9080126F42B
S2140066C80063CDE90183DDE90A324BEC10AB009597
S2140066D800F07EF802465FB3DDE9091316F0200FD6
S2140066E800F10105089E0CBF65204520B047DDE98E
S2140066F808010523002205930A23002CCDE902325F
S21400670807F1FF374FEAD473B8BF64422A460193AD
S21400671804970A9B009435F00CF90246B9F1000F6D
S21400672806D00B9BC41A0B9B1A190E9BA34245D87E
S214006738104613B0BDE8F08FDDE906ABCDE60022C3
S214006748404649461A4B16F04BF8013CCDE90C0179
S2140067586EE7002D90D00F9B002B8DD0013D8BE768
S214006768FB799F501344D33FB3C8608B288AC63F33
S21400677861436F63A787D23F71A379094F930A4095
S2140067881655B5BBB16B0240EF39FAFE422EE63F0E
S2140067982D431CEBE2361A3F0000000080842E4191
S2140067A8FFFFEF7F0000F83F0000E03F00002C40AE
S2140067B800002440000018400000F03F2020DDE9DB
S2140067C80913089DA8470134ADE700BF0000000084
S2140067D82DE9F04F5BEC10AB97B0CDE90501DDE98C
S2140067E82058CDE90723504652465B465946229F15
S2140067F816F034F970B90323CDE902870193AA4B42
S2140068080093DDE90501DDE9072334F0C4FF17B07E
S214006818BDE8F08F4FF0FF326FF4801350465946AC
S21400682816F026F928B10423CDE9028701939F4B79
S214006838E6E74FF0FF32504659469D4B16F036F9BC
S21400684868B19C4A07F00403002B08BF03229A4B42
S2140068581CBF13460422CDE902870192D0E75046B2
S2140068688DA3D3E90023594616F020F938B98CA32E
S214006878D3E900235046594616F0FAF868B1DDE920
S2140068880723DDE905014BEC10ABCDE92187209500
S21400689817B0BDE8F04FFFF7DFBD002200235046D3
S2140068A8594616F0E5F8002800F091805B465246F7
S2140068B80020002115F0B2FC012382468B4609937E
S2140068C817F4806400F08580092D40F28580002446
S2140068D830210EABA5F109020134202C03F8011B68
S2140068E8A5EB040901D09442F6D15946504616F055
S2140068F8E7F8724B054603EBC90393ED007B8DED75
S2140069080A7B15F0D9FD02460B465046594615F047
S21400691885FCDDE90A2315F039FE02460B46CDE96B
S2140069280C2316F0F5F8064615F0B6FD02460B469B
S214006938DDE90C0115F072FC02460B46CDE90C2386
S21400694800225F4B16F0B2F8002848D001363046D1
S21400695815F0A2FD02460B46DDE90A0116F092F88C
S21400696808B100260135B9F1000F45D1284615F0C3
S214006978A3FD02460B465046594615F04FFC00222A
S2140069884F4B16F075F810B9E90700D501350A21FE
S2140069980EAB1A19202C0AD095FBF1F001FB105506
S2140069A8303502F8015B013405460028F2D107F0BD
S2140069B80302012A55D1B8F1000F52D0099A12B92C
S2140069C817F00C0F01D008F1FF38302240E009908C
S2140069D876E74FF0060988E7A946002485E70022EF
S2140069E8DDE90C01364B16F043F80028BBD10EB192
S2140069F8F007B8D50136B6E70A210EAB1A19202CCF
S214006A080DD0B6FBF1F001FB1063092E03F130033D
S214006A1809F1FF3904F1010402F8013B11D83021CD
S214006A28A1440EAA202CB2D04C4504F101030AD189
S214006A3804F158020DEB02042E2204F8202C1C4602
S214006A48A5E70646DBE7A1541C46EBE71A550134D2
S214006A58444506D2202CF9D1CDE9028701940EAB25
S214006A68CEE6202CF8D0099B3BB12D2204F1580322
S214006A786B4403F8202C0134EEE77A0704D504F1BA
S214006A8858032B226B44F4E73B07E5D504F158037B
S214006A9820226B44EDE700BF0000000065CDCD4125
S214006AA80000000065CDCDC1177704001B770400F1
S214006AB8FFFFEF7F0E7704001377040098BE0400EC
S214006AC80000E03F0000000070B58EB02C220021C8
S214006AD803A816F0A9FB64234FF002320893CDE909
S214006AE805230B2301218DF834305B4B8DF81010ED
S214006AF81D880D4040F0A980084639F0EDF90A22B5
S214006B08564B574C1A704FF42873ADF812304FF0A6
S214006B18FF332360534B54491B8820460B82534B44
S214006B28534A1B68CD828B61524B0D621B884B8281
S214006B38514B1B68CB611CF051FC20B14FF41B7104
S214006B484E483AF09CFA0521206835F050FD20B1F1
S214006B5840F27D2149483AF092FA206815F01AFB6F
S214006B68474B2068196835F0BCF80C2539F01CFE30
S214006B786843099039F018FE68430DEB0501079045
S214006B88206816F0EDFF20B140F295213B483AF018
S214006B9876FA25681FF0BEF900220146284635F029
S214006BA818F920B140F2972134483AF068FA40F2D2
S214006BB80353344D344E2B80052396F90000AB70F2
S214006BC87F2801D11CF0F2FE3378EB7039F0ECFD2B
S214006BD800EB80008000A88039F0E6FD0023C000A6
S214006BE84FF0FF31E880AB604FF0FF3018A3D3E9D1
S214006BF8002339F0C3FA2549206835F0A3F8206841
S214006C0802A935F09BFD20B14FF434711B483AF0C9
S214006C1836FA042220680DEB020135F037F804280E
S214006C2804D040F2D72115483AF029FA01A90120E4
S214006C3834F002FC07F096FB01201DF049FB30F00B
S214006C489EFD1DF06FFB1CF049FE0EB070BD00BF28
S214006C580A0020FF420300009A5C0020F763002029
S214006C68D4540020BCD70400F46A0020C4D704001B
S214006C7809FF0300BAD70400C0D7040046AE0400D4
S214006C883C680020C8540020106E00207DFF0300DA
S214006C980348044B834202D0034B03B1184770479E
S214006CA8446E0020446E002000000000064B074992
S214006CB8C91A891048BF0131491003D0044B0BB1DB
S214006CC801481847704700BF446E0020446E0020F5
S214006CD80000000010B5064C237843B9FFF7D8FF2C
S214006CE8044B13B10448AFF300800123237010BD92
S214006CF87016002000000000FC12050008B5044BC2
S214006D081BB104490448AFF30080BDE80840CDE74E
S214006D180000000074160020FC120500A3F5803A57
S214006D28704700BF154B002B08BF114B9D46FFF759
S214006D38F5FF00218B460F461148124A121A16F024
S214006D4873FA0C4B002B00D098470B4B002B00D047
S214006D5898470020002104000D000B4816F0AAFDF5
S214006D6816F03AFA200029002FF012FC16F090FDD3
S214006D7800000800000000000000000008100020C6
S214006D88081000205C64002025D9010007B5012101
S214006D9820200DF1070201F02BF850B10121202028
S214006DA80DF107028DF8071001F032F803B05DF810
S214006DB804FB9DF807100129F8D00122084815F0B1
S214006DC815F901210DF1070220208DF8071001F0B2
S214006DD81FF82FF05FFB4FF4FA6000F051FEE5E76E
S214006DE8D014040038B501F09BF9012805D001F04D
S214006DF897F9022801D001F0B9F9064D2B783BB96E
S214006E0801F08EF90128044602D12FF0B8FB2C7049
S214006E1838BD00BF865D002010B5044600882FF0F8
S214006E280DFBA37884F84400834202BF0123E37075
S214006E382371074B04F11C00C4E9073401F02EF84F
S214006E48224620880349BDE8104000F06BBF00BF0B
S214006E58DB610300A561030070B5C37804460D46E0
S214006E681646002B34D1D1B1214815F0BFF80123BE
S214006E78E370E36CA6600BB1E06D9847E368F61A1A
S214006E8863699E4221D2217E1A480131C9B2217611
S214006E9815F0ACF8A36D13B1217EE06D9847E57048
S214006EA82FF00BFB15B3237903BBA268238A801A3D
S214006EB883421BD801231048237115F097F8236DD9
S214006EC8A3B1E06DBDE87040184701232376E6E7D6
S214006ED80029E4D1094815F089F8636DE660E57085
S214006EE82571002BDBD0E06D9847D8E770BD00BF52
S214006EF8F8140400091504003715040024150400C6
S214006F0870B51E46838804460D46C18002810BB1C3
S214006F18868070BD817800882FF07CF90123E370A5
S214006F28064BA680C4E903340C34204600F0B6FFAE
S214006F3829462046BDE870402FF0B6BA27620300FF
S214006F4810B501790446B1FA81F1008849092FF095
S214006F58D8F921796088B1FA81F149092FF0D1F979
S214006F68034B1A68A24204BF00221A6010BD00BF75
S214006F788C16002070B543790446A3B100880E4EDF
S214006F8804F10805336813B10C4B1B786BB12179F3
S214006F982FF0B7F964210A4B3460A3602846BDE891
S214006FA870402FF081BA4088E9E7064815F01EF8C9
S214006FB8054B3221A360F1E78C160020875D002080
S214006FC8496F00004D1504007D6F000010B504469B
S214006FD8E0B10F4815F00AF801236371A37953B995
S214006FE8217920882FF08DF9236B7BB1606B012106
S214006FF8BDE8104018472046FFF7A2FF04F1080036
S2140070082FF057FA2046FFF7B5FFEDE710BD00BF93
S2140070188315040010B50446F8B1104814F0E6FFCE
S21400702800236371A3796BB921792088B1FA81F1BD
S21400703849092FF066F9236B7BB1606B0021BDE828
S214007048104018472046FFF77BFF04F108002FF092
S21400705830FA2046FFF78EFFEDE710BD8E150400C8
S21400706810B5044668B1074814F0C0FF6379204697
S2140070781BB1BDE81040FFF7CDBFBDE81040FFF7D5
S214007088A5BF10BD9A15040010B50E4C0E48214633
S21400709814F0ACFF82210D4814F0A8FF82210220CC
S2140070A8A21E00F0B5FE014630B134F8022C08489E
S2140070B8BDE8104014F09ABF0648BDE8104014F02A
S2140070C895BF00BF26560020A9150400C415040065
S2140070D8CF1504001316040038B5114C8221224639
S2140070E8022000F085FEA51C014688B122880D48BE
S2140070F814F07CFF2A460C4B03F12C0153F8040BC2
S2140071088B4242F8040BF9D11B7813702C2323808A
S21400711835F8021C054A0648BDE8384014F066BF34
S214007128245600201E1604009E160400265600202C
S2140071387C160400034B1B781BB18B4201D82FF03A
S214007148A9B97047B26D002010B5044601460E482E
S21400715814F04CFF012C11D10C4B0D481A884FF631
S214007168FF739A421EBF0022094B5A742FF0AFF8DD
S21400717801F09EFDBDE8104001F070BC0448BDE873
S21400718810402FF0A6B800BFCB160400646D002090
S214007198C867002070B500241A4D1B4E3378A342EA
S2140071A81BDC0024194D1A4E3378A3421BDC00243E
S2140071B8184D194E3378A3421BDC00F0B1FF0128A6
S2140071C816481CD12FF083F801F072FD01F046FC3A
S2140071D8BDE87040124800F0C3BF2846FFF71CFE03
S2140071E801346035DAE728462FF057F8013434358D
S2140071F8DAE728462FF08AF801343835DAE72FF030
S21400720868F8E5E7B02200208D5D0020D026002033
S2140072188E5D0020802000208C5D0020C86700203E
S214007228517100002DE9F04F87B0FFF755FFB34BBB
S21400723805A805932FF08EF8054615F0F1FEB04C1C
S214007248C2B21F2A627004D9AE4814F0CFFE00F00E
S2140072580BFC2946A01C16F077F905A82FF07AF83B
S214007268054615F0DDFEC2B21F2A84F8212001D992
S214007278A548EAE7294604F1220016F065F905A8AC
S2140072882FF068F83226044600272578002D40F0AF
S21400729892809E4CFFF77EFF2378DFF8ACA2DFF8DB
S2140072A8AC829B4E00939AF8003098F8002031780C
S2140072B8984814F09BFE327898F800109AF8000068
S2140072C853180344944F20782C4603443846DBB2C0
S2140072D8AA4200F3D982012B38BF0123DFF840B257
S2140072E802935A4600235D464FF482714FF6FF74A8
S2140072F802980133834213705180948002F10C0285
S214007308F6DB864B86497E48AB6000F0DFFFE879FF
S214007318AB6800EB400003EB800000F0B3FDEB79B0
S2140073280133EB717F4B1B88A34203D07C497E4810
S21400733801F0CEF84FF00009784C32784A4500F351
S214007348CD8200274FF00C09784ADFF8D4B198F8B8
S21400735800003178B84200F3D68247180C21002581
S21400736801FB07B19AF800009423A842704A00F37C
S214007378E8820C2598F8003000274FF07008367819
S214007388DFF8CCA11E44064405FB06B55F4B1B7808
S214007398BB4200F3E9820299614800F001FE059BB2
S2140073A856491A468B4240F0F282624807B0BDE85A
S2140073B8F04F14F01BBE532D0FD163784C2B40F0C2
S2140073C84781A378502B40F0438101225A4B1A700C
S2140073D805A82EF0BFFF044657E7442D13D163785F
S2140073E8303B092BF4D8601C2EF0C1FF534B544A8F
S2140073F81978002386B2994202F16002E8DD22F885
S214007408466C0133F7E7422D0BD16378542B55D1E0
S214007418A01C00F0D5FC434B188018462EF09BFEA7
S214007428D6E7582D34D8412DD2D9433D152DCFD87F
S21400743801A353F825F000BFFF770000D9730000BA
S214007448D9730000D9730000D9730000D9730000FF
S214007458AB750000D9730000D97300005D75000095
S214007468AB740000D9730000D9730000D97300000C
S214007478D9730000E176000059760000D973000041
S214007488D9730000D9730000D9730000577700003D
S214007498692D9DD1601C2EF06AFF80B22EF0F6FF93
S2140074A896E71B4B0120197800231B4A994202F1E4
S2140074B8E4028DDD02F8E20C0133F7E7601C00F009
S2140074C87FFC0546E01C2EF0CAFF0121024628462E
S2140074D82EF081FF60211948194C03785943621829
S2140074E865524FF4FA6111824FF44871516115499B
S2140074F856831165013303706AE700BF26560020DD
S214007508DC660020EA16040001170400885D0020E7
S2140075188B5D002011170400E41C0020581700207B
S214007528E0160020646D002090160020E41B002062
S214007538281A002061170400875D00208D5D002052
S214007548B022002047630300895D00208A5D002082
S214007558D8180020601C00F033FC00224FF03408D6
S2140075688146CE4F11462EF036FF3878CC4D08FBB4
S21400757800F325F80390EA18E3781046693B18BF2D
S214007588012393702EF089FE0021C64A3B7851608D
S214007598012103FB08550B443B7015600F46117418
S2140075A816E7601C00F00CFC0022114681462EF0FF
S2140075B812FF3422B94DDFF8E882287802FB00F380
S2140075C828F8039008EB0301E3780846693B18BFE0
S2140075D801238B702EF061FEB34A00231046916B90
S2140075E831BB00EB831034232A7802FB03838363C2
S2140075F8AE4A00231046D2F8B410F9B9E42202FBCA
S214007608030034232A7802FB0383C0F8B4305FB93A
S214007618A44A3B46114652F8040BA8B934222878E7
S21400762800FB028241F823202B7801332B70CFE62B
S2140076380133042B02F14002D1D1D9E70133042BE0
S21400764802F1E402D7D1E2E70133042BE3D1EBE7FA
S214007658601C00F0B5FB8046E01C2EF000FF012100
S214007668024640462EF0B7FE60229148914D0178BA
S214007678DFF85CC24A43AB1825F802804FF448721C
S2140076881A825A618C4A5E839A65E278E424642AF0
S21400769804BF01229A709CF80030DFF810E25C43C1
S2140076A80EEB04020EF804304FF4007454800324E2
S2140076B81471947101EB410405EB4415322482F8E9
S2140076C8B04000240133DBB201315371D560148118
S2140076D801708CF800307BE6601C00F071FB00221D
S2140076E84FF0380A8146DFF8E08111462EF073FE27
S2140076F898F80030714D0AFB03F325F803904FF015
S2140077080109EA1882F80490E37873B1E01C00F0E7
S21400771857FB0022044611462EF05DFE98F800300E
S2140077280AFB03535C8083F8069065485E4A037834
S2140077389901535498F8001002EB8314C1EBC10268
S21400774805EBC2054A1C656388F80020D2E6601C73
S21400775800F036FB8046E01C00F032FB0546601D54
S2140077682EF07DFE04460246012140462EF033FEEA
S2140077782246284601212EF02EFE60204FF4487C33
S214007788DFF82CE14B4A9EF8003000FB03F422F8A1
S2140077980480DFF824811119A1F810C0C1F814C0BC
S2140077A84E83C1F85880591CC9B248431418A4F827
S2140077B810C0C4F814C06683C4F8588094241552C0
S2140077C8404D981C8EF800002878DFF808C144431E
S2140077D803EB430301EB41010CEB040E02EB4313EE
S2140077E802EB41120CF80400CEF80430CEF808205C
S2140077F801302870ECE5601C00F0E2FA8046E01CD8
S21400780800F0DEFA00220546114640462EF0E3FD5B
S21400781800223824114628462EF0DDFD2A48274A3D
S21400782803784FF0000E04FB03FC22F80C804FF0A0
S214007838010802EB0C0181F806E081F8048003EBEE
S2140078480801C9B24C4302EB040C15539C1C047087
S21400785870241E4D8CF806E028788CF80480444383
S214007868DFF874C0C3EBC303C1EBC1010CEB040E15
S21400787802EBC30302EBC1020CF80400CEF8043096
S214007888CEF808204044B4E790F805C001358C458A
S21400789884BF04714471E4301AE500BF8E5D002091
S2140078A8D0260020C8670020E41B0020E41C002027
S2140078B88D5D0020B02200203D7100008020002051
S2140078C88A5D0020895D00208C5D0020885D002090
S2140078D88B5D0020281A0020D8180020B9F1000F68
S2140078E807D01BF8052C02EB420204EB8204CBF807
S2140078F808405946384601F0E1FB09F10109E4372A
S2140079080BF10C0B19E579180AD0481E09FB00B0D4
S214007918C07900EB400004EB800409FB01B08460EA
S214007928104609FB0151039201F054F931781C48BE
S214007938394409FB015101F077F8039A01374032C0
S21400794805E5FD4218BF11F8050C03911EBF00EBB4
S214007958400004EB80048C6003FB052000F07CFFED
S214007968039901350C31FDE4F74218BF15F8053CBC
S21400797829461CBF03EB430304EB830408FB07A05C
S21400798818BFAC6000F03EFE01370C35FEE413F875
S214007998011D00297FF404AD3B2102F8011CFFE419
S2140079A87420002007B5012121200DF1070200F000
S2140079B81FFA18B99DF80720024B1A7003B05DF835
S2140079C804FB00BFB26D002007B5064B8DF8070014
S2140079D8187001210DF10702212000F019FA03B0F2
S2140079E85DF804FBB26D002007B5022101200DF1F9
S2140079F8060200F0FDF938B9044814F0F7FABDF8A5
S214007A08060003B05DF804FB0020FAE77E170400C2
S214007A1807B50221ADF806000DF10602012000F0B8
S214007A28F7F9014610B1034814F0E0FA03B05DF820
S214007A3804FB00BF9F17040010B5FFF7D5FF0446E8
S214007A480146074814F0D2FA0121064814F0CEFA87
S214007A5824B9BDE810400120FFF7DABF10BD00BF0B
S214007A68CF170400E117040008B5044814F0BEFA5E
S214007A7800F0DEF92EF00EFD2EF009FDF7170400D3
S214007A8838B50446084D094B28462B6000F006FA20
S214007A98002C18BF21462846BDE8384008BF4FF4DA
S214007AA896712EF001BD00BFD42700209563030011
S214007AB82DE9F043394D93B008AC07468946904601
S214007AC80FCD0FC40FCD00260FC495E8030003237F
S214007AD8012584E80300324C3248CDE90366CDE937
S214007AE805668DF80E300796029539F062FA2E482C
S214007AF839F05FFA32462D4920468DF8176004F0B3
S214007B0893FE334632462A498DF8190000902046DF
S214007B188DF82390CDF82C808DF8216004F09EFE19
S214007B280A9020468DF8097004F0FEFD204608AA43
S214007B3805A904F0B9FE02AA204603A92FF09DFD68
S214007B484FF400721B4B5A62194BE560626A920545
S214007B5810D46BB94FF40072164B11485A6204F0F1
S214007B68E3FD114839F028FA002013B0BDE8F08389
S214007B78013BEBE7002BEDD0094908A82FF0B0FD34
S214007B884FF400720B4B06485A6204F0CDFD0648C7
S214007B9839F012FABDF82000E7E700BF4CAF040042
S214007BA80040005A9CB1040098B1040080841E006E
S214007BB840420F000060005A0122034B1870034B26
S214007BC81980034B1A707047905D00206C6D00207A
S214007BD88F5D0020F8B5454B1B780BB90020F8BD23
S214007BE8434B1B78012B03D1BDE8F8402EF0D1BBE0
S214007BF8404B1C884FF6FF739C42EFD03E4839F046
S214007C08D8F90023260AE4B21A462146304604F07C
S214007C184BFD012E354604F0010335D015D9B51EA7
S214007C28012DDBD8002B0BBF4FF480754FF0807505
S214007C384FF470614FF070610BBF01274FF4803727
S214007C480F204FF470202D4B11E0002B0BBF4FF484
S214007C5880754FF080754FF470614FF070610BBF00
S214007C6801274FF480370F204FF47020244B1A68F2
S214007C7802401CD0BA421AD01A680A4032D11A6892
S214007C8822EA01022A4316E0002B0BBF4FF4807548
S214007C984FF080754FF470614FF070610BBF01278D
S214007CA84FF480370F204FF47020164BDFE71A6822
S214007CB822EA00023A431A602EF06BFB05460028BB
S214007CC88CD0083644EA06102A460321C0B2FFF7CD
S214007CD8EFFE40F6FF73684300F2FF70B0FBF3F068
S214007CE880B27CE795427FF479AFC8E78F5D0020C5
S214007CF8905D00206C6D00209CB1040028C30350E2
S214007D0820C3035024C3035010B5044C237823B96A
S214007D18034839F04EF90123237010BD925D002008
S214007D289CB104002DE9F0431F4C85B007468846F1
S214007D389146FFF7E9FF23781BB901F05BFF0123A3
S214007D4823707BBAADF80C3030220023174E02FBA6
S214007D5803F4315DA51901BB012333554FF0FF33FA
S214007D6804F1100012493044AB606F80C5F80480F7
S214007D78C5F80C9009F036FA04F1080104223144DB
S214007D880C4B009503A802F00BF8A96802460A48AF
S214007D9814F02CF905B0BDE8F0830133102BD6D1CA
S214007DA8064814F023F9F5E7915D0020FC2700202B
S214007DB8BF630300D16303000418040032180400EC
S214007DC880B10278A2F14103032B0BD840783038F3
S214007DD8C0B2082806D8054B134413F8413C40EABD
S214007DE8032070474FF6FF70704700BF74AF04005B
S214007DF808B50B4642B101460448006803F018F976
S214007E08BDE808402EF03CBB022008BD34680020C0
S214007E1808B50B4642B101460448006803F090FADC
S214007E28BDE808402EF02CBB022008BD34680020B0
S214007E38F0B50026124F8DB0FF2300930A22334672
S214007E48386802A92FF0BEF9C0B102AB1D4603EB95
S214007E58800404E055F8043BB34228BF5E1CAC42DD
S214007E683868E9D9296803F0F1FB0028F2D02D28F4
S214007E78F0D00DB0BDE8F0402EF002BB0DB0F0BD5E
S214007E883468002028B1034B0360034B436000238B
S214007E988360704719000003DC670020FF2307B5DE
S214007EA80021044A0093083009F020F903B05DF871
S214007EB804FB00BFAB6403000B460449024608688F
S214007EC80349097808B12EF0FFBA7047082B00203E
S214007ED8945D0020F7B50C4618B12921194839F0E9
S214007EE8CEF8246823685E795F8830463946FFF7FF
S214007EF8E3FFF0B18568E5B1A089227D3946904256
S214007F0891BF0020801AA36880B294BF03469B18CE
S214007F18E27C00903046A8470138032803D8DFE8FB
S214007F2800F0080F0B0D0024204632F0FEFA20461B
S214007F3800E0812003B0F0BD8024F5E79324F3E742
S214007F488724F1E75A180400F8B515460D4A044682
S214007F5810680D4A0B46117850B122462EF0B4FA36
S214007F68034628B100210C27C678B14201DB002061
S214007F78F8BD07FB01F45A681019125BAA42F7D03D
S214007F880131F2E7082B0020945D002008B5034B6A
S214007F981B6803B19847002008BD00BF042B0020CB
S214007FA82DE9F74F04460D460026454B454F186009
S214007FB8454B197033010021F85C01360FF0ECFED2
S214007FC80C2EF7D10C2D28BF0C254FF00009019573
S214007FD83C4EDFF800A13D4DDFF8FC80019B4B4589
S214007FE802DC03B0BDE8F08F23784FF0000B337047
S214007FF863887380A388B380A379C6F80880B371B2
S214008008E379C8F8005088F804304FF00003A768F2
S214008018A8F80630E3795B450ADC012116F8100B50
S2140080280FF0BAFE08F1080809F101090C34D5E783
S2140080384FF0000338886B812880FB784FF0000CDF
S2140080482B81BA78C5F804A0002A00920CBF8022BB
S21400805840222A7379680AF10C02634513DC03EBA5
S21400806843030AEB830ABB6843B1009A4FF6FF71D5
S214008078B2FA82F2164B520932F0E7F914350BF1D0
S214008088010B0C37C6E7B1F800E00CF1010C22F83A
S2140080980CEC91F802E00C3202F816EC91F804E0C9
S2140080A80C3102F815EC11F809ECBEF1010F14BFFB
S2140080B84FF0100E4FF0110E02F814ECCDE700BF8B
S2140080C8082B0020F0410020945D00200C31002091
S2140080D8DD7E00000C2B00208C330020014B18603E
S2140080E8704700BF002B002070B5128805460E4664
S2140080F8FFF72AFF044670B102790499806815F0E4
S214008108E5F8064B1B680BB9002070BD31462846BB
S21400811822889847F8E78620F7E700BF002B00205C
S21400812808B50EF0D5FE022806D0012806D0044B66
S21400813818784000C0B208BD0120FCE70220FAE724
S214008148935D0020054B10B51C682CB1FFF7E8FFBF
S2140081582346BDE81040184710BD00BFFC2A002083
S214008168014B1860704700BFFC2A0020034B1A78A2
S2140081781AB901221A700AF0B1BE7047935D002042
S2140081880022024B1A70FFF7DDBF00BF935D002088
S21400819837B50446002832D00EF09AFE022830D1B1
S2140081A8608932F03FFDE079237A003818BF012055
S2140081B8012B637A08BF40F008000BB140F01000AE
S2140081C863890BB140F00400257CA188A2790DB123
S2140081D8E36873B90C4B10F0BBF92178084610F029
S2140081E833FA32F02BF8002814BF0320002003B01F
S2140081F830BDCDE90035054B10F0AAF9EDE70220B1
S214008208F5E70120F3E700BF4166040044350400A3
S21400821808B50CF0C1FF014630B1044813F0E6FE7D
S214008228BDE808400DF05CBB08BD00BFCC180400D4
S214008238034B044A5B7C012103201370FFF7E8BD5B
S214008248C8670020955D002010B50446FFF7F0FFCC
S214008258B4F57F4F0BD100240F4B1A8813449C703B
S214008268FEF712FF2046BDE81040FFF709BC4FF6A0
S21400827801739C4204D1BDE8104008482EF00FB8A0
S2140082884FF602739C4205D1BDE81040044B18789F
S214008298FFF79ABB10BD00BF24560020C867002011
S2140082A8B26D002010B5074C012122460320FFF7C7
S2140082B89FFD28B92378044A003B18BF012353744E
S2140082C810BD00BF955D0020C8670020F8B5564B66
S2140082D8564C1A884FF6FF739A4218BF03234FF07E
S2140082E8080218BF2370524B30251A7032225A7073
S2140082F8DA70DA7135229D705D7137251A724FF47F
S21400830800129D714B4D3626C5644B4D426405657B
S2140083184A4D012285654A4D1E71C565494D861828
S2140083284566494DC6678566484D494E0567494DB9
S21400833880F848204567202580F8785080F88450D3
S21400834800F12105C0F88850434D80F85420C0F845
S2140083588C5080F8602080F86C20C0F8806080F828
S2140083689020C0F89440C0F8B8303C4B3C4CC0F85D
S214008378BC300223C0F898403A4C80F8C030C0F8A9
S214008388A4400F24384B80F8A840C0F8C430374BB8
S214008398374CC0F8C8308223C0F8AC40354C80F85B
S2140083A8CC30C0F8B0400924334B344DC0F8D03038
S2140083B8334B80F8B440C0F8D4302C7C314B80F86E
S2140083C89C20C0F8A00080F8D820C0F8DC3044B163
S2140083D82D4B80F8E420C0F8E03005F11103C0F812
S2140083E8E8304FF0000CCA798E6802EB42039F0013
S2140083F8443006EB830326F807C0586001200D3486
S2140084089870DC701318CB71FFF7CCFAFFF74AFFA9
S214008418FFF786FE012806D12B7C23B1BDE8F8407D
S21400842816482DF03CBFF8BD646D0020B36D0020E3
S214008438965D00208DAF0400010020008CAF04007C
S214008448020020008BAF0400030020008AAF04005F
S214008458050042000400420007003000FDFF21002E
S214008468120010010040420088AF040000FF4401DB
S21400847878AF04000600420024560020C867002093
S21400848802FF2001B26D002001FF100113B504465B
S2140084980D482DF06BFE6422C0F30F43637083B261
S2140084A8B3FBF2F3A0782370202201212EF02EF8D9
S2140084B8A078212201212EF029F80449201D02B0B7
S2140084C8BDE810402DF0F0BF646D0020E093040076
S2140084D80B7870B583704CF61E0303804FF020139C
S2140084E8C362012380F8303080F83C30C318036438
S2140084F8124B044643640223114A80F84830114B55
S2140085088263C3644063CA798D6802EB420305EB55
S214008518830004F12C0646600B4E45F823600023C2
S2140085288360531CCB71094B201DC4E90134FFF747
S214008538B5FC2046BDE87040FFF7A8BFFDFF210048
S214008548210020008EAF040001000103958400007E
S214008558437B044A0121137000781130C0B2FFF73C
S21400856857BC00BFA05D002038B504460078054D0E
S21400857811302A460121C0B2FFF73AFC08B92B7819
S214008588637338BDA05D0020024B53F820002EF020
S21400859884B800BFEC330020012908B506D00229AC
S2140085A807D049B92EF070F8002008BD2EF06FF8F5
S2140085B8FAE72EF06FF8F7E7024813F017FD0120E8
S2140085C8F3E700BFF918040010B4054C114654F838
S2140085D820001A46BDF804305DF8044BFFF7DCBFF0
S2140085E8EC330020002310B5044683810364A0F80A
S2140085F844304830FFF752FC014BC4E9123410BD32
S2140086088966030038B504460B781A4A43700D4647
S21400861842F82300FFF7E6FF2046FFF7A5FF4FF4D2
S214008628401323610123144A2375A261134A84F870
S2140086382030E261124A84F82C306262114A84F8CB
S2140086483830A26204F10C0222630F4A04F10D03CB
S2140086586263E363EA79A86802EB420300EB8301EE
S21400866810344C60094C40F82340094B8B60531C6F
S214008678EB7138BDEC3300209F5D00200800200019
S214008688B46D002000FF300001FF10010201010454
S214008698D185000010B47024427B0D48013A0129A8
S2140086A804FB020006D0022908D059B95DF8044B2D
S2140086B82DF0EABF5DF8044B2DF0E9BF5DF8044BDA
S2140086C82DF0E8BF03485DF8044B13F08FBC00BFDD
S2140086D8D818002015190400B0F85C302DE9F041D0
S2140086E88B4204460E4638D0437B077C8BB31C4A25
S2140086F812789A422DD370251A4A013B05FB0323AC
S21400870890F80F801B7B42462DF0D5FFB8450546EE
S21400871801D1FF281FD13A463146204694F89030BA
S2140087282DF0C9FF2F460546552212216078A4F879
S2140087385C602DF0EBFEFF2F03D039462046FFF78E
S214008748A9FFFF2D09D029462046BDE8F0412DF0A7
S214008758F2BFFF25DFE70746E6E7BDE8F08100BF82
S214008768885D0020D818002041688268C978D278C9
S21400877849B112B10321FFF7AFBF837B002B0CBFB3
S21400878801210221F7E72AB1837B002B0CBF0221C7
S2140087980121F0E7014813F029BC00BF26190400A0
S2140087A8037BD3B14368DA7812B18268D278A2B96B
S2140087B81B7933B1837B002B0CBF04210521FFF7FF
S2140087C88BBF83681B792BB1837B002B0CBF0521DD
S2140087D80421F4E7014813F009BC7047581904004F
S2140087E8084A437B05211370837B5370C37B9370C1
S2140087F8037CD370037B137100780E30C0B2FFF78A
S21400880807BB00BFA15D002038B5044600780C4DB4
S2140088180E302A460521C0B2FFF7EAFA20B1BDE8B5
S2140088283840084813F0E2BB2B7863736B78A37361
S214008838AB78E373EB7823742B79237338BD00BFCA
S214008848A15D002094190400024B53F820002DF077
S214008858BCBF00BF14340020F8B504460B78424A63
S21400886843700D4642F82300404E2DF0CCFFFFF72C
S214008878CBFF6268A3683E483E49D6641165D46556
S2140088885065C3E91410DE64DC654FF09873022661
S2140088986361012304F10C01E1613749103221625A
S2140088A804F10D01A16235492376E16204F10E0157
S2140088B86163334984F82430A16304F10F0121640D
S2140088C8304984F83030616404F11001E1642E49BF
S2140088D884F83C3084F84830216584F85460A265F2
S2140088E8E879A96800EB400201EB820704F1140C52
S2140088F8C7F804C04FF4817C244F41F82270C21890
S214008908D2B202EB420241F822C001EB82070022F3
S2140089187A601F4A84F8703022661E4A84F88830C7
S214008928A2661D4A1D4BE2661D4AC4F88C30626773
S2140089381C4A8319A26704F15C02C4F88020DBB2E3
S214008948194A03EB4303C4F8842084F8646084F867
S2140089587C6001EB830260345460144A033041F8AB
S2140089682320E871F8BD00BF14340020718700008A
S21400897895670300A9870000010020010200100186
S21400898803003001040030010500210101FC010646
S2140089984A00210090AF04005100100092AF040076
S2140089A893AF0400550021006F0018001200010460
S2140089B870B50D460646144613460A46014616483E
S2140089C813F014FB25B92046BDE87040FFF73CBC01
S2140089D8072D05D121463046BDE8704000F0F4BAB0
S2140089E84FF601439D4205D121463046BDE870400A
S2140089F8FFF72ABF062D05D121463046BDE8704050
S214008A0800F0A2B8B5F5817F05D121463046BDE80D
S214008A187040FFF7B9BD70BDC31904000148FFF7E1
S214008A285DBB00BFB98900004FF4C01330B50360C2
S214008A3801230371074B8C688360CA7902EB4203F3
S214008A4804EB83056860044844F82300531CCB7184
S214008A5830BD00BF94AF04000400010138B50024FF
S214008A68044D55F8040B08B12DF0DDFE01340A2C30
S214008A78F7D138BD3C340020042908B50AD172B1B4
S214008A886BB113781BB92DF0F9FE002008BD2DF048
S214008A98EBFEFAE7034813F0A9FA0120F6E70320ED
S214008AA8F4E700BFF619040010B4054C114654F854
S214008AB820001A46BDF804305DF8044BFFF7DCBF0B
S214008AC83C3400200229024608B50ED004D839B92D
S214008AD810462DF0D3FE06E04029F9D0412907D1EB
S214008AE810462DF0C1FE002008BD2DF0D1FEFAE795
S214008AF8024813F07BFA0120F6E700BF161A0400B6
S214008B0810B4054C114654F820001A46BDF8043037
S214008B185DF8044BFFF7D6BF3C340020426B094B88
S214008B2852791A7082785A70C2789A70826B12B12B
S214008B3890F83C20DA70007804210930014AC0B267
S214008B48FFF766B9A65D0020024B53F820002DF00B
S214008B58BBBE00BF3C34002038B504460078084D3C
S214008B6809302A460421C0B2FFF742F930B96B78BB
S214008B78A370AB78E370EB7884F83C3038BD00BF60
S214008B88A65D002038B504460078114D09302A46FF
S214008B980421C0B2FFF72CF9C8B9A3782A78022BAB
S214008BA80CD004D863B920462DF068FE01E0FF2BF0
S214008BB80AD02046BDE838402DF035BE002AF2D14E
S214008BC820462DF051FEF4E7002AF9D1EBE738BD30
S214008BD8A65D0020F8B504460B78284A0D4642F8EC
S214008BE823004370FFF7B8FF636B254A5C631A637C
S214008BF82046FFF7C7FF20462DF015FE4FF48013DA
S214008C0863600123626BA66B0532E2601D4A23721D
S214008C182261A21C2375A26166B11B4A84F8203023
S214008C28E261E21C6262194A84F82C3004F13C03C3
S214008C38A26223630627EA79A96802EB4203002E9C
S214008C4821F8237001EB83000CBF02230423C370B2
S214008C58012383700E4B04348360531C4460DBB2DC
S214008C680C4C03EB430341F8234001EB830000233D
S214008C784360094B02328360EA71F8BD3C34002039
S214008C88AD6803000340300101FF300102FF100108
S214008C98098B000008000100B18A000028B1034BC8
S214008CA81B78834234BF0020012070478A5D00206D
S214008CB870B500250A4C0B4E3378AB4200DC70BD0D
S214008CC8D4F8B42042B123791BB16079FFF7E6FFE8
S214008CD810B910462DF0D4FA0135E434ECE700BF9D
S214008CE8E41C00208B5D002008B54279014610463A
S214008CF8FFF7D4FFA8B1CB780A48013A042B00EB5B
S214008D0882100ED8012B08D81BB9BDE808402DF0F4
S214008D18ABBDBDE808402DF0B1BDBDE808402DF05C
S214008D28B7BD08BDE41B002008B5427901461046C9
S214008D38FFF7B4FFA8B1CB780A48013A042B00EB3A
S214008D4882100ED8012B08D81BB9BDE808402DF0B4
S214008D5895BDBDE808402DF087BDBDE808402DF05C
S214008D6897BD08BDE41B002010B586B00446FFF783
S214008D78D7F9012830D1E278042A2DD8DFE802F0A6
S214008D8813323403030061790846FFF787FF58B3A8
S214008D981648032A00EB811050F80C3C58791DD170
S214008DA8003818BF012063784FF480728DF80430BD
S214008DB84FF48273ADF806300623ADF80830012369
S214008DC88DF80B3000238DF80A0001A8CDE903239F
S214008DD88DF81430FFF7DCF906B010BDB0FA80F055
S214008DE84009E0E70020DEE70220DCE7E41B00207D
S214008DF810B586B00446FFF793F9012830D1E2781B
S214008E08042A2DD8DFE802F0131332030300617931
S214008E180846FFF743FF48B31548032A00EB8110BE
S214008E2850F80C3C5B791DD11A1E18BF01226378D6
S214008E388DF80A208DF804304FF48273ADF80630AA
S214008E480623ADF8083001234FF480728DF80B30F6
S214008E58002301A8CDE903238DF81430FFF798F90D
S214008E6806B010BDB3FA83F25209E0E70222DEE745
S214008E78E41B002010B586B00446FFF751F9012818
S214008E8812D16378094A8DF804304FF48273ADF82E
S214008E9806304FF48073CDE90223002301A804931B
S214008EA88DF81430FFF774F906B010BD08000701F6
S214008EB810B586B00446FFF733F9012820D162784A
S214008EC8104B8DF804204FF4827294F8B01094F882
S214008ED8B10059701870ADF8062004934FF48072EC
S214008EE80223094901A88DF81430CDE90212FFF7CC
S214008EF84FF994F8B130013B18BF012384F8B1301C
S214008F0806B010BDAA5D00200800050110B58378DC
S214008F1804464BB30379022B0AD142791046FFF771
S214008F28BDFE28B11148013A00EB82102DF0B0FCC6
S214008F38A379022B02D12046FFF716FF2046FFF73B
S214008F48B7FF012384F8B83002231221552260782F
S214008F58A4F87C302DF0DAFA218929B104F1BC0096
S214008F68BDE810402DF0A0BA10BD00BFE41B0020DD
S214008F7838B50D4604460178114813F037F84FF611
S214008F8802739D420ED10F4B1B782BB96371204696
S214008F98BDE838402DF05ABD62790AB19342F6D240
S214008FA80123F3E7B5F57F4FF1D120462DF036FDC6
S214008FB8A378022B0CBF01220022E3689A70E6E72A
S214008FC8321A04008A5D0020024B53F82000FFF78F
S214008FD8CFBF00BF64340020002330B504460078B5
S214008FE887B004300C2103AAC0B2CDE90333059339
S214008FF8FEF7FEFE20BB9DF81610012920D1BDF80D
S2140090080C30BDF810206380BDF80E302648A380CB
S214009018E3681A829DF8123084F8B0309DF8133051
S214009028A371BDF81430238112F0E0FF1F4B61795D
S2140090381B7883BB99B1204663712DF007FD0EE0BF
S214009048002320780821043001AAC0B2CDE90133F4
S214009058FEF7CEFE054620B1154812F0C7FF07B04A
S21400906830BD0121134812F0C1FFBDF80430BDF829
S21400907808206380BDF806302046A380E3681A827D
S2140090889DF80A30258184F8B0309DF80B30A3711E
S2140090982DF0DCFCCAE709B18B42E0D2064812F094
S2140090A8A5FF23780133C6E74C1A04008A5D002022
S2140090B86E1A0400971A0400C61A0400F8B5044687
S2140090C80B78504A0D4642F823004370FFF784FF9A
S2140090D84D4B04F1BC00C4E92F34FEF7DFFEE2680E
S2140090E84A4BD465D3644A4B02265365494BA11CA8
S2140090F813654FF44013236101231032A1612163E5
S21400910862654549454A6163A265211D04F1B002BE
S214009118E163226642484349434AE0612164626645
S214009128E01C611DA21D6062A164E2663F484049DA
S214009138404A237584F82030A06284F82C3084F8DE
S214009148383084F84430E16484F8506084F85C3041
S21400915884F86830226784F8746004F10802A2670D
S214009168AA68E87904F1100C00EB400102EB8107CD
S214009178C7F804C04FF0060C2F4F42F82170C118EC
S214009188C9B201EB410142F821C002EB8107002178
S21400919879602A4F84F89030C4F88070284F84F895
S2140091A8A830C4F88870274F274BC4F88C70274F10
S2140091B884F8846084F89C60C4F8AC3004F17C06BB
S2140091C8831CC4F89470C4F8A060214F214EDBB20B
S2140091D803EB4303C4F8A460C4F8987002EB830654
S2140091E88034746008261C4C42F82340C31CDBB24B
S2140091F803EB430302EB8304043042F82360616008
S214009208E871F8BD64340020F7680300616903005C
S214009218B9690300158F000001FF300104FF200123
S2140092281000300102FF200105FF300100FF300169
S21400923803FF210106FF2101070001094A0021005A
S21400924896AF04005100100098AF040099AF0400D0
S214009258550021006F0018001200010400239B6AC5
S214009268B3F5C04F03D21968064A914203D00023CB
S214009278037083607047012202709A689B69426097
S214009288F7E700BF07B0CD5E024B034A1A602EF020
S21400929837BE00BF0000002002020FF073B5534B24
S2140092A804461A781AB102221A7002B070BDCDE9C7
S2140092B800220028F9D001261E7037F059FE4C4DC2
S2140092C84C4B186017F094F82B785BB902F062FAEA
S2140092D840B949480823494A4949006801F0A8FEA8
S2140092E800B92E70474B5A6E62619B6E464AA36160
S2140092F84FF40043936603F188435968E161434994
S2140093089960196E2160596E6160D3F87011A1607A
S214009318196CE160596C21613D49086C1864496C08
S2140093285964012151664FF4005191661A6E56042D
S21400933836D53849CA68D407FCD45B6E5A0434D587
S214009348354AD36B13F0430FFBD1344B1A68531CC2
S21400935831D04FF400139340314A13660423304C3F
S214009368684623664FF480632366102323664FF40B
S214009378005323664FF0804323664FF4804301A9C9
S21400938863662DF085FB009B2366019B63662B783E
S214009398002B8AD0194B1A6822665B68636684E7D6
S2140093A82049CA68D007FCD4C7E71F4AD36B13F016
S2140093B8430FFBD1C9E71D4B1B78002BCED14FF4CA
S2140093C88072114B5A661A4A52681AB94FF400113D
S2140093D8134A11664FF400725A66164B5B68002BE8
S2140093E8BCD14FF480020E4B1A66B7E7AD5D00207D
S2140093F8AE5D0020AC34002034680020B034002075
S21400940800710800008000500090005055CEAC0057
S21400941800C00054000004400000024C0068002011
S21400942800900044000004500000025CAC5D002080
S21400943800C005500000065070B52C4D04462E7826
S214009448012E02D001232B7070BD0028FCD02DF011
S21400945844FB01300BD02DF040FB40F2011398423C
S21400946805D0234B234A5E66D368DE07FCD4224B1E
S21400947822491B6E13F0040F4FF4005314BF1C4A06
S2140094881F4A9366CA6B12F04302FBD121681A4B37
S214009498196661685966A168C3F87011E1681964AD
S2140094A821695964E169C80748BF9A60154B1A686C
S2140094B801320DD1144A127852B914494968C907BD
S2140094C848BF1A60124A5268D20744BF01221A607F
S2140094D86269104B5A66A2699A6616F091FF0E4B9F
S2140094E8186837F040FD0023ADE700BFAD5D0020EB
S2140094F80090004000000440008000440000024C39
S2140095080090005000680020AC5D002000C00550A8
S2140095180000065000800050AC34002070B50024CF
S214009528A36AB3F5C04F23D21A68134B9A421FD1C9
S214009538124E337813F0FD0518D14FF480341048D6
S214009548FFF7ACFE032004F0B9FC0E4B0320DC60EA
S21400955804F098FC0C4B1C61AB6ADB699847044620
S2140095680748FFF769FF0CB901233370204670BD22
S2140095784FF48174FAE700BF07B0CD5EAC5D0020FB
S2140095888C34002000A000440090004413B5204B03
S2140095981B7803B9FEE700231E4CCDE900336A4664
S2140095A808231D49206801F043FDF8B91B4AD2F884
S2140095B84031D2F840211F2B4FF0010311D9203A31
S2140095C89340019A1A43019208236A461249206872
S2140095D801F0B6FE124B134A1A602EF091FC02B048
S2140095E810BD9340009A1A430092EDE72D28F1D15A
S2140095F80A4AD2F84031D2F840211F2B4FF0010317
S21400960885BF203A93409340019398BF0093DBE7C9
S214009618AD5D00203468002000710800008000441A
S214009628000000200B020FF038B50025AB6A044690
S214009638B3F5C04F10D21B6BB3F5C04F0CD207481A
S214009648FFF72CFEAB6A20461B6B5B689847BDE8A5
S21400965838400248FFF7F0BE38BD00BFB8340020D7
S21400966813B50024A36A0190B3F5C04F13D21B6B41
S214009678B3F5C04F0FD20948FFF710FEA36A0121C1
S2140096881B6B01A89B69984704460448FFF7D4FE5D
S214009698204602B010BD4FF48174F9E7B8340020B4
S2140096A870B50026B36A0446B3F5C04F0D4612D20D
S2140096B81B6BB3F5C04F0ED20848FFF7EFFDB36A31
S2140096C820461B6B29469B69984704460348FFF7C4
S2140096D8B3FE204670BD4FF48174FAE7B834002014
S2140096E870B50026B36A0446B3F5C04F0D4612D2CD
S2140096F81B6BB3F5C04F0ED20848FFF7CFFDB36A11
S21400970820461B6B2946DB69984704460348FFF743
S21400971893FE204670BD4FF48174FAE7B8340020F3
S214009728F8B50027BB6A0446B3F5C04F0D46164683
S21400973811D21B6B7BB10948FFF7B0FDBB6A204608
S2140097481B6B324629465B6A984704460348FFF770
S21400975873FE2046F8BD4FF40174FAE7B8340020CB
S21400976870B50026B36A0446B3F5C04F0D4612D24C
S2140097781B6BB3F5C04F0ED20848FFF78FFDB36AD0
S21400978820461B6B29469B6A984704460348FFF702
S21400979853FE204670BD4FF40174FAE7B834002033
S2140097A8F0B50027BB6A0446B3F5C04F0D4616460B
S2140097B8ADF5177D20D21B6BB3F5C04F1CD21048F1
S2140097C8FFF76CFDBB6A20461B6B40F251225B6AB2
S2140097D801A99847044630B10948FFF72DFE2046F0
S2140097E80DF5177DF0BD836A32461B6B2946DB6A8A
S2140097F801A898470446EFE74FF40174EFE700BF67
S214009808B834002010B50024A36AB3F5C04F10D2B0
S2140098181B6BB3F5C04F0CD20748FFF73FFDA36A92
S2140098281B6B1B6B984704460348FFF705FE20464C
S21400983810BD0124FBE700BFB8340020F0B58FB098
S214009848044601A80E461546FFF7EEFE9DF80C30B6
S214009858012B12D1B5F5002F27D8B4F5002F24D840
S2140098686319B3F5002F20D821462A46304613F050
S2140098786BFE002420460FB0F0BD0027BB6AB3F588
S214009888C04F15D21B6BB3F5C04F11D20A48FFF76D
S21400989805FDBB6A2A461B6B314620465B6B98471C
S2140098A804460548FFF7C8FDE4E740F20244E1E74E
S2140098B840F20114DEE700BFB8340020F0B58FB0E0
S2140098C8044601A80E461546FFF7AEFE9DF80C3076
S2140098D8012B1FD1B5F5002F06D8B4F5002F03D8F5
S2140098E86319B3F5002F13D940F2024420460FB08F
S2140098F8F0BDE258013225D104339D42F9D82A46F4
S2140099083146204600F082F80028EDD00024EDE726
S2140099180023F2E70027BB6AB3F5C04F15D21B6BCE
S214009928B3F5C04F11D20A48FFF7B8FCBB6A2A46FF
S2140099381B6B314620469B6B984704460448FFF746
S2140099487BFDD3E740F20344D0E740F20114CDE7AD
S214009958B834002070B58EB0044601A80D46FFF74F
S21400996863FE9DF80C30012B22D144EA0503C3F3AD
S2140099780C03002B33D1B5F5002F04D940F202446E
S21400998820460EB070BDB4F5002FF7D82544B5F5BF
S214009998002FF3D8204604F5005400F029F8AC420E
S2140099A802D00028F6D1E9E70028E7D00024E7E748
S2140099B80026B36AB3F5C04F14D21B6BB3F5C04F7D
S2140099C810D20A48FFF76AFCB36A29461B6B204682
S2140099D8DB6B984704460548FFF72EFDD0E740F2B4
S2140099E80444CDE740F20114CAE700BFB8340020AB
S2140099F84FF4003208B5044B9A6637F061FDB0FAAA
S214009A0880F0400908BD00BF00900050134610B50E
S214009A1862B103439B070BD14FF40034054B9C6699
S214009A2837F04AFDB0FA80F0400910BD0120FCE787
S214009A380020FAE700900050BFF34F8F0549064B09
S214009A48CA6802F4E0621343CB60BFF34F8F00BFCF
S214009A58FDE700BF00ED00E00400FA0570B5D0B1E0
S214009A68C9B10E4E431E013913F8014F2046325D28
S214009A7802F00302012A11F8012F08BF04F12000A2
S214009A88B55C05F00305012D08BF2032801A01D108
S214009A98002CE9D170BD0120FCE700BFB9D6040050
S214009AA80348044A0449121A92102DF07BB800BFE6
S214009AB84061000018630000F864002008B5154BE4
S214009AC883F30A8800F030F8FFF7EAFF124B1349D1
S214009AD88B4212D30020124B12498B4218D3FDF743
S214009AE821F9186850F82240586840F82240013298
S214009AF898688242F5D30C33EAE70022F8E71C6838
S214009B0844F8220001325C68A242F8D30833E4E73E
S214009B180022F8E7080000200413050010130500CB
S214009B2810130500101305004FF40041134B144A98
S214009B3870B59A60D3F88820124D42F47002C3F8C4
S214009B488820114A05F5005491664FF0FF322266C8
S214009B584FF6DF7262660222C3F8D020BFF34F8F3B
S214009B68BFF36F8F4FF44036032004F0A7F90320A5
S214009B78E66004F087F92E6170BD00BF00ED00E0D6
S214009B88006000000080004400900050054B1860FC
S214009B98054B1B6F03F00703032B01D135F08EBA74
S214009BA8704700BF10680020008000502DE9F04183
S214009BB804464FF001080C250D4E0CB9BDE8F0819F
S214009BC894FAA4F0B0FA80F00F2808FA00F2C8BF9A
S214009BD8103824EA0204CABF05FB006205FB0062CF
S214009BE8B4325768002FE8D09168C0B2B847E4E7A7
S214009BF8D834002008B50C4837F0DBF9192004F0F3
S214009C084FF928B1192004F059F9192004F03AF947
S214009C181A2004F045F928B11A2004F04FF91A2042
S214009C2804F030F9002008BD9CB104002DE9F0418D
S214009C380E461746054618B30F2923D80378DBB116
S214009C48013BDBB2022B19D8104AD35C6A78D340A2
S214009C58DB0717D50E4BD3F81043ACB937F088F9A5
S214009C6880463A462846314603F064F8404637F0C0
S214009C787AF92046BDE8F0817F23E7E70023E5E789
S214009C882224F6E72124F4E70224F2E7ECAF0400E6
S214009C9800C0035010B5044610B30378E3B1013B87
S214009CA8DBB2022B1AD8104AD35C6278D340DB07A3
S214009CB818D537F05DF90122617823788A4030217B
S214009CC84B4341F2100103F1A04303F570335A5099
S214009CD837F049F9002010BD7F23E6E70023E4E7C4
S214009CE82220F8E72120F6E7ECAF040010B504467A
S214009CF810B30378E3B1013BDBB2022B1AD8104A43
S214009D08D35C6278D340DB0718D537F031F90122E7
S214009D18617823788A4030214B4342F2100103F1E0
S214009D28A04303F570335A5037F01DF9002010BDD4
S214009D387F23E6E70023E4E72220F8E72120F6E77A
S214009D48ECAF040038B50D46044618B311B30378D3
S214009D58E3B1013BDBB2022B1AD8104AD35C627817
S214009D68D340DB0718D537F003F93022237853435E
S214009D7803F1A04303F570335B696278D34003F0C0
S214009D8801032B7037F0EFF8002038BD7F23E6E795
S214009D980023E4E72220F8E72120F6E7ECAF0400EA
S214009DA82DE9F0410D4616469846044600284FD041
S214009DB800294DD00178002940D04B1EDBB2022B7B
S214009DC83ED8254AD25C6378DA40D20701D4FF2908
S214009DD840D1022E01D9042E3CD137F0C9F8237899
S214009DE80746FF2B05D032462046296802F0E8FFD2
S214009DF828602B68013309D12378FF2B06D1174B2F
S214009E086078D3F824142DF09EFC286029684B1C33
S214009E1818D00C23124A03FB0122069BC2F80480C2
S214009E2893602378FF2B04D001230E4A8B40C2F898
S214009E382434384637F097F8002007E07F22C2E738
S214009E480022C0E7384637F08EF82D20BDE8F081AE
S214009E582220FBE72120F9E7ECAF040000C00350FE
S214009E68D834002000D0035008B502F059FF054B3F
S214009E7800F0553020F05020C3F82004BDE8084014
S214009E88FFF794BE00E0035008B502F049FF054B03
S214009E9800F0AA3020F0A020C3F82004BDE808404F
S214009EA8FFF784BE00E003502DE9F04F1446054640
S214009EB80E469B46C36B87B001225B6902A96068A1
S214009EC89847EB6B01225B6903A93046984702A8BE
S214009ED82DF067FA074648B10023A37563754FF05F
S214009EE8FF33A360002007B0BDE8F08F03A82DF06D
S214009EF865FA0123A375237E04EBC303DE611F8482
S214009F086368B3420ED1206003A82DF079FA4FF0AB
S214009F18FF332075A360237D043B022B26D800233D
S214009F28A375DFE723681A1A53425341A37503A89B
S214009F382DF066FA237D834218BFA77503A82DF077
S214009F4841FA074602A82DF03DFA874218BF0023BB
S214009F5803A818BFA3752DF03DFA074602A82DF0F2
S214009F6839FA87421CBF0023A375D4E703A82DF04F
S214009F7829FA80B1EB6B022230465B6904A9984740
S214009F8804A82DF02EFA0346207D032839D8DFE8EA
S214009F9800F03838040903A8F3E7CC22237E04EB44
S214009FA8C3031A8401F06EFC109B187003A8277E62
S214009FB82DF0FCF904EBC70787F82200237E03A8D8
S214009FC804EBC303B3F8209093F822702DF0FAF947
S214009FD8804603A82DF0FEF98246B8F1000F15D08A
S214009FE8EB6B022230465B6904A9984704A82DF05B
S214009FF8BDF96075637D6BB90023A3754FF0000843
S21400A00838E0227E04EBC2021384CBE703A82DF0C7
S21400A01898F9EEE794F81680B8F1000FEED0B9F18B
S21400A028000F09D1DFB10123E375637E002B4FD102
S21400A038012F42D1677614E06B6C06EB0A015A4290
S21400A04886EA010010421CBF0022A2755A1E0A406A
S21400A0589B1A9945D0D8A37D002BE3D1CEE7E37DA4
S21400A06843B94FF000084B465246314628462CF076
S21400A078E3FEA060A27D12B123694B4423611A490E
S21400A088237E097899422AD901332376BBF1000F3B
S21400A09827D032B3E37D23B3B8F1000F21D1032FC5
S21400A0A81FD0A1684B1C1CD0109B22460093284644
S21400A0B80123FFF7F9FEA07513E095F8343063B96D
S21400A0C8EB6A0133CFD1032FCDD10123A376C8E79E
S21400A0D8012FCFD0032FC4D1F7E79846C3E7002354
S21400A0E8A375A07DFFE600BF10B004002DE9F04F71
S21400A0F80E46984600238BB004464FF0FF311046B4
S21400A10817468DF8133001F0A7FBB6F5801F20D24E
S21400A118314605AA04F108002DF095F8451C0146BD
S21400A12803D1237CBBB92D2010E0384601F094FB00
S21400A1380122394620460DF113032CF0CFFE0028E5
S21400A148EFD09DF8133088F8003000200BB0BDE83B
S21400A158F08FB01CE5D1E56A691C36D12046616AE5
S21400A1682CF0B0FD0546B31C18BF0123DFF8CC90D1
S21400A1780193636A626C0293236805A902FB053A99
S21400A188E36B05225B695046984705A82DF0A4F9AD
S21400A1982DF0C7F950462DF0CFF94FF0000B824648
S21400A1A801464B1C05D0636C81EA0A025B421342E7
S21400A1B811D0294620462CF085FD029BAB422CD0B8
S21400A1C8BBF1000F2CD10546D3E72368ED1A636C64
S21400A1D8B5FBF3F5C7E7484601F03EFB0DF1130360
S21400A1E849462046019A2CF079FE034690B1B21CE7
S21400A1F803D0D9F80020B2420CD19DF8132003935F
S21400A2080D4B88F8002049461A68384613F09CF922
S21400A218039B9B46D9F80810C3E7BBF1000F82D012
S21400A228B6F5801F91D2314698F800307A6804F166
S21400A238080001F03FFA88E70CB00400B43C0020A0
S21400A2482DE9F3410446174698460E46184D816A8E
S21400A258E36A8B4201D04B1C02D102B0BDE8F08104
S21400A268284601F0F9FA0122294620460DF107038F
S21400A2782CF034FE38B14346294620469DF8072080
S21400A288B8470028E9D0A9684A1C04D1696820465E
S21400A2982CF0A5FD0146012EDAD16B6881EA03028F
S21400A2A8636C5B421A4218BF4FF0FF31D0E700BF1D
S21400A2B8883C00202DE9F04F4FF0FF334FF6FF7231
S21400A2C80025044600F10806C0E909238BB0C362DE
S21400A2D805620563304688462CF086FF20462CF03B
S21400A2E8C1FC60BB204641462CF03CFD20462CF0C5
S21400A2F8B9FC60BB5E200BB0BDE8F08F2368E26B4C
S21400A308606C576900FB0530052205A9B84705A803
S21400A3182DF0E2F8012807460CD1294620462CF0F5
S21400A328F2FC012F024600D10132294620462CF0C5
S21400A338B8FC03E02DF0FAF80028EED10135E36901
S21400A3489D42DBD320462CF08DFC0028CAD0002581
S21400A3584FF0FF394FF6FF73CA46A846C4E90853BC
S21400A368E36998450AD3A5EB0905012D2CD84FF6C5
S21400A378FF72636A93423CD16720BCE72368E26BAE
S21400A388606C576900FB0830052205A9B84705A880
S21400A3982DF0A2F8834605A82DF075F8074658460E
S21400A3A82DF0BFF868B1574538BFC4F82480B945C2
S21400A3B828BFB946BD4238BF3D46BA46236A013370
S21400A3C8236208F10108CBE74FF6FF7300256362A6
S21400A3D8E3699D42CBD2676C2068E36B052207FBD6
S21400A3E805005B6905A9984705A82DF04CF80135C6
S21400A3F8EEE7E26B676C2068694607FB0300556961
S21400A4080522A84768462DF03EF8626A2368606C05
S21400A4184B4D00FB02302DF08FF84FF0FF33A06253
S21400A428E3622A466FF00101204605ABFFF75EFEA1
S21400A438002846D1AD6829462046E5622CF0EEFB9A
S21400A448206320B92046E16A2CF0C9FCE062294660
S21400A45820462CF0C4FC0546A36A9D4233D120460C
S21400A4682CF0AFFB00278046B946E36999453CD3F4
S21400A478B84559D92046616A2CF024FC00260546C2
S21400A48804F1400AB74212D8626C2368694602FB98
S21400A4980539E36B05225B694846984768462CF001
S21400A4A8F2FF534602464946E06B2DF047F8294628
S21400A4B820462CF007FC0136B0450546E2D164205C
S21400A4C819E7A56AB7E7294620462CF0A7FB236BB1
S21400A4D8294603440746236320462CF080FC05469D
S21400A4E8002FB9D1C4E90B07B6E7636C25680522C7
S21400A4F803FB0955E36B05A95B692846984705A839
S21400A5082CF0EAFF2DF00DF858B128462DF014F877
S21400A518014620462CF082FB636C143B984208BF29
S21400A528013709F10109A0E730462CF05DFE00234B
S21400A53820461946034AFFF783FE0020DBE600BFE5
S21400A548E03C0020D36E03002DE9F041036B9046F3
S21400A558826B07689A4288BF8363426C436A90B0EE
S21400A56802FB0377C36B0E46052201A95B69044606
S21400A5783846984701A82CF0AFFF012801463070EE
S21400A58857D0656CE26B2368606AD2F814C005FB86
S21400A5980030052206A9E04706A82CF09DFF0128F2
S21400A5A84FF0000523D0D4E90A3201219342CDE9C1
S21400A5B80B458DF834800E958DF83C102AD1194637
S21400A5C820462CF00CFC236B626C14339B1AE0625A
S21400A5D823630C9B53B99DF83C303BB1626A616CAF
S21400A5E82368E06B01FB02312CF02EFF0C9DE36B19
S21400A5F805225B6901A93846984701A82CF06CFF2C
S21400A60830702846236BA26B9A4288BFA36310B0AB
S21400A618BDE8F081237C33B91C490BAA04F1080075
S21400A62801F096F8D5E72046194A0BABFFF708FE67
S21400A638CFE7237C23BB2246164904F1080001F025
S21400A64887F8616A20462CF05EFB616A421C204649
S21400A6582CF027FB054620B9236B626C1344143B89
S21400A66823632046A16A2CF0BAFB2368A062C01AAE
S21400A678636CB0FBF3F0606220462CF0F3FBB6E7A1
S21400A68800232046044AFFF7DBFDDAE7F5AD0000B5
S21400A69871AD00006D6F0300096F030073B50D46BA
S21400A6A8D11E4A421C461B7E4A419A4226D1296838
S21400A6B82368994222D3636899421FD8114E0DF138
S21400A6C807033246FFF712FDC0B972686B689A42F4
S21400A6D814D19DF80730DA1E53425341227E934226
S21400A6E80CD1636901336361D4E90323934205D22D
S21400A6F82968A26842F8231001332361012002B0BA
S21400A70870BD00BFE03C00202DE9F04F9B4689B0A5
S21400A7189DF848309046514A0193136907465B45B1
S21400A7280D46C0F09580D94653680093B9F1000FDE
S21400A7387BD0FB6B01225B6905A90098984705A8A2
S21400A7482CF03CFE454B1B68984240F0848005A8D8
S21400A7582CF040FE0428064615D105A82CF041FE2C
S21400A768009B04461E44019B002B3ED1804512D90F
S21400A7781C46A8EB0008384600992CF030FBA9EBDD
S21400A78804090090D2E7FB6B02225B69009806A9D1
S21400A798984706A8E2E7A0EB08045C4528BF5C4695
S21400A7A8032C4644ABEB040B1DD9FB6B29463046FD
S21400A7B85B69A208984724F0030304F0030A1E44C2
S21400A7C81D44DDF80480BAF1000FD4D0FB6B0122DB
S21400A7D806A930465B6998475246284606A912F0ED
S21400A7E8B3FE5544C7E7A246EBE7824600F00303EC
S21400A7F802932B1803930644039BA6EB0A00A3EBCD
S21400A8080A05029B9A4514D1BAF1000FB3D0FB6B28
S21400A818012206A95B6998475246284606A913F0FE
S21400A8284FF80028DDD04FF03609484609B0BDE895
S21400A838F08FFB6B012206A95B699847042228461D
S21400A84806A913F03DF80028EDD1AAF1040AD3E7CB
S21400A8584FF06309E9E74FF06F09E6E70C3D002083
S21400A8682DE9F0410F4616469846044688B060B370
S21400A87890F83450FDB101212CF0E9F900210E9B27
S21400A888CDE90511CDE902379DF83C30CDF80480B6
S21400A8988DF81C30237C04968BB90D4901AA04F167
S21400A8A8080000F055FFDDE90553E06B002E08BFF1
S21400A8B81D462CF065FB284608B0BDE8F08120460A
S21400A8C8044A01ABFFF7BCFCEDE70546F3E700BF1B
S21400A8D8376F0300A5A600007FB590F842600446CF
S21400A8E801920DF10B030A46304611492CF050FB35
S21400A8F8012E0546E36B17D132465B6903A99847D4
S21400A9089DF80B10039B019A59B19BB243EA024388
S21400A918012228460393E36B03A99B69984704B072
S21400A92870BD62F30F03F3E701229B6901A9F5E7FF
S21400A9380C3D00202DE9F04F99B00E460D920A699D
S21400A948416C0B931439D31DB3FBF1F3013302EBBF
S21400A958C302036B04469342C0F001820023DFF86B
S21400A96804940893E36A48461946059300F074FF72
S21400A978D6E9033707930B9B022B4DD1CC2F40F01B
S21400A988D7810D9B3BB1314620462CF057FB656CB2
S21400A9981490012044E00120079B656C1B68149303
S21400A9A800F0010000280CBF04230823782F0E931C
S21400A9B849D8059A6B1E1340ED1A3B1D9D423CD2A2
S21400A9C8002F3DD0082D3ED80023042506934FF0CF
S21400A9D8040A336806990B98C9F80030C9F810704D
S21400A9E82CF012FD4FEA9A030F93059B89F8140082
S21400A9F80393002309930C9304930A93616C039BB7
S21400AA084A1E1A408B1A27B35544AB4223D8236BE9
S21400AA185B1A134423632FE1782F656CB9D8F07D51
S21400AA280D9B002BBCD0E36B01225B69706816A9EE
S21400AA38984716A82CF0C6FCB4E700250695C6E786
S21400AA4804250697C3E7012300254FF0080A069356
S21400AA58BFE75345DBD3A3EB0A029742039BB846EE
S21400AA6828BF90469742534428D90122D9F8101097
S21400AA7889F817208F4226D10399C9F80410049242
S21400AA8899F817200AB399F818100398CA1C09EB06
S21400AA98C202506004980131A2F80880907289F8C2
S21400AAA81810B8F1000F07D00B9A022A40F08180E0
S21400AAB8099A72B1012209929B46ABE0049A002AD1
S21400AAC818BF0322DBE70222D9E7039AC9F8042055
S21400AAD8E7E70C9A4244032AEED9E26B18469569D2
S21400AAE814A901220993A847099B05460028E1D026
S21400AAF83D2D40F01E8104F1080303932368059A50
S21400AB08606CA2EB030ABAFBF0FA00FB0A302CF0E2
S21400AB1813FDE16A804620462CF061F9A26A82425B
S21400AB2800F00F81626CD9F80830511E0B40216B7B
S21400AB382768891A0B442363089BE062DF1BB7FB70
S21400AB48F2F7BA4540F0FA80059BB3EB080A12D034
S21400AB58E36B4FEA9A0241469B6998478346E36A45
S21400AB68059A5344E362236B03989B1A4344236372
S21400AB782CF03AFBDA462368616CE06B01FB073180
S21400AB882CF04FFC20462CF06DF820462CF06AF985
S21400AB982063BAF1000F00F0D4803269616CD31DCF
S21400ABA81439B3FBF1F3013302EBC3029042A5D28A
S21400ABB8BFE00D9A002A77D1B8F1030F4FEA980242
S21400ABC86ED9E16B18468D6907991093A847109BB4
S21400ABD80546C0B918F0030515D0079A28F0030BE8
S21400ABE802EB0B019B444FF0FF3215A815922A463C
S21400ABF8109312F0A9FCE26B5846956915A9012234
S21400AC08A8470546109B9B46079A42440792002D84
S21400AC1840F08B80049B16A80193069B009399F836
S21400AC2814204346316800F0CDFDE36B0F9A9B690C
S21400AC38039816A99847039A051E089B18BF13463B
S21400AC48089343465246204603992CF0F5F8236BA2
S21400AC5808F10302A3EB0A0322F003029B1AC9F8C1
S21400AC6808002363002D7FF443AF0C9BA7EB08076F
S21400AC7843440C93CDF80CB0204603992CF0AFF85B
S21400AC8800250390002F7FF4B9AE364A31689368E2
S21400AC9804F10800E36252680B9B00F00BFD49E0E4
S21400ACA89B46454607999EE79B4606F1200210926A
S21400ACB8F27D7068A2B1002296F818C00A99D5B23B
S21400ACC8AC4511D9109D02F1010E35F832508D426F
S21400ACD828D90E9806EBC2020144D069084403E05E
S21400ACE80E9A0A990A441044E26B15A9556901227E
S21400ACF81193A847159A0A9B1392E26B0433956939
S21400AD085846012213A90A93A847119B054603EB48
S21400AD180802A2EB0B02042A7FF679AF28B90BF1DA
S21400AD28040BC5E77246491BC9E7CDF820B088E78B
S21400AD3870252F46384619B0BDE8F08F4FF0000A48
S21400AD4819E73269616CD31D1439B3FBF1F301338B
S21400AD5802EBC302236B9342BFF404AEE9E71C2759
S21400AD68E8E700BFB43C0020032A2DE9F341064675
S21400AD780D4617461C4606D1237A012B23D0012000
S21400AD8802B0BDE8F081DFF86080096842460DF140
S21400AD980703FFF7ABF960600028EDD19DF80720A0
S21400ADA8237A032AE8D0D8F804106A689142E3D1D7
S21400ADB8012B2969D4F80CC007D172690CEB010382
S21400ADC8934202D92074207CDAE708316144E160B6
S21400ADD83B46012229463046FFF7ACFD6060002856
S21400ADE8CAD00020CCE700BFE03C00202DE9F341A4
S21400ADF8089C032A1746266806D1237A012B24D0F6
S21400AE08012002B0BDE8F081DFF890803046424667
S21400AE180DF10703FFF76AF960600028EDD1256891
S21400AE28D8F80400A96AD5F844C04840CCF1000315
S21400AE381840227AE1D1012A09D1E268D8F8103000
S21400AE4813447269934202D92074207CD9E7286893
S21400AE58EB6A1B1A081AB3FBFCF3B0FBFCF0834240
S21400AE680BD1706CF36A421E1340326B121A1344ED
S21400AE78284633632BF0B3FFE862D8F81020E3685F
S21400AE8808321344E36001223B4604492068FFF772
S21400AE9851FD60600028B0D00020B2E7E03C0020FA
S21400AEA82DE9F0410025604B0E46D3F80080044695
S21400AEB81D6018B921252846BDE8F08190F8347041
S21400AEC807B30A6803689A4240F0A3804A68436852
S21400AED89A4240F09E808A6883689A4240F0998039
S21400AEE8CA68C3689A4240F094800A6943699A42DD
S21400AEF840F08F808A69C36B9A4240F08A804B691B
S21400AF088361D8E768223946856B12F08DF9D6E951
S21400AF180212336804F1080023607368A56363604F
S21400AF28336963617369A3612CF070F9B36904F13E
S21400AF384000E3639B68984720B9676C17B163685D
S21400AF48B3FBF7F794F84330E761002BB2D0002341
S21400AF58656C2366002D64D0002F62D02368B3FB8F
S21400AF68F5F205FB1233002B55D16668B6FBF5F3F0
S21400AF7805FB1363002B4ED120462BF03FFEA3693A
S21400AF88043303449E4248D340F634726369CC3B8C
S21400AF98934244D8B5F5805F43D3032120462BF06F
S21400AFA856FED4E90001E36B1B6898470546E36B39
S21400AFB80220DB689847CDB941462046FFF77AF964
S21400AFC86428054604D141462046FFF773F905462E
S21400AFD8666C5DB9236A2046143E5E432BF00EFE6F
S21400AFE8A369043303449E4238BF5A25002D0CBF7C
S21400AFF80123002384F8343007D1D4E900010B4A32
S21400B0081368013313602CF09BF9E06B2BF0B8FF44
S21400B01851E75D254FE759254DE75A254BE75F254C
S21400B02849E75B2547E700BF443600204036002046
S21400B0382DE9FF410C4616461F46054680B390F894
S21400B04834307BB3B1F5801F2ED2DFF86080012143
S21400B0582BF0FDFD2146424628460DF10F03FFF76B
S21400B06845F8044670B99DF80F30012B11D1D8F871
S21400B0781030BB4212D10246009031462846FFF7F0
S21400B08843FB0446E86B2BF07BFF204604B0BDE884
S21400B098F081022B14BF2D246024F3E76324F1E724
S21400B0A82124F2E71124F0E72924EEE70C3D0020DE
S21400B0B82DE9F04385B00C4617461E460546DDF8D2
S21400B0C8308098B390F8343093B3B1F5801F31D2FE
S21400B0D8DFF8649001212BF0BAFD21464A4628463F
S21400B0E80DF10F03FFF702F8044688B99DF80F30F4
S21400B0F8012B14D1D9F8102006EB08039A4213D373
S21400B10800904346324639462846FFF7FDFA04467D
S21400B118E86B2BF035FF204605B0BDE8F083022B20
S21400B12814BF2D246024F3E76324F1E72124F2E713
S21400B1381124F0E72924EEE70C3D002073B50C46F1
S21400B1481646054630B390F834302BB3B1F5801F59
S21400B15824D201212BF07BFD21462846104A0DF10A
S21400B1680703FEF7C3FF044680B99DF80730032B94
S21400B1780CD0022B0CD1284609492BF05FFF306013
S21400B188E86B2BF0FDFE204602B070BD2D24F7E7D5
S21400B1986124F5E72124F6E71124F4E72924F2E7E9
S21400B1A80C3D00202DE9F3411E4600230C461746A9
S21400B1B80546336050B390F834304BB3B1F5801F72
S21400B1C828D2DFF8548001212BF041FD2146424663
S21400B1D828460DF10703FEF789FF0446A0B99DF837
S21400B1E80730032B10D0022B03BF01233B60042338
S21400B1F8D8F8103018BF38603360E86B2BF0C0FE04
S21400B208204602B0BDE8F0812D24F6E72124F7E7B2
S21400B2181124F5E72924F3E70C3D002073B504460E
S21400B228056B2BF0EBFC636E03449D422CBF00239A
S21400B2380123854294BF00252D1A207C84F85030BF
S21400B248656584F85800A8B100230C4E1A461946BE
S21400B258204600962BF0B6FF002305461A461946E8
S21400B268204600962BF0B7FFE3682844984294BF20
S21400B2780020C01AE06502B070BD00BFFFFF0F00D7
S21400B2882DE9F3471E4643690446B34288461746E7
S21400B2989DF828904ED300258DF8075020462BF0B1
S21400B2A8ADFCD4F830A082450AD2236AB5EB430F2A
S21400B2B806D2002220460DF10701FFF745F9B8B37C
S21400B2C89DF80730012B05D1002220460DF1070115
S21400B2D8FFF73AF9B9F1030F06D0314620462BF0AE
S21400B2E87DFC256B854227D3144D4FF0FF31284649
S21400B2F800F0B2FA4B46294600222046C5E90376F6
S21400B308C5F80080FFF716FB236E054663B1204696
S21400B318FFF784FF94F8503013B994F858301BB1EF
S21400B328236E04F150009847284602B0BDE8F0871F
S21400B3380135B3E76225F7E71C25F5E7E03C002072
S21400B3482DE9FF410F4690461E46054698B390F8ED
S21400B358343093B3B1F5801F31D21A4C02212BF04A
S21400B36876FC2246394628460DF10F03FEF7BEFE48
S21400B378024678B1012342460093394633462846AA
S21400B388FFF77EFF0446E86B2BF0FAFD204604B074
S21400B398BDE8F0819DF80F30012BEBD12169B14251
S21400B3A8E8D10093414633462846FFF7ADF90446F0
S21400B3B80028DFD1E7E72124E8E71124E6E7292477
S21400B3C8E4E700BF0C3D00202DE9F04790F8423036
S21400B3D886B0012B05460391A1EB020740F0AA8030
S21400B3E8FF2F03D81E464FF0640807E00226012BFD
S21400B3F814BF4FF032084FF06408013600244FF6A9
S21400B408FF79DFF844A195F84230012B14BF3223A8
S21400B41864239C4202D35FFA88F40DE005AB22460B
S21400B428514628462BF0E8FD95F84230012B059B3F
S21400B43834D14B452DD1E4B295F84230012B14BFD8
S21400B44832226422121BB24217D3012E39D10022AF
S21400B458012B05978DF8132027D1082205A90DF191
S21400B46813002CF085F89DF81330059A42EA03225B
S21400B47821462846FFF730FA40B1022332490093A6
S21400B4882846CC23096803AAFFF7FAFE06B0BDE8EB
S21400B498F087DBB203B902340134B4E7591CCAD0CA
S21400B4A89BB2002BF8D10134F6E7102205A90DF15E
S21400B4B813002CF05DF89DF81330059A42EA034213
S21400B4C8D6E7039A012B059223D10823202205A943
S21400B4D80DF113008DF813302CF04AF89DF8132060
S21400B4E8120221462846FFF7F7F995F84230611C04
S21400B4F8012BC9B21AD10028BFD12846BDF814209E
S21400B508FFF7EAF90028B8D10234BDF81620E1B2F0
S21400B518AFE71023202205A90DF113008DF813308C
S21400B5282CF026F89DF813201204DAE70028A4D198
S21400B538059A9EE7B7F5803F4FF00106BFF457AF70
S21400B5484FF032085AE700BF0C3D002070B586B0B1
S21400B5580E4605460392A0B390F834309BB3B1F577
S21400B568801F32D202212BF072FB31462846184A39
S21400B5780DF11703FEF7BAFD044618B99DF8173003
S21400B588032B0ED10223314600932846CC2303AA68
S21400B598FFF776FE0446E86B2BF0F2FC204606B072
S21400B5A870BD022B0BD10A4928462BF047FD03999C
S21400B5B802468142EFD02846FFF706FFEAE76124F5
S21400B5C8E9E72124EAE71124E8E72924E6E700BFAB
S21400B5D80C3D0020F7B50C461646054668B390F8AD
S21400B5E8343063B3B1F5801F2BD202212BF02FFB2A
S21400B5F821462846144A0DF10703FEF777FDC0B921
S21400B6089DF80730032B14D0022B14D10E49284678
S21400B6182BF014FD471C024639462846FFF7D4FE91
S21400B628044606B13760E86B2BF0AAFC204603B048
S21400B638F0BD2D24F7E76124F5E72124F6E7112469
S21400B648F4E72924F2E700BF0C3D002030B50C468D
S21400B658054685B028B390F8343023B3B1F5801F7B
S21400B66823D202212BF0F3FA0DF10F0321462846C8
S21400B6780F4AFEF73BFD034688B99DF80F20032ABC
S21400B6880DD003222146009202462846FFF7F8FD11
S21400B6980446E86B2BF074FC204605B030BD2D241C
S21400B6A8F7E72124F8E71124F6E72924F4E700BF92
S21400B6B80C3D00202DE9F043466886B30568984699
S21400B6C84FF0000CA946AE4655F83C400CF1010C6C
S21400B6D8C4F31307013401D0B94217D0B4450EF1AC
S21400B6E8080EF1D12F46002403E0B44207F10807FC
S21400B6F812D055F8343001340133F6D1C1F31301B2
S21400B70841EA0851C7E90012BDE8F08341EA08514A
S21400B718CEE90012BDE8F083B8F1030F03D1012388
S21400B7280372BDE8F083002303E0B34209F1080979
S21400B738F5D055F833400133C4F30754032CF4D13D
S21400B748C1F3130343EA0853C9E90032BDE8F0839E
S21400B7582DE9F0410646406882B0B8B10F469046DB
S21400B7680024336853F8345003EBC403C5F3075278
S21400B778C5F31301013506D05B683046CDF8008066
S21400B788B84718B1706801348442EAD302B0BDE8FD
S21400B798F08100BF024B1968024B1868FFF780BBA0
S21400B7A8146800203468002008B535F0D4FB014B37
S21400B7B8186008BD383D0020014B186835F0C6BB38
S21400B7C8383D002073B504462248012A00EAC11114
S21400B7D89DF8185023F07C4007D9961E012E28D9CC
S21400B7E8073303F07F03194308E09DF81C300A432B
S21400B7F8DB0603F0C053134343F060410023C4E95B
S21400B80800108DF80730B5B1202221460DF107004B
S21400B8182BF0AEFE1A220DF10700211D2BF0A8FE14
S21400B828082063689DF8072043EA8263636002B0D5
S21400B83870BD1143E2E71B220DF1070021462BF0ED
S21400B84897FE23689DF80720042043EAC263236016
S21400B858EDE700BF80FFFF0738B5094B0D461A68AD
S21400B8680021044611F0E0FC00234FF0FF3223834A
S21400B878C4E900252361A260E382A37638BD00BF31
S21400B8880CB004000138C0B205289ABF014B185CFA
S21400B8980120704711B004002DE9F041074615460F
S21400B8A800240E46596888B0490A012922464FEAFC
S21400B8B8510104F10104F8D8DC78997824031B8830
