S01B00006275696C642F72656C656173652F7A69676265652E73333714
S21400600008100020519A000071E20000D96A0300CF
S214006010D96A030079E2000081E20000D96A030031
S214006020D96A0300D96A0300D96A0300D96A030053
S21400603085E200008CAE0400D96A0300D96A03002A
S214006040D96A0300D96A0300D96A030021950000C3
S214006050D96A0300D96A0300D96A0300D96A030023
S214006060D96A0300D96A0300D96A0300D96A030013
S214006070F1E70000D96A0300D96A0300D96A030071
S214006080D96A0300D96A0300D96A0300D96A0300F3
S214006090D96A0300D96A0300D96A0300D96A0300E3
S2140060A0D96A03001D9E0000FD9D0000D96A03000A
S2140060B0D96A0300C9260200D96A03002D310200FE
S2140060C0D9C30300D5C3030009290200EFC30300A8
S2140060D0DDC30300FD300200E1C303006D310200A2
S2140060E0D9370200D5140200D9310200D96A03005C
S2140060F0D96A0300D96A0300D96A0300D96A030083
S214006100D96A0300D96A0300D96A0300D96A030072
S214006110D96A0300D96A0300D96A0300D96A030062
S214006120D96A0300D96A0300D96A0300D96A030052
S214006130D96A0300D96A0300D96A0300D96A030042
S21400614082B030BF074BD3F8F030DB0704D500230E
S2140061500193019B052B01DD02B07047019B0133C3
S214006160F6E700BF00ED00E0F0B5114A114C124E04
S21400617000F00105E3695F0713D40DB9334213D16C
S21400618003EA00078F4207D10B4A1A40002A14BFC1
S2140061906FF001000020F0BD013AEBD16FF0020075
S2140061A0F9E74FF0FF30F6E76FF00100F3E700BFC6
S2140061B08096980000000350020001000B4B70B55B
S2140061C0D96911F480310DD101244FF48072084E44
S2140061D0084DF46020462C641A61FFF7C5FF34644E
S2140061E0EC6070BD6FF00100FBE700BF00000350DD
S2140061F000100350002003504FF4003238B50F4B08
S2140062000F4C9A6641F671330122E569E3630D4B44
S2140062100021DA60022360612120236105F48035C5
S214006220FFF7A2FF10B92120FFF79EFF0122064BC1
S214006230DA600DB10023E36338BD00BF0090005064
S21400624000000350001003500020035070B5134C9C
S2140062506061E3695B071ED40E4656F8043B8D1852
S214006260A361AE420BD10423002121202361FFF756
S2140062707BFF58B9BDE870402120FFF775BF0821A5
S2140062800846FFF771FF10B10423236170BD56F86E
S214006290043BA361E5E74FF0FF30F7E7000003504B
S2140062A02DE9F84315464FF40032184B89469A6696
S2140062B041F6713203F51C33DF69DA6301220646C4
S2140062C003F58053DFF84C8007F48037DA6055B961
S2140062D0284601220E4BDA601FB10022A3F50053B8
S2140062E0DA63BDE8F88306F5005404EA0804A41B44
S2140062F0AC4228BF2C46494622463046FFF7A6FF4A
S2140063000028E6D12644A1442D1BE0E7009000506B
S20C0063100020035000E0FFFF2F
S2140063182DE9F04F4FF0FD0BC9B09A460DF11B0959
S2140063289DF8503108AFCDF80C90CDF808B001971D
S214006338059303890446009383790E469046418860
S2140063488288407811F000FF054650B10090A38877
S214006358002062883A4912F03BFA284649B0BDE860
S214006368F08F99F8000033F00DFB38B12846A38863
S2140063786288344912F02CFA8D25EEE75A463946DB
S21400638899F8000033F0A6FA8346002851D0529BAD
S2140063981BB1BDF84C3198424BD8002399F80090B1
S2140063A80793A9F14102012A5FFA8BF123D83846F0
S2140063B80139254ADFF898C05FFA81FE734513DB7A
S2140063C8059B04210792C3B907AF18221F489FED03
S2140063D81A7B02FB060420460A460830394684ED36
S2140063E8027B17F077F811E010F8011F01335140CF
S2140063F80CFB01F2E2E7059B33B123464A463846D2
S21400640800960FF0C9FDA8E70829DED9B8F1000FF5
S21400641801D088F80090BAF1000F01D0AAF800B0B1
S214006428529B002B99D05A46184608A917F052F8DE
S21400643893E7012591E700BF000000000000000078
S214006448175804004C580400C59D1C818010002075
S21400645893010001000000002DE9F04F93B0CDE94C
S2140064680A32DDE91C530E9353EC102BCDE90801D4
S214006478104619468DED060B1E9E16F0B5FA80B12D
S214006488DDE906014FF0FF32C54B16F0D5FA40B9E4
S214006498DDE906014FF0FF326FF4801316F0AEFA0E
S2140064A870B1DDE908019DED060B0E9B1E96CDE941
S2140064B81C53DDE90A3213B0BDE8F04F00F088B986
S2140064C80022DDE90601002316F098FA002800F0FD
S2140064D83381DDE906A303F1004BCBF30A5016F42B
S2140064E88063A0F2FF3008BF06250F9315F0AAFFB9
S2140064F89BA3D3E9002316F00FF89BA3D3E9002348
S21400650815F054FECBF31304894644F07F518046B9
S2140065180022A44B504641F4401115F045FE94A3C2
S214006528D3E9002315F0F8FF02460B4640464946D5
S21400653815F03CFE16F08AFA044615F083FF8EA383
S214006548D3E900238046894615F0E6FF0022964BDD
S21400655815F02CFE16F07AFA89A3D3E9002307462D
S2140065684946404615F0D8FF80463846894615F015
S21400657869FF85A3D3E9002315F0CEFF02460B4634
S2140065884046494615F010FE02460B46CDE90C2358
S21400659815F0C2FFDDE90C238046894610461946E9
S2140065A815F004FE0022CDE91001804B404649460E
S2140065B816F0DCF800227E4B15F0F8FD02460B4676
S2140065C84046494616F0D2F800227A4B15F0EEFD02
S2140065D802460B464046494616F0C8F8DDE90C2345
S2140065E88046894600204FF0804115F0DDFD0246C2
S2140065F80B464046494615F0D9FD02460B46DDE9EE
S214006608100116F0B3F807F2FF3700226A4B15F0B0
S214006618CDFD00223B0515F07FFF52465B468046BF
S214006628894616F009FA002840F08980CDE90C89D9
S21400663804F16303C62B8CBF0527042731051BD539
S21400664853A3D3E900235046594616F0EBF9002821
S2140066587FD051A3D3E900235046594616F0CEF909
S214006668002876D00027A542C6BF2C1B04F1FF35AC
S21400667800253C4646F480660E9B9F422CBF4FF092
S2140066880008A3EB070816F0020903D0002F18BF6E
S2140066984FF000083CB1DDE90C235046594616F089
S2140066A865F882468B46DDE906010022002316F0CF
S2140066B8A5F910B10BF100439B46DDE9080126F465
S2140066C80063CDE90183DDE90A324BEC10AB009597
S2140066D800F07EF802465FB3DDE9091316F0200FD6
S2140066E800F10105089E0CBF65204520B047DDE98E
S2140066F808010523002205930A23002CCDE902325F
S21400670807F1FF374FEAD473B8BF64422A460193AD
S21400671804970A9B009435F0A3F80246B9F1000FD7
S21400672806D00B9BC41A0B9B1A190E9BA34245D87E
S214006738104613B0BDE8F08FDDE906ABCDE60022C3
S214006748404649461A4B16F011F8013CCDE90C01B3
S2140067586EE7002D90D00F9B002B8DD0013D8BE768
S214006768FB799F501344D33FB3C8608B288AC63F33
S21400677861436F63A787D23F71A379094F930A4095
S2140067881655B5BBB16B0240EF39FAFE422EE63F0E
S2140067982D431CEBE2361A3F0000000080842E4191
S2140067A8FFFFEF7F0000F83F0000E03F00002C40AE
S2140067B800002440000018400000F03F2020DDE9DB
S2140067C80913089DA8470134ADE700BF0000000084
S2140067D82DE9F04F5BEC10AB97B0CDE90501DDE98C
S2140067E82058CDE90723504652465B465946229F15
S2140067F816F0FAF870B90323CDE902870193AA4B7D
S2140068080093DDE90501DDE9072334F05BFF17B0E7
S214006818BDE8F08F4FF0FF326FF4801350465946AC
S21400682816F0ECF828B10423CDE9028701939F4BB4
S214006838E6E74FF0FF32504659469D4B16F0FCF8F7
S21400684868B19C4A07F00403002B08BF03229A4B42
S2140068581CBF13460422CDE902870192D0E75046B2
S2140068688DA3D3E90023594616F0E6F838B98CA369
S214006878D3E900235046594616F0C0F868B1DDE95A
S2140068880723DDE905014BEC10ABCDE92187209500
S21400689817B0BDE8F04FFFF7DFBD002200235046D3
S2140068A8594616F0ABF8002800F091805B46524631
S2140068B80020002115F078FC012382468B460993B8
S2140068C817F4806400F08580092D40F28580002446
S2140068D830210EABA5F109020134202C03F8011B68
S2140068E8A5EB040901D09442F6D15946504616F055
S2140068F8ADF8724B054603EBC90393ED007B8DEDAF
S2140069080A7B15F09FFD02460B465046594615F081
S2140069184BFCDDE90A2315F0FFFD02460B46CDE9E0
S2140069280C2316F0BBF8064615F07CFD02460B460F
S214006938DDE90C0115F038FC02460B46CDE90C23C0
S21400694800225F4B16F078F8002848D0013630460B
S21400695815F068FD02460B46DDE90A0116F058F800
S21400696808B100260135B9F1000F45D1284615F0C3
S21400697869FD02460B465046594615F015FC00229E
S2140069884F4B16F03BF810B9E90700D501350A2138
S2140069980EAB1A19202C0AD095FBF1F001FB105506
S2140069A8303502F8015B013405460028F2D107F0BD
S2140069B80302012A55D1B8F1000F52D0099A12B92C
S2140069C817F00C0F01D008F1FF38302240E009908C
S2140069D876E74FF0060988E7A946002485E70022EF
S2140069E8DDE90C01364B16F009F80028BBD10EB1CC
S2140069F8F007B8D50136B6E70A210EAB1A19202CCF
S214006A080DD0B6FBF1F001FB1063092E03F130033D
S214006A1809F1FF3904F1010402F8013B11D83021CD
S214006A28A1440EAA202CB2D04C4504F101030AD189
S214006A3804F158020DEB02042E2204F8202C1C4602
S214006A48A5E70646DBE7A1541C46EBE71A550134D2
S214006A58444506D2202CF9D1CDE9028701940EAB25
S214006A68CEE6202CF8D0099B3BB12D2204F1580322
S214006A786B4403F8202C0134EEE77A0704D504F1BA
S214006A8858032B226B44F4E73B07E5D504F158037B
S214006A9820226B44EDE700BF0000000065CDCD4125
S214006AA80000000065CDCDC1067604000A76040015
S214006AB8FFFFEF7FFD7504000276040088BD040022
S214006AC80000E03F0000000070B58EB02C220021C8
S214006AD803A816F06FFB64234FF002320893CDE943
S214006AE805230B2301218DF834305B4B8DF81010ED
S214006AF81D880D4040F0A980084639F085F90A221D
S214006B08564B574C1A704FF42873ADF812304FF0A6
S214006B18FF332360534B54491B8820460B82534B44
S214006B28534A1B68CD828B61524B0D621B884B8281
S214006B38514B1B68CB611CF017FC20B14FF41B713E
S214006B484E483AF034FA0521206835F0E7FC20B1C3
S214006B5840F27D2149483AF02AFA206815F0E0FA12
S214006B68474B2068196835F053F80C2539F0B4FD02
S214006B786843099039F0B0FD68430DEB05010790AE
S214006B88206816F0B3FF20B140F295213B483AF052
S214006B980EFA25681FF084F900220146284635F0CB
S214006BA8AFF820B140F2972134483AF000FA40F2A4
S214006BB80353344D344E2B80052396F90000AB70F2
S214006BC87F2801D11CF0B8FE3378EB7039F084FDCD
S214006BD800EB80008000A88039F07EFD0023C0000E
S214006BE84FF0FF31E880AB604FF0FF3018A3D3E9D1
S214006BF8002339F05BFA2549206835F03AF8206812
S214006C0802A935F032FD20B14FF434711B483AF032
S214006C18CEF9042220680DEB020134F0CEFF0428DA
S214006C2804D040F2D72115483AF0C1F901A901204D
S214006C3834F099FB07F05CFB01201DF00FFB30F0E9
S214006C4835FD1DF035FB1CF00FFE0EB070BD00BF05
S214006C580A0020FF42030000525C0020AF630020B9
S214006C6884540020ACD60400AC6A0020B4D60400D5
S214006C7839FE0300AAD60400B0D6040035AD0400D9
S214006C88F467002078540020C86D0020ADFE03008D
S214006C980348044B834202D0034B03B1184770479E
S214006CA8FC6D0020FC6D002000000000064B074924
S214006CB8C91A891048BF0131491003D0044B0BB1DB
S214006CC801481847704700BFFC6D0020FC6D002087
S214006CD80000000010B5064C237843B9FFF7D8FF2C
S214006CE8044B13B10448AFF300800123237010BD92
S214006CF87016002000000000EC11050008B5044BD3
S214006D081BB104490448AFF30080BDE80840CDE74E
S214006D180000000074160020EC110500A3F5803A68
S214006D28704700BF154B002B08BF114B9D46FFF759
S214006D38F5FF00218B460F461148124A121A16F024
S214006D4839FA0C4B002B00D098470B4B002B00D081
S214006D5898470020002104000D000B4816F070FD2F
S214006D6816F000FA200029002FF0D8FB16F056FD82
S214006D7800000800000000000000000008100020C6
S214006D880810002014640020B1D8010007B50121BE
S214006D9820200DF1070201F029F850B1012120202A
S214006DA80DF107028DF8071001F030F803B05DF812
S214006DB804FB9DF807100129F8D00122084815F0B1
S214006DC8DBF801210DF1070220208DF8071001F0ED
S214006DD81DF82FF025FB4FF4FA6000F04FFEE5E7AC
S214006DE81014040038B501F099F9012805D001F00F
S214006DF895F9022801D001F0B7F9064D2B783BB972
S214006E0801F08CF90128044602D12FF07EFB2C7085
S214006E1838BD00BF3E5D002010B5044600882FF040
S214006E28D3FAA37884F84400834202BF0123E370B0
S214006E382371074B04F11C00C4E9073401F02CF851
S214006E48224620880349BDE8104000F069BF00BF0D
S214006E58676103003161030070B5C37804460D46C8
S214006E681646002B34D1D1B1214815F085F80123F8
S214006E78E370E36CA6600BB1E06D9847E368F61A1A
S214006E8863699E4221D2217E1A480131C9B2217611
S214006E9815F072F8A36D13B1217EE06D9847E57082
S214006EA82FF0D1FA15B3237903BBA268238A801A78
S214006EB883421BD801231048237115F05DF8236D13
S214006EC8A3B1E06DBDE87040184701232376E6E7D6
S214006ED80029E4D1094815F04FF8636DE660E570BF
S214006EE82571002BDBD0E06D9847D8E770BD00BF52
S214006EF838140400491404007714040064140400C9
S214006F0870B51E46838804460D46C18002810BB1C3
S214006F18868070BD817800882FF042F90123E370DF
S214006F28064BA680C4E903340C34204600F0B4FFB0
S214006F3829462046BDE870402FF07CBAB3610300AE
S214006F4810B501790446B1FA81F1008849092FF095
S214006F589EF921796088B1FA81F149092FF097F9ED
S214006F68034B1A68A24204BF00221A6010BD00BF75
S214006F788C16002070B543790446A3B100880E4EDF
S214006F8804F10805336813B10C4B1B786BB12179F3
S214006F982FF07DF964210A4B3460A3602846BDE8CB
S214006FA870402FF047BA4088E9E7064814F0E4FF37
S214006FB8054B3221A360F1E78C1600203F5D0020C8
S214006FC8496F00008D1404007D6F000010B504465C
S214006FD8E0B10F4814F0D0FF01236371A37953B9C9
S214006FE8217920882FF053F9236B7BB1606B012140
S214006FF8BDE8104018472046FFF7A2FF04F1080036
S2140070082FF01DFA2046FFF7B5FFEDE710BD00BFCD
S214007018C314040010B50446F8B1104814F0ACFFC9
S21400702800236371A3796BB921792088B1FA81F1BD
S21400703849092FF02CF9236B7BB1606B0021BDE862
S214007048104018472046FFF77BFF04F108002FF092
S214007058F6F92046FFF78EFFEDE710BDCE140400C4
S21400706810B5044668B1074814F086FF63792046D1
S2140070781BB1BDE81040FFF7CDBFBDE81040FFF7D5
S214007088A5BF10BDDA14040010B50E4C0E482146F4
S21400709814F072FF82210D4814F06EFF8221022040
S2140070A8A21E00F0B3FE014630B134F8022C0848A0
S2140070B8BDE8104014F060BF0648BDE8104014F064
S2140070C85BBF00BFD6550020E91404000415040071
S2140070D80F1504005315040038B5114C82212246BA
S2140070E8022000F083FEA51C014688B122880D48C0
S2140070F814F042FF2A460C4B03F12C0153F8040BFC
S2140071088B4242F8040BF9D11B7813702C2323808A
S21400711835F8021C054A0648BDE8384014F02CBF6E
S214007128D45500205E150400DE150400D655002050
S214007138BC150400034B1B781BB18B4201D82FF0FB
S2140071486FB970476A6D002010B5044601460E48B0
S21400715814F012FF012C11D10C4B0D481A884FF66B
S214007168FF739A421EBF0022094B5A742FF075F817
S21400717801F09CFDBDE8104001F06EBC0448BDE877
S21400718810402FF06CB800BF0B1604001C6D0020D2
S2140071988067002070B500241A4D1B4E3378A34232
S2140071A81BDC0024194D1A4E3378A3421BDC00243E
S2140071B8184D194E3378A3421BDC00F0AFFF0128A8
S2140071C816481CD12FF049F801F070FD01F044FC78
S2140071D8BDE87040124800F0C1BF2846FFF71CFE05
S2140071E801346035DAE728462FF01DF801343435C7
S2140071F8DAE728462FF050F801343835DAE72FF06A
S2140072082EF8E5E760220020455D00208026002055
S214007218465D002030200020445D00208067002066
S214007228517100002DE9F04F87B0FFF755FFB34BBB
S21400723805A805932FF054F8054615F0B7FEB04C90
S214007248C2B21F2A627004D9AE4814F095FE00F048
S21400725809FC2946A01C16F03DF905A82FF040F8B1
S214007268054615F0A3FEC2B21F2A84F8212001D9CC
S214007278A548EAE7294604F1220016F02BF905A8E6
S2140072882FF02EF83226044600272578002D40F0E9
S21400729892809E4CFFF77EFF2378DFF8ACA2DFF8DB
S2140072A8AC829B4E00939AF8003098F8002031780C
S2140072B8984814F061FE327898F800109AF80000A2
S2140072C853180344944F20782C4603443846DBB2C0
S2140072D8AA4200F3D782012B38BF0123DFF840B259
S2140072E802935A4600235D464FF482714FF6FF74A8
S2140072F802980133834213705180948002F10C0285
S214007308F6DB864B86497E48AB6000F0DDFFE87901
S214007318AB6800EB400003EB800000F0B1FDEB79B2
S2140073280133EB717F4B1B88A34203D07C497E4810
S21400733801F0CCF84FF00009784C32784A4500F353
S214007348CB8200274FF00C09784ADFF8D4B198F8BA
S21400735800003178B84200F3D48247180C21002583
S21400736801FB07B19AF800009423A842704A00F37C
S214007378E6820C2598F8003000274FF0700836781B
S214007388DFF8CCA11E44064405FB06B55F4B1B7808
S214007398BB4200F3E7820299614800F0FFFD059BB7
S2140073A856491A468B4240F0F082624807B0BDE85C
S2140073B8F04F14F0E1BD532D0FD163784C2B40F0FD
S2140073C84781A378502B40F0438101225A4B1A700C
S2140073D805A82EF085FF044657E7442D13D1637899
S2140073E8303B092BF4D8601C2EF087FF534B544AC9
S2140073F81978002386B2994202F16002E8DD22F885
S214007408466C0133F7E7422D0BD16378542B55D1E0
S214007418A01C00F0D3FC434B188018462EF061FEE3
S214007428D6E7582D34D8412DD2D9433D152DCFD87F
S21400743801A353F825F000BFFB770000D9730000BE
S214007448D9730000D9730000D9730000D9730000FF
S214007458AB750000D9730000D97300005D75000095
S214007468AB740000D9730000D9730000D97300000C
S214007478D9730000DD76000059760000D973000045
S214007488D9730000D9730000D97300005377000041
S214007498692D9DD1601C2EF030FF80B22EF0BCFF07
S2140074A896E71B4B0120197800231B4A994202F1E4
S2140074B8D0028DDD02F8CE0C0133F7E7601C00F031
S2140074C87DFC0546E01C2EF090FF0121024628466A
S2140074D82EF047FF60211948194C03785943621863
S2140074E865524FF4FA6111824FF44871516115499B
S2140074F856831165013303706AE700BFD65500202E
S214007508946600202A16040041160400405D0020F8
S214007518435D002051160400E41C00205817002084
S214007528E01600201C6D002090160020E41B0020AA
S214007538281A0020A11604003F5D0020455D0020A3
S21400754860220020D3620300415D0020425D0020D7
S214007558D8180020601C00F031FC00224FF03408D8
S2140075688146CD4F11462EF0FCFE3878CB4D08FBF1
S21400757800F325F80390EA18E3781046693B18BF2D
S214007588012393702EF04FFE0021C54A3B785160C8
S214007598012103FB08550B443B7015600F46117418
S2140075A816E7601C00F00AFC0022114681462EF001
S2140075B8D8FE3422B84DDFF8E482287802FB00F3C0
S2140075C828F8039008EB0301E3780846693B18BFE0
S2140075D801238B702EF027FEB24A00231046916BCB
S2140075E831BB00EB831034232A7802FB03838363C2
S2140075F8AD4A00231046D2F8A410F9B9D02202FBEF
S214007608030034232A7802FB0383C0F8A4305FB94A
S214007618A34A3B46114652F8040BA8B934222878E8
S21400762800FB028241F823202B7801332B70CFE62B
S2140076380133042B02F14002D1D1D9E70133042BE0
S21400764802F1D002D7D1E2E70133042BE3D1EBE70E
S214007658601C00F0B3FB8046E01C2EF0C6FE01213D
S214007668024640462EF07DFE60219048904D0278F6
S214007678DFF858C251436B1825F801804FF448715B
S214007688198259618B495E839965E178D02464290B
S21400769804BF012199709CF80030DFF80CE25C43C7
S2140076A80EEB04010EF804304FF400744C800324EB
S2140076B80C718C7102EB420405EB4415322401333D
S2140076C8DBB201324B718D6081F8A04002708CF8F5
S2140076D800307DE6601C00F071FB00224FF0380A8F
S2140076E88146DFF8E08111462EF03BFE98F8003020
S2140076F8714D0AFB03F325F803904FF00109EA18C9
S21400770882F80490E37873B1E01C00F057FB00227F
S214007718044611462EF025FE98F800300AFB03535F
S2140077285C8083F8069065485E4A0378990153544E
S21400773898F8001002EB8314C1EBC10205EBC205F2
S2140077484A1C656388F80020D4E6601C00F036FB07
S2140077588046E01C00F032FB0546601D2EF045FE14
S21400776804460246012140462EF0FBFD22462846E6
S21400777801212EF0F6FD60204FF4487CDFF82CE15E
S2140077884B4A9EF8003000FB03F422F80480DFF82A
S21400779824811119A1F810C0C1F814C04E83C1F88D
S2140077A85880591CC9B248431418A4F810C0C4F825
S2140077B814C06683C4F8588094241552404D981C0B
S2140077C88EF800002878DFF808C1444303EB43032B
S2140077D801EB41010CEB040E02EB431302EB4112E2
S2140077E80CF80400CEF80430CEF8082001302870D3
S2140077F8EEE5601C00F0E2FA8046E01C00F0DEFAD7
S21400780800220546114640462EF0ABFD00223824DD
S214007818114628462EF0A5FD2A48274A03784FF039
S214007828000E04FB03FC22F80C804FF0010802EB64
S2140078380C0181F806E081F8048003EB0801C9B260
S2140078484C4302EB040C15539C1C047070241E4D0C
S2140078588CF806E028788CF804804443DFF874C077
S214007868C3EBC303C1EBC1010CEB040E02EBC3036D
S21400787802EBC1020CF80400CEF80430CEF808205B
S2140078884044B4E790F805C001358C4584BF0471C0
S2140078984471D0301CE500BF465D002080260020DD
S2140078A880670020E41B0020E41C0020455D0020C3
S2140078B8602200203D71000030200020425D00203C
S2140078C8415D0020445D0020405D0020435D0020AF
S2140078D8281A0020D8180020B9F1000F07D01BF886
S2140078E8052C02EB420204EB8204CBF8084059460A
S2140078F8384601F0B5FB09F10109D0370BF10C0B3E
S2140079081BE579180AD0481E09FB00B0C07900EBC1
S214007918400004EB800409FB01B08460104609FBB4
S2140079280151039201F054F931781C48394409FB97
S214007938015101F077F8039A0137403207E5FD4216
S21400794818BF11F8050C03911EBF00EB400004EBAE
S21400795880048C6003FB052000F07CFF039901354A
S2140079680C31FFE4F74218BF15F8053C29461CBF42
S21400797803EB430304EB830408FB07A018BFAC60C3
S21400798800F03EFE01370C3500E513F8011D00290E
S2140079987FF406AD3B2102F8011C01E524200020F7
S2140079A807B5012121200DF1070200F01FFA18B9CA
S2140079B89DF80720024B1A7003B05DF804FB00BF61
S2140079C86A6D002007B5064B8DF807001870012170
S2140079D80DF10702212000F019FA03B05DF804FB48
S2140079E86A6D002007B5022101200DF1060200F09D
S2140079F8FDF938B9044814F0BFFABDF8060003B01C
S214007A085DF804FB0020FAE7BE16040007B502215D
S214007A18ADF806000DF10602012000F0F7F9014660
S214007A2810B1034814F0A8FA03B05DF804FB00BFD1
S214007A38DF16040010B5FFF7D5FF044601460748D1
S214007A4814F09AFA0121064814F096FA24B9BDE80B
S214007A5810400120FFF7DABF10BD00BF0F17040063
S214007A682117040008B5044814F086FA00F0DEF979
S214007A782EF0D6FC2EF0D1FC3717040038B5044695
S214007A88084D094B28462B6000F006FA002C18BF54
S214007A9821462846BDE8384008BF4FF496712EF0B8
S214007AA8C9BC00BF84270020216303002DE9F043EA
S214007AB8394D93B008AC0746894690460FCD0FC49B
S214007AC80FCD00260FC495E803000323012584E89C
S214007AD80300324C3248CDE90366CDE905668DF8D9
S214007AE80E300796029539F0FCF92E4839F0F9F968
S214007AF832462D4920468DF8176004F05BFE334663
S214007B0832462A498DF81900009020468DF82390B1
S214007B18CDF82C808DF8216004F066FE0A90204689
S214007B288DF8097004F0C6FD204608AA05A904F0D9
S214007B3881FE02AA204603A92FF036FD4FF40072F4
S214007B481B4B5A62194BE560626A920510D46BB9F2
S214007B584FF40072164B11485A6204F0ABFD1148F8
S214007B6839F0C2F9002013B0BDE8F083013BEBE71B
S214007B78002BEDD0094908A82FF049FD4FF40072F4
S214007B880B4B06485A6204F095FD064839F0ACF9E6
S214007B98BDF82000E7E700BF3CAE04000040005AEE
S214007BA88CB0040088B0040080841E0040420F0099
S214007BB80060005A0122034B1870034B1980034BD0
S214007BC81A707047485D0020246D0020475D00202D
S214007BD8F8B5454B1B780BB90020F8BD434B1B780E
S214007BE8012B03D1BDE8F8402EF099BB404B1C880A
S214007BF84FF6FF739C42EFD03E4839F072F90023E7
S214007C08260AE4B21A462146304604F013FD012E31
S214007C18354604F0010335D015D9B51E012DDBD83D
S214007C28002B0BBF4FF480754FF080754FF47061D2
S214007C384FF070610BBF01274FF480370F204FF4C9
S214007C4870202D4B11E0002B0BBF4FF480754FF0C2
S214007C5880754FF470614FF070610BBF01274FF4C9
S214007C6880370F204FF47020244B1A6802401CD02F
S214007C78BA421AD01A680A4032D11A6822EA0102B1
S214007C882A4316E0002B0BBF4FF480754FF0807523
S214007C984FF470614FF070610BBF01274FF48037C7
S214007CA80F204FF47020164BDFE71A6822EA00020E
S214007CB83A431A602EF033FB054600288CD0083667
S214007CC844EA06102A460321C0B2FFF7EFFE40F644
S214007CD8FF73684300F2FF70B0FBF3F080B27CE7F6
S214007CE895427FF479AFC8E7475D0020485D0020DD
S214007CF8246D00208CB0040028C3035020C3035012
S214007D0824C3035010B5044C237823B9034839F02C
S214007D18E8F80123237010BD4A5D00208CB00400EB
S214007D282DE9F0431F4C85B0074688469146FFF775
S214007D38E9FF23781BB901F023FF012323707BBAE0
S214007D48ADF80C3030220023174E02FB03F4315DE9
S214007D58A51901BB012333554FF0FF3304F110007A
S214007D6812493044AB606F80C5F80480C5F80C90A3
S214007D7809F0FEF904F10801042231440C4B009581
S214007D8803A801F0D3FFA96802460A4814F0F4F8DD
S214007D9805B0BDE8F0830133102BD6D1064814F0A1
S214007DA8EBF8F5E7495D0020AC2700204B6303009D
S214007DB85D630300441704007217040080B102785C
S214007DC8A2F14103032B0BD840783038C0B20828FC
S214007DD806D8054B134413F8413C40EA0320704785
S214007DE84FF6FF70704700BF64AE040008B50B4638
S214007DF842B101460448006803F0E0F8BDE80840D0
S214007E082EF004BB022008BDEC67002008B50B4620
S214007E1842B101460448006803F058FABDE8084035
S214007E282EF0F4BA022008BDEC670020F0B5002654
S214007E38124F8DB0FF2300930A223346386802A9F2
S214007E482FF057F9C0B102AB1D4603EB800404E0DF
S214007E5855F8043BB34228BF5E1CAC423868E9D9E3
S214007E68296803F0B9FB0028F2D02D28F0D00DB011
S214007E78BDE8F0402EF0CABA0DB0F0BDEC670020A1
S214007E8828B1034B0360034B4360002383607047AD
S214007E981900000394670020FF2307B50021044A51
S214007EA80093083009F0E8F803B05DF804FB00BF5B
S214007EB8376403000B4604490246086803490978F4
S214007EC808B12EF0C7BA7047B82A00204C5D0020CB
S214007ED8F7B50C4618B12921194839F068F824680E
S214007EE823685E795F8830463946FFF7E3FFF0B1CE
S214007EF88568E5B1A089227D3946904291BF002069
S214007F08801AA36880B294BF03469B18E27C009050
S214007F183046A8470138032803D8DFE800F0080FE2
S214007F280B0D0024204632F097FA204600E0812008
S214007F3803B0F0BD8024F5E79324F3E78724F1E740
S214007F489A170400F8B515460D4A044610680D4AF7
S214007F580B46117850B122462EF07CFA034628B11B
S214007F6800210C27C678B14201DB0020F8BD07FBCC
S214007F7801F45A681019125BAA42F7D00131F2E7E9
S214007F88B82A00204C5D002008B5034B1B6803B1D7
S214007F989847002008BD00BFB42A00202DE9F74FF7
S214007FA804460D460026454B454F1860454B19704C
S214007FB833010021F85C01360FF0B4FE0C2EF7D121
S214007FC80C2D28BF0C254FF0000901953C4EDFF814
S214007FD800A13D4DDFF8FC80019B4B4502DC03B059
S214007FE8BDE8F08F23784FF0000B337063887380FA
S214007FF8A388B380A379C6F80880B371E379C8F874
S214008008005088F804304FF00003A768A8F8063038
S214008018E3795B450ADC012116F8100B0FF082FEA7
S21400802808F1080809F101090C34D5E74FF00003F8
S21400803838886B812880FB784FF0000C2B81BA7843
S214008048C5F804A0002A00920CBF802240222A739A
S21400805879680AF10C02634513DC03EB43030AEB69
S214008068830ABB6843B1009A4FF6FF71B2FA82F2F0
S214008078164B520932F080F914350BF1010B0C3708
S214008088C6E7B1F800E00CF1010C22F80CEC91F808
S21400809802E00C3202F816EC91F804E00C3102F813
S2140080A815EC11F809ECBEF1010F14BF4FF0100ED5
S2140080B84FF0110E02F814ECCDE700BFB82A0020E6
S2140080C8A04100204C5D0020BC300020D97E000076
S2140080D8BC2A00203C330020014B1860704700BFC4
S2140080E8B02A002070B5128805460E46FFF72AFF0C
S2140080F8044670B102790499806815F0ADF8064B0D
S2140081081B680BB9002070BD314628462288984760
S214008118F8E78620F7E700BFB02A002008B50EF07B
S2140081289DFE022806D0012806D0044B1878400089
S214008138C0B208BD0120FCE70220FAE74B5D00202C
S214008148054B10B51C682CB1FFF7E8FF2346BDE8C1
S2140081581040184710BD00BFAC2A0020014B18601D
S214008168704700BFAC2A0020034B1A781AB90122C0
S2140081781A700AF079BE70474B5D00200022024B49
S2140081881A70FFF7DDBF00BF4B5D002037B5044609
S214008198002832D00EF062FE022830D1608932F014
S2140081A8D8FCE079237A003818BF0120012B637ABF
S2140081B808BF40F008000BB140F0100063890BB10F
S2140081C840F00400257CA188A2790DB1E36873B954
S2140081D80C4B10F083F92178084610F0FBF931F0C3
S2140081E8C4FF002814BF0320002003B030BDCDE92B
S2140081F80035054B10F072F9EDE70220F5E701208F
S214008208F3E700BF306504003334040008B50CF00B
S21400821889FF014630B1044813F0AEFEBDE80840B9
S2140082280DF024BB08BD00BF0C180400034B044A1D
S2140082385B7C012103201370FFF7E8BD80670020F0
S2140082484D5D002010B50446FFF7F0FFB4F57F4FEC
S2140082580BD100240F4B1A8813449C70FEF714FFAA
S2140082682046BDE81040FFF709BC4FF601739C4254
S21400827804D1BDE8104008482DF0D7BF4FF602736A
S2140082889C4205D1BDE81040044B1878FFF79ABB0E
S21400829810BD00BFD4550020806700206A6D0020FE
S2140082A810B5074C012122460320FFF79FFD28B989
S2140082B82378044A003B18BF0123537410BD00BF3F
S2140082C84D5D002080670020F8B5564B564C1A883E
S2140082D84FF6FF739A4218BF03234FF0080218BFE1
S2140082E82370524B30251A7032225A70DA70DA71BF
S2140082F833229D705D7137251A724FF400129D71F6
S2140083084B4D3626C5644B4D426405654A4D0122E1
S21400831885654A4D1E71C565494D86184566494DA1
S214008328C6678566484D494E0567494D80F848201A
S2140083384567202580F8785080F8845000F121059C
S214008348C0F88850434D80F85420C0F88C5080F808
S214008358602080F86C20C0F8806080F89020C0F814
S2140083689440C0F8B8303C4B3C4CC0F8BC300223B4
S214008378C0F898403A4C80F8C030C0F8A4400F24A3
S214008388384B80F8A840C0F8C430374B374CC0F894
S214008398C8308223C0F8AC40354C80F8CC30C0F8E2
S2140083A8B0400924334B344DC0F8D030334B80F8F6
S2140083B8B440C0F8D4302C7C314B80F89C20C0F8F0
S2140083C8A00080F8D820C0F8DC3044B12D4B80F8E7
S2140083D8E420C0F8E03005F11103C0F8E8304FF0AB
S2140083E8000CCA798E6802EB42039F00443006EB05
S2140083F8830326F807C0586001200D349870DC7097
S2140084081318CB71FFF7CCFAFFF74AFFFFF786FE83
S214008418012806D12B7C23B1BDE8F84016482DF07C
S21400842804BFF8BD1C6D00206B6D00204E5D00205B
S2140084387DAE0400010020007CAE0400020020008F
S2140084487BAE0400030020007AAE0400050042005C
S2140084580400420007003000FDFF21001200100152
S2140084680040420078AE040000FF440168AE0400F5
S21400847806004200D45500208067002002FF200135
S2140084886A6D002001FF100113B504460D482DF053
S21400849833FE6422C0F30F43637083B2B3FBF2F378
S2140084A8A0782370202201212DF0F6FFA078212243
S2140084B801212DF0F1FF0449201D02B0BDE810404F
S2140084C82DF0B8BF1C6D0020E09304000B7870B543
S2140084D883704CF61E0303804FF02013C3620123FB
S2140084E880F8303080F83C30C3180364124B0446DA
S2140084F843640223114A80F84830114B8263C364F0
S2140085084063CA798D6802EB420305EB830004F1E9
S2140085182C0646600B4E45F8236000238360531CE8
S214008528CB71094B201DC4E90134FFF7B5FC204682
S214008538BDE87040FFF7A8BFFDFF2100210020001E
S2140085487EAE04000100010391840000437B044AC8
S2140085580121137000781130C0B2FFF757BC00BF76
S214008568585D002038B504460078054D11302A4677
S2140085780121C0B2FFF73AFC08B92B78637338BDFF
S214008588585D0020024B53F820002EF04CB800BF70
S2140085989C330020012908B506D0022907D049B91E
S2140085A82EF038F8002008BD2EF037F8FAE72EF03F
S2140085B837F8F7E7024813F0DFFC0120F3E700BFBF
S2140085C83918040010B4054C114654F820001A4611
S2140085D8BDF804305DF8044BFFF7DCBF9C33002081
S2140085E8002310B5044683810364A0F8443048305D
S2140085F8FFF752FC014BC4E9123410BD15660300A0
S21400860838B504460B781A4A43700D4642F82300DC
S214008618FFF7E6FF2046FFF7A5FF4FF44013236158
S2140086280123144A2375A261134A84F82030E261B4
S214008638124A84F82C306262114A84F83830A262F2
S21400864804F10C0222630F4A04F10D036263E3632C
S214008658EA79A86802EB420300EB830110344C6009
S214008668094C40F82340094B8B60531CEB7138BD0E
S2140086789C330020575D0020080020006C6D002009
S21400868800FF300001FF100102010104CD85000043
S21400869810B47024427B0D48013A012904FB0200FD
S2140086A806D0022908D059B95DF8044B2DF0B2BFA0
S2140086B85DF8044B2DF0B1BF5DF8044B2DF0B0BF4C
S2140086C803485DF8044B13F057BC00BFD8180020C9
S2140086D855180400B0F85C302DE9F0418B4204468A
S2140086E80E4638D0437B077C8BB31C4A12789A42D6
S2140086F82DD370251A4A013B05FB032390F80F80FB
S2140087081B7B42462DF09DFFB845054601D1FF2844
S2140087181FD13A463146204694F890302DF091FF06
S2140087282F460546552212216078A4F85C602DF085
S214008738B3FEFF2F03D039462046FFF7A9FFFF2DCB
S21400874809D029462046BDE8F0412DF0BABFFF25DE
S214008758DFE70746E6E7BDE8F08100BF405D00209A
S214008768D818002041688268C978D27849B112B111
S2140087780321FFF7AFBF837B002B0CBF012102212B
S214008788F7E72AB1837B002B0CBF02210121F0E713
S214008798014813F0F1BB00BF66180400037BD3B191
S2140087A84368DA7812B18268D278A2B91B7933B1F5
S2140087B8837B002B0CBF04210521FFF78BBF836842
S2140087C81B792BB1837B002B0CBF05210421F4E712
S2140087D8014813F0D1BB704798180400084A437B39
S2140087E805211370837B5370C37B9370037CD3700F
S2140087F8037B137100780E30C0B2FFF707BB00BFCB
S214008808595D002038B5044600780C4D0E302A46CF
S2140088180521C0B2FFF7EAFA20B1BDE8384008489B
S21400882813F0AABB2B7863736B78A373AB78E373E8
S214008838EB7823742B79237338BD00BF595D00206D
S214008848D4180400024B53F820002DF084BF00BF54
S214008858C4330020F8B504460B78424A43700D46E8
S21400886842F82300404E2DF094FFFFF7CBFF6268D6
S214008878A3683E483E49D6641165D4655065C3E989
S2140088881410DE64DC654FF09873022663610123DA
S21400889804F10C01E16137491032216204F10D013F
S2140088A8A16235492376E16204F10E01616333491A
S2140088B884F82430A16304F10F012164304984F858
S2140088C83030616404F11001E1642E4984F83C30CC
S2140088D884F84830216584F85460A265E879A96868
S2140088E800EB400201EB820704F1140CC7F804C041
S2140088F84FF4817C244F41F82270C218D2B202EBA2
S214008908420241F822C001EB820700227A601F4A21
S21400891884F8703022661E4A84F88830A2661D4A9B
S2140089281D4BE2661D4AC4F88C3062671C4A8319E0
S214008938A26704F15C02C4F88020DBB2194A03EB94
S2140089484303C4F8842084F8646084F87C6001EBF0
S214008958830260345460144A033041F82320E871D7
S214008968F8BD00BFC43300206D87000021670300F0
S214008978A587000001002001020010010300300155
S214008988040030010500210101FC01064A0021000F
S21400899880AE04005100100082AE040083AE0400CE
S2140089A8550021006F0018001200010470B50D462E
S2140089B80646144613460A460146164813F0DCFADD
S2140089C825B92046BDE87040FFF73CBC072D05D109
S2140089D821463046BDE8704000F006BB4FF601431E
S2140089E89D4205D121463046BDE87040FFF72ABFB4
S2140089F8062D05D121463046BDE8704000F0A2B8E5
S214008A08B5F5817F05D121463046BDE87040FFF7B1
S214008A18B9BD70BD031904000148FFF75DBB00BF70
S214008A28B58900004FF4C01330B503600123037105
S214008A38074B8C688360CA7902EB420304EB830514
S214008A486860044844F82300531CCB7130BD00BF4F
S214008A5884AE04000400010138B50024044D55F81E
S214008A68040B08B12DF0A5FE01340A2CF7D138BD49
S214008A78EC330020042908B50AD172B16BB113781B
S214008A881BB92DF0C1FE002008BD2DF0B3FEFAE795
S214008A98034813F071FA0120F6E70320F4E700BF55
S214008AA83619040010B4054C114654F820001A462E
S214008AB8BDF804305DF8044BFFF7DCBFEC3300204C
S214008AC80229024608B50ED004D839B910462DF04A
S214008AD89BFE06E04029F9D0412907D110462DF023
S214008AE889FE002008BD2DF099FEFAE7024813F02B
S214008AF843FA0120F6E700BF5619040010B4054CE7
S214008B08114654F820001A46BDF804305DF8044BA8
S214008B18FFF7D6BFEC330020426B094B52791A7028
S214008B2882785A70C2789A70826B12B190F83C209C
S214008B38DA70007804210930014AC0B2FFF766B936
S214008B485E5D0020024B53F820002DF083BE00BF68
S214008B58EC33002038B504460078084D09302A461C
S214008B680421C0B2FFF742F930B96B78A370AB782E
S214008B78E370EB7884F83C3038BD00BF5E5D0020BB
S214008B8838B504460078114D09302A460421C0B28B
S214008B98FFF72CF9C8B9A3782A78022B0CD004D88A
S214008BA863B920462DF030FE01E0FF2B0AD02046A0
S214008BB8BDE838402DF0FDBD002AF2D120462DF044
S214008BC819FEF4E7002AF9D1EBE738BD5E5D002010
S214008BD8F8B504460B78284A0D4642F82300437039
S214008BE8FFF7B8FF636B254A5C631A632046FFF7F6
S214008BF8C7FF20462DF0DDFD4FF480136360012388
S214008C08626BA66B0532E2601D4A23722261A21CC3
S214008C182375A26166B11B4A84F82030E261E21C23
S214008C286262194A84F82C3004F13C03A26223637A
S214008C380627EA79A96802EB4203002E21F823707A
S214008C4801EB83000CBF02230423C3700123837047
S214008C580E4B04348360531C4460DBB20C4C03EBAD
S214008C68430341F8234001EB830000234360094B8C
S214008C7802328360EA71F8BDEC33002039680300DD
S214008C880340300101FF300102FF1001058B000090
S214008C9808000100AD8A000028B1034B1B78834208
S214008CA834BF002001207047425D002070B50025C3
S214008CB80A4C0B4E3378AB4200DC70BDD4F8A420C7
S214008CC842B123791BB16079FFF7E6FF10B9104669
S214008CD82DF09CFA0135D034ECE700BFE41C0020E8
S214008CE8435D002008B5427901461046FFF7D4FFD9
S214008CF8A8B1CB780A48013A042B00EB82100ED8AC
S214008D08012B08D81BB9BDE808402DF073BDBDE897
S214008D1808402DF079BDBDE808402DF07FBD08BDA0
S214008D28E41B002008B5427901461046FFF7B4FF59
S214008D38A8B1CB780A48013A042B00EB82100ED86B
S214008D48012B08D81BB9BDE808402DF05DBDBDE86D
S214008D5808402DF04FBDBDE808402DF05FBD08BDAA
S214008D68E41B002010B586B00446FFF7D7F90128A3
S214008D7830D1E278042A2DD8DFE802F01332340323
S214008D88030061790846FFF787FF58B31648032A99
S214008D9800EB811050F80C3C58791DD1003818BFEC
S214008DA8012063784FF480728DF804304FF4827394
S214008DB8ADF806300623ADF8083001238DF80B30E1
S214008DC800238DF80A0001A8CDE903238DF8143096
S214008DD8FFF7DCF906B010BDB0FA80F04009E0E70E
S214008DE80020DEE70220DCE7E41B002010B586B092
S214008DF80446FFF793F9012830D1E278042A2DD8E3
S214008E08DFE802F013133203030061790846FFF720
S214008E1843FF48B31548032A00EB811050F80C3C72
S214008E285B791DD11A1E18BF012263788DF80A20B7
S214008E388DF804304FF48273ADF806300623ADF88B
S214008E48083001234FF480728DF80B30002301A8F8
S214008E58CDE903238DF81430FFF798F906B010BD56
S214008E68B3FA83F25209E0E70222DEE7E41B0020A9
S214008E7810B586B00446FFF751F9012812D1637879
S214008E88094A8DF804304FF48273ADF806304FF473
S214008E988073CDE90223002301A804938DF81430CB
S214008EA8FFF774F906B010BD0800070110B586B0C4
S214008EB80446FFF733F9012820D16278104B8DF865
S214008EC804204FF4827294F8A01094F8A100597008
S214008ED81870ADF8062004934FF4807202230949EF
S214008EE801A88DF81430CDE90212FFF74FF994F86F
S214008EF8A130013B18BF012384F8A13006B010BD8D
S214008F08625D00200800050110B58378044633B377
S214008F180379022B0AD142791046FFF7BDFE28B125
S214008F280F48013A00EB82102DF078FCA379022B4B
S214008F3802D12046FFF716FF2046FFF7B7FF0223A9
S214008F4860781221A4F86C3055222DF0A5FA04F1A9
S214008F58A8004FF4FA71BDE810402DF06BBA10BDAA
S214008F68E41B00204388094A08211380838853801D
S214008F7883681B8A938090F8A03093718379D371A5
S214008F8800780430C0B2FEF741BF00BF5656002036
S214008F9838B50D4604460178114812F0EDFF4FF635
S214008FA802739D420ED10F4B1B782BB96371204676
S214008FB8BDE83840FFF7D6BF62790AB19342F6D2C9
S214008FC80123F3E7B5F57F4FF1D120462DF0DFFCFE
S214008FD8A378022B0CBF01220022A3689A70E6E74A
S214008FE872190400425D0020024B53F82000FFF778
S214008FF8CFBF00BF1434002038B504460078144D9F
S21400900804302A460821C0B2FEF7F0FE20B1BDE8BB
S2140090183840104812F0B0BF2B8863806B88E97818
S214009028A380AA88A3681A82AB7984F8A030EB7963
S214009038A371094B1B780BB9637138BD09B1994206
S214009048FBD9064812F098FF23780133F4E700BFEF
S214009058565600208C190400425D0020B5190400FD
S214009068F8B504460B784B4A0D4642F82300437081
S214009078FFF7C2FF484B04F1A800C4E92A34FEF7FC
S2140090880BFFA268454BD465D364454B022653654F
S214009098444BA11C13654FF44013E3600123616140
S2140090A8E1624149103221632265211D3F4AA163CE
S2140090B83F484049626504F1A002A061E163E265A9
S2140090C8E01C611D3C4A206261643C483C492266BB
S2140090D8A21D2374237784F8283084F8343084F863
S2140090E84030A16484F84C6084F8583084F86430C2
S2140090F86062A266E879AA6800EB400102EB810785
S21400910804F10C0CC7F804C04FF0060C2D4F42F8BB
S2140091182170C118C9B201EB410142F821C002EB27
S214009128810700217960284F84F880302767274F09
S21400913884F89830A767264F264BE767264F84F8AB
S214009148746084F88C60C4F89C3004F16C06831C48
S214009158C4F88470C4F89060204F214EDBB203EB4D
S2140091684303C4F89460C4F8887002EB830670342E
S214009178746008261B4C42F82340C31CDBB203EB82
S214009188430302EB8304043042F823606160E8710D
S214009198F8BD00BF1434002083680300DD680300B0
S2140091A82F690300118F000001FF300104FF200122
S2140091B81000300102FF200105FF300100FF3001DA
S2140091C803FF2101070001084A00210086AE0400BB
S2140091D85100100088AE040089AE04005500210036
S2140091E86F0018001200010400239B6AB3F5C04FF5
S2140091F803D21968064A914203D00023037083609D
S2140092087047012202709A689B694260F7E700BFC0
S21400921807B0CD5E024B034A1A602EF008BE00BFA8
S2140092280000002002020FF073B5534B04461A786C
S2140092381AB102221A7002B070BDCDE900220028C9
S214009248F9D001261E7037F02BFE4C4D4C4B18609B
S21400925817F094F82B785BB902F062FA40B94948DF
S2140092680823494A4949006801F0A8FE00B92E704B
S214009278474B5A6E62619B6E464AA3614FF40043A1
S214009288936603F188435968E16143499960196E0A
S2140092982160596E6160D3F87011A160196CE160A5
S2140092A8596C21613D49086C1864496C5964012160
S2140092B851664FF4005191661A6E560436D53849F1
S2140092C8CA68D407FCD45B6E5A0434D5354AD36BC7
S2140092D813F0430FFBD1344B1A68531C31D04FF4AC
S2140092E800139340314A13660423304C68462366BD
S2140092F84FF480632366102323664FF400532366D7
S2140093084FF0804323664FF4804301A963662DF02F
S21400931856FB009B2366019B63662B78002B8AD03E
S214009328194B1A6822665B68636684E72049CA6830
S214009338D007FCD4C7E71F4AD36B13F0430FFBD103
S214009348C9E71D4B1B78002BCED14FF48072114B0A
S2140093585A661A4A52681AB94FF40011134A116627
S2140093684FF400725A66164B5B68002BBCD14FF45C
S21400937880020E4B1A66B7E7655D0020665D002022
S2140093885C340020EC670020603400200071080080
S214009398008000500090005055CEAC0000C000542D
S2140093A8000004400000024CB8670020009000440B
S2140093B8000004500000025C645D002000C00550F8
S2140093C80000065070B52C4D04462E78012E02D0AB
S2140093D801232B7070BD0028FCD02DF015FB013042
S2140093E80BD02DF011FB40F20113984205D0234B09
S2140093F8234A5E66D368DE07FCD4224B22491B6EDE
S21400940813F0040F4FF4005314BF1C4A1F4A936608
S214009418CA6B12F04302FBD121681A4B19666168C1
S2140094285966A168C3F87011E1681964216959641E
S214009438E169C80748BF9A60154B1A6801320DD112
S214009448144A127852B914494968C90748BF1A60BD
S214009458124A5268D20744BF01221A606269104B4A
S2140094685A66A2699A6616F091FF0E4B186837F08E
S21400947812FD0023ADE700BF655D002000900040A8
S21400948800000440008000440000024C0090005099
S214009498B8670020645D002000C005500000065034
S2140094A8008000505C34002070B50024A36AB3F531
S2140094B8C04F23D21A68134B9A421FD1124E3378E4
S2140094C813F0FD0518D14FF480341048FFF7ACFEB2
S2140094D8032004F0B9FC0E4B0320DC6004F098FC73
S2140094E80C4B1C61AB6ADB69984704460748FFF7D4
S2140094F869FF0CB901233370204670BD4FF48174A0
S214009508FAE700BF07B0CD5E645D00203C3400205B
S21400951800A000440090004413B5204B1B7803B904
S214009528FEE700231E4CCDE900336A4608231D4992
S214009538206801F043FDF8B91B4AD2F84031D2F84A
S21400954840211F2B4FF0010311D9203A9340019A6E
S2140095581A43019208236A461249206801F0B6FEAB
S214009568124B134A1A602EF062FC02B010BD9340EC
S214009578009A1A430092EDE72D28F1D10A4AD2F84C
S2140095884031D2F840211F2B4FF0010385BF203A07
S21400959893409340019398BF0093DBE7655D0020F6
S2140095A8EC670020007108000080004400000020DE
S2140095B80B020FF038B50025AB6A0446B3F5C04F6A
S2140095C810D21B6BB3F5C04F0CD20748FFF72CFE22
S2140095D8AB6A20461B6B5B689847BDE83840024874
S2140095E8FFF7F0BE38BD00BF6834002013B500246E
S2140095F8A36A0190B3F5C04F13D21B6BB3F5C04FE7
S2140096080FD20948FFF710FEA36A01211B6B01A8B9
S2140096189B69984704460448FFF7D4FE204602B0E4
S21400962810BD4FF48174F9E76834002070B5002641
S214009638B36A0446B3F5C04F0D4612D21B6BB3F59A
S214009648C04F0ED20848FFF7EFFDB36A20461B6BE3
S21400965829469B69984704460348FFF7B3FE204609
S21400966870BD4FF48174FAE76834002070B50026A0
S214009678B36A0446B3F5C04F0D4612D21B6BB3F55A
S214009688C04F0ED20848FFF7CFFDB36A20461B6BC3
S2140096982946DB69984704460348FFF793FE2046A9
S2140096A870BD4FF48174FAE768340020F8B50027D7
S2140096B8BB6A0446B3F5C04F0D46164611D21B6B5F
S2140096C87BB10948FFF7B0FDBB6A20461B6B3246E4
S2140096D829465B6A984704460348FFF773FE204608
S2140096E8F8BD4FF40174FAE76834002070B5002618
S2140096F8B36A0446B3F5C04F0D4612D21B6BB3F5DA
S214009708C04F0ED20848FFF78FFDB36A20461B6B82
S21400971829469B6A984704460348FFF753FE2046A7
S21400972870BD4FF40174FAE768340020F0B50027DE
S214009738BB6A0446B3F5C04F0D461646ADF5177D11
S21400974820D21B6BB3F5C04F1CD21048FFF76CFD38
S214009758BB6A20461B6B40F251225B6A01A99847F8
S214009768044630B10948FFF72DFE20460DF5177D53
S214009778F0BD836A32461B6B2946DB6A01A8984708
S2140097880446EFE74FF40174EFE700BF68340020A3
S21400979810B50024A36AB3F5C04F10D21B6BB3F5FF
S2140097A8C04F0CD20748FFF73FFDA36A1B6B1B6B25
S2140097B8984704460348FFF705FE204610BD0124D7
S2140097C8FBE700BF68340020F0B58FB0044601A858
S2140097D80E461546FFF7EEFE9DF80C30012B12D10B
S2140097E8B5F5002F27D8B4F5002F24D86319B3F59C
S2140097F8002F20D821462A46304613F06BFE002458
S21400980820460FB0F0BD0027BB6AB3F5C04F15D28F
S2140098181B6BB3F5C04F11D20A48FFF705FDBB6AAC
S2140098282A461B6B314620465B6B9847044605481C
S214009838FFF7C8FDE4E740F20244E1E740F201140E
S214009848DEE700BF68340020F0B58FB0044601A8F4
S2140098580E461546FFF7AEFE9DF80C30012B1FD1BD
S214009868B5F5002F06D8B4F5002F03D86319B3F55D
S214009878002F13D940F2024420460FB0F0BDE2583C
S214009888013225D104339D42F9D82A46314620466E
S21400989800F082F80028EDD00024EDE70023F2E778
S2140098A80027BB6AB3F5C04F15D21B6BB3F5C04F84
S2140098B811D20A48FFF7B8FCBB6A2A461B6B31462A
S2140098C820469B6B984704460448FFF77BFDD3E782
S2140098D840F20344D0E740F20114CDE76834002094
S2140098E870B58EB0044601A80D46FFF763FE9DF8D6
S2140098F80C30012B22D144EA0503C3F30C03002BDA
S21400990833D1B5F5002F04D940F2024420460EB0F4
S21400991870BDB4F5002FF7D82544B5F5002FF3D859
S214009928204604F5005400F029F8AC4202D000287E
S214009938F6D1E9E70028E7D00024E7E70026B36A6F
S214009948B3F5C04F14D21B6BB3F5C04F10D20A48FC
S214009958FFF76AFCB36A29461B6B2046DB6B984701
S21400996804460548FFF72EFDD0E740F20444CDE74D
S21400997840F20114CAE700BF683400204FF40032F2
S21400998808B5044B9A6637F033FDB0FA80F0400904
S21400999808BD00BF00900050134610B562B10343DF
S2140099A89B070BD14FF40034054B9C6637F028FD17
S2140099B8B0FA80F0400910BD0120FCE70020FAE765
S2140099C800900050BFF34F8F0549064BCA6802F453
S2140099D8E0621343CB60BFF34F8F00BFFDE700BFC5
S2140099E800ED00E00400FA0570B5D0B1C9B10E4E1E
S2140099F8431E013913F8014F2046325D02F0030278
S214009A08012A11F8012F08BF04F12000B55C05F003
S214009A180305012D08BF2032801A01D1002CE9D198
S214009A2870BD0120FCE700BFA9D504000348044A1E
S214009A380449121A92102DF04CB800BF406100007D
S214009A4818630000B064002008B5154B83F30A8835
S214009A5800F030F8FFF7EAFF124B13498B4212D397
S214009A680020124B12498B4218D3FDF75BF9186891
S214009A7850F82240586840F82240013298688242DE
S214009A88F5D30C33EAE70022F8E71C6844F822000E
S214009A9801325C68A242F8D30833E4E70022F8E70C
S214009AA808000020F4110500001205000012050049
S214009AB8001205004FF40041134B144A70B59A6023
S214009AC8D3F88820124D42F47002C3F88820114A51
S214009AD805F5005491664FF0FF3222664FF6DF72A6
S214009AE862660222C3F8D020BFF34F8FBFF36F8F92
S214009AF84FF44036032004F0A7F90320E66004F08C
S214009B0887F92E6170BD00BF00ED00E00060000020
S214009B180080004400900050054B1860054B1B6FF2
S214009B2803F00703032B01D135F060BA704700BF76
S214009B38C8670020008000502DE9F04104464FF029
S214009B4801080C250D4E0CB9BDE8F08194FAA4F076
S214009B58B0FA80F00F2808FA00F2C8BF103824EAD6
S214009B680204CABF05FB006205FB0062B4325768F0
S214009B78002FE8D09168C0B2B847E4E788340020E0
S214009B8808B50C4837F0ADF9192004F04FF928B19C
S214009B98192004F059F9192004F03AF91A2004F0AB
S214009BA845F928B11A2004F04FF91A2004F030F9C4
S214009BB8002008BD8CB004002DE9F0410E4617467B
S214009BC8054618B30F2923D80378DBB1013BDBB26F
S214009BD8022B19D8104AD35C6A78D340DB0717D50E
S214009BE80E4BD3F81043ACB937F05AF980463A46CC
S214009BF82846314603F064F8404637F04CF92046CC
S214009C08BDE8F0817F23E7E70023E5E72224F6E7AF
S214009C182124F4E70224F2E7DCAE040000C0035077
S214009C2810B5044610B30378E3B1013BDBB2022B50
S214009C381AD8104AD35C6278D340DB0718D537F0B9
S214009C482FF90122617823788A4030214B4341F26C
S214009C58100103F1A04303F570335A5037F01BF98F
S214009C68002010BD7F23E6E70023E4E72220F8E77C
S214009C782120F6E7DCAE040010B5044610B30378DE
S214009C88E3B1013BDBB2022B1AD8104AD35C6278E8
S214009C98D340DB0718D537F003F90122617823781B
S214009CA88A4030214B4342F2100103F1A04303F5EA
S214009CB870335A5037F0EFF8002010BD7F23E6E7E0
S214009CC80023E4E72220F8E72120F6E7DCAE0400CC
S214009CD838B50D46044618B311B30378E3B1013B13
S214009CE8DBB2022B1AD8104AD35C6278D340DB0763
S214009CF818D537F0D5F830222378534303F1A0431C
S214009D0803F570335B696278D34003F001032B7068
S214009D1837F0C1F8002038BD7F23E6E70023E4E7E4
S214009D282220F8E72120F6E7DCAE04002DE9F04112
S214009D380D4616469846044600284FD000294DD0B2
S214009D480178002940D04B1EDBB2022B3ED8254AAC
S214009D58D25C6378DA40D20701D4FF2940D1022EBC
S214009D6801D9042E3CD137F09BF823780746FF2B01
S214009D7805D032462046296802F0E8FF28602B689E
S214009D88013309D12378FF2B06D1174B6078D3F817
S214009D9824142DF06FFC286029684B1C18D00C235F
S214009DA8124A03FB0122069BC2F8048093602378BC
S214009DB8FF2B04D001230E4A8B40C2F824343846C1
S214009DC837F069F8002007E07F22C2E70022C0E7E4
S214009DD8384637F060F82D20BDE8F0812220FBE7F2
S214009DE82120F9E7DCAE040000C0035088340020C8
S214009DF800D0035008B502F059FF054B00F0553067
S214009E0820F05020C3F82004BDE80840FFF794BEB1
S214009E1800E0035008B502F049FF054B00F0AA30F1
S214009E2820F0A020C3F82004BDE80840FFF784BE51
S214009E3800E003502DE9F04F144605460E469B46B3
S214009E48C36B87B001225B6902A960689847EB6B11
S214009E5801225B6903A93046984702A82DF038FA14
S214009E68074648B10023A37563754FF0FF33A36018
S214009E78002007B0BDE8F08F03A82DF036FA0123BE
S214009E88A375237E04EBC303DE611F846368B342B5
S214009E980ED1206003A82DF04AFA4FF0FF33207544
S214009EA8A360237D043B022B26D80023A375DFE797
S214009EB823681A1A53425341A37503A82DF037FA9C
S214009EC8237D834218BFA77503A82DF012FA07460C
S214009ED802A82DF00EFA874218BF002303A818BF61
S214009EE8A3752DF00EFA074602A82DF00AFA874247
S214009EF81CBF0023A375D4E703A82DF0FAF980B198
S214009F08EB6B022230465B6904A9984704A82DF03B
S214009F18FFF90346207D032839D8DFE800F03838F3
S214009F28040903A8F3E7CC22237E04EBC3031A84B0
S214009F3801F06EFC109B187003A8277E2DF0CDF953
S214009F4804EBC70787F82200237E03A804EBC303A5
S214009F58B3F8209093F822702DF0CBF9804603A82A
S214009F682DF0CFF98246B8F1000F15D0EB6B022220
S214009F7830465B6904A9984704A82DF08EF96075E9
S214009F88637D6BB90023A3754FF0000838E0227E86
S214009F9804EBC2021384CBE703A82DF069F9EEE7B9
S214009FA894F81680B8F1000FEED0B9F1000F09D179
S214009FB8DFB10123E375637E002B4FD1012F42D119
S214009FC8677614E06B6C06EB0A015A4286EA0100D3
S214009FD810421CBF0022A2755A1E0A409B1A9945B9
S214009FE8D0D8A37D002BE3D1CEE7E37D43B94FF06D
S214009FF800084B465246314628462CF0B4FEA06070
S21400A008A27D12B123694B4423611A49237E09783D
S21400A01899422AD901332376BBF1000F27D032B3F1
S21400A028E37D23B3B8F1000F21D1032F1FD0A16819
S21400A0384B1C1CD0109B2246009328460123FFF792
S21400A048F9FEA07513E095F8343063B9EB6A01336E
S21400A058CFD1032FCDD10123A376C8E7012FCFD0C8
S21400A068032FC4D1F7E79846C3E70023A375A07D5E
S21400A078FFE600BF00AF04002DE9F04F0E469846F5
S21400A08800238BB004464FF0FF31104617468DF874
S21400A098133001F0A7FBB6F5801F20D2314605AA7B
S21400A0A804F108002DF066F8451C014603D1237C10
S21400A0B8BBB92D2010E0384601F094FB0122394642
S21400A0C820460DF113032CF0A0FE0028EFD09DF8D3
S21400A0D8133088F8003000200BB0BDE8F08FB01CB5
S21400A0E8E5D1E56A691C36D12046616A2CF081FD07
S21400A0F80546B31C18BF0123DFF8CC900193636AAA
S21400A108626C0293236805A902FB053AE36B0522F5
S21400A1185B695046984705A82DF075F92DF098F913
S21400A12850462DF0A0F94FF0000B824601464B1C16
S21400A13805D0636C81EA0A025B42134211D02946B5
S21400A14820462CF056FD029BAB422CD0BBF1000FEC
S21400A1582CD10546D3E72368ED1A636CB5FBF3F5F7
S21400A168C7E7484601F03EFB0DF113034946204673
S21400A178019A2CF04AFE034690B1B21C03D0D9F8D7
S21400A1880020B2420CD19DF8132003930D4B88F89B
S21400A198002049461A68384613F09CF9039B9B46EC
S21400A1A8D9F80810C3E7BBF1000F82D0B6F5801FB8
S21400A1B891D2314698F800307A6804F1080001F028
S21400A1C83FFA88E7FCAE0400643C00202DE9F34122
S21400A1D80446174698460E46184D816AE36A8B422F
S21400A1E801D04B1C02D102B0BDE8F081284601F030
S21400A1F8F9FA0122294620460DF107032CF005FE40
S21400A20838B14346294620469DF80720B847002817
S21400A218E9D0A9684A1C04D1696820462CF076FD66
S21400A2280146012EDAD16B6881EA0302636C5B4251
S21400A2381A4218BF4FF0FF31D0E700BF383C002065
S21400A2482DE9F04F4FF0FF334FF6FF720025044616
S21400A25800F10806C0E909238BB0C36205620563EE
S21400A268304688462CF057FF20462CF092FC60BB00
S21400A278204641462CF00DFD20462CF08AFC60BB9B
S21400A2885E200BB0BDE8F08F2368E26B606C576900
S21400A29800FB0530052205A9B84705A82DF0B3F838
S21400A2A8012807460CD1294620462CF0C3FC012F6E
S21400A2B8024600D10132294620462CF089FC03E0EC
S21400A2C82DF0CBF80028EED10135E3699D42DBD3AB
S21400A2D820462CF05EFC0028CAD000254FF0FF3937
S21400A2E84FF6FF73CA46A846C4E90853E36998457B
S21400A2F80AD3A5EB0905012D2CD84FF6FF72636A21
S21400A30893423CD16720BCE72368E26B606C5769D0
S21400A31800FB0830052205A9B84705A82DF073F8F4
S21400A328834605A82DF046F8074658462DF090F8BF
S21400A33868B1574538BFC4F82480B94528BFB94620
S21400A348BD4238BF3D46BA46236A0133236208F148
S21400A3580108CBE74FF6FF7300256362E3699D4269
S21400A368CBD2676C2068E36B052207FB05005B69A8
S21400A37805A9984705A82DF01DF80135EEE7E26B0C
S21400A388676C2068694607FB030055690522A847DD
S21400A39868462DF00FF8626A2368606C4B4D00FB28
S21400A3A802302DF060F84FF0FF33A062E3622A46D1
S21400A3B86FF00101204605ABFFF75EFE002846D188
S21400A3C8AD6829462046E5622CF0BFFB206320B91D
S21400A3D82046E16A2CF09AFCE062294620462CF0DA
S21400A3E895FC0546A36A9D4233D120462CF080FB97
S21400A3F800278046B946E36999453CD3B84559D9FC
S21400A4082046616A2CF0F5FB0026054604F1400A52
S21400A418B74212D8626C2368694602FB0539E36BBB
S21400A42805225B694846984768462CF0C3FF5346A2
S21400A43802464946E06B2DF018F8294620462CF0CF
S21400A448D8FB0136B0450546E2D1642019E7A56A6F
S21400A458B7E7294620462CF078FB236B29460344A9
S21400A4680746236320462CF051FC0546002FB9D139
S21400A478C4E90B07B6E7636C2568052203FB095594
S21400A488E36B05A95B692846984705A82CF0BBFF2F
S21400A4982CF0DEFF58B128462CF0E5FF0146204692
S21400A4A82CF053FB636C143B984208BF013709F144
S21400A4B80109A0E730462CF02EFE00232046194658
S21400A4C8034AFFF783FE0020DBE600BF903C00202F
S21400A4D8016E03002DE9F041036B9046826B076816
S21400A4E89A4288BF8363426C436A90B002FB037744
S21400A4F8C36B0E46052201A95B6904463846984791
S21400A50801A82CF080FF01280146307057D0656CF2
S21400A518E26B2368606AD2F814C005FB0030052297
S21400A52806A9E04706A82CF06EFF01284FF00005A4
S21400A53823D0D4E90A3201219342CDE90B458DF8A0
S21400A54834800E958DF83C102AD1194620462CF0FA
S21400A558DDFB236B626C14339B1AE06223630C9B4F
S21400A56853B99DF83C303BB1626A616C2368E06B76
S21400A57801FB02312CF0FFFE0C9DE36B05225B69A4
S21400A58801A93846984701A82CF03DFF30702846A8
S21400A598236BA26B9A4288BFA36310B0BDE8F08114
S21400A5A8237C33B91C490BAA04F1080001F096F87D
S21400A5B8D5E72046194A0BABFFF708FECFE7237C02
S21400A5C823BB2246164904F1080001F087F8616AA1
S21400A5D820462CF02FFB616A421C20462CF0F8FA25
S21400A5E8054620B9236B626C1344143B236320464C
S21400A5F8A16A2CF08BFB2368A062C01A636CB0FBC0
S21400A608F3F0606220462CF0C4FBB6E70023204631
S21400A618044AFFF7DBFDDAE781AD0000FDAC000079
S21400A6289B6E0300376E030073B50D46D11E4A4273
S21400A6381C461B7E4A419A4226D1296823689942BD
S21400A64822D3636899421FD8114E0DF1070332468C
S21400A658FFF712FDC0B972686B689A4214D19DF86C
S21400A6680730DA1E53425341227E93420CD1636967
S21400A67801336361D4E90323934205D22968A268AB
S21400A68842F8231001332361012002B070BD00BFD9
S21400A698903C00202DE9F04F9B4689B09DF8483045
S21400A6A89046514A0193136907465B450D46C0F02C
S21400A6B89580D94653680093B9F1000F7BD0FB6BA1
S21400A6C801225B6905A90098984705A82CF00DFE9D
S21400A6D8454B1B68984240F0848005A82CF011FE74
S21400A6E80428064615D105A82CF012FE009B044641
S21400A6F81E44019B002B3ED1804512D91C46A8EB70
S21400A7080008384600992CF001FBA9EB04090090D4
S21400A718D2E7FB6B02225B69009806A9984706A851
S21400A728E2E7A0EB08045C4528BF5C46032C4644D9
S21400A738ABEB040B1DD9FB6B294630465B69A208B8
S21400A748984724F0030304F0030A1E441D44DDF86A
S21400A7580480BAF1000FD4D0FB6B012206A930465C
S21400A7685B6998475246284606A912F0B3FE554438
S21400A778C7E7A246EBE7824600F0030302932B18CE
S21400A78803930644039BA6EB0A00A3EB0A05029B69
S21400A7989A4514D1BAF1000FB3D0FB6B012206A973
S21400A7A85B6998475246284606A913F04FF80028D2
S21400A7B8DDD04FF03609484609B0BDE8F08FFB6B90
S21400A7C8012206A95B6998470422284606A913F0C1
S21400A7D83DF80028EDD1AAF1040AD3E74FF0630943
S21400A7E8E9E74FF06F09E6E7BC3C00202DE9F041A9
S21400A7F80F4616469846044688B060B390F834501C
S21400A808FDB101212CF0BAF900210E9BCDE9051106
S21400A818CDE902379DF83C30CDF804808DF81C3021
S21400A828237C04968BB90D4901AA04F1080000F0B0
S21400A83855FFDDE90553E06B002E08BF1D462CF0DA
S21400A84836FB284608B0BDE8F0812046044A01AB2E
S21400A858FFF7BCFCEDE70546F3E700BF656E0300AF
S21400A86831A600007FB590F84260044601920DF1CB
S21400A8780B030A46304611492CF021FB012E0546EB
S21400A888E36B17D132465B6903A998479DF80B100E
S21400A898039B019A59B19BB243EA02430122284618
S21400A8A80393E36B03A99B69984704B070BD62F3F2
S21400A8B80F03F3E701229B6901A9F5E7BC3C0020DA
S21400A8C82DE9F04F99B00E460D920A69416C0B932C
S21400A8D81439D31DB3FBF1F3013302EBC302036B48
S21400A8E804469342C0F001820023DFF804940893DC
S21400A8F8E36A48461946059300F074FFD6E903371D
S21400A90807930B9B022B4DD1CC2F40F0D7810D9B84
S21400A9183BB1314620462CF028FB656C149001208C
S21400A92844E00120079B656C1B68149300F0010047
S21400A93800280CBF04230823782F0E9349D8059ABD
S21400A9486B1E1340ED1A3B1D9D423CD2002F3DD096
S21400A958082D3ED80023042506934FF0040A3368D2
S21400A96806990B98C9F80030C9F810702CF0E3FC6B
S21400A9784FEA9A030F93059B89F814000393002364
S21400A98809930C9304930A93616C039B4A1E1A401E
S21400A9988B1A27B35544AB4223D8236B5B1A134450
S21400A9A823632FE1782F656CB9D8F07D0D9B002BBB
S21400A9B8BCD0E36B01225B69706816A9984716A895
S21400A9C82CF097FCB4E700250695C6E704250697FD
S21400A9D8C3E7012300254FF0080A0693BFE753454F
S21400A9E8DBD3A3EB0A029742039BB84628BF9046E0
S21400A9F89742534428D90122D9F8101089F817200D
S21400AA088F4226D10399C9F80410049299F81720A2
S21400AA180AB399F818100398CA1C09EBC2025060CA
S21400AA2804980131A2F80880907289F81810B8F1D5
S21400AA38000F07D00B9A022A40F08180099A72B15B
S21400AA48012209929B46ABE0049A002A18BF03220B
S21400AA58DBE70222D9E7039AC9F80420E7E70C9A4D
S21400AA684244032AEED9E26B1846956914A90122D6
S21400AA780993A847099B05460028E1D03D2D40F0DC
S21400AA881E8104F1080303932368059A606CA2EB01
S21400AA98030ABAFBF0FA00FB0A302CF0E4FCE16A81
S21400AAA8804620462CF032F9A26A824200F00F81D6
S21400AAB8626CD9F80830511E0B40216B2768891A3A
S21400AAC80B442363089BE062DF1BB7FBF2F7BA452B
S21400AAD840F0FA80059BB3EB080A12D0E36B4FEA06
S21400AAE89A0241469B6998478346E36A059A534407
S21400AAF8E362236B03989B1A434423632CF00BFBF7
S21400AB08DA462368616CE06B01FB07312CF020FC09
S21400AB1820462CF03EF820462CF03BF92063BAF18C
S21400AB28000F00F0D4803269616CD31D1439B3FB72
S21400AB38F1F3013302EBC3029042A5D2BFE00D9AAF
S21400AB48002A77D1B8F1030F4FEA98026ED9E16B65
S21400AB5818468D6907991093A847109B0546C0B9F3
S21400AB6818F0030515D0079A28F0030B02EB0B0123
S21400AB789B444FF0FF3215A815922A46109312F000
S21400AB88A9FCE26B5846956915A90122A84705460F
S21400AB98109B9B46079A42440792002D40F08B80F4
S21400ABA8049B16A80193069B009399F81420434625
S21400ABB8316800F0CDFDE36B0F9A9B69039816A9E0
S21400ABC89847039A051E089B18BF134608934346E2
S21400ABD85246204603992CF0C6F8236B08F1030268
S21400ABE8A3EB0A0322F003029B1AC9F808002363A2
S21400ABF8002D7FF443AF0C9BA7EB080743440C9348
S21400AC08CDF80CB0204603992CF080F80025039068
S21400AC18002F7FF4B9AE364A3168936804F108000D
S21400AC28E36252680B9B00F00BFD49E09B464546E5
S21400AC3807999EE79B4606F120021092F27D7068FF
S21400AC48A2B1002296F818C00A99D5B2AC4511D917
S21400AC58109D02F1010E35F832508D4228D90E9813
S21400AC6806EBC2020144D069084403E00E9A0A992A
S21400AC780A441044E26B15A9556901221193A847A6
S21400AC88159A0A9B1392E26B04339569584601227B
S21400AC9813A90A93A847119B054603EB0802A2EBE3
S21400ACA80B02042A7FF679AF28B90BF1040BC5E727
S21400ACB87246491BC9E7CDF820B088E770252F46AD
S21400ACC8384619B0BDE8F08F4FF0000A19E7326928
S21400ACD8616CD31D1439B3FBF1F3013302EBC302E5
S21400ACE8236B9342BFF404AEE9E71C27E8E700BFEE
S21400ACF8643C0020032A2DE9F34106460D46174614
S21400AD081C4606D1237A012B23D0012002B0BDE8C9
S21400AD18F081DFF86080096842460DF10703FFF707
S21400AD28ABF960600028EDD19DF80720237A032A46
S21400AD38E8D0D8F804106A689142E3D1012B296953
S21400AD48D4F80CC007D172690CEB0103934202D900
S21400AD582074207CDAE708316144E1603B46012232
S21400AD6829463046FFF7ACFD60600028CAD00020B0
S21400AD78CCE700BF903C00202DE9F341089C032A4D
S21400AD881746266806D1237A012B24D0012002B064
S21400AD98BDE8F081DFF89080304642460DF10703A3
S21400ADA8FFF76AF960600028EDD12568D8F8040036
S21400ADB8A96AD5F844C04840CCF100031840227A66
S21400ADC8E1D1012A09D1E268D8F810301344726933
S21400ADD8934202D92074207CD9E72868EB6A1B1AAC
S21400ADE8081AB3FBFCF3B0FBFCF083420BD1706C83
S21400ADF8F36A421E1340326B121A13442846336312
S21400AE082BF084FFE862D8F81020E3680832134471
S21400AE18E36001223B4604492068FFF751FD606065
S21400AE280028B0D00020B2E7903C00202DE9F04181
S21400AE380025604B0E46D3F8008004461D6018B9FE
S21400AE4821252846BDE8F08190F8347007B30A68D3
S21400AE5803689A4240F0A3804A6843689A4240F0E2
S21400AE689E808A6883689A4240F09980CA68C36858
S21400AE789A4240F094800A6943699A4240F08F806B
S21400AE888A69C36B9A4240F08A804B698361D8E727
S21400AE9868223946856B12F08DF9D6E902123368B6
S21400AEA804F1080023607368A5636360336963610F
S21400AEB87369A3612CF041F9B36904F14000E363B8
S21400AEC89B68984720B9676C17B16368B3FBF7F7B8
S21400AED894F84330E761002BB2D00023656C2366F4
S21400AEE8002D64D0002F62D02368B3FBF5F205FB73
S21400AEF81233002B55D16668B6FBF5F305FB1363D2
S21400AF08002B4ED120462BF010FEA36904330344D1
S21400AF189E4248D340F634726369CC3B934244D889
S21400AF28B5F5805F43D3032120462BF027FED4E9EE
S21400AF380001E36B1B6898470546E36B0220DB6855
S21400AF489847CDB941462046FFF77AF96428054662
S21400AF5804D141462046FFF773F90546666C5DB98D
S21400AF68236A2046143E5E432BF0DFFDA3690433B4
S21400AF7803449E4238BF5A25002D0CBF01230023E8
S21400AF8884F8343007D1D4E900010B4A136801333A
S21400AF9813602CF06CF9E06B2BF089FF51E75D2508
S21400AFA84FE759254DE75A254BE75F2549E75B25C7
S21400AFB847E700BFF4350020F03500202DE9FF41B3
S21400AFC80C4616461F46054680B390F834307BB3C9
S21400AFD8B1F5801F2ED2DFF8608001212BF0CEFD60
S21400AFE82146424628460DF10F03FFF745F804466A
S21400AFF870B99DF80F30012B11D1D8F81030BB422C
S21400B00812D10246009031462846FFF743FB044615
S21400B018E86B2BF04CFF204604B0BDE8F081022B0D
S21400B02814BF2D246024F3E76324F1E72124F2E714
S21400B0381124F0E72924EEE7BC3C00202DE9F04374
S21400B04885B00C4617461E460546DDF8308098B390
S21400B05890F8343093B3B1F5801F31D2DFF864909E
S21400B06801212BF08BFD21464A4628460DF10F0399
S21400B078FFF702F8044688B99DF80F30012B14D163
S21400B088D9F8102006EB08039A4213D300904346DB
S21400B098324639462846FFF7FDFA0446E86B2BF099
S21400B0A806FF204605B0BDE8F083022B14BF2D240A
S21400B0B86024F3E76324F1E72124F2E71124F0E79C
S21400B0C82924EEE7BC3C002073B50C461646054618
S21400B0D830B390F834302BB3B1F5801F24D2012159
S21400B0E82BF04CFD21462846104A0DF10703FEF7C3
S21400B0F8C3FF044680B99DF80730032B0CD0022BFB
S21400B1080CD1284609492BF030FF3060E86B2BF04D
S21400B118CEFE204602B070BD2D24F7E76124F5E781
S21400B1282124F6E71124F4E72924F2E7BC3C0020A2
S21400B1382DE9F3411E4600230C46174605463360A4
S21400B14850B390F834304BB3B1F5801F28D2DFF8EF
S21400B158548001212BF012FD2146424628460DF167
S21400B1680703FEF789FF0446A0B99DF80730032BAE
S21400B17810D0022B03BF01233B600423D8F81030FD
S21400B18818BF38603360E86B2BF091FE204602B09B
S21400B198BDE8F0812D24F6E72124F7E71124F5E72A
S21400B1A82924F3E7BC3C002073B50446056B2BF056
S21400B1B8BCFC636E03449D422CBF002301238542DA
S21400B1C894BF00252D1A207C84F85030656584F8D5
S21400B1D85800A8B100230C4E1A4619462046009679
S21400B1E82BF087FF002305461A4619462046009688
S21400B1F82BF088FFE3682844984294BF0020C01AC2
S21400B208E06502B070BD00BFFFFF0F002DE9F347F1
S21400B2181E4643690446B342884617469DF828905A
S21400B2284ED300258DF8075020462BF07EFCD4F828
S21400B23830A082450AD2236AB5EB430F06D2002215
S21400B24820460DF10701FFF745F9B8B39DF807301A
S21400B258012B05D1002220460DF10701FFF73AF928
S21400B268B9F1030F06D0314620462BF04EFC256B6D
S21400B278854227D3144D4FF0FF31284600F0B2FA26
S21400B2884B46294600222046C5E90376C5F80080C5
S21400B298FFF716FB236E054663B12046FFF784FFCB
S21400B2A894F8503013B994F858301BB1236E04F153
S21400B2B850009847284602B0BDE8F0870135B3E746
S21400B2C86225F7E71C25F5E7903C00202DE9FF41AD
S21400B2D80F4690461E46054698B390F8343093B30A
S21400B2E8B1F5801F31D21A4C02212BF047FC2246BA
S21400B2F8394628460DF10F03FEF7BEFE024678B122
S21400B308012342460093394633462846FFF77EFF18
S21400B3180446E86B2BF0CBFD204604B0BDE8F08170
S21400B3289DF80F30012BEBD12169B142E8D100938B
S21400B338414633462846FFF7ADF904460028DFD1D4
S21400B348E7E72124E8E71124E6E72924E4E700BF35
S21400B358BC3C00202DE9F04790F8423086B0012B1F
S21400B36805460391A1EB020740F0AA80FF2F03D8F9
S21400B3781E464FF0640807E00226012B14BF4FF064
S21400B38832084FF06408013600244FF6FF79DFF8DC
S21400B39844A195F84230012B14BF322364239C4203
S21400B3A802D35FFA88F40DE005AB224651462846DC
S21400B3B82BF0B9FD95F84230012B059B34D14B454F
S21400B3C82DD1E4B295F84230012B14BF3222642204
S21400B3D8121BB24217D3012E39D10022012B059732
S21400B3E88DF8132027D1082205A90DF113002CF09B
S21400B3F856F89DF81330059A42EA03222146284655
S21400B408FFF730FA40B10223324900932846CC238E
S21400B418096803AAFFF7FAFE06B0BDE8F087DBB2B4
S21400B42803B902340134B4E7591CCAD09BB2002BC6
S21400B438F8D10134F6E7102205A90DF113002CF017
S21400B4482EF89DF81330059A42EA0342D6E7039A87
S21400B458012B059223D10823202205A90DF11300FC
S21400B4688DF813302CF01BF89DF813201202214695
S21400B4782846FFF7F7F995F84230611C012BC9B248
S21400B4881AD10028BFD12846BDF81420FFF7EAF9DC
S21400B4980028B8D10234BDF81620E1B2AFE7102371
S21400B4A8202205A90DF113008DF813302BF0F7FFB5
S21400B4B89DF813201204DAE70028A4D1059A9EE71F
S21400B4C8B7F5803F4FF00106BFF457AF4FF032088C
S21400B4D85AE700BFBC3C002070B586B00E4605464D
S21400B4E80392A0B390F834309BB3B1F5801F32D2E4
S21400B4F802212BF043FB31462846184A0DF1170364
S21400B508FEF7BAFD044618B99DF81730032B0ED17E
S21400B5180223314600932846CC2303AAFFF776FE7B
S21400B5280446E86B2BF0C3FC204606B070BD022B21
S21400B5380BD10A4928462BF018FD0399024681428A
S21400B548EFD02846FFF706FFEAE76124E9E721245B
S21400B558EAE71124E8E72924E6E700BFBC3C002018
S21400B568F7B50C461646054668B390F8343063B30C
S21400B578B1F5801F2BD202212BF000FB214628466E
S21400B588144A0DF10703FEF777FDC0B99DF807309A
S21400B598032B14D0022B14D10E4928462BF0E5FCB9
S21400B5A8471C024639462846FFF7D4FE044606B12D
S21400B5B83760E86B2BF07BFC204603B0F0BD2D24EB
S21400B5C8F7E76124F5E72124F6E71124F4E72924B0
S21400B5D8F2E700BFBC3C002030B50C46054685B0F7
S21400B5E828B390F8343023B3B1F5801F23D2022154
S21400B5F82BF0C4FA0DF10F03214628460F4AFEF732
S21400B6083BFD034688B99DF80F20032A0DD0032278
S21400B6182146009202462846FFF7F8FD0446E86BE6
S21400B6282BF045FC204605B030BD2D24F7E7212435
S21400B638F8E71124F6E72924F4E700BFBC3C00200D
S21400B6482DE9F043466886B3056898464FF0000C27
S21400B658A946AE4655F83C400CF1010CC4F3130756
S21400B668013401D0B94217D0B4450EF1080EF1D115
S21400B6782F46002403E0B44207F1080712D055F815
S21400B688343001340133F6D1C1F3130141EA0851CD
S21400B698C7E90012BDE8F08341EA0851CEE9001276
S21400B6A8BDE8F083B8F1030F03D101230372BDE8A8
S21400B6B8F083002303E0B34209F10809F5D055F8F2
S21400B6C833400133C4F30754032CF4D1C1F31303F6
S21400B6D843EA0853C9E90032BDE8F0832DE9F04192
S21400B6E80646406882B0B8B10F46904600243368D4
S21400B6F853F8345003EBC403C5F30752C5F31301DC
S21400B708013506D05B683046CDF80080B84718B1DA
S21400B718706801348442EAD302B0BDE8F08100BF05
S21400B728024B1968024B1868FFF780BBCC670020ED
S21400B738EC67002008B535F0A6FB014B186008BD7D
S21400B748E83C0020014B186835F098BBE83C002020
S21400B75873B504462248012A00EAC1119DF818501C
S21400B76823F07C4007D9961E012E28D9073303F00C
S21400B7787F03194308E09DF81C300A43DB0603F0F4
S21400B788C053134343F060410023C4E900108DF80A
S21400B7980730B5B1202221460DF107002BF07FFEB9
S21400B7A81A220DF10700211D2BF079FE0820636888
S21400B7B89DF8072043EA8263636002B070BD1143B8
S21400B7C8E2E71B220DF1070021462BF068FE2368EE
S21400B7D89DF80720042043EAC2632360EDE700BF14
S21400B7E880FFFF0738B5094B0D461A680021044646
S21400B7F811F0E0FC00234FF0FF322383C4E9002554
S21400B8082361A260E382A37638BD00BFFCAE0400C5
S21400B8180138C0B205289ABF014B185C0120704752
S21400B82801AF04002DE9F0410746154600240E46F0
S21400B838596888B0490A012922464FEA510104F19D
S21400B8480104F8D8DC78997824031B88C90201F427
S21400B858006104F480540C43C3F30A0352032344E0
S21400B86892B24FF000089C18274B6FEA04440393E3
S21400B87825F07843ED4302A90DF107001B22029339
S21400B8888DF807802BF00BFE9DF80720029B02A977
S21400B89843EAC2630DF107001B2225F0784504939E
S21400B8A802958DF807802BF0FAFD9DF80720029B7D
S21400B8B86FEA144443EAC26305934FF0FF330794D4
