S01B00006275696C642F72656C656173652F7A69676265652E73333714
S21400400008100020597D0000EDC40000F7070300EB
S214004010F7070300F5C40000FDC40000F70703001F
S214004020F7070300F7070300F7070300F707030087
S21400403001C50000984B0400F7070300F7070300CC
S214004040F7070300F7070300F7070300717800007F
S214004050F7070300F7070300F7070300F707030057
S214004060F7070300F707030001CA0000F70703007D
S214004070F7070300F7070300F7070300F707030037
S214004080F7070300F7070300F7070300F707030027
S214004090F7070300F7070300F7070300F707030017
S2140040A0F70703002181000005810000F7070300E1
S2140040B0F7070300F7070300F7070300E91D0200F0
S2140040C009630300056303004D1502001F63030028
S2140040D00D630300A91D020011630300DD01020049
S2140040E0291E0200F7070300F7070300F70703007F
S2140040F0F7070300F7070300F7070300F7070300B7
S214004100F7070300F7070300F7070300F7070300A6
S214004110F7070300F7070300F7070300F707030096
S214004120F7070300F7070300F7070300F707030086
S208004130F707030085
S214004134F0B5114A114C124E00F00105E3695F0711
S21400414413D40DB9334213D103EA00078F4207D1C3
S2140041540B4A1A40002A14BF6FF001000020F0BD7D
S214004164013AEBD16FF00200F9E74FF0FF30F6E7C3
S2140041746FF00100F3E700BF80969800000003503C
S214004184020001000B4B70B5D96911F480310DD1D2
S21400419401244FF48072084E084DF46020462C64C7
S2140041A41A61FFF7C5FF3464EC6070BD6FF0010060
S2140041B4FBE700BF0000035000100350002003502C
S2140041C438B541F6713301220C4C0021E569E363EE
S2140041D40B4B05F48035DA600223606121202361ED
S2140041E4FFF7A6FF10B92120FFF7A2FF0122054B17
S2140041F4DA600DB10023E36338BD00BF000003504E
S214004204001003500020035070B5134C6061E3693E
S2140042145B071ED40E4656F8043B8D18A361AE42C7
S2140042240BD10423002121202361FFF781FF58B915
S214004234BDE870402120FFF77BBF08210846FFF742
S21400424477FF10B10423236170BD56F8043BA361C5
S214004254E5E74FF0FF30F7E7000003502DE9F84399
S214004264154641F67132164B8946DF69DA63012238
S214004274064603F58053DFF8508007F48037DA608B
S21400428455B9284601220F4BDA601FB10022A3F568
S2140042940053DA63BDE8F88306F5005404EA08041C
S2140042A4A41BAC4228BF2C46494622463046FFF79C
S2140042B4ABFF0028E6D12644A1442D1BE0E700BF4F
S2100042C4000003500020035000E0FFFF45
S2140042D02DE9F04F4FF0FD0BC9B09A460DF11B09C2
S2140042E09DF8503108AFCDF80C90CDF808B0019786
S2140042F0059303890446009383790E4690464188C9
S2140043008288407812F0BCFA054650B10090A38827
S214004310002062883A4912F0F7FD284649B0BDE809
S214004320F08F99F800002FF041FB38B12846A3889B
S2140043306288344912F0E8FD8D25EEE75A46394684
S21400434099F800002FF0DAFA8346002851D0529BE5
S2140043501BB1BDF84C3198424BD8002399F8009019
S2140043600793A9F14102012A5FFA8BF123D8384658
S2140043700139254ADFF898C05FFA81FE734513DBE2
S214004380059B04210792C3B907AF18221F489FED6B
S2140043901A7B02FB060420460A460830394684ED9E
S2140043A0027B17F0D9FA11E010F8011F01335140D3
S2140043B00CFB01F2E2E7059B33B123464A4638463A
S2140043C0009610F0DFF9A8E70829DED9B8F1000F4B
S2140043D001D088F80090BAF1000F01D0AAF800B01A
S2140043E0529B002B99D05A46184608A917F0B4FAE3
S2140043F093E7012591E700BF0000000000000000E1
S2140044006BF40300A0F40300C59D1C8180100020FF
S21400441093010001000000002DE9F04F93B0CDE9B4
S2140044200A32DDE91C530E9353EC102BCDE908013C
S214004430104619468DED060B1E9E16F017FD80B130
S214004440DDE906014FF0FF32C54B16F037FD40B9E7
S214004450DDE906014FF0FF326FF4801316F010FD11
S21400446070B1DDE908019DED060B0E9B1E96CDE9A9
S2140044701C53DDE90A3213B0BDE8F04F00F088B9EE
S2140044800022DDE90601002316F0FAFC002800F001
S2140044903381DDE906A303F1004BCBF30A5016F493
S2140044A08063A0F2FF3008BF06250F9316F00CFAC3
S2140044B09BA3D3E9002316F071FA9BA3D3E900234C
S2140044C016F0B6F8CBF31304894644F07F518046C5
S2140044D00022A44B504641F4401116F0A7F894A3CE
S2140044E0D3E9002316F05AFA02460B4640464946E0
S2140044F016F09EF816F0ECFC044616F0E5F98EA3CE
S214004500D3E900238046894616F048FA0022964BE7
S21400451016F08EF816F0DCFC89A3D3E900230746D4
S2140045204946404616F03AFA80463846894616F01E
S214004530CBF985A3D3E9002316F030FA02460B46E2
S2140045404046494616F072F802460B46CDE90C2363
S21400455016F024FADDE90C238046894610461946F3
S21400456016F066F80022CDE91001804B4046494619
S21400457016F03EFB00227E4B16F05AF802460B461B
S2140045804046494616F034FB00227A4B16F050F8A7
S21400459002460B464046494616F02AFBDDE90C2348
S2140045A08046894600204FF0804116F03FF80246CC
S2140045B00B464046494616F03BF802460B46DDE9F8
S2140045C0100116F015FB07F2FF3700226A4B16F0B3
S2140045D02FF800223B0516F0E1F952465B4680466E
S2140045E0894616F06BFC002840F08980CDE90C89DE
S2140045F004F16303C62B8CBF0527042731051BD5A2
S21400460053A3D3E900235046594616F04DFC002824
S2140046107FD051A3D3E900235046594616F030FC0C
S214004620002876D00027A542C6BF2C1B04F1FF3514
S21400463000253C4646F480660E9B9F422CBF4FF0FA
S2140046400008A3EB070816F0020903D0002F18BFD6
S2140046504FF000083CB1DDE90C235046594616F0F1
S214004660C7FA82468B46DDE906010022002316F0D3
S21400467007FC10B10BF100439B46DDE9080126F468
S2140046800063CDE90183DDE90A324BEC10AB0095FF
S21400469000F07EF802465FB3DDE9091316F0200F3E
S2140046A000F10105089E0CBF65204520B047DDE9F6
S2140046B008010523002205930A23002CCDE90232C7
S2140046C007F1FF374FEAD473B8BF64422A46019316
S2140046D004970A9B009430F085FF0246B9F1000F5C
S2140046E006D00B9BC41A0B9B1A190E9BA34245D8E7
S2140046F0104613B0BDE8F08FDDE906ABCDE600222C
S214004700404649461A4B16F073FA013CCDE90C01B7
S2140047106EE7002D90D00F9B002B8DD0013D8BE7D0
S214004720FB799F501344D33FB3C8608B288AC63F9B
S21400473061436F63A787D23F71A379094F930A40FD
S2140047401655B5BBB16B0240EF39FAFE422EE63F76
S2140047502D431CEBE2361A3F0000000080842E41F9
S214004760FFFFEF7F0000F83F0000E03F00002C4016
S21400477000002440000018400000F03F2020DDE943
S2140047800913089DA8470134ADE700BF00000000EC
S2140047902DE9F04F5BEC10AB97B0CDE90501DDE9F4
S2140047A02058CDE90723504652465B465946229F7D
S2140047B016F05CFB70B90323CDE902870193AA4B80
S2140047C00093DDE90501DDE9072330F03DFE17B073
S2140047D0BDE8F08F4FF0FF326FF480135046594615
S2140047E016F04EFB28B10423CDE9028701939F4BB8
S2140047F0E6E74FF0FF32504659469D4B16F05EFBFB
S21400480068B19C4A07F00403002B08BF03229A4BAA
S2140048101CBF13460422CDE902870192D0E750461A
S2140048208DA3D3E90023594616F048FB38B98CA36C
S214004830D3E900235046594616F022FB68B1DDE95D
S2140048400723DDE905014BEC10ABCDE92187209568
S21400485017B0BDE8F04FFFF7DFBD0022002350463B
S214004860594616F00DFB002800F091805B46524634
S2140048700020002115F0DAFE012382468B460993BC
S21400488017F4806400F08580092D40F285800024AE
S21400489030210EABA5F109020134202C03F8011BD0
S2140048A0A5EB040901D09442F6D15946504616F0BD
S2140048B00FFB724B054603EBC90393ED007B8DEDB2
S2140048C00A7B16F001F802460B465046594615F08C
S2140048D0ADFEDDE90A2316F061F802460B46CDE987
S2140048E00C2316F01DFB064615F0DEFF02460B46AF
S2140048F0DDE90C0115F09AFE02460B46CDE90C23C5
S21400490000225F4B16F0DAFA002848D0013630460F
S21400491015F0CAFF02460B46DDE90A0116F0BAFAA0
S21400492008B100260135B9F1000F45D1284615F02B
S214004930CBFF02460B465046594615F077FE00223E
S2140049404F4B16F09DFA10B9E90700D501350A213C
S2140049500EAB1A19202C0AD095FBF1F001FB10556E
S214004960303502F8015B013405460028F2D107F025
S2140049700302012A55D1B8F1000F52D0099A12B994
S21400498017F00C0F01D008F1FF38302240E00990F4
S21400499076E74FF0060988E7A946002485E7002257
S2140049A0DDE90C01364B16F06BFA0028BBD10EB1D0
S2140049B0F007B8D50136B6E70A210EAB1A19202C37
S2140049C00DD0B6FBF1F001FB1063092E03F13003A6
S2140049D009F1FF3904F1010402F8013B11D8302136
S2140049E0A1440EAA202CB2D04C4504F101030AD1F2
S2140049F004F158020DEB02042E2204F8202C1C466B
S214004A00A5E70646DBE7A1541C46EBE71A5501343A
S214004A10444506D2202CF9D1CDE9028701940EAB8D
S214004A20CEE6202CF8D0099B3BB12D2204F158038A
S214004A306B4403F8202C0134EEE77A0704D504F122
S214004A4058032B226B44F4E73B07E5D504F15803E3
S214004A5020226B44EDE700BF0000000065CDCD418D
S214004A600000000065CDCDC18E1104009211040037
S214004A70FFFFEF7F851104008A110400D05A04005E
S214004A800000E03F0000000070B58EB02C22002130
S214004A9003A816F0D1FD64234FF002320893CDE947
S214004AA005230B2301218DF834305B4B8DF8101055
S214004AB01D880D4040F0A980084634F0EFFD0A221C
S214004AC0564B574C1A704FF42873ADF812304FF00F
S214004AD0FF332360534B54491B8820460B82534BAD
S214004AE0534A1B68CD828B61524B0D621B884B82EA
S214004AF0514B1B68CB611DF00DFA20B14FF41B71B2
S214004B004E4835F066FE0521206830F05EFF20B185
S214004B1040F27D21494835F05CFE206815F042FDE4
S214004B20474B2068196831F013F80C2535F01EFA4B
S214004B306843099035F01AFA68430DEB05010790B3
S214004B40206817F03BFC20B140F295213B4835F039
S214004B5040FE25681FF016FC00220146284631F06C
S214004B606FF820B140F29721344835F032FE40F21B
S214004B700353344D344E2B80052396F90000AB705A
S214004B807F2801D11DF0BCFA3378EB7035F0EEF9D2
S214004B9000EB80008000A88035F0E8F90023C00014
S214004BA04FF0FF31E880AB604FF0FF3018A3D3E939
S214004BB0002334F0C5FE2549206830F0FAFF20684F
S214004BC002A931F016FC20B14FF434711B4835F0C1
S214004BD000FE042220680DEB020130F08EFF042850
S214004BE004D040F2D721154835F0F3FD01A9012085
S214004BF030F08FFB07F0BEFC01201DF005FF2CF007
S214004C00F2FB1DF02BFF1DF013FA0EB070BD00BFB7
S214004C100A0020FF42030000E65A0020136200202C
S214004C20145500207E740400C468002084740400B8
S214004C30C59603007C74040080740400574A040080
S214004C400C660020085500209A6B00203997030058
S214004C500348044B834202D0034B03B11847704706
S214004C60C86B0020C86B002000000000064B0749F8
S214004C70C91A891048BF0131491003D0044B0BB143
S214004C8001481847704700BFC86B0020C86B00205B
S214004C900000000010B5064C237843B9FFF7D8FF94
S214004CA0044B13B10448AFF300800123237010BDFA
S214004CB0B0150020000000000498040008B5044B5E
S214004CC01BB104490448AFF30080BDE80840CDE7B7
S214004CD000000000B415002004980400A3F5803AF4
S214004CE0704700BF154B002B08BF114B9D46FFF7C2
S214004CF0F5FF00218B460F461148124A121A16F08D
S214004D009BFC0C4B002B00D098470B4B002B00D085
S214004D1098470020002104000D000B4816F0D2FF33
S214004D2016F062FC200029002BF032FA16F0B8FFCD
S214004D30000008000000000000000000081000202E
S214004D4008100020686200202DBD010007B5012173
S214004D5020200DF1070201F03BF858B10223012193
S214004D6020200DF107028DF8073001F041F803B05E
S214004D705DF804FB9DF807100229F8D002220948C6
S214004D8015F048FB022301210DF1070220208DF8C3
S214004D90073001F02DF82BF055F94FF4FA6000F0CB
S214004DA061FEE4E708AC030038B501F0E5FF01F06A
S214004DB0ADF9012805D001F0A9F9022801D001F0CB
S214004DC0CBF9064D2B783BB901F0A0F90128044633
S214004DD002D12BF0C0F92C7038BD00BFC45B002098
S214004DE010B5044600882BF001F9A37884F8440037
S214004DF0834202BF0123E3702371074B04F11C00BA
S214004E00C4E9073401F03AF8224620880349BDE891
S214004E10104000F077BF00BF83FD02004DFD02008A
S214004E2070B5C37804460D461646002B34D1D1B172
S214004E30214815F0EFFA0123E370E36CA6600BB18E
S214004E40E06D9847E368F61A63699E4221D2217E98
S214004E501A480131C9B2217615F0DCFAA36D13B1F8
S214004E60217EE06D9847E5702BF0FFF815B32379A7
S214004E7003BBA268238A801A83421BD801231048EA
S214004E80237115F0C7FA236DA3B1E06DBDE870403D
S214004E90184701232376E6E70029E4D1094815F0F0
S214004EA0B9FA636DE660E5702571002BDBD0E06D26
S214004EB09847D8E770BD00BF30AC030041AC030094
S214004EC06FAC03005CAC030070B51E4683880446D6
S214004ED00D46C18002810BB1868070BD8178008846
S214004EE02AF070FF0123E370064BA680C4E9033462
S214004EF00C34204600F0C2FF29462046BDE870402C
S214004F002BF0AAB8CFFD020010B501790446B1FA1D
S214004F1081F1008849092AF0CCFF21796088B1FA2E
S214004F2081F149092AF0C5FF034B1A68A24204BF63
S214004F3000221A6010BD00BFCC15002070B5437962
S214004F400446A3B100880E4E04F10805336813B179
S214004F500C4B1B786BB121792AF0ABFF64210A4B0E
S214004F603460A3602846BDE870402BF075B84088D2
S214004F70E9E7064815F04EFA054B3221A360F1E743
S214004F80CC150020C55B0020094F000085AC03004F
S214004F903D4F000010B50446E0B10F4815F03AFA50
S214004FA001236371A37953B9217920882AF081FF00
S214004FB0236B7BB1606B0121BDE81040184720468B
S214004FC0FFF7A2FF04F108002BF04BF82046FFF78E
S214004FD0B5FFEDE710BD00BFBBAC030010B504463F
S214004FE0F8B1104815F016FA00236371A3796BB96F
S214004FF021792088B1FA81F149092AF05AFF236BFA
S2140050007BB1606B0021BDE8104018472046FFF7D3
S2140050107BFF04F108002BF024F82046FFF78EFFF4
S214005020EDE710BDC6AC030010B5044668B10748EE
S21400503015F0F0F9637920461BB1BDE81040FFF784
S214005040CDBFBDE81040FFF7A5BF10BDD2AC030032
S21400505010B50E4C0E48214615F0DCF982210D489D
S21400506015F0D8F982210220A21E00F0C1FE0146EA
S21400507030B134F8022C0848BDE8104015F0CAB923
S2140050800648BDE8104015F0C5B900BF5A560020C6
S214005090E1AC0300FCAC030007AD03004BAD03001E
S2140050A038B5124C82212246022000F091FEA51C43
S2140050B0014698B122880E4815F0ACF92A460D4BE9
S2140050C003F1340153F8040B8B4242F8040BF9D178
S2140050D019889B78118093703623238035F8021C3C
S2140050E0054A0648BDE8384015F094B958560020E1
S2140050F056AD0300D6AD03005A560020B4AD0300EB
S214005100034B1B781BB18B4201D82AF09BBF70471C
S214005110406B002010B5044601460E4815F07AF99B
S214005120012C11D10C4B0D481A884FF6FF739A428A
S2140051301EBF0022094B5A742AF0A1FE01F072FF2E
S214005140BDE8104001F044BE0448BDE810402AF017
S21400515098BE00BF0DAE0300F46A002098650020DC
S21400516070B500241A4D1B4E3378A3421BDC002476
S214005170194D1A4E3378A3421BDC0024184D194EE5
S2140051803378A3421BDC00F0C1FF012816481CD16F
S2140051902AF075FE01F046FF01F01AFEBDE87040E9
S2140051A0124800F0D3BF2846FFF71AFE01346035D8
S2140051B0DAE728462AF049FE01343435DAE728468D
S2140051C02AF07CFE01343835DAE72AF05AFEE5E7A5
S2140051D068220020CB5B002088260020CC5B0020C5
S2140051E038200020CA5B002098650020155100007A
S2140051F02DE9F04F87B0FFF753FFB94B05A805938D
S2140052002AF080FE054616F013F9B64CC2B21F2AE5
S214005210627004D9B44815F0FDF800F017FC294672
S214005220A01C16F099FB05A82AF06CFE054616F0A1
S214005230FFF8C2B21F2A84F8212001D9AB48EAE75A
S214005240294604F1220016F087FB05A82AF05AFE2C
S2140052503226044600272578002D40F09F80A44C77
S214005260FFF77EFF2378DFF8C8A2DFF8C882A14FD9
S21400527000939AF8003098F8002039789E4815F088
S214005280C9F83A7898F800109AF8000053180344C2
S214005290DFF894B220782C4603445846DBB2AA4284
S2140052A000F3E682012B38BF0123944E0293324668
S2140052B0002335464FF482714FF6FF74029801338F
S2140052C0984213705180948002F10C02F6DC8C4BED
S2140052D08A498448AB6000F0EFFFE879AB68DFF8F6
S2140052E0449200EB400003EB800000F0BBFDEB793E
S2140052F0B9F800200133A242EB7103D07F49814800
S21400530001F0DCF84FF6FF73B9F800207B49D21A9B
S21400531018BF01227C4801F09BFC4FF00009784C36
S2140053203A784A4500F3CC8200264FF00C09774ABB
S214005330DFF8C8B198F800003978B04200F3D4829C
S21400534046180C21002501FB06B19AF800009423AC
S214005350A8426F4A00F3E6820C253E7898F80030A3
S21400536000274FF070081E44064405FB06B5DFF81C
S214005370C8A15F4B1B78BB4200F3E78202995F48E7
S21400538000F0FEFD059B56491A468B4240F0F0821F
S214005390604807B0BDE8F04F15F03CB8532D0FD16C
S2140053A063784C2B40F04881A378502B40F0448122
S2140053B00122594B1A7005A82AF0A4FD04464AE7B4
S2140053C0442D13D16378303B092BF4D8601C2AF0A7
S2140053D0A6FD524B524A1978002386B2994202F132
S2140053E06002E8DD22F8466C0133F7E7422D0BD168
S2140053F06378542B54D1A01C00F0D2FC494B188083
S21400540018462AF080FCD6E7582D33D8412DD2D93D
S214005410433D152DCFD801A353F825F0DF570000E4
S214005420B7530000B7530000B7530000B75300004F
S214005430B75300008B550000B7530000B753000069
S2140054403D55000087540000B7530000B7530000D6
S214005450B7530000B7530000C1560000395600008D
S214005460B7530000B7530000B7530000B75300000F
S21400547037570000692D9ED1601C2AF050FD80B27F
S2140054802AF0DCFD97E71B4B012019780023264AFB
S214005490994202F1E4028EDD02F8E20C0133F7E7EE
S2140054A0601C00F07DFC0546E01C2AF0B0FD0121E2
S2140054B0024628462AF067FD60211848184C0378F3
S2140054C05943621865524FF4FA6111824FF44871DD
S2140054D05161164956831165013303706BE700BFAF
S2140054E05A560020AC6400202CAE030043AE0300E6
S2140054F0C65B0020C95B002053AE03009816002050
S2140055001017002048160020D01500209C1B0020F5
S214005510E0190020A3AE0300C55B0020CB5B002093
S21400552068220020F46A00209C1C0020EFFE020087
S214005530C75B0020C85B002090180020601C00F0AD
S2140055402FFC00224FF034088146CD4F11462AF03A
S2140055501AFD3878CB4D08FB00F325F80390EA18BF
S214005560E3781046693B18BF012393702AF06DFC60
S2140055700021C54A3B785160012103FB08550B44C6
S2140055803B7015600F46117415E7601C00F008FCB0
S2140055900022114681462AF0F6FC3422B84DDFF888
S2140055A0E482287802FB00F328F8039008EB030156
S2140055B0E3780846693B18BF01238B702AF045FC48
S2140055C0B24A00231046916B31BB00EB83103423A4
S2140055D02A7802FB03838363AD4A00231046D2F881
S2140055E0B410F9B9E42202FB030034232A7802FB44
S2140055F00383C0F8B4305FB9A34A3B46114652F85D
S214005600040BA8B93422287800FB028241F8232034
S2140056102B7801332B70CEE60133042B02F14002C7
S214005620D1D1D9E70133042B02F1E402D7D1E2E766
S2140056300133042BE3D1EBE7601C00F0B1FB80469E
S214005640E01C2AF0E4FC0121024640462AF09BFCBE
S21400565060229048904D0178DFF858C24A43AB1854
S21400566025F802804FF448721A825A618B4A5E838C
S2140056709A65E278E424642A04BF01229A709CF8B2
S2140056800030DFF80CE25C430EEB04020EF8043048
S2140056904FF40074548003241471947101EB410498
S2140056A005EB4415322482F8B04000240133DBB207
S2140056B001315371D560148101708CF800307AE6A0
S2140056C0601C00F06DFB00224FF0380A8146DFF8C0
S2140056D0DC8111462AF057FC98F80030704D0AFB22
S2140056E003F325F803904FF00109EA1882F80490B6
S2140056F0E37873B1E01C00F053FB00220446114629
S2140057002AF041FC98F800300AFB03535C8083F8CB
S214005710069064485D4A03789901535498F800103F
S21400572002EB8314C1EBC10205EBC2054A1C65639C
S21400573088F80020D0E6601C00F032FB8046E01CB3
S21400574000F02EFB0546601D2AF061FC044602466A
S214005750012140462AF017FC2246284601212AF05D
S21400576012FC60204FF4487CDFF828E14A4A9EF895
S214005770003000FB03F422F80480DFF820811119C2
S214005780A1F810C0C1F814C04E83C1F85880591C47
S214005790C9B248431418A4F810C0C4F814C06683ED
S2140057A0C4F85880942415523F4D981C8EF800007B
S2140057B02878DFF804C1444303EB430301EB4101BF
S2140057C00CEB040E02EB431302EB41120CF8040040
S2140057D0CEF80430CEF8082001302870EBE5601CC7
S2140057E000F0DEFA8046E01C00F0DAFA00220546F9
S2140057F0114640462AF0C7FB0022382411462846A8
S2140058002AF0C1FB2948264A03784FF0000E04FB15
S21400581003FC22F80C804FF0010802EB0C0181F823
S21400582006E081F8048003EB0801C9B24C4302EBA2
S214005830040C15539C1C047070241D4D8CF806E057
S21400584028788CF804804443DFF870C0C3EBC303A9
S214005850C1EBC1010CEB040E02EBC30302EBC10269
S2140058600CF80400CEF80430CEF808204044B4E724
S214005870467901358E4284BF04714471E4300EE5EA
S214005880CC5B002088260020986500209C1B00200A
S2140058909C1C0020CB5B00206822002001510000E9
S2140058A038200020C85B0020C75B0020CA5B0020B1
S2140058B0C65B0020C95B0020E0190020901800207D
S2140058C0B9F1000F06D016F8052C02EB420204EBE5
S2140058D08204B4603146584601F0AAFD09F1010978
S2140058E00BF1E40B0C361BE571180AD0481E09FBB9
S2140058F000B0C07900EB400004EB800409FB01B067
S2140059008460104609FB0151039201F01DFB3978B3
S2140059101C48314409FB015101F084F8039A013612
S214005920403207E5F54218BF11F8050C03911EBF7B
S21400593000EB400004EB80048C6003FB052000F0C5
S21400594081FF039901350C31FFE4F74218BF15F8C3
S214005950053C29461CBF03EB430304EB830408FB0A
S21400596007A018BFAC6000F043FE01370C3500E519
S21400597013F8011D00297FF406AD3B2102F8011C37
S21400598001E500BF2C20002007B5012121200DF1E4
S214005990070200F01DFA18B99DF80720024B1A708E
S2140059A003B05DF804FB00BF406B002007B5064B54
S2140059B08DF80700187001210DF10702212000F074
S2140059C017FA03B05DF804FB406B002007B5022110
S2140059D001200DF1060200F0FBF938B9044814F076
S2140059E019FDBDF8060003B05DF804FB0020FAE7D9
S2140059F0C0AE030007B50221ADF806000DF10602A1
S214005A00012000F0F5F9014610B1034814F002FD3C
S214005A1003B05DF804FB00BFE1AE030010B5FFF76E
S214005A20D5FF04460146074814F0F4FC0121064859
S214005A3014F0F0FC24B9BDE810400120FFF7DABFEF
S214005A4010BD00BF11AF030023AF030008B5044824
S214005A5014F0E0FC00F0DCF92AF0F4FA2AF0EFFA91
S214005A6039AF030038B50446084D094B28462B606D
S214005A7000F004FA002C18BF21462846BDE838403E
S214005A8008BF4FF496712AF0E7BA00BF8C270020B3
S214005A903DFF02002DE9F043384D91B008AC0746B3
S214005AA0894690460FCD0FC495E80F00002684E87F
S214005AB00F0001250323324C3248CDE90366CDE9B9
S214005AC005668DF80E300796029534F02BFE2E48AC
S214005AD034F028FE32462D4920468DF8176004F033
S214005AE0E5FD334632462A498DF8190000902046D7
S214005AF08DF82390CDF82C808DF8216004F0F0FD11
S214005B000A9020468DF8097004F052FD204608AA37
S214005B1005A904F00BFE02AA204603A92BF0BFFB42
S214005B204FF400721B4B5A62194BE560626A92058D
S214005B3010D46BB94FF40072164B11485A6204F039
S214005B4037FD114834F0F1FD002011B0BDE8F083B8
S214005B50013BEBE7002BEDD0094908A82BF0D2FB60
S214005B604FF400720B4B06485A6204F021FD0648BB
S214005B7034F0DBFDBDF82000E7E700BF504B040023
S214005B800040005AF84D0400F44D040080841E00C6
S214005B9040420F000060005A0122034B1870034B6E
S214005BA01980034B1A707047CE5B0020FC6A0020F9
S214005BB0CD5B0020F8B5454B1B780BB90020F8BD2F
S214005BC0434B1B78012B03D1BDE8F8402AF0B9B946
S214005BD0404B1C884FF6FF739C42EFD03E4834F093
S214005BE0A1FD0023260AE4B21A462146304604F0F8
S214005BF09FFC012E354604F0010335D015D9B51E9D
S214005C00012DDBD8002B0BBF4FF480754FF080754D
S214005C104FF470614FF070610BBF01274FF480376F
S214005C200F204FF470202D4B11E0002B0BBF4FF4CC
S214005C3080754FF080754FF470614FF070610BBF48
S214005C4001274FF480370F204FF47020244B1A683A
S214005C5002401CD0BA421AD01A680A4032D11A68DA
S214005C6022EA01022A4316E0002B0BBF4FF4807590
S214005C704FF080754FF470614FF070610BBF0127D5
S214005C804FF480370F204FF47020164BDFE71A686A
S214005C9022EA00023A431A602AF053F90546002821
S214005CA08CD0083644EA06102A460321C0B2FFF715
S214005CB0F1FE40F6FF73684300F2FF70B0FBF3F0AE
S214005CC080B27CE795427FF479AFC8E7CD5B0020D1
S214005CD0CE5B0020FC6A0020F84D040028C3035069
S214005CE020C3035024C3035010B5044C237823B9B3
S214005CF0034834F017FD0123237010BDD05B00204D
S214005D00F84D04002DE9F0431F4C85B00746884641
S214005D109146FFF7E9FF23781BB902F0B9F8012393
S214005D2023707BBAADF80C3030220023174E02FBEE
S214005D3003F4315DA51901BB012333554FF0FF3342
S214005D4004F1100012493044AB606F80C5F804803F
S214005D50C5F80C9009F02EFB04F10801042231442A
S214005D600C4B009503A802F069F9A96802460A4898
S214005D7014F050FB05B0BDE8F0830133102BD6D1EC
S214005D80064814F047FBF5E7CF5B0020B427002059
S214005D9067FF020079FF020046AF030074AF0300FE
S214005DA080B10278A2F14103032B0BD8407830383B
S214005DB0C0B2082806D8054B134413F8413C40EA05
S214005DC0032070474FF6FF70704700BF704B04000B
S214005DD008B50B4642B101460448006803F072FA63
S214005DE0BDE808402AF024B9022008BD0466002059
S214005DF008B50B4642B101460448006803F0EAFBCA
S214005E00BDE808402AF014B9022008BD0466002048
S214005E10F0B50026124F8DB0FF2300930A223346BA
S214005E20386802A92AF0F8FFC0B102AB1D4603EBA2
S214005E30800404E055F8043BB34228BF5E1CAC4225
S214005E403868E9D9296803F04BFD0028F2D02D28E0
S214005E50F0D00DB0BDE8F0402AF0EAB80DB0F0BDC5
S214005E600466002028B1034B0360034B4360002305
S214005E708360704719000003AC650020FF2307B558
S214005E800021044A0093083009F018FA03B05DF8C0
S214005E9004FB00BF530003000B4604490246086893
S214005EA00349097808B12AF0FBB87047C02A0020D9
S214005EB0D25B0020F7B50C4618B12921194834F0FA
S214005EC088FC246823685E795F8830463946FFF789
S214005ED0E3FFF0B18568E5B1A089227D394690429E
S214005EE091BF0020801AA36880B294BF03469B1817
S214005EF0E27C00903046A8470138032803D8DFE844
S214005F0000F0080F0B0D002420462EF0B7FA2046AE
S214005F1000E0812003B0F0BD8024F5E79324F3E78A
S214005F208724F1E79CAF0300F8B515460D4A0446F2
S214005F3010680D4A0B46117850B122462AF0B0F888
S214005F40034628B100210C27C678B14201DB0020A9
S214005F50F8BD07FB01F45A681019125BAA42F7D085
S214005F600131F2E7C02A0020D25B002008B5034BBF
S214005F701B6803B19847002008BD00BFBC2A00205C
S214005F802DE9F74F04460D460026454B454F186051
S214005F90454B197033010021F85C013610F05EFAAB
S214005FA00C2EF7D10C2D28BF0C254FF000090195BB
S214005FB03C4EDFF800A13D4DDFF8FC80019B4B45D1
S214005FC002DC03B0BDE8F08F23784FF0000B33708F
S214005FD063887380A388B380A379C6F80880B371FA
S214005FE0E379C8F8005088F804304FF00003A7683B
S214005FF0A8F80630E3795B450ADC012116F8100B99
S21400600010F02CFA08F1080809F101090C34D5E75C
S2140060104FF0000338886B812880FB784FF0000C27
S2140060202B81BA78C5F804A0002A00920CBF802203
S21400603040222A7379680AF10C02634513DC03EBED
S21400604043030AEB830ABB6843B1009A4FF6FF711D
S214006050B2FA82F2164B52092EF0A0F914350BF163
S214006060010B0C37C6E7B1F800E00CF1010C22F882
S2140060700CEC91F802E00C3202F816EC91F804E011
S2140060800C3102F815EC11F809ECBEF1010F14BF43
S2140060904FF0100E4FF0110E02F814ECCDE700BFD3
S2140060A0C02A0020F8410020D25B0020C430002027
S2140060B0B55E0000C42A002044330020014B18605F
S2140060C0704700BFB82A0020014B1860704700BF19
S2140060D0BC2A002070B5128805460E46FFF724FF3E
S2140060E0044670B102790499806815F0F7FA064BF9
S2140060F01B680BB9002070BD314628462288984799
S214006100F8E78620F7E700BFB82A002008B50FF0AA
S21400611041FA022806D0012806D0044B1878400021
S214006120C0B208BD0120FCE70220FAE7D15B0020E0
S214006130054B10B51C682CB1FFF7E8FF2346BDE8F9
S2140061401040184710BD00BFB42A0020014B18604D
S214006150704700BFB42A0020034B1A781AB90122F0
S2140061601A700BF077BA7047D15B00200022024B02
S2140061701A70FFF7DDBF00BFD15B002037B50446BD
S214006180002832D00FF006FA022830D160892EF0AF
S214006190D7FCE079237A003818BF0120012B637AF8
S2140061A008BF40F008000BB140F0100063890BB147
S2140061B040F00400257CA188A2790DB1E36873B98C
S2140061C00C4B10F027FD2178084610F09FFD2DF0AF
S2140061D0E0FF002814BF0320002003B030BDCDE947
S2140061E00035054B10F016FDEDE70220F5E701201F
S2140061F0F3E700BFB800040081D0030008B50DF037
S21400620087FB014630B1044814F004F9BDE80840A5
S2140062100DF022BF08BD00BF0EB00300034B044ABA
S2140062205B7C012103201370FFF7E2BD9865002018
S214006230D35B002010B50446FFF7F0FFB4F57F4FA0
S2140062400BD100240F4B1A8813449C70FEF700FFF6
S2140062502046BDE81040FFF705BC4FF601739C4290
S21400626004D1BDE81040084829F0F1BD4FF602738E
S2140062709C4205D1BDE81040044B1878FFF796BB4A
S21400628010BD00BF5856002098650020406B0020C7
S21400629010B5074C012122460320FFF799FD28B9C7
S2140062A02378044A003B18BF0123537410BD00BF77
S2140062B0D35B002098650020F8B5564B564C1A88DC
S2140062C04FF6FF739A4218BF03234FF0080218BF19
S2140062D02370524B30251A7032225A70DA70DA71F7
S2140062E035229D705D7137251A724FF400129D712C
S2140062F04B4D3626C5644B4D426405654A4D01221A
S21400630085654A4D1E71C565494D86184566494DD9
S214006310C6678566484D494E0567494D80F8482052
S2140063204567202580F8785080F8845000F12105D4
S214006330C0F88850434D80F85420C0F88C5080F840
S214006340602080F86C20C0F8806080F89020C0F84C
S2140063509440C0F8B8303C4B3C4CC0F8BC300223EC
S214006360C0F898403A4C80F8C030C0F8A4400F24DB
S214006370384B80F8A840C0F8C430374B374CC0F8CC
S214006380C8308223C0F8AC40354C80F8CC30C0F81A
S214006390B0400924334B344DC0F8D030334B80F82E
S2140063A0B440C0F8D4302C7C314B80F89C20C0F828
S2140063B0A00080F8D820C0F8DC3044B12D4B80F81F
S2140063C0E420C0F8E03005F11103C0F8E8304FF0E3
S2140063D0000CCA798E6802EB42039F00443006EB3D
S2140063E0830326F807C0586001200D349870DC70CF
S2140063F01318CB71FFF7C8FAFFF74AFFFFF786FEC0
S214006400012806D12B7C23B1BDE8F840164829F0B8
S2140064101EBDF8BDF46A0020416B0020D45B00204E
S214006420894B040001002000884B04000200200075
S214006430874B040003002000864B04000500420042
S2140064400400420007003000FDFF2100120010018A
S21400645000404200844B040000FF4401744B0400DB
S21400646006004200585600209865002002FF2001D2
S214006470406B002001FF100113B504460D4829F0BB
S2140064804DFC6422C0F30F43637083B2B3FBF2F398
S214006490A07823702022012129F024FEA078212252
S2140064A0012129F01FFE0449201D02B0BDE810405E
S2140064B029F0D2BDF46A0020E09304000B7870B592
S2140064C083704CF61E0303804FF02013C362012333
S2140064D080F8303080F83C30C3180364124B044612
S2140064E043640223114A80F84830114B8263C36428
S2140064F04063CA798D6802EB420305EB830004F122
S2140065002C0646600B4E45F8236000238360531C20
S214006510CB71094B201DC4E90134FFF7AFFC2046C0
S214006520BDE87040FFF7A8BFFDFF21002100200056
S2140065308A4B04000100010379640000437B044A8F
S2140065400121137000781130C0B2FFF751BC00BFB4
S214006550DE5B002038B504460078054D11302A462B
S2140065600121C0B2FFF734FC08B92B78637338BD3D
S214006570DE5B0020024B53F8200029F08EBE00BFE1
S214006580A4330020012908B506D0022907D049B94E
S21400659029F07AFE002008BD29F079FEFAE729F0F6
S2140065A079FEF7E7024813F035FF0120F3E700BF56
S2140065B03BB0030010B4054C114654F820001A46B0
S2140065C0BDF804305DF8044BFFF7DCBFA4330020B1
S2140065D0002310B5044683810364A0F84430483095
S2140065E0FFF74CFC014BC4E9123410BD81020300D6
S2140065F038B504460B781A4A43700D4642F8230015
S214006600FFF7E6FF2046FFF7A5FF4FF44013236190
S2140066100123144A2375A261134A84F82030E261EC
S214006620124A84F82C306262114A84F83830A2622A
S21400663004F10C0222630F4A04F10D036263E36364
S214006640EA79A86802EB420300EB830110344C6041
S214006650094C40F82340094B8B60531CEB7138BD46
S214006660A4330020DD5B002008002000426B0020E1
S21400667000FF300001FF100102010104B5650000B3
S21400668010B47024427B0D48013A012904FB020035
S21400669006D0022908D059B95DF8044B29F0F4BD9C
S2140066A05DF8044B29F0F3BD5DF8044B29F0F2BD0C
S2140066B003485DF8044B13F0ADBE00BF90180020F1
S2140066C057B00300B0F85C302DE9F0418B42044629
S2140066D00E4638D0437B077C8BB31C4A12789A420E
S2140066E02DD370251A4A013B05FB032390F80F8033
S2140066F01B7B424629F0DFFDB845054601D1FF2841
S2140067001FD13A463146204694F8903029F0D3FD02
S2140067102F460546552212216078A4F85C6029F0C1
S214006720E1FCFF2F03D039462046FFF7A9FFFF2DD7
S21400673009D029462046BDE8F04129F0FCBDFF25DA
S214006740DFE70746E6E7BDE8F08100BFC65B00204E
S2140067509018002041688268C978D27849B112B191
S2140067600321FFF7AFBF837B002B0CBF0121022163
S214006770F7E72AB1837B002B0CBF02210121F0E74B
S214006780014813F047BE00BF68B00300037BD3B1D7
S2140067904368DA7812B18268D278A2B91B7933B12D
S2140067A0837B002B0CBF04210521FFF78BBF83687A
S2140067B01B792BB1837B002B0CBF05210421F4E74A
S2140067C0014813F027BE70479AB00300084A437B7F
S2140067D005211370837B5370C37B9370037CD37047
S2140067E0037B137100780E30C0B2FFF701BB00BF09
S2140067F0DF5B002038B5044600780C4D0E302A4684
S2140068000521C0B2FFF7E4FA20B1BDE838400848D9
S21400681013F000BE2B7863736B78A373AB78E373C7
S214006820EB7823742B79237338BD00BFDF5B002021
S214006830D6B00300024B53F8200029F0C6BD00BFB7
S214006840CC330020F8B504460B78424A43700D4618
S21400685042F82300404E29F0D6FDFFF7CBFF6268D2
S214006860A3683E483E49D6641165D4655065C3E9C1
S2140068701410DE64DC654FF0987302266361012312
S21400688004F10C01E16137491032216204F10D0177
S214006890A16235492376E16204F10E016163334952
S2140068A084F82430A16304F10F012164304984F890
S2140068B03030616404F11001E1642E4984F83C3004
S2140068C084F84830216584F85460A265E879A968A0
S2140068D000EB400201EB820704F1140CC7F804C079
S2140068E04FF4817C244F41F82270C218D2B202EBDA
S2140068F0420241F822C001EB820700227A601F4A5A
S21400690084F8703022661E4A84F88830A2661D4AD3
S2140069101D4BE2661D4AC4F88C3062671C4A831918
S214006920A26704F15C02C4F88020DBB2194A03EBCC
S2140069304303C4F8842084F8646084F87C6001EB28
S214006940830260345460144A033041F82320E8710F
S214006950F8BD00BFCC330020556700008D03030050
S2140069608D670000010020010200100103003001C5
S214006970040030010500210101FC01064A00210047
S2140069808C4B0400510010008E4B04008F4B04000B
S214006990550021006F0018001200010470B50D4666
S2140069A00646144613460A4601461A4813F032FDB8
S2140069B025B92046BDE87040FFF73CBC072D05D141
S2140069C021463046BDE8704000F0B8BC4FF60143A3
S2140069D09D4205D121463046BDE87040FFF72ABFEC
S2140069E0062D05D121463046BDE8704000F066BA57
S2140069F0B5F5817F05D121463046BDE87040FFF7EA
S214006A00B9BD202D04D12046BDE8704000F0ECB89A
S214006A1070BD00BF05B103000148FFF74FBB00BFC4
S214006A209D6900004FF4C01330B503600123037165
S214006A30074B8C688360CA7902EB420304EB83053C
S214006A406860044844F82300531CCB7130BD00BF77
S214006A50904B0400040001010368064A0C211360F1
S214006A604368536003891381438922205381FFF7CB
S214006A70BFB900BFF433002010B50368044686B0E3
S214006A80FBB1114813F0C6FCA37B104A8DF8043006
S214006A904FF48273ADF806300123CDE902230023BC
S214006AA001A804938DF81430FFF768FB204661892F
S214006AB029F0B9FC2046FA2150F8143B594329F036
S214006AC0CBFA06B010BD00BF38B1030020000001AD
S214006AD010B5064C236843B1054813F09BFC2068AC
S214006AE0BDE81040418929F09EBC10BD003400204E
S214006AF059B1030070B5364910460C68BDF8102031
S214006B00002C5ED003285CD8DFE800F0021E274584
S214006B10002B5AD0022A58D91D78B3F80160291ED6
S214006B2018BF012132462B4813F074FC2DB13146B4
S214006B30204629F078FC002070BDE573FA206368D3
S214006B40584329F010FBF6E7234813F063FCE37B79
S214006B50002B38D00023E373F0E7002B35D0032A50
S214006B6033D91D681D48294613F054FC1C4B2A1FB8
S214006B709A4201D90220DFE723680BB19D42F9D87B
S214006B8023899D42F6D3E37B6560B3B9FA20684358
S214006B9029F0E9FA11E0002BCED0012ACCD91D88C5
S214006BA01048294613F036FC002DE3D063689D425A
S214006BB0E0D8E37B2581002BE8D12046FFF74CFF89
S214006BC0B9E70120B8E70420B6E70320B4E700BF22
S214006BD0003400207CB10300B3B10300D2B103003F
S214006BE0FCFF6D00FDB1030038B5154B1C6834B3CF
S214006BF0F0B92168134813F00DFC23683BB16268B6
S214006C00934204D2104813F005FC6368236004F135
S214006C101405284629F025FA236823B1FA212846C8
S214006C20594329F019FA2046BDE83840FFF714BF4B
S214006C30032804D16189054813F0ECFBF3E738BD5F
S214006C400034002028B2030056B203008BB20300C3
S214006C5070B53E4B0D46044609781860002A6FD181
S214006C6001231A46A1730021E1730121A1814FF48B
S214006C706151C4E900132823354E22810C21324687
S214006C8022206381FFF7A4F860B9D6E900230AB191
S214006C909A4207D3318999429FBFC4E9002373897A
S214006CA0218163812B4B2C4AE363042384F8403014
S214006CB084F84C30E3182365284BA26463650223EE
S214006CC004F10802E265264A84F85830226604F188
S214006CD00A02A266234A84F8643084F8703004F10D
S214006CE00C03E26663676464EA79A86802EB420311
S214006CF000EB830104F13C064E601B4E40F8236017
S214006D00FA261A4B1A488B60531CEB71FFF7DCF916
S214006D10208904F11405704329F025FA618920467C
S214006D2029F081FB134B2846C4E90534FFF7A6F883
S214006D30216849B128467143BDE8704029F08CB9F6
S214006D404FF4F07302228DE770BD00BF00340020C0
S214006D50F43300200000230101002300020021007C
S214006D6003002101FDFF210020000105F56A000057
S214006D70D16A0000796A0000134B10B51C680CB38A
S214006D80E37BEBB129F071F92369C01A002809DB0F
S214006D900E4813F03FFB0023FA20E3736368584362
S214006DA029F0E1F9E37B5BB12489FA235C4329F0FF
S214006DB0E5F9A04206D02046BDE8104029F0D3B938
S214006DC06468F2E710BD00BF00340020B8B20300CC
S214006DD038B50024044D55F8040B08B129F036FBED
S214006DE001340A2CF7D138BD04340020042908B534
S214006DF00AD172B16BB113781BB929F052FB00208F
S214006E0008BD29F044FBFAE7034813F003FB012012
S214006E10F6E70320F4E700BFF2B2030010B4054C17
S214006E20114654F820001A46BDF804305DF8044BAD
S214006E30FFF7DCBF043400200229024608B50ED056
S214006E4004D839B9104629F02CFB06E04029F9D0C1
S214006E50412907D1104629F01AFB002008BD29F069
S214006E602AFBFAE7024813F0D5FA0120F6E700BF3E
S214006E7012B3030010B4054C114654F820001A460D
S214006E80BDF804305DF8044BFFF7D6BF043400208D
S214006E90426B094B52791A7082785A70C2789A708F
S214006EA0826B12B190F83C20DA7000780421093029
S214006EB0014AC0B2FEF79CBFE45B0020024B53F8C9
S214006EC0200029F014BB00BF0434002038B5044667
S214006ED00078084D09302A460421C0B2FEF778FF34
S214006EE030B96B78A370AB78E370EB7884F83C30FD
S214006EF038BD00BFE45B002038B504460078114D6D
S214006F0009302A460421C0B2FEF762FFC8B9A3784A
S214006F102A78022B0CD004D863B9204629F0C1FA8F
S214006F2001E0FF2B0AD02046BDE8384029F08EBA93
S214006F30002AF2D1204629F0AAFAF4E7002AF9D16D
S214006F40EBE738BDE45B0020F8B504460B78284A2A
S214006F500D4642F823004370FFF7B8FF636B254ADF
S214006F605C631A632046FFF7C7FF204629F06EFAD7
S214006F704FF4801363600123626BA66B0532E260F8
S214006F801D4A23722261A21C2375A26166B11B4AA8
S214006F9084F82030E261E21C6262194A84F82C30E0
S214006FA004F13C03A26223630627EA79A96802EB90
S214006FB04203002E21F8237001EB83000CBF02234E
S214006FC00423C370012383700E4B04348360531C68
S214006FD04460DBB20C4C03EB430341F8234001EB67
S214006FE0830000234360094B02328360EA71F8BDD8
S214006FF004340020CB0403000340300101FF3001BD
S21400700002FF1001756E0000080001001D6E0000F2
S21400701028B1034B1B78834234BF00200120704701
S214007020C85B002070B500250A4C0B4E3378AB4287
S21400703000DC70BDD4F8B42042B123791BB160796E
S214007040FFF7E6FF10B9104628F0F2FE0135E434EB
S214007050ECE700BF9C1C0020C95B002008B5427905
S21400706001461046FFF7D4FFA8B1CB780A48013A8C
S214007070042B00EB82100ED8012B08D81BB9BDE8F4
S214007080084029F004BABDE8084029F00ABABDE86D
S214007090084029F010BA08BD9C1B002008B54279AC
S2140070A001461046FFF7B4FFA8B1CB780A48013A6C
S2140070B0042B00EB82100ED8012B08D81BB9BDE8B4
S2140070C0084029F0EEB9BDE8084029F0E0B9BDE86F
S2140070D0084029F0F0B908BD9C1B002010B586B00A
S2140070E00446FFF713F8012830D1E278042A2DD899
S2140070F0DFE802F013323403030061790846FFF735
S21400710087FF58B31648032A00EB811050F80C3C52
S21400711058791DD1003818BF012063784FF480726B
S2140071208DF804304FF48273ADF806300623ADF8C0
S214007130083001238DF80B3000238DF80A0001A8D3
S214007140CDE903238DF81430FFF718F806B010BD0C
S214007150B0FA80F04009E0E70020DEE70220DCE736
S2140071609C1B002010B586B00446FEF7CFFF012812
S21400717030D1E278042A2DD8DFE802F01313320368
S214007180030061790846FFF743FF48B31548032A12
S21400719000EB811050F80C3C5B791DD11A1E18BF0D
S2140071A0012263788DF80A208DF804304FF482733C
S2140071B0ADF806300623ADF8083001234FF4807290
S2140071C08DF80B30002301A8CDE903238DF8143089
S2140071D0FEF7D4FF06B010BDB3FA83F25209E0E71B
S2140071E00222DEE79C1B002010B586B00446FEF7A0
S2140071F08DFF012812D16378094A8DF804304FF4C8
S2140072008273ADF806304FF48073CDE90223002375
S21400721001A804938DF81430FEF7B0FF06B010BD39
S2140072200800070110B586B00446FEF76FFF012878
S21400723020D16278104B8DF804204FF4827294F8B7
S214007240B01094F8B10059701870ADF80620049389
S2140072504FF480720223094901A88DF81430CDE955
S2140072600212FEF78BFF94F8B130013B18BF0123E2
S21400727084F8B13006B010BDE85B002008000501B8
S21400728010B5837804464BB30379022B0AD14279B2
S2140072901046FFF7BDFE28B11148013A00EB8210F8
S2140072A029F009F9A379022B02D12046FFF716FF31
S2140072B02046FFF7B7FF012384F8B83002231221D7
S2140072C055226078A4F87C3028F00CFF218929B17B
S2140072D004F1BC00BDE8104028F0BEBE10BD00BFE3
S2140072E09C1B002038B50D4604460178114813F063
S2140072F091F84FF602739D420ED10F4B1B782BB9B7
S21400730063712046BDE8384029F0B3B962790AB106
S2140073109342F6D20123F3E7B5F57F4FF1D120462D
S21400732029F08FF9A378022B0CBF01220022E36814
S2140073309A70E6E72EB30300C85B0020024B53F8B2
S2140073402000FFF7CFBF00BF2C340020002330B54D
S2140073500446007887B004300C2103AAC0B2CDE9F9
S21400736003330593FEF734FD20BB9DF81610012964
S21400737020D1BDF80C30BDF810206380BDF80E306B
S2140073802648A380E3681A829DF8123084F8B0304D
S2140073909DF81330A371BDF81430238113F03AF82A
S2140073A01F4B61791B7883BB99B12046637129F026
S2140073B060F90EE0002320780821043001AAC0B24C
S2140073C0CDE90133FEF704FD054620B1154813F05C
S2140073D021F807B030BD0121134813F01BF8BDF8A3
S2140073E00430BDF808206380BDF806302046A38030
S2140073F0E3681A829DF80A30258184F8B0309DF83B
S2140074000B30A37129F035F9CAE709B18B42E0D2F7
S214007410064812F0FFFF23780133C6E748B303009F
S214007420C85B00206AB3030093B30300C2B3030033
S214007430F8B504460B78504A0D4642F823004370D0
S214007440FFF784FF4D4B04F1BC00C4E92F34FEF770
S21400745015FDE2684A4BD465D3644A4B0226536551
S214007460494BA11C13654FF44013236101231032CE
S214007470A161216362654549454A6163A265211D94
S21400748004F1B002E163226642484349434AE061A0
S21400749021646266E01C611DA21D6062A164E26652
S2140074A03F484049404A237584F82030A06284F85B
S2140074B02C3084F8383084F84430E16484F8506026
S2140074C084F85C3084F86830226784F8746004F1CD
S2140074D00802A267AA68E87904F1100C00EB4001E4
S2140074E002EB8107C7F804C04FF0060C2F4F42F896
S2140074F02170C118C9B201EB410142F821C002EB6C
S2140075008107002179602A4F84F89030C4F8807093
S214007510284F84F8A830C4F88870274F274BC4F843
S2140075208C70274F84F8846084F89C60C4F8AC3074
S21400753004F17C06831CC4F89470C4F8A060214F44
S214007540214EDBB203EB4303C4F8A460C4F8987082
S21400755002EB83068034746008261C4C42F82340F5
S214007560C31CDBB203EB430302EB8304043042F894
S21400757023606160E871F8BD2C3400201505030017
S2140075807F050300D70503008172000001FF30016C
S21400759004FF20011000300102FF200105FF30012A
S2140075A000FF300103FF210106FF2101070001094A
S2140075B04A002100924B040051001000944B040036
S2140075C0954B0400550021006F00180012000104BE
S2140075D000239B6AB3F5804F03D21968064A91428E
S2140075E003D00023037083607047012202709A68FC
S2140075F09B694260F7E700BF07B0CD5E024B034AC7
S2140076001A602AF064BC00BF0000002002020FF0DF
S21400761073B53F4B04461A781AB102221A7002B0AC
S21400762070BDCDE900220028F9D001261E7032F088
S214007630DBFF384D384B186017F0CEFC2B785BB963
S21400764002F0F2F940B935480823354A3549006852
S21400765001F038FE00B92E70334B5A68E260334AA8
S2140076609A601A6E22605A6E6260D3F87021A26029
S2140076701B6E5C042CD52E4AD368D807FCD42D4B41
S2140076801A68531C29D04FF4801393402A4A136675
S2140076900423294C4FF0804223664FF48063236610
S2140076A0102323664FF400536846236601A922661A
S2140076B0636629F000F8009B2366019B63662B78BF
S2140076C0002BACD0164B1A6822665B686366A6E78A
S2140076D01A4AD368D907FCD4D1E7194B1B78002B7C
S2140076E0D6D1184B5A68144B12B94FF480121A664A
S2140076F0154A526812B94FF400121A66134B5B68AB
S214007700002BC5D14FF480020B4B1A66C0E700BFB2
S214007710EB5B0020EC5B0020643400200466002055
S21400772068340020007108000080004455CEAC008C
S21400773000000440D0650020009000440000045083
S214007740EA5B00200080055000C00550000006508F
S21400775038B5224D04462B78012B02D001232B701E
S21400776038BD0028FCD028F0CBFF013009D028F027
S214007770C7FF40F20113984203D0194AD368DB07CB
S214007780FCD42268174B1A6662685A66A268C3F869
S2140077907021E268D40744BF00229A60124B1A6830
S2140077A0013213D1114A127882B911494968C807C3
S2140077B048BF1A600F4A5268D10744BF01221A60B8
S2140077C00D4A5268D20744BF02221A6017F00CFC1A
S2140077D00A4B186832F003FF0023C0E7EB5B00207B
S2140077E00000044000800044D0650020EA5B0020D2
S2140077F00080055000C0055000000650643400208C
S21400780070B50024A36AB3F5804F23D21A68134BD1
S2140078109A421FD1124E337813F0FD0518D14FF45B
S21400782080341048FFF7F4FE032004F04FFC0E4BA4
S2140078300320DC6004F02EFC0C4B1C61AB6ADB6999
S214007840984704460748FFF783FF0CB901233370B7
S214007850204670BD4FF48174FAE700BF07B0CD5ED6
S214007860EA5B00205434002000A00044009000444E
S21400787013B5204B1B7803B9FEE700231E4CCDE959
S21400788000336A4608231D49206801F01BFDF8B93D
S2140078901B4AD2F84031D2F840211F2B4FF001038B
S2140078A011D9203A9340019A1A43019208236A4656
S2140078B01249206801F08EFE124B134A1A602AF015
S2140078C006FB02B010BD9340009A1A430092EDE703
S2140078D02D28F1D10A4AD2F84031D2F840211F2B88
S2140078E04FF0010385BF203A93409340019398BF21
S2140078F00093DBE7EB5B00200466002000710800C5
S21400790000800044000000200B020FF038B5002570
S214007910AB6A0446B3F5804F10D21B6BB3F5804FAD
S2140079200CD20748FFF774FEAB6A20461B6B5B68F9
S2140079309847BDE838400248FFF70ABF38BD00BF89
S2140079407034002013B50024A36A0190B3F5804F6D
S21400795013D21B6BB3F5804F0FD20948FFF758FEC2
S214007960A36A01211B6B01A89B699847044604483B
S214007970FFF7EEFE204602B010BD4FF48174F9E723
S2140079807034002070B50026B36A0446B3F5804F05
S2140079900D4612D21B6BB3F5804F0ED20848FFF788
S2140079A037FEB36A20461B6B29469B6998470446F8
S2140079B00348FFF7CDFE204670BD4FF48174FAE70A
S2140079C07034002070B50026B36A0446B3F5804FC5
S2140079D00D4612D21B6BB3F5804F0ED20848FFF748
S2140079E017FEB36A20461B6B2946DB699847044698
S2140079F00348FFF7ADFE204670BD4FF48174FAE7EA
S214007A0070340020F8B50027BB6A0446B3F5804FF3
S214007A100D46164611D21B6B7BB10948FFF7F8FDE1
S214007A20BB6A20461B6B324629465B6A984704466B
S214007A300348FFF78DFE2046F8BD4FF40174FAE7C1
S214007A407034002070B50026B36A0446B3F5804F44
S214007A500D4612D21B6BB3F5804F0ED20848FFF7C7
S214007A60D7FDB36A20461B6B29469B6A9847044697
S214007A700348FFF76DFE204670BD4FF40174FAE729
S214007A8070340020F0B50027BB6A0446B3F5804F7B
S214007A900D461646ADF5337D20D21B6BB3F5804FF1
S214007AA01CD21048FFF7B4FDBB6A20461B6B40F2A1
S214007AB0C1225B6A01A99847044630B10948FFF71E
S214007AC047FE20460DF5337DF0BD836A32461B6BBC
S214007AD02946DB6A01A898470446EFE74FF401748D
S214007AE0EFE700BF7034002010B50024A36AB3F59A
S214007AF0804F10D21B6BB3F5804F0CD20748FFF7B0
S214007B0087FDA36A1B6B1B6B984704460348FFF769
S214007B101FFE204610BD0124FBE700BF7034002086
S214007B20F0B58FB0044601A80E461546FFF7EEFEE8
S214007B309DF80C30012B12D1B5F5402F27D8B4F59F
S214007B40402F24D86319B3F5402F20D821462A4663
S214007B50304613F001FF002420460FB0F0BD00278A
S214007B60BB6AB3F5804F15D21B6BB3F5804F11D2AD
S214007B700A48FFF74DFDBB6A2A461B6B3146204676
S214007B805B6B984704460548FFF7E2FDE4E740F2E2
S214007B900244E1E740F20114DEE700BF7034002043
S214007BA0F0B58FB0044601A80E461546FFF7AEFEA8
S214007BB09DF80C30012B1FD1B5F5402F06D8B4F533
S214007BC0402F03D86319B3F5402F13D940F202446F
S214007BD020460FB0F0BDE258013225D104339D4255
S214007BE0F9D82A463146204628F0BAFD0028EDD0BE
S214007BF00024EDE70023F2E70027BB6AB3F5804FC9
S214007C0015D21B6BB3F5804F11D20A48FFF700FD63
S214007C10BB6A2A461B6B314620469B6B9847044638
S214007C200448FFF795FDD3E740F20344D0E740F25F
S214007C300114CDE77034002070B58EB0044601A85C
S214007C400D46FFF763FE9DF80C30012B22D144EA67
S214007C500503C3F30C03002B33D1B5F5402F04D92D
S214007C6040F2024420460EB070BDB4F5402FF7D85F
S214007C702544B5F5402FF3D8204604F5005428F0E7
S214007C8068FDAC4202D00028F6D1E9E70028E7D02C
S214007C900024E7E70026B36AB3F5804F14D21B6BC7
S214007CA0B3F5804F10D20A48FFF7B2FCB36A2946F4
S214007CB01B6B2046DB6B984704460548FFF748FDDC
S214007CC0D0E740F20444CDE740F20114CAE700BF13
S214007CD070340020BFF34F8F0549064BCA6802F484
S214007CE0E0621343CB60BFF34F8F00BFFDE700BFDA
S214007CF000ED00E00400FA0570B5D0B1C9B10E4E33
S214007D00431E013913F8014F2046325D02F003028C
S214007D10012A11F8012F08BF04F12000B55C05F018
S214007D200305012D08BF2032801A01D1002CE9D1AD
S214007D3070BD0120FCE700BF6D7304000348044AD1
S214007D400449121A921028F057BD00BF34410000B3
S214007D50D04200000463002008B5154B83F30A8860
S214007D6000F030F8FFF7EAFF124B13498B4212D3AC
S214007D700020124B12498B4218D3FCF7B3FF186849
S214007D8050F82240586840F82240013298688242F3
S214007D90F5D30C33EAE70022F8E71C6844F8220023
S214007DA001325C68A242F8D30833E4E70022F8E721
S214007DB0080000200C980400189804001898040086
S214007DC018980400124B134A70B59A60D3F88820AE
S214007DD0114D42F47002C3F888206FF0010205F5D9
S214007DE00054226641F2FF7262660222C3F8D02077
S214007DF0BFF34F8FBFF36F8F4FF44036032004F06E
S214007E0065F90320E66004F045F92E6170BD00BFF9
S214007E1000ED00E00040000000800044014B1860C8
S214007E20704700BFD8650020054B1860054B1B6FD8
S214007E3003F00703032B01D130F02EBD704700BFBF
S214007E40E0650020008000502DE9F04104464FF028
S214007E5001080C250D4E0CB9BDE8F08194FAA4F08B
S214007E60B0FA80F00F2808FA00F2C8BF103824EAEB
S214007E700204CABF05FB006205FB0062B432576805
S214007E80002FE8D09168C0B2B847E4E780340020FD
S214007E9008B50C4832F046FC192004F009F928B160
S214007EA0192004F013F9192004F0F4F81A2004F04D
S214007EB0FFF828B11A2004F009F91A2004F0EAF8AD
S214007EC0002008BDF84D04002DE9F0410E46174687
S214007ED0054618B30F2923D80378DBB1013BDBB284
S214007EE0022B19D8104AD35C6A78D340DB0717D523
S214007EF00E4BD3F81043ACB932F076FB80463A46C8
S214007F002846314602F042FE404632F068FB2046E4
S214007F10BDE8F0817F23E7E70023E5E72224F6E7C4
S214007F202124F4E70224F2E7E84B040000C00350E3
S214007F3010B5044610B30378E3B1013BDBB2022B65
S214007F401AD8104AD35C6278D340DB0718D532F0D3
S214007F504BFB0122617823788A4030214B4341F263
S214007F60100103F1A04303F570335A5032F037FB8B
S214007F70002010BD7F23E6E70023E4E72220F8E791
S214007F802120F6E7E84B040010B5044610B303784A
S214007F90E3B1013BDBB2022B1AD8104AD35C6278FD
S214007FA0D340DB0718D532F01FFB01226178237817
S214007FB08A4030214B4342F2100103F1A04303F5FF
S214007FC070335A5032F00BFB002010BD7F23E6E7DB
S214007FD00023E4E72220F8E72120F6E7E84B040038
S214007FE038B50D46044618B311B30378E3B1013B28
S214007FF0DBB2022B1AD8104AD35C6278D340DB0778
S21400800018D532F0F1FA30222378534303F1A04317
S21400801003F570335B696278D34003F001032B707D
S21400802032F0DDFA002038BD7F23E6E70023E4E7E0
S2140080302220F8E72120F6E7E84B04002DE9F0417E
S2140080400D4616469846044600284FD000294DD0C7
S2140080500178002940D04B1EDBB2022B3ED8254AC1
S214008060D25C6378DA40D20701D4FF2940D1022ED1
S21400807001D9042E3CD132F0B7FA23780746FF2BFD
S21400808005D032462046296802F0C6FD28602B68D7
S214008090013309D12378FF2B06D1174B6078D3F82C
S2140080A0241429F084F9286029684B1C18D00C2366
S2140080B0124A03FB0122069BC2F8048093602378D1
S2140080C0FF2B04D001230E4A8B40C2F824343846D6
S2140080D032F085FA002007E07F22C2E70022C0E7E0
S2140080E0384632F07CFA2D20BDE8F0812220FBE7EE
S2140080F02120F9E7E84B040000C00350803400203C
S21400810000D0035008B502F037FD044B00F05530A0
S214008110C3F82004BDE80840FFF796BE00E0035011
S21400812008B502F029FD044B00F0AA30C3F820047D
S214008130BDE80840FFF788BE00E003502DE9F04F89
S214008140144605460E469B46C36B87B001225B6904
S21400815002A960689847EB6B01225B6903A9304669
S214008160984702A828F047FF074648B10023A375A2
S21400817063754FF0FF33A360002007B0BDE8F08FB3
S21400818003A828F045FF0123A375237E04EBC30351
S214008190DE611F846368B3420ED1206003A828F016
S2140081A059FF4FF0FF332075A360237D043B022B5D
S2140081B026D80023A375DFE723681A1A53425341D3
S2140081C0A37503A828F046FF237D834218BFA77532
S2140081D003A828F021FF074602A828F01DFF8742C3
S2140081E018BF002303A818BFA37528F01DFF074675
S2140081F002A828F019FF87421CBF0023A375D4E706
S21400820003A828F009FF80B1EB6B022230465B69B9
S21400821004A9984704A828F00EFF0346207D0328EB
S21400822039D8DFE800F03838040903A8F3E7CC2291
S214008230237E04EBC3031A8401F06EFC109B1870B7
S21400824003A8277E28F0DCFE04EBC70787F8220089
S214008250237E03A804EBC303B3F8209093F82270A0
S21400826028F0DAFE804603A828F0DEFE8246B8F143
S214008270000F15D0EB6B022230465B6904A99847C5
S21400828004A828F09DFE6075637D6BB90023A37576
S2140082904FF0000838E0227E04EBC2021384CBE7DE
S2140082A003A828F078FEEEE794F81680B8F1000FE1
S2140082B0EED0B9F1000F09D1DFB10123E375637E7B
S2140082C0002B4FD1012F42D1677614E06B6C06EB82
S2140082D00A015A4286EA010010421CBF0022A2751B
S2140082E05A1E0A409B1A9945D0D8A37D002BE3D18D
S2140082F0CEE7E37D43B94FF000084B465246314681
S214008300284628F0C3FBA060A27D12B123694B4427
S21400831023611A49237E097899422AD901332376A4
S214008320BBF1000F27D032B3E37D23B3B8F1000FC3
S21400833021D1032F1FD0A1684B1C1CD0109B2246B6
S214008340009328460123FFF7F9FEA07513E095F881
S214008350343063B9EB6A0133CFD1032FCDD101237B
S214008360A376C8E7012FCFD0032FC4D1F7E79846EE
S214008370C3E70023A375A07DFFE600BF0C4C0400F6
S2140083802DE9F04F0E46984600238BB004464FF07A
S214008390FF31104617468DF8133001F0A7FBB6F5EF
S2140083A0801F20D2314605AA04F1080028F075FD8A
S2140083B0451C014603D1237CBBB92D2010E038466E
S2140083C001F094FB0122394620460DF1130328F0F4
S2140083D0AFFB0028EFD09DF8133088F8003000205F
S2140083E00BB0BDE8F08FB01CE5D1E56A691C36D14C
S2140083F02046616A28F090FA0546B31C18BF012390
S214008400DFF8CC900193636A626C0293236805A937
S21400841002FB053AE36B05225B695046984705A8C0
S21400842028F084FE28F0A7FE504628F0AFFE4FF056
S214008430000B824601464B1C05D0636C81EA0A029B
S2140084405B42134211D02946204628F065FA029B6B
S214008450AB422CD0BBF1000F2CD10546D3E72368E6
S214008460ED1A636CB5FBF3F5C7E7484601F03EFB33
S2140084700DF1130349462046019A28F059FB03469E
S21400848090B1B21C03D0D9F80020B2420CD19DF8AE
S214008490132003930D4B88F8002049461A68384687
S2140084A013F05AFA039B9B46D9F80810C3E7BBF1B2
S2140084B0000F82D0B6F5801F91D2314698F8003072
S2140084C07A6804F1080001F03FFA88E7084C0400D7
S2140084D05C3C00202DE9F3410446174698460E46BC
S2140084E0184D816AE36A8B4201D04B1C02D102B060
S2140084F0BDE8F081284601F0F9FA01222946204617
S2140085000DF1070328F014FB38B1434629462046F0
S2140085109DF80720B8470028E9D0A9684A1C04D16E
S2140085206968204628F085FA0146012EDAD16B6884
S21400853081EA0302636C5B421A4218BF4FF0FF31B8
S214008540D0E700BF303C00202DE9F04F4FF0FF335E
S2140085504FF6FF720025044600F10806C0E909231D
S2140085608BB0C362056205633046884628F066FC19
S214008570204628F0A1F960BB2046414628F01CFAA8
S214008580204628F099F960BB5E200BB0BDE8F08F5E
S2140085902368E26B606C576900FB0530052205A96D
S2140085A0B84705A828F0C2FD012807460CD1294681
S2140085B0204628F0D2F9012F024600D10132294682
S2140085C0204628F098F903E028F0DAFD0028EED1DE
S2140085D00135E3699D42DBD3204628F06DF900287B
S2140085E0CAD000254FF0FF394FF6FF73CA46A8469B
S2140085F0C4E90853E36998450AD3A5EB0905012D9C
S2140086002CD84FF6FF72636A93423CD16720BCE7D2
S2140086102368E26B606C576900FB0830052205A9E9
S214008620B84705A828F082FD834605A828F055FD22
S2140086300746584628F09FFD68B1574538BFC4F82E
S2140086402480B94528BFB946BD4238BF3D46BA4624
S214008650236A0133236208F10108CBE74FF6FF7364
S21400866000256362E3699D42CBD2676C2068E36BAA
S214008670052207FB05005B6905A9984705A828F0B1
S2140086802CFD0135EEE7E26B676C2068694607FB58
S214008690030055690522A847684628F01EFD626A51
S2140086A02368606C4B4D00FB023028F06FFD4FF0E6
S2140086B0FF33A062E3622A466FF00101204605AB55
S2140086C0FFF75EFE002846D1AD6829462046E562E3
S2140086D028F0CEF8206320B92046E16A28F0A9F9F0
S2140086E0E0622946204628F0A4F90546A36A9D4282
S2140086F033D1204628F08FF800278046B946E36934
S21400870099453CD3B84559D92046616A28F004F902
S2140087100026054604F1400AB74212D8626C236868
S214008720694602FB0539E36B05225B6948469847B4
S214008730684628F0D2FC534602464946E06B28F0CD
S21400874027FD2946204628F0E7F80136B0450546BD
S214008750E2D1642019E7A56AB7E72946204628F043
S21400876087F8236B2946034407462363204628F0F0
S21400877060F90546002FB9D1C4E90B07B6E7636C6C
S2140087802568052203FB0955E36B05A95B692846A6
S214008790984705A828F0CAFC28F0EDFC58B12846F2
S2140087A028F0F4FC0146204628F062F8636C143B7F
S2140087B0984208BF013709F10109A0E7304628F0C2
S2140087C03DFB002320461946034AFFF783FE0020A0
S2140087D0DBE600BF883C00201F0B03002DE9F041BC
S2140087E0036B9046826B07689A4288BF8363426C2D
S2140087F0436A90B002FB0377C36B0E46052201A9BD
S2140088005B6904463846984701A828F08FFC012883
S2140088100146307057D0656CE26B2368606AD2F808
S21400882014C005FB0030052206A9E04706A828F07C
S2140088307DFC01284FF0000523D0D4E90A3201213F
S2140088409342CDE90B458DF834800E958DF83C109B
S2140088502AD11946204628F0ECF8236B626C1433B4
S2140088609B1AE06223630C9B53B99DF83C303BB1E6
S214008870626A616C2368E06B01FB023128F00EFC33
S2140088800C9DE36B05225B6901A93846984701A851
S21400889028F04CFC30702846236BA26B9A4288BFA7
S2140088A0A36310B0BDE8F081237C33B91C490BAA42
S2140088B004F1080001F096F8D5E72046194A0BABFC
S2140088C0FFF708FECFE7237C23BB2246164904F1B8
S2140088D0080001F087F8616A204628F03EF8616AD1
S2140088E0421C204628F007F8054620B9236B626C28
S2140088F01344143B23632046A16A28F09AF82368A1
S214008900A062C01A636CB0FBF3F06062204628F0E9
S214008910D3F8B6E700232046044AFFF7DBFDDAE784
S21400892081900000FD8F0000B90B0300550B03007B
S21400893073B50D46D11E4A421C461B7E4A419A42DA
S21400894026D129682368994222D3636899421FD8A2
S214008950114E0DF107033246FFF712FDC0B97268DB
S2140089606B689A4214D19DF80730DA1E5342534181
S214008970227E93420CD1636901336361D4E90323F9
S214008980934205D22968A26842F823100133236176
S214008990012002B070BD00BF883C00202DE9F04FDA
S2140089A09B4689B09DF848309046514A019313691A
S2140089B007465B450D46C0F09580D9465368009340
S2140089C0B9F1000F7BD0FB6B01225B6905A900980B
S2140089D0984705A828F01CFB454B1B68984240F0BA
S2140089E0848005A828F020FB0428064615D105A893
S2140089F028F021FB009B04461E44019B002B3ED121
S214008A00804512D91C46A8EB00083846009928F085
S214008A1010F8A9EB04090090D2E7FB6B02225B6911
S214008A20009806A9984706A8E2E7A0EB08045C456C
S214008A3028BF5C46032C4644ABEB040B1DD9FB6BEE
S214008A40294630465B69A208984724F0030304F0E1
S214008A50030A1E441D44DDF80480BAF1000FD4D08A
S214008A60FB6B012206A930465B69984752462846AA
S214008A7006A912F071FF5544C7E7A246EBE7824607
S214008A8000F0030302932B1803930644039BA6EB04
S214008A900A00A3EB0A05029B9A4514D1BAF1000F0F
S214008AA0B3D0FB6B012206A95B699847524628465D
S214008AB006A913F00DF90028DDD04FF03609484618
S214008AC009B0BDE8F08FFB6B012206A95B699847E9
S214008AD00422284606A913F0FBF80028EDD1AAF1D7
S214008AE0040AD3E74FF06309E9E74FF06F09E6E7BA
S214008AF0B43C00202DE9F0410F4616469846044641
S214008B0088B060B390F83450FDB1012127F0C9FE5B
S214008B1000210E9BCDE90511CDE902379DF83C30CA
S214008B20CDF804808DF81C30237C04968BB90D4953
S214008B3001AA04F1080000F055FFDDE90553E06BDB
S214008B40002E08BF1D4628F045F8284608B0BDE8A8
S214008B50F0812046044A01ABFFF7BCFCEDE7054672
S214008B60F3E700BF830B0300318900007FB590F860
S214008B704260044601920DF10B030A463046114945
S214008B8028F030F8012E0546E36B17D132465B69B4
S214008B9003A998479DF80B10039B019A59B19BB205
S214008BA043EA0243012228460393E36B03A99B6929
S214008BB0984704B070BD62F30F03F3E701229B6988
S214008BC001A9F5E7B43C00202DE9F04F99B00E4618
S214008BD00D920A69416C0B931439D31DB3FBF1F364
S214008BE0013302EBC302036B04469342C0F00182DA
S214008BF00023DFF804940893E36A48461946059371
S214008C0000F074FFD6E9033707930B9B022B4DD178
S214008C10CC2F40F0D7810D9B3BB13146204628F043
S214008C2037F8656C1490012044E00120079B656CC2
S214008C301B68149300F0010000280CBF04230823CF
S214008C40782F0E9349D8059A6B1E1340ED1A3B1DDC
S214008C509D423CD2002F3DD0082D3ED8002304254F
S214008C6006934FF0040A336806990B98C9F800304B
S214008C70C9F8107028F0F2F94FEA9A030F93059B93
S214008C8089F814000393002309930C9304930A9322
S214008C90616C039B4A1E1A408B1A27B35544AB429D
S214008CA023D8236B5B1A134423632FE1782F656C5C
S214008CB0B9D8F07D0D9B002BBCD0E36B01225B691D
S214008CC0706816A9984716A828F0A6F9B4E70025F4
S214008CD00695C6E704250697C3E7012300254FF04F
S214008CE0080A0693BFE75345DBD3A3EB0A02974275
S214008CF0039BB84628BF90469742534428D9012282
S214008D00D9F8101089F817208F4226D10399C9F890
S214008D100410049299F817200AB399F818100398CB
S214008D20CA1C09EBC202506004980131A2F8088000
S214008D30907289F81810B8F1000F07D00B9A022A23
S214008D4040F08180099A72B1012209929B46ABE0FD
S214008D50049A002A18BF0322DBE70222D9E7039A07
S214008D60C9F80420E7E70C9A4244032AEED9E26BDE
S214008D701846956914A901220993A847099B054638
S214008D800028E1D03D2D40F01E8104F10803039336
S214008D902368059A606CA2EB030ABAFBF0FA00FBA4
S214008DA00A3028F0F3F9E16A8046204627F041FEB3
S214008DB0A26A824200F00F81626CD9F80830511E18
S214008DC00B40216B2768891A0B442363089BE062DB
S214008DD0DF1BB7FBF2F7BA4540F0FA80059BB3EB12
S214008DE0080A12D0E36B4FEA9A0241469B699847FD
S214008DF08346E36A059A5344E362236B03989B1AFF
S214008E004344236328F01AF8DA462368616CE06B63
S214008E1001FB073128F02FF9204627F04DFD2046AC
S214008E2027F04AFE2063BAF1000F00F0D4803269C2
S214008E30616CD31D1439B3FBF1F3013302EBC302AB
S214008E409042A5D2BFE00D9A002A77D1B8F1030F61
S214008E504FEA98026ED9E16B18468D690799109310
S214008E60A847109B0546C0B918F0030515D0079A09
S214008E7028F0030B02EB0B019B444FF0FF3215A8C2
S214008E8015922A46109312F067FDE26B58469569D4
S214008E9015A90122A8470546109B9B46079A4244FF
S214008EA00792002D40F08B80049B16A80193069B2A
S214008EB0009399F814204346316800F0CDFDE36B2B
S214008EC00F9A9B69039816A99847039A051E089B54
S214008ED018BF13460893434652462046039927F088
S214008EE0D5FD236B08F10302A3EB0A0322F003026D
S214008EF09B1AC9F808002363002D7FF443AF0C9B30
S214008F00A7EB080743440C93CDF80CB02046039912
S214008F1027F08FFD00250390002F7FF4B9AE364A68
S214008F203168936804F10800E36252680B9B00F016
S214008F300BFD49E09B46454607999EE79B4606F192
S214008F4020021092F27D7068A2B1002296F818C036
S214008F500A99D5B2AC4511D9109D02F1010E35F82B
S214008F6032508D4228D90E9806EBC2020144D069D1
S214008F70084403E00E9A0A990A441044E26B15A9C5
S214008F80556901221193A847159A0A9B1392E26B22
S214008F90043395695846012213A90A93A847119BE2
S214008FA0054603EB0802A2EB0B02042A7FF679AF14
S214008FB028B90BF1040BC5E77246491BC9E7CDF883
S214008FC020B088E770252F46384619B0BDE8F08FE8
S214008FD04FF0000A19E73269616CD31D1439B3FBF0
S214008FE0F1F3013302EBC302236B9342BFF404AEEA
S214008FF0E9E71C27E8E700BF5C3C0020032A2DE9D0
S214009000F34106460D4617461C4606D1237A012B29
S21400901023D0012002B0BDE8F081DFF86080096847
S21400902042460DF10703FFF7ABF960600028EDD16B
S2140090309DF80720237A032AE8D0D8F804106A6837
S2140090409142E3D1012B2969D4F80CC007D172698B
S2140090500CEB0103934202D92074207CDAE7083136
S2140090606144E1603B46012229463046FFF7ACFDED
S21400907060600028CAD00020CCE700BF883C0020F3
S2140090802DE9F341089C032A1746266806D1237A61
S214009090012B24D0012002B0BDE8F081DFF89080DB
S2140090A0304642460DF10703FFF76AF96060002874
S2140090B0EDD12568D8F80400A96AD5F844C0484020
S2140090C0CCF100031840227AE1D1012A09D1E268E6
S2140090D0D8F8103013447269934202D92074207C69
S2140090E0D9E72868EB6A1B1A081AB3FBFCF3B0FB37
S2140090F0FCF083420BD1706CF36A421E1340326B55
S214009100121A13442846336327F093FCE862D8F813
S2140091101020E36808321344E36001223B4604490A
S2140091202068FFF751FD60600028B0D00020B2E74D
S214009130883C00202DE9F0410025604B0E46D3F810
S214009140008004461D6018B921252846BDE8F08138
S21400915090F8347007B30A6803689A4240F0A38018
S2140091604A6843689A4240F09E808A6883689A42BA
S21400917040F09980CA68C3689A4240F094800A69B1
S21400918043699A4240F08F808A69C36B9A4240F0E6
S2140091908A804B698361D8E768223946856B12F06E
S2140091A04BFAD6E90212336804F1080023607368AC
S2140091B0A5636360336963617369A36127F050FE3A
S2140091C0B36904F14000E3639B68984720B9676C75
S2140091D017B16368B3FBF7F794F84330E761002BE9
S2140091E0B2D00023656C2366002D64D0002F62D0B9
S2140091F02368B3FBF5F205FB1233002B55D16668E6
S214009200B6FBF5F305FB1363002B4ED1204627F083
S2140092101FFBA369043303449E4248D340F63472CE
S2140092206369CC3B934244D8B5F5805F43D30321B2
S214009230204627F036FBD4E90001E36B1B6898470D
S2140092400546E36B0220DB689847CDB941462046C9
S214009250FFF77AF96428054604D141462046FFF711
S21400926073F90546666C5DB9236A2046143E5E4374
S21400927027F0EEFAA369043303449E4238BF5A250A
S214009280002D0CBF0123002384F8343007D1D4E925
S21400929000010B4A13680133136027F07BFEE06B76
S2140092A027F098FC51E75D254FE759254DE75A25ED
S2140092B04BE75F2549E75B2547E700BFEC35002015
S2140092C0E83500202DE9FF410C4616461F460546A8
S2140092D080B390F834307BB3B1F5801F2ED2DFF820
S2140092E06080012127F0DDFA2146424628460DF12E
S2140092F00F03FFF745F8044670B99DF80F30012BB1
S21400930011D1D8F81030BB4212D102460090314637
S2140093102846FFF743FB0446E86B27F05BFC204635
S21400932004B0BDE8F081022B14BF2D246024F3E7BF
S2140093306324F1E72124F2E71124F0E72924EEE77D
S214009340B43C00202DE9F04385B00C4617461E4677
S2140093500546DDF8308098B390F8343093B3B1F515
S214009360801F31D2DFF86490012127F09AFA214657
S2140093704A4628460DF10F03FFF702F8044688B95F
S2140093809DF80F30012B14D1D9F8102006EB0803F6
S2140093909A4213D300904346324639462846FFF792
S2140093A0FDFA0446E86B27F015FC204605B0BDE83C
S2140093B0F083022B14BF2D246024F3E76324F1E727
S2140093C02124F2E71124F0E72924EEE7B43C00203C
S2140093D073B50C461646054630B390F834302BB3BA
S2140093E0B1F5801F24D2012127F05BFA21462846DA
S2140093F0104A0DF10703FEF7C3FF044680B99DF837
S2140094000730032B0CD0022B0CD12846094927F035
S2140094103FFC3060E86B27F0DDFB204602B070BDF5
S2140094202D24F7E76124F5E72124F6E71124F4E775
S2140094302924F2E7B43C00202DE9F3411E46002320
S2140094400C4617460546336050B390F834304BB39D
S214009450B1F5801F28D2DFF85480012127F021FAC9
S2140094602146424628460DF10703FEF789FF0446CB
S214009470A0B99DF80730032B10D0022B03BF0123A1
S2140094803B600423D8F8103018BF38603360E86BB0
S21400949027F0A0FB204602B0BDE8F0812D24F6E7B9
S2140094A02124F7E71124F5E72924F3E7B43C00204C
S2140094B073B50446056B27F0CBF9636E03449D42F3
S2140094C02CBF00230123854294BF00252D1A207C43
S2140094D084F85030656584F85800A8B100230C4E17
S2140094E01A4619462046009627F096FC00230546A5
S2140094F01A4619462046009627F097FCE36828444B
S214009500984294BF0020C01AE06502B070BD00BF4C
S214009510FFFF0F002DE9F3471E4643690446B3429A
S214009520884617469DF828904ED300258DF807509C
S214009530204627F08DF9D4F830A082450AD2236A57
S214009540B5EB430F06D2002220460DF10701FFF7C8
S21400955045F9B8B39DF80730012B05D10022204607
S2140095600DF10701FFF73AF9B9F1030F06D03146BE
S214009570204627F05DF9256B854227D3144D4FF022
S214009580FF31284600F0B2FA4B4629460022204614
S214009590C5E90376C5F80080FFF716FB236E05467F
S2140095A063B12046FFF784FF94F8503013B994F85F
S2140095B058301BB1236E04F150009847284602B07D
S2140095C0BDE8F0870135B3E76225F7E71C25F5E728
S2140095D0883C00202DE9FF410F4690461E46054672
S2140095E098B390F8343093B3B1F5801F31D21A4C4B
S2140095F0022127F056F92246394628460DF10F0378
S214009600FEF7BEFE024678B1012342460093394675
S21400961033462846FFF77EFF0446E86B27F0DAFA63
S214009620204604B0BDE8F0819DF80F30012BEBD149
S2140096302169B142E8D10093414633462846FFF7F8
S214009640ADF904460028DFD1E7E72124E8E7112436
S214009650E6E72924E4E700BFB43C00202DE9F04704
S21400966090F8423086B0012B05460391A1EB020725
S21400967040F0AA80FF2F03D81E464FF0640807E08C
S2140096800226012B14BF4FF032084FF06408013653
S21400969000244FF6FF79DFF844A195F84230012BFD
S2140096A014BF322364239C4202D35FFA88F40DE091
S2140096B005AB22465146284627F0C8FA95F84230B0
S2140096C0012B059B34D14B452DD1E4B295F84230A1
S2140096D0012B14BF32226422121BB24217D3012E72
S2140096E039D10022012B05978DF8132027D10822A7
S2140096F005A90DF1130027F065FD9DF81330059AB6
S21400970042EA032221462846FFF730FA40B10223F8
S214009710324900932846CC23096803AAFFF7FAFECD
S21400972006B0BDE8F087DBB203B902340134B4E713
S214009730591CCAD09BB2002BF8D10134F6E7102290
S21400974005A90DF1130027F03DFD9DF81330059A8D
S21400975042EA0342D6E7039A012B059223D1082357
S214009760202205A90DF113008DF8133027F02AFDED
S2140097709DF81320120221462846FFF7F7F995F8C0
S2140097804230611C012BC9B21AD10028BFD128462D
S214009790BDF81420FFF7EAF90028B8D10234BDF866
S2140097A01620E1B2AFE71023202205A90DF1130021
S2140097B08DF8133027F006FD9DF813201204DAE723
S2140097C00028A4D1059A9EE7B7F5803F4FF0010622
S2140097D0BFF457AF4FF032085AE700BFB43C002042
S2140097E070B586B00E4605460392A0B390F83430A6
S2140097F09BB3B1F5801F32D2022127F052F83146D2
S2140098002846184A0DF11703FEF7BAFD044618B9A4
S2140098109DF81730032B0ED10223314600932846BD
S214009820CC2303AAFFF776FE0446E86B27F0D2F9AE
S214009830204606B070BD022B0BD10A49284627F0F9
S21400984027FA039902468142EFD02846FFF706FF23
S214009850EAE76124E9E72124EAE71124E8E7292476
S214009860E6E700BFB43C0020F7B50C4616460546B2
S21400987068B390F8343063B3B1F5801F2BD2022161
S21400988027F00FF821462846144A0DF10703FEF785
S21400989077FDC0B99DF80730032B14D0022B14D1E6
S2140098A00E49284627F0F4F9471C02463946284652
S2140098B0FFF7D4FE044606B13760E86B27F08AF956
