S01B00006275696C642F72656C656173652F7A69676265652E73333714
S2140040000810002021790000B5C00000F749030021
S214004010F7490300BDC00000C5C00000F749030013
S214004020F7490300F7490300F7490300F74903007F
S214004030C9C00000908F0400F7490300F749030049
S214004040F7490300F7490300F749030039740000F5
S214004050F7490300F7490300F7490300F74903004F
S214004060F7490300F7490300C9C50000F7490300F4
S214004070F7490300F7490300F7490300F74903002F
S214004080F7490300F7490300F7490300F74903001F
S214004090F7490300F7490300F7490300F74903000F
S2140040A0F7490300E97C0000CD7C0000F7490300D7
S2140040B0F7490300F7490300F74903001915020002
S2140040C0E9A50300E5A503007D0C0200FFA503009B
S2140040D0EDA50300D9140200F1A503000DF90100B7
S2140040E059150200F7490300F7490300F749030092
S2140040F0F7490300F7490300F7490300F7490300AF
S214004100F7490300F7490300F7490300F74903009E
S214004110F7490300F7490300F7490300F74903008E
S214004120F7490300F7490300F7490300F74903007E
S208004130F749030043
S214004134F0B5114A114C124E00F00105E3695F0711
S21400414413D40DB9334213D103EA00078F4207D1C3
S2140041540B4A1A40002A14BF6FF001000020F0BD7D
S214004164013AEBD16FF00200F9E74FF0FF30F6E7C3
S2140041746FF00100F3E700BF80969800000003503C
S214004184020001000B4B70B5D96911F480310DD1D2
S21400419401244FF48072084E084DF46020462C64C7
S2140041A41A61FFF7C5FF3464EC6070BD6FF0010060
S2140041B4FBE700BF0000035000100350002003502C
S2140041C438B541F6713301220C4C0021E569E363EE
S2140041D40B4B05F48035DA600223606121202361ED
S2140041E4FFF7A6FF10B92120FFF7A2FF0122054B17
S2140041F4DA600DB10023E36338BD00BF000003504E
S214004204001003500020035070B5134C6061E3693E
S2140042145B071ED40E4656F8043B8D18A361AE42C7
S2140042240BD10423002121202361FFF781FF58B915
S214004234BDE870402120FFF77BBF08210846FFF742
S21400424477FF10B10423236170BD56F8043BA361C5
S214004254E5E74FF0FF30F7E7000003502DE9F84399
S214004264154641F67132164B8946DF69DA63012238
S214004274064603F58053DFF8508007F48037DA608B
S21400428455B9284601220F4BDA601FB10022A3F568
S2140042940053DA63BDE8F88306F5005404EA08041C
S2140042A4A41BAC4228BF2C46494622463046FFF79C
S2140042B4ABFF0028E6D12644A1442D1BE0E700BF4F
S2100042C4000003500020035000E0FFFF45
S2140042D02DE9F04F4FF0FD0BC9B09A460DF11B09C2
S2140042E09DF8503108AFCDF80C90CDF808B0019786
S2140042F0059303890446009383790E4690464188C9
S2140043008288407811F026FE054650B10090A388BA
S214004310002062883A4912F061F9284649B0BDE8A3
S214004320F08F99F8000033F07DFC38B12846A3885A
S2140043306288344912F052F98D25EEE75A4639461E
S21400434099F8000033F016FC8346002851D0529BA3
S2140043501BB1BDF84C3198424BD8002399F8009019
S2140043600793A9F14102012A5FFA8BF123D8384658
S2140043700139254ADFF898C05FFA81FE734513DBE2
S214004380059B04210792C3B907AF18221F489FED6B
S2140043901A7B02FB060420460A460830394684ED9E
S2140043A0027B16F071FE11E010F8011F0133514038
S2140043B00CFB01F2E2E7059B33B123464A4638463A
S2140043C000960FF0EFFCA8E70829DED9B8F1000F39
S2140043D001D088F80090BAF1000F01D0AAF800B01A
S2140043E0529B002B99D05A46184608A916F04CFE48
S2140043F093E7012591E700BF0000000000000000E1
S2140044002339040058390400C59D1C818010002003
S21400441093010001000000002DE9F04F93B0CDE9B4
S2140044200A32DDE91C530E9353EC102BCDE908013C
S214004430104619468DED060B1E9E16F0AFF880B19D
S214004440DDE906014FF0FF32C54B16F0CFF840B954
S214004450DDE906014FF0FF326FF4801316F0A8F87E
S21400446070B1DDE908019DED060B0E9B1E96CDE9A9
S2140044701C53DDE90A3213B0BDE8F04F00F088B9EE
S2140044800022DDE90601002316F092F8002800F06D
S2140044903381DDE906A303F1004BCBF30A5016F493
S2140044A08063A0F2FF3008BF06250F9315F0A4FD29
S2140044B09BA3D3E9002315F009FE9BA3D3E90023B1
S2140044C015F04EFCCBF31304894644F07F5180462A
S2140044D00022A44B504641F4401115F03FFC94A333
S2140044E0D3E9002315F0F2FD02460B464046494646
S2140044F015F036FC16F084F8044615F07DFD8EA304
S214004500D3E900238046894615F0E0FD0022964B4D
S21400451015F026FC16F074F889A3D3E900230746A5
S2140045204946404615F0D2FD80463846894615F085
S21400453063FD85A3D3E9002315F0C8FD02460B46AC
S2140045404046494615F00AFC02460B46CDE90C23C8
S21400455015F0BCFDDDE90C23804689461046194659
S21400456015F0FEFB0022CDE91001804B404649467F
S21400457015F0D6FE00227E4B15F0F2FB02460B46E7
S2140045804046494615F0CCFE00227A4B15F0E8FB73
S21400459002460B464046494615F0C2FEDDE90C23AE
S2140045A08046894600204FF0804115F0D7FB024632
S2140045B00B464046494615F0D3FB02460B46DDE95E
S2140045C0100115F0ADFE07F2FF3700226A4B15F01A
S2140045D0C7FB00223B0515F079FD52465B46804638
S2140045E0894616F003F8002840F08980CDE90C894A
S2140045F004F16303C62B8CBF0527042731051BD5A2
S21400460053A3D3E900235046594615F0E5FF00288A
S2140046107FD051A3D3E900235046594615F0C8FF72
S214004620002876D00027A542C6BF2C1B04F1FF3514
S21400463000253C4646F480660E9B9F422CBF4FF0FA
S2140046400008A3EB070816F0020903D0002F18BFD6
S2140046504FF000083CB1DDE90C235046594615F0F2
S2140046605FFE82468B46DDE906010022002315F038
S2140046709FFF10B10BF100439B46DDE9080126F4CD
S2140046800063CDE90183DDE90A324BEC10AB0095FF
S21400469000F07EF802465FB3DDE9091316F0200F3E
S2140046A000F10105089E0CBF65204520B047DDE9F6
S2140046B008010523002205930A23002CCDE90232C7
S2140046C007F1FF374FEAD473B8BF64422A46019316
S2140046D004970A9B009435F0FFF80246B9F1000FE4
S2140046E006D00B9BC41A0B9B1A190E9BA34245D8E7
S2140046F0104613B0BDE8F08FDDE906ABCDE600222C
S214004700404649461A4B15F00BFE013CCDE90C011C
S2140047106EE7002D90D00F9B002B8DD0013D8BE7D0
S214004720FB799F501344D33FB3C8608B288AC63F9B
S21400473061436F63A787D23F71A379094F930A40FD
S2140047401655B5BBB16B0240EF39FAFE422EE63F76
S2140047502D431CEBE2361A3F0000000080842E41F9
S214004760FFFFEF7F0000F83F0000E03F00002C4016
S21400477000002440000018400000F03F2020DDE943
S2140047800913089DA8470134ADE700BF00000000EC
S2140047902DE9F04F5BEC10AB97B0CDE90501DDE9F4
S2140047A02058CDE90723504652465B465946229F7D
S2140047B015F0F4FE70B90323CDE902870193AA4BE6
S2140047C00093DDE90501DDE9072334F0B7FF17B0F4
S2140047D0BDE8F08F4FF0FF326FF480135046594615
S2140047E015F0E6FE28B10423CDE9028701939F4B1E
S2140047F0E6E74FF0FF32504659469D4B15F0F6FE61
S21400480068B19C4A07F00403002B08BF03229A4BAA
S2140048101CBF13460422CDE902870192D0E750461A
S2140048208DA3D3E90023594615F0E0FE38B98CA3D2
S214004830D3E900235046594615F0BAFE68B1DDE9C3
S2140048400723DDE905014BEC10ABCDE92187209568
S21400485017B0BDE8F04FFFF7DFBD0022002350463B
S214004860594615F0A5FE002800F091805B4652469A
S2140048700020002115F072FA012382468B46099328
S21400488017F4806400F08580092D40F285800024AE
S21400489030210EABA5F109020134202C03F8011BD0
S2140048A0A5EB040901D09442F6D15946504615F0BE
S2140048B0A7FE724B054603EBC90393ED007B8DED17
S2140048C00A7B15F099FB02460B465046594615F0F2
S2140048D045FADDE90A2315F0F9FB02460B46CDE959
S2140048E00C2315F0B5FE064615F076FB02460B4681
S2140048F0DDE90C0115F032FA02460B46CDE90C2331
S21400490000225F4B15F072FE002848D00136304674
S21400491015F062FB02460B46DDE90A0115F052FE71
S21400492008B100260135B9F1000F45D1284615F02B
S21400493063FB02460B465046594615F00FFA002216
S2140049404F4B15F035FE10B9E90700D501350A21A1
S2140049500EAB1A19202C0AD095FBF1F001FB10556E
S214004960303502F8015B013405460028F2D107F025
S2140049700302012A55D1B8F1000F52D0099A12B994
S21400498017F00C0F01D008F1FF38302240E00990F4
S21400499076E74FF0060988E7A946002485E7002257
S2140049A0DDE90C01364B15F003FE0028BBD10EB135
S2140049B0F007B8D50136B6E70A210EAB1A19202C37
S2140049C00DD0B6FBF1F001FB1063092E03F13003A6
S2140049D009F1FF3904F1010402F8013B11D8302136
S2140049E0A1440EAA202CB2D04C4504F101030AD1F2
S2140049F004F158020DEB02042E2204F8202C1C466B
S214004A00A5E70646DBE7A1541C46EBE71A5501343A
S214004A10444506D2202CF9D1CDE9028701940EAB8D
S214004A20CEE6202CF8D0099B3BB12D2204F158038A
S214004A306B4403F8202C0134EEE77A0704D504F122
S214004A4058032B226B44F4E73B07E5D504F15803E3
S214004A5020226B44EDE700BF0000000065CDCD418D
S214004A600000000065CDCDC11257040016570400A3
S214004A70FFFFEF7F095704000E570400C89E04008E
S214004A800000E03F0000000070B58EB02C22002130
S214004A9003A816F069F964234FF002320893CDE9B3
S214004AA005230B2301218DF834305B4B8DF8101055
S214004AB01D880D4040F0A980084639F0CBF90A223F
S214004AC0564B574C1A704FF42873ADF812304FF00F
S214004AD0FF332360534B54491B8820460B82534BAD
S214004AE0534A1B68CD828B61524B0D621B884B82EA
S214004AF0514B1B68CB611CF0A5FD20B14FF41B7118
S214004B004E483AF0E8FA0521206835F0CEF820B194
S214004B1040F27D2149483AF0DEFA206815F0DAF8CE
S214004B20474B2068196835F083F90C2539F0FAFDF3
S214004B306843099039F0F6FD68430DEB05010790D0
S214004B40206816F0D3FF20B140F295213B483AF09A
S214004B50C2FA25681FF020F900220146284635F0E3
S214004B60DFF920B140F2972134483AF0B4FA40F227
S214004B700353344D344E2B80052396F90000AB705A
S214004B807F2801D11CF054FE3378EB7039F0CAFD53
S214004B9000EB80008000A88039F0C4FD0023C00030
S214004BA04FF0FF31E880AB604FF0FF3018A3D3E939
S214004BB0002339F0A1FA2549206835F06AF9206803
S214004BC002A935F086FD20B14FF434711B483AF047
S214004BD082FA042220680DEB020135F0FEF8042864
S214004BE004D040F2D72115483AF075FA01A9012001
S214004BF034F009FD07F0A2FA01201DF0ABFA30F000
S214004C00F2FC1DF0D1FA1CF0ABFD0EB070BD00BF7B
S214004C100A0020FF42030000F25C00204A640020E5
S214004C2024550020FAB70400046B002000B80400E6
S214004C307DDE0300F8B70400FCB70400418E0400D4
S214004C405468002018550020226E0020F1DE030074
S214004C500348044B834202D0034B03B11847704706
S214004C60546E0020546E002000000000064B0749DA
S214004C70C91A891048BF0131491003D0044B0BB143
S214004C8001481847704700BF546E0020546E00203D
S214004C900000000010B5064C237843B9FFF7D8FF94
S214004CA0044B13B10448AFF300800123237010BDFA
S214004CB06816002000000000A0DB040008B5044BC6
S214004CC01BB104490448AFF30080BDE80840CDE7B7
S214004CD0000000006C160020A0DB0400A3F5803A5C
S214004CE0704700BF154B002B08BF114B9D46FFF7C2
S214004CF0F5FF00218B460F461148124A121A16F08D
S214004D0033F80C4B002B00D098470B4B002B00D0F1
S214004D1098470020002104000D000B4816F06AFB9F
S214004D2015F0FAFF200029002FF074FB16F050FB58
S214004D30000008000000000000000000081000202E
S214004D4008100020B06400205DB4010007B5012102
S214004D5020200DF1070201F021F850B1012120209A
S214004D600DF107028DF8071001F028F803B05DF882
S214004D7004FB9DF807100129F8D00122084814F01A
S214004D80E1FE01210DF1070220208DF8071001F049
S214004D9015F82FF0C1FA4FF4FA6000F049FEE5E787
S214004DA008F5030038B501F091F9012805D001F0A7
S214004DB08DF9022801D001F0AFF9064D2B783BB9EA
S214004DC001F084F90128044602D12FF01AFB2C705A
S214004DD038BD00BFDE5D002010B5044600882FF009
S214004DE06FFAA37884F84400834202BF0123E3707D
S214004DF02371074B04F11C00C4E9073401F024F8C2
S214004E00224620880349BDE8104000F061BF00BF7D
S214004E10574003002140030070B5C37804460D4692
S214004E201646002B34D1D1B1214814F08BFE012355
S214004E30E370E36CA6600BB1E06D9847E368F61A82
S214004E4063699E4221D2217E1A480131C9B2217679
S214004E5014F078FEA36D13B1217EE06D9847E570DF
S214004E602FF06DFA15B3237903BBA268238A801A44
S214004E7083421BD801231048237114F063FE236D70
S214004E80A3B1E06DBDE87040184701232376E6E73E
S214004E900029E4D1094814F055FE636DE660E5701C
S214004EA02571002BDBD0E06D9847D8E770BD00BFBA
S214004EB030F5030041F503006FF503005CF50300D1
S214004EC070B51E46838804460D46C18002810BB12C
S214004ED0868070BD817800882FF0DEF80123E370AD
S214004EE0064BA680C4E903340C34204600F0ACFF21
S214004EF029462046BDE870402FF018BAA3400300AC
S214004F0010B501790446B1FA81F1008849092FF0FD
S214004F103AF921796088B1FA81F149092FF033F91D
S214004F20034B1A68A24204BF00221A6010BD00BFDD
S214004F308416002070B543790446A3B100880E4E4F
S214004F4004F10805336813B10C4B1B786BB121795B
S214004F502FF019F964210A4B3460A3602846BDE897
S214004F6070402FF0E3B94088E9E7064814F0EAFD00
S214004F70054B3221A360F1E784160020DF5D002098
S214004F80014F000085F50300354F000010B50446BC
S214004F90E0B10F4814F0D6FD01236371A37953B92D
S214004FA0217920882FF0EFF8236B7BB1606B01210D
S214004FB0BDE8104018472046FFF7A2FF04F108009E
S214004FC02FF0B9F92046FFF7B5FFEDE710BD00BF9B
S214004FD0BBF5030010B50446F8B1104814F0B2FD56
S214004FE000236371A3796BB921792088B1FA81F126
S214004FF049092FF0C8F8236B7BB1606B0021BDE830
S214005000104018472046FFF77BFF04F108002FF0FA
S21400501092F92046FFF78EFFEDE710BDC6F50300B8
S21400502010B5044668B1074814F08CFD6379204635
S2140050301BB1BDE81040FFF7CDBFBDE81040FFF73D
S214005040A5BF10BDD2F5030010B50E4C0E48214684
S21400505014F078FD82210D4814F074FD82210220A0
S214005060A21E00F0ABFE014630B134F8022C084810
S214005070BDE8104014F066BD0648BDE8104014F0C8
S21400508061BD00BF76560020E1F50300FCF5030085
S21400509007F603004BF6030038B50E4C8221224675
S2140050A0022000F07BFEA51C014650B122880A486B
S2140050B014F048FD41222846084915F0E5FF402334
S2140050C0238035F8021C064A0648BDE8384014F02E
S2140050D039BD00BF7456002056F60300D6F603000E
S2140050E076560020B4F60300034B1B781BB18B42A8
S2140050F001D82FF011B97047C26D002010B50446D4
S21400510001460E4814F01EFD012C11D10C4B0D4823
S2140051101A884FF6FF739A421EBF0022094B5A7434
S2140051202FF017F801F09AFDBDE8104001F06CBCB6
S2140051300448BDE810402FF00EB800BF17F7030074
S214005140746D0020E067002070B500241A4D1B4ED9
S2140051503378A3421BDC0024194D1A4E3378A34241
S2140051601BDC0024184D194E3378A3421BDC00F0DC
S214005170ADFF012816481CD12EF0EBFF01F06EFDA6
S21400518001F042FCBDE87040124800F0BFBF284660
S214005190FFF722FE01346035DAE728462EF0BFFF1F
S2140051A001343435DAE728462EF0F2FF013438357C
S2140051B0DAE72EF0D0FFE5E758220020E55D002074
S2140051C078260020E65D002028200020E45D0020F0
S2140051D0E0670020FD5000002DE9F04F87B0FFF794
S2140051E05BFFB34B05A805932EF0F6FF054615F0BA
S2140051F0B7FCB04CC2B21F2A627004D9AE4814F095
S214005200A1FC00F009FC2946A01C15F03DFF05A8EE
S2140052102EF0E2FF054615F0A3FCC2B21F2A84F862
S214005220212001D9A548EAE7294604F1220015F015
S2140052302BFF05A82EF0D0FF32260446002725783F
S214005240002D40F092809E4CFFF77EFF2378DFF81B
S214005250ACA2DFF8AC829B4E00939AF8003098F828
S21400526000203178984814F06DFC327898F80010D9
S2140052709AF8000053180344944F20782C460344B1
S2140052803846DBB2AA4200F3D782012B38BF01238F
S214005290DFF840B202935A4600235D464FF482710F
S2140052A04FF6FF7402980133834213705180948046
S2140052B002F10C02F6DB864B86497E48AB6000F0B6
S2140052C0DBFFE879AB6800EB400003EB800000F002
S2140052D0AFFDEB790133EB717F4B1B88A34203D004
S2140052E07C497E4801F0CAF84FF00009784C3278C5
S2140052F04A4500F3CB8200274FF00C09784ADFF8C6
S214005300D4B198F800003178B84200F3D482471838
S2140053100C21002501FB07B19AF800009423A8424F
S214005320704A00F3E6820C2598F8003000274FF00C
S21400533070083678DFF8CCA11E44064405FB06B597
S2140053405F4B1B78BB4200F3E7820299614800F08E
S214005350FDFD059B56491A468B4240F0F082624896
S21400536007B0BDE8F04F14F0EDBB532D0FD16378B6
S2140053704C2B40F04781A378502B40F0438101220C
S2140053805A4B1A7005A82EF027FF044657E7442DFF
S21400539013D16378303B092BF4D8601C2EF029FF1C
S2140053A0534B544A1978002386B2994202F16002A0
S2140053B0E8DD22F8466C0133F7E7422D0BD163781F
S2140053C0542B55D1A01C00F0D1FC434B1880184636
S2140053D02EF003FED6E7582D34D8412DD2D9433DC2
S2140053E0152DCFD801A353F825F000BFA75700000E
S2140053F08553000085530000855300008553000048
S2140054008553000057550000855300008553000063
S21400541009550000575400008553000085530000CE
S214005420855300008553000089560000055600008D
S2140054308553000085530000855300008553000007
S214005440FF560000692D9DD1601C2EF0D2FE80B262
S2140054502EF05EFF96E71B4B0120197800231B4AAF
S214005460994202F1D0028DDD02F8CE0C0133F7E747
S214005470601C00F07BFC0546E01C2EF032FF01218C
S214005480024628462EF0E9FE60211948194C03789A
S2140054905943621865524FF4FA6111824FF448710D
S2140054A05161154956831165013303706AE700BFE1
S2140054B076560020F466002036F703004DF703000A
S2140054C0E05D0020E35D00205DF70300DC1C0020AB
S2140054D050170020D8160020746D00208816002073
S2140054E0DC1B0020201A0020ADF70300DF5D002043
S2140054F0E55D002058220020C3410300E15D002046
S214005500E25D0020D0180020601C00F02FFC002276
S2140055104FF034088146CD4F11462EF09EFE387867
S214005520CB4D08FB00F325F80390EA18E378104605
S214005530693B18BF012393702EF0F1FD0021C54A88
S2140055403B785160012103FB08550B443B70156006
S2140055500F46117416E7601C00F008FC0022114686
S21400556081462EF07AFE3422B84DDFF8E4822878A1
S21400557002FB00F328F8039008EB0301E3780846E3
S214005580693B18BF01238B702EF0C9FDB24A002379
S2140055901046916B31BB00EB831034232A7802FB54
S2140055A003838363AD4A00231046D2F8A410F9B9EA
S2140055B0D02202FB030034232A7802FB0383C0F8C0
S2140055C0A4305FB9A34A3B46114652F8040BA8B96B
S2140055D03422287800FB028241F823202B780133FE
S2140055E02B70CFE60133042B02F14002D1D1D9E76C
S2140055F00133042B02F1D002D7D1E2E70133042BAA
S214005600E3D1EBE7601C00F0B1FB8046E01C2EF017
S21400561068FE0121024640462EF01FFE602190489B
S214005620904D0278DFF858C251436B1825F8018078
S2140056304FF44871198259618B495E839965E17808
S214005640D024642904BF012199709CF80030DFF84B
S2140056500CE25C430EEB04010EF804304FF40074C9
S2140056604C8003240C718C7102EB420405EB44154C
S21400567032240133DBB201324B718D6081F8A040D9
S21400568002708CF800307DE6601C00F06FFB002294
S2140056904FF0380A8146DFF8E08111462EF0DDFD36
S2140056A098F80030714D0AFB03F325F803904FF08D
S2140056B00109EA1882F80490E37873B1E01C00F060
S2140056C055FB0022044611462EF0C7FD98F8003020
S2140056D00AFB03535C8083F8069065485E4A0378AD
S2140056E09901535498F8001002EB8314C1EBC102E1
S2140056F005EBC2054A1C656388F80020D4E6601CEA
S21400570000F034FB8046E01C00F030FB0546601DD0
S2140057102EF0E7FD04460246012140462EF09DFD90
S2140057202246284601212EF098FD60204FF4487C42
S214005730DFF82CE14B4A9EF8003000FB03F422F819
S2140057400480DFF824811119A1F810C0C1F814C034
S2140057504E83C1F85880591CC9B248431418A4F89F
S21400576010C0C4F814C06683C4F858809424155238
S214005770404D981C8EF800002878DFF808C1444396
S21400578003EB430301EB41010CEB040E02EB431366
S21400579002EB41120CF80400CEF80430CEF80820D4
S2140057A001302870EEE5601C00F0E0FA8046E01C50
S2140057B000F0DCFA00220546114640462EF04DFD6C
S2140057C000223824114628462EF047FD2A48274A4C
S2140057D003784FF0000E04FB03FC22F80C804FF019
S2140057E0010802EB0C0181F806E081F8048003EB67
S2140057F00801C9B24C4302EB040C15539C1C047000
S21400580070241E4D8CF806E028788CF804804443FB
S214005810DFF874C0C3EBC303C1EBC1010CEB040E8D
S21400582002EBC30302EBC1020CF80400CEF804300E
S214005830CEF808204044B4E790F805C001358C4502
S21400584084BF04714471D0301CE500BFE65D0020C3
S21400585078260020E0670020DC1B0020DC1C0020EF
S214005860E55D002058220020E95000002820002096
S214005870E25D0020E15D0020E45D0020E05D0020A8
S214005880E35D0020201A0020D0180020B9F1000F98
S21400589007D01BF8052C02EB420204EB8204CBF87F
S2140058A008405946384601F0B3FB09F10109D037E4
S2140058B00BF10C0B1BE579180AD0481E09FB00B04B
S2140058C0C07900EB400004EB800409FB01B0846063
S2140058D0104609FB0151039201F052F931781C4839
S2140058E0394409FB015101F075F8039A013740323B
S2140058F007E5FD4218BF11F8050C03911EBF00EB2B
S214005900400004EB80048C6003FB052000F07AFF67
S214005910039901350C31FFE4F74218BF15F8053C32
S21400592029461CBF03EB430304EB830408FB07A0D4
S21400593018BFAC6000F03CFE01370C3500E513F8EC
S214005940011D00297FF406AD3B2102F8011C01E58C
S2140059501C20002007B5012121200DF1070200F0D0
S2140059601DFA18B99DF80720024B1A7003B05DF8AF
S21400597004FB00BFC26D002007B5064B8DF807007C
S214005980187001210DF10702212000F017FA03B06C
S2140059905DF804FBC26D002007B5022101200DF161
S2140059A0060200F0FBF938B9044814F0CBF8BDF84D
S2140059B0060003B05DF804FB0020FAE7CAF7030010
S2140059C007B50221ADF806000DF10602012000F031
S2140059D0F5F9014610B1034814F0B4F803B05DF8C9
S2140059E004FB00BFEBF7030010B5FFF7D5FF044636
S2140059F00146074814F0A6F80121064814F0A2F85C
S214005A0024B9BDE810400120FFF7DABF10BD00BF83
S214005A101BF803002DF8030008B5044814F092F8AC
S214005A2000F0DCF92EF078FC2EF073FC43F803004F
S214005A3038B50446084D094B28462B6000F004FA9A
S214005A40002C18BF21462846BDE8384008BF4FF452
S214005A5096712EF06BBC00BF7C270020114203001D
S214005A602DE9F043384D91B008AC0746894690467C
S214005A700FCD0FC495E80F00002684E80F0001251F
S214005A800323324C3248CDE90366CDE905668DF82E
S214005A900E300796029539F0C7FA2E4839F0C4FA48
S214005AA032462D4920468DF8176004F0E3FB334656
S214005AB032462A498DF81900009020468DF823902A
S214005AC0CDF82C808DF8216004F0EEFB0A9020467D
S214005AD08DF8097004F050FB204608AA05A904F0CA
S214005AE009FC02AA204603A92FF0D9FC4FF4007245
S214005AF01B4B5A62194BE560626A920510D46BB96B
S214005B004FF40072164B11485A6204F035FB1148E8
S214005B1039F08DFA002011B0BDE8F083013BEBE7C9
S214005B20002BEDD0094908A82FF0ECFC4FF40072CA
S214005B300B4B06485A6204F01FFB064839F077FA0A
S214005B40BDF82000E7E700BF488F04000040005A79
S214005B50F0910400EC91040080841E0040420F0087
S214005B600060005A0122034B1870034B1980034B48
S214005B701A707047E85D00207C6D0020E75D00200D
S214005B80F8B5454B1B780BB90020F8BD434B1B7886
S214005B90012B03D1BDE8F8402EF03DBB404B1C88DE
S214005BA04FF6FF739C42EFD03E4839F03DFA002393
S214005BB0260AE4B21A462146304604F09DFA012E23
S214005BC0354604F0010335D015D9B51E012DDBD8B6
S214005BD0002B0BBF4FF480754FF080754FF470614B
S214005BE04FF070610BBF01274FF480370F204FF442
S214005BF070202D4B11E0002B0BBF4FF480754FF03B
S214005C0080754FF470614FF070610BBF01274FF441
S214005C1080370F204FF47020244B1A6802401CD0A7
S214005C20BA421AD01A680A4032D11A6822EA010229
S214005C302A4316E0002B0BBF4FF480754FF080759B
S214005C404FF470614FF070610BBF01274FF480373F
S214005C500F204FF47020164BDFE71A6822EA000286
S214005C603A431A602EF0D7FA054600288CD008363C
S214005C7044EA06102A460321C0B2FFF7F1FE40F6BA
S214005C80FF73684300F2FF70B0FBF3F080B27CE76E
S214005C9095427FF479AFC8E7E75D0020E85D002015
S214005CA07C6D0020F091040028C3035020C30350ED
S214005CB024C3035010B5044C237823B9034839F0A5
S214005CC0B3F90123237010BDEA5D0020F0910400B3
S214005CD02DE9F0431F4C85B0074688469146FFF7EE
S214005CE0E9FF23781BB901F0B7FE012323707BBAC6
S214005CF0ADF80C3030220023174E02FB03F4315D62
S214005D00A51901BB012333554FF0FF3304F11000F2
S214005D1012493044AB606F80C5F80480C5F80C901B
S214005D2009F02CF904F10801042231440C4B0095CB
S214005D3003A801F067FFA96802460A4813F002FFAD
S214005D4005B0BDE8F0830133102BD6D1064813F01A
S214005D50F9FEF5E7E95D0020A42700203B4203009A
S214005D604D42030050F803007EF8030080B102782D
S214005D70A2F14103032B0BD840783038C0B2082874
S214005D8006D8054B134413F8413C40EA03207047FD
S214005D904FF6FF70704700BF688F040008B50B46CB
S214005DA042B101460448006803F070F8BDE80840B8
S214005DB02EF0A8BA022008BD4C68002008B50B4695
S214005DC042B101460448006803F0E8F9BDE808401F
S214005DD02EF098BA022008BD4C680020F0B50026C8
S214005DE0124F8DB0FF2300930A223346386802A96B
S214005DF02FF012F9C0B102AB1D4603EB800404E09D
S214005E0055F8043BB34228BF5E1CAC423868E9D95B
S214005E10296803F049FB0028F2D02D28F0D00DB0F9
S214005E20BDE8F0402EF06EBA0DB0F0BD4C68002014
S214005E3028B1034B0360034B436000238360704725
S214005E4019000003F4670020FF2307B50021044A69
S214005E500093083009F016F803B05DF804FB00BFA5
S214005E60274303000B46044902460868034909789D
S214005E7008B12EF06BBA7047B02A0020EC5D002007
S214005E80F7B50C4618B12921194839F024F92468C9
S214005E9023685E795F8830463946FFF7E3FFF0B146
S214005EA08568E5B1A089227D3946904291BF0020E1
S214005EB0801AA36880B294BF03469B18E27C0090C9
S214005EC03046A8470138032803D8DFE800F0080F5B
S214005ED00B0D0024204632F00FFC204600E0812007
S214005EE003B0F0BD8024F5E79324F3E78724F1E7B9
S214005EF0A6F80300F8B515460D4A044610680D4A84
S214005F000B46117850B122462EF020FA034628B1EF
S214005F1000210C27C678B14201DB0020F8BD07FB44
S214005F2001F45A681019125BAA42F7D00131F2E761
S214005F30B02A0020EC5D002008B5034B1B6803B1B7
S214005F409847002008BD00BFAC2A00202DE9F74F77
S214005F5004460D460026454B454F1860454B1970C4
S214005F6033010021F85C01360FF0E2FD0C2EF7D16C
S214005F700C2D28BF0C254FF0000901953C4EDFF88C
S214005F8000A13D4DDFF8FC80019B4B4502DC03B0D1
S214005F90BDE8F08F23784FF0000B33706388738072
S214005FA0A388B380A379C6F80880B371E379C8F8EC
S214005FB0005088F804304FF00003A768A8F80630B1
S214005FC0E3795B450ADC012116F8100B0FF0B0FDF3
S214005FD008F1080809F101090C34D5E74FF0000371
S214005FE038886B812880FB784FF0000C2B81BA78BC
S214005FF0C5F804A0002A00920CBF802240222A7313
S21400600079680AF10C02634513DC03EB43030AEBE1
S214006010830ABB6843B1009A4FF6FF71B2FA82F268
S214006020164B520932F0F8FA14350BF1010B0C3707
S214006030C6E7B1F800E00CF1010C22F80CEC91F880
S21400604002E00C3202F816EC91F804E00C3102F88B
S21400605015EC11F809ECBEF1010F14BF4FF0100E4D
S2140060604FF0110E02F814ECCDE700BFB02A002066
S21400607078410020EC5D0020B4300020815E0000F6
S214006080B42A002034330020014B1860704700BF4C
S214006090A82A002070B5128805460E46FFF72AFF8C
S2140060A0044670B102790499806814F0AFFE064B7E
S2140060B01B680BB9002070BD3146284622889847D9
S2140060C0F8E78620F7E700BFA82A002008B50EF0FC
S2140060D0CBFD022806D0012806D0044B18784000D5
S2140060E0C0B208BD0120FCE70220FAE7EB5D002005
S2140060F0054B10B51C682CB1FFF7E8FF2346BDE83A
S2140061001040184710BD00BFA42A0020014B18609D
S214006110704700BFA42A0020034B1A781AB9012240
S2140061201A700AF0A7BD7047EB5D00200022024BF4
S2140061301A70FFF7DDBF00BFEB5D002037B50446E1
S214006140002832D00EF090FD022830D1608932F05F
S21400615050FEE079237A003818BF0120012B637ABD
S21400616008BF40F008000BB140F0100063890BB187
S21400617040F00400257CA188A2790DB1E36873B9CC
S2140061800C4B10F0B1F82178084610F029F932F0DF
S2140061903CF9002814BF0320002003B030BDCDE931
S2140061A00035054B10F0A0F8EDE70220F5E70120DA
S2140061B0F3E700BF3C4604003F15040008B50CF0AA
S2140061C0B7FE014630B1044813F0BCFCBDE80840F9
S2140061D00DF052BA08BD00BF18F90300034B044A7D
S2140061E05B7C012103201370FFF7E8BDE067002009
S2140061F0ED5D002010B50446FFF7F0FFB4F57F4FC5
S2140062000BD100240F4B1A8813449C70FEF71CFF1A
S2140062102046BDE81040FFF70BBC4FF601739C42CA
S21400622004D1BDE8104008482DF07BBF4FF602733E
S2140062309C4205D1BDE81040044B1878FFF79CBB84
S21400624010BD00BF74560020E0670020C26D00201D
S21400625010B5074C012122460320FFF79FFD28B901
S2140062602378044A003B18BF0123537410BD00BFB7
S214006270ED5D0020E0670020F8B5564B564C1A88B6
S2140062804FF6FF739A4218BF03234FF0080218BF59
S2140062902370524B30251A7032225A70DA70DA7137
S2140062A033229D705D7137251A724FF400129D716E
S2140062B04B4D3626C5644B4D426405654A4D01225A
S2140062C085654A4D1E71C565494D86184566494D1A
S2140062D0C6678566484D494E0567494D80F8482093
S2140062E04567202580F8785080F8845000F1210515
S2140062F0C0F88850434D80F85420C0F88C5080F881
S214006300602080F86C20C0F8806080F89020C0F88C
S2140063109440C0F8B8303C4B3C4CC0F8BC3002232C
S214006320C0F898403A4C80F8C030C0F8A4400F241B
S214006330384B80F8A840C0F8C430374B374CC0F80C
S214006340C8308223C0F8AC40354C80F8CC30C0F85A
S214006350B0400924334B344DC0F8D030334B80F86E
S214006360B440C0F8D4302C7C314B80F89C20C0F868
S214006370A00080F8D820C0F8DC3044B12D4B80F85F
S214006380E420C0F8E03005F11103C0F8E8304FF023
S214006390000CCA798E6802EB42039F00443006EB7D
S2140063A0830326F807C0586001200D349870DC700F
S2140063B01318CB71FFF7CEFAFFF74AFFFFF786FEFA
S2140063C0012806D12B7C23B1BDE8F84016482DF0F5
S2140063D0A8BEF8BD746D0020C36D0020EE5D0020E1
S2140063E0818F040001002000808F0400020020003E
S2140063F07F8F0400030020007E8F0400050042000B
S2140064000400420007003000FDFF210012001001CA
S214006410004042007C8F040000FF44016C8F0400A3
S2140064200600420074560020E067002002FF2001AC
S214006430C26D002001FF100113B504460D482DF073
S214006440D7FD6422C0F30F43637083B2B3FBF2F34D
S214006450A0782370202201212DF09AFFA078212217
S21400646001212DF095FF0449201D02B0BDE8104023
S2140064702DF05CBF746D0020E09304000B7870B5BF
S21400648083704CF61E0303804FF02013C362012373
S21400649080F8303080F83C30C3180364124B044652
S2140064A043640223114A80F84830114B8263C36468
S2140064B04063CA798D6802EB420305EB830004F162
S2140064C02C0646600B4E45F8236000238360531C61
S2140064D0CB71094B201DC4E90134FFF7B5FC2046FB
S2140064E0BDE87040FFF7A8BFFDFF21002100200097
S2140064F0828F04000100010339640000437B044AD4
S2140065000121137000781130C0B2FFF757BC00BFEE
S214006510F85D002038B504460078054D11302A464F
S2140065200121C0B2FFF73AFC08B92B78637338BD77
S214006530F85D0020024B53F820002DF0F0BF00BF9E
S21400654094330020012908B506D0022907D049B99E
S2140065502DF0DCFF002008BD2DF0DBFFFAE72DF064
S214006560DBFFF7E7024813F0EDFA0120F3E700BF80
S21400657045F9030010B4054C114654F820001A469D
S214006580BDF804305DF8044BFFF7DCBF9433002001
S214006590002310B5044683810364A0F844304830D5
S2140065A0FFF752FC014BC4E9123410BD0545030049
S2140065B038B504460B781A4A43700D4642F8230055
S2140065C0FFF7E6FF2046FFF7A5FF4FF440132361D1
S2140065D00123144A2375A261134A84F82030E2612D
S2140065E0124A84F82C306262114A84F83830A2626B
S2140065F004F10C0222630F4A04F10D036263E363A5
S214006600EA79A86802EB420300EB830110344C6081
S214006610094C40F82340094B8B60531CEB7138BD86
S21400662094330020F75D002008002000C46D002091
S21400663000FF300001FF1001020101047565000033
S21400664010B47024427B0D48013A012904FB020075
S21400665006D0022908D059B95DF8044B2DF056BF74
S2140066605DF8044B2DF055BF5DF8044B2DF054BF7C
S21400667003485DF8044B13F065BA00BFD01800203D
S21400668061F90300B0F85C302DE9F0418B42044616
S2140066900E4638D0437B077C8BB31C4A12789A424E
S2140066A02DD370251A4A013B05FB032390F80F8073
S2140066B01B7B42462DF041FFB845054601D1FF2819
S2140066C01FD13A463146204694F890302DF035FFDB
S2140066D02F460546552212216078A4F85C602DF0FE
S2140066E057FEFF2F03D039462046FFF7A9FFFF2DA0
S2140066F009D029462046BDE8F0412DF05EBFFF25B3
S214006700DFE70746E6E7BDE8F08100BFE05D002072
S214006710D018002041688268C978D27849B112B191
S2140067200321FFF7AFBF837B002B0CBF01210221A3
S214006730F7E72AB1837B002B0CBF02210121F0E78B
S214006740014813F0FFB900BF72F90300037BD3B111
S2140067504368DA7812B18268D278A2B91B7933B16D
S214006760837B002B0CBF04210521FFF78BBF8368BA
S2140067701B792BB1837B002B0CBF05210421F4E78A
S214006780014813F0DFB97047A4F90300084A437BB9
S21400679005211370837B5370C37B9370037CD37087
S2140067A0037B137100780E30C0B2FFF707BB00BF43
S2140067B0F95D002038B5044600780C4D0E302A46A8
S2140067C00521C0B2FFF7EAFA20B1BDE83840084814
S2140067D013F0B8B92B7863736B78A373AB78E37355
S2140067E0EB7823742B79237338BD00BFF95D002046
S2140067F0E0F90300024B53F820002DF028BF00BF3D
S214006800BC330020F8B504460B78424A43700D4668
S21400681042F82300404E2DF038FFFFF7CBFF6268AA
S214006820A3683E483E49D6641165D4655065C3E901
S2140068301410DE64DC654FF0987302266361012352
S21400684004F10C01E16137491032216204F10D01B7
S214006850A16235492376E16204F10E016163334992
S21400686084F82430A16304F10F012164304984F8D0
S2140068703030616404F11001E1642E4984F83C3044
S21400688084F84830216584F85460A265E879A968E0
S21400689000EB400201EB820704F1140CC7F804C0B9
S2140068A04FF4817C244F41F82270C218D2B202EB1A
S2140068B0420241F822C001EB820700227A601F4A9A
S2140068C084F8703022661E4A84F88830A2661D4A14
S2140068D01D4BE2661D4AC4F88C3062671C4A831959
S2140068E0A26704F15C02C4F88020DBB2194A03EB0D
S2140068F04303C4F8842084F8646084F87C6001EB69
S214006900830260345460144A033041F82320E8714F
S214006910F8BD00BFBC330020156700001146030019
S2140069204D67000001002001020010010300300145
S214006930040030010500210101FC01064A00210087
S214006940848F040051001000868F0400878F040097
S214006950550021006F0018001200010470B50D46A6
S2140069600646144613460A460146164813F0EAF849
S21400697025B92046BDE87040FFF73CBC072D05D181
S21400698021463046BDE8704000F006BB4FF6014396
S2140069909D4205D121463046BDE87040FFF72ABF2C
S2140069A0062D05D121463046BDE8704000F0A2B85D
S2140069B0B5F5817F05D121463046BDE87040FFF72A
S2140069C0B9BD70BD0FFA03000148FFF75DBB00BFFD
S2140069D05D6900004FF4C01330B5036001230371F6
S2140069E0074B8C688360CA7902EB420304EB83058D
S2140069F06860044844F82300531CCB7130BD00BFC8
S214006A00888F04000400010138B50024044D55F8B1
S214006A10040B08B12DF049FE01340A2CF7D138BD1D
S214006A20E4330020042908B50AD172B16BB113789B
S214006A301BB92DF065FE002008BD2DF057FEFAE7C5
S214006A40034813F07FF80120F6E70320F4E700BFC1
S214006A5042FA030010B4054C114654F820001A46BA
S214006A60BDF804305DF8044BFFF7DCBFE4330020CC
S214006A700229024608B50ED004D839B910462DF0C2
S214006A803FFE06E04029F9D0412907D110462DF0F7
S214006A902DFE002008BD2DF03DFEFAE7024813F05B
S214006AA051F80120F6E700BF62FA030010B4054C67
S214006AB0114654F820001A46BDF804305DF8044B21
S214006AC0FFF7D6BFE4330020426B094B52791A70A9
S214006AD082785A70C2789A70826B12B190F83C2015
S214006AE0DA70007804210930014AC0B2FFF766B9AF
S214006AF0FE5D0020024B53F820002DF027BE00BF9D
S214006B00E433002038B504460078084D09302A469C
S214006B100421C0B2FFF742F930B96B78A370AB78A6
S214006B20E370EB7884F83C3038BD00BFFE5D002093
S214006B3038B504460078114D09302A460421C0B203
S214006B40FFF72CF9C8B9A3782A78022B0CD004D802
S214006B5063B920462DF0D4FD01E0FF2B0AD0204675
S214006B60BDE838402DF0A1BD002AF2D120462DF018
S214006B70BDFDF4E7002AF9D1EBE738BDFE5D002045
S214006B80F8B504460B78284A0D4642F823004370B1
S214006B90FFF7B8FF636B254A5C631A632046FFF76E
S214006BA0C7FF20462DF081FD4FF48013636001235C
S214006BB0626BA66B0532E2601D4A23722261A21C3C
S214006BC02375A26166B11B4A84F82030E261E21C9C
S214006BD06262194A84F82C3004F13C03A2622363F3
S214006BE00627EA79A96802EB4203002E21F82370F3
S214006BF001EB83000CBF02230423C37001238370C0
S214006C000E4B04348360531C4460DBB20C4C03EB25
S214006C10430341F8234001EB830000234360094B04
S214006C2002328360EA71F8BDE4330020294703008E
S214006C300340300101FF300102FF1001AD6A000081
S214006C4008000100556A000028B1034B1B788342F8
S214006C5034BF002001207047E25D002070B500259B
S214006C600A4C0B4E3378AB4200DC70BDD4F8A4203F
S214006C7042B123791BB16079FFF7E6FF10B91046E1
S214006C802DF040FA0135D034ECE700BFDC1C0020C4
S214006C90E35D002008B5427901461046FFF7D4FFB1
S214006CA0A8B1CB780A48013A042B00EB82100ED824
S214006CB0012B08D81BB9BDE808402DF017BDBDE86C
S214006CC008402DF01DBDBDE808402DF023BD08BDD1
S214006CD0DC1B002008B5427901461046FFF7B4FFDA
S214006CE0A8B1CB780A48013A042B00EB82100ED8E4
S214006CF0012B08D81BB9BDE808402DF001BDBDE842
S214006D0008402DF0F3BCBDE808402DF003BD08BDDB
S214006D10DC1B002010B586B00446FFF7D7F9012823
S214006D2030D1E278042A2DD8DFE802F0133234039B
S214006D30030061790846FFF787FF58B31648032A11
S214006D4000EB811050F80C3C58791DD1003818BF64
S214006D50012063784FF480728DF804304FF482730C
S214006D60ADF806300623ADF8083001238DF80B3059
S214006D7000238DF80A0001A8CDE903238DF814300E
S214006D80FFF7DCF906B010BDB0FA80F04009E0E786
S214006D900020DEE70220DCE7DC1B002010B586B012
S214006DA00446FFF793F9012830D1E278042A2DD85B
S214006DB0DFE802F013133203030061790846FFF799
S214006DC043FF48B31548032A00EB811050F80C3CEB
S214006DD05B791DD11A1E18BF012263788DF80A2030
S214006DE08DF804304FF48273ADF806300623ADF804
S214006DF0083001234FF480728DF80B30002301A871
S214006E00CDE903238DF81430FFF798F906B010BDCE
S214006E10B3FA83F25209E0E70222DEE7DC1B002029
S214006E2010B586B00446FFF751F9012812D16378F1
S214006E30094A8DF804304FF48273ADF806304FF4EB
S214006E408073CDE90223002301A804938DF8143043
S214006E50FFF774F906B010BD0800070110B586B03C
S214006E600446FFF733F9012820D16278104B8DF8DD
S214006E7004204FF4827294F8A01094F8A100597080
S214006E801870ADF8062004934FF480720223094967
S214006E9001A88DF81430CDE90212FFF74FF994F8E7
S214006EA0A130013B18BF012384F8A13006B010BD05
S214006EB0025E00200800050110B58378044633B34F
S214006EC00379022B0AD142791046FFF7BDFE28B19E
S214006ED00F48013A00EB82102DF01CFCA379022B20
S214006EE002D12046FFF716FF2046FFF7B7FF022322
S214006EF060781221A4F86C3055222DF049FA04F17E
S214006F00A8004FF4FA71BDE810402DF00FBA10BD7E
S214006F10DC1B00204388094A08211380838853809D
S214006F2083681B8A938090F8A03093718379D3711D
S214006F3000780430C0B2FEF741BF00BFF65600200E
S214006F4038B50D4604460178114812F0FBFD4FF6A1
S214006F5002739D420ED10F4B1B782BB963712046EE
S214006F60BDE83840FFF7D6BF62790AB19342F6D241
S214006F700123F3E7B5F57F4FF1D120462DF083FCD2
S214006F80A378022B0CBF01220022A3689A70E6E7C2
S214006F907EFA0300E25D0020024B53F82000FFF764
S214006FA0CFBF00BF0C34002038B504460078144D1F
S214006FB004302A460821C0B2FEF7F0FE20B1BDE834
S214006FC03840104812F0BEBD2B8863806B88E97885
S214006FD0A380AA88A3681A82AB7984F8A030EB79DC
S214006FE0A371094B1B780BB9637138BD09B199427F
S214006FF0FBD9064812F0A6FD23780133F4E700BF5C
S214007000F656002098FA0300E25D0020C1FA03005D
S214007010F8B504460B784B4A0D4642F823004370F9
S214007020FFF7C2FF484B04F1A800C4E92A34FEF774
S2140070300BFFA268454BD465D364454B02265365C7
S214007040444BA11C13654FF44013E36001236161B8
S214007050E1624149103221632265211D3F4AA16346
S2140070603F484049626504F1A002A061E163E26521
S214007070E01C611D3C4A206261643C483C49226633
S214007080A21D2374237784F8283084F8343084F8DB
S2140070904030A16484F84C6084F8583084F864303A
S2140070A06062A266E879AA6800EB400102EB8107FD
S2140070B004F10C0CC7F804C04FF0060C2D4F42F834
S2140070C02170C118C9B201EB410142F821C002EBA0
S2140070D0810700217960284F84F880302767274F82
S2140070E084F89830A767264F264BE767264F84F824
S2140070F0746084F88C60C4F89C3004F16C06831CC1
S214007100C4F88470C4F89060204F214EDBB203EBC5
S2140071104303C4F89460C4F8887002EB83067034A6
S214007120746008261B4C42F82340C31CDBB203EBFA
S214007130430302EB8304043042F823606160E87185
S214007140F8BD00BF0C34002073470300CD47030092
S2140071501F480300B96E000001FF300104FF200144
S2140071601000300102FF200105FF300100FF300152
S21400717003FF2101070001084A0021008A8F04004E
S214007180510010008C8F04008D8F040055002100E4
S2140071906F0018001200010400239B6AB3F5804FAD
S2140071A003D21968064A914203D000230370836015
S2140071B07047012202709A689B694260F7E700BF39
S2140071C007B0CD5E024B034A1A602EF080BF00BFA8
S2140071D00000002002020FF073B53F4B04461A78F9
S2140071E01AB102221A7002B070BDCDE90022002842
S2140071F0F9D001261E7037F079FE384D384B1860EE
S21400720017F082FA2B785BB902F0F2F940B93548EC
S2140072100823354A3549006801F038FE00B92E705B
S214007220334B5A68E260334A9A601A6E22605A6E8E
S2140072306260D3F87021A2601B6E5C042CD52E4AC7
S214007240D368D807FCD42D4B1A68531C29D04FF4AA
S214007250801393402A4A13660423294C4FF0804239
S21400726023664FF480632366102323664FF400538F
S2140072706846236601A9226663662DF01CFB009B08
S2140072802366019B63662B78002BACD0164B1A68DE
S21400729022665B686366A6E71A4AD368D907FCD4F9
S2140072A0D1E7194B1B78002BD6D1184B5A68144BD4
S2140072B012B94FF480121A66154A526812B94FF482
S2140072C000121A66134B5B68002BC5D14FF4800280
S2140072D00B4B1A66C0E700BF055E0020065E002066
S2140072E0443400204C680020483400200071080018
S2140072F00080004455CEAC00000004401868002012
S2140073000090004400000450045E002000800550F9
S21400731000C005500000065038B5224D04462B78B4
S214007320012B02D001232B7038BD0028FCD02DF095
S214007330E7FA013009D02DF0E3FA40F20113984243
S21400734003D0194AD368DB07FCD42268174B1A66A9
S21400735062685A66A268C3F87021E268D40744BF20
S21400736000229A60124B1A68013213D1114A127821
S21400737082B911494968C80748BF1A600F4A52685F
S214007380D10744BF01221A600D4A5268D20744BF93
S21400739002221A6017F0C0F90A4B186837F0A1FDF0
S2140073A00023C0E7055E0020000004400080004483
S2140073B018680020045E00200080055000C00550BC
S2140073C0000006504434002070B50024A36AB3F5CC
S2140073D0804F23D21A68134B9A421FD1124E33782D
S2140073E013F0FD0518D14FF480341048FFF7F4FE73
S2140073F0032004F04FFC0E4B0320DC6004F02EFC50
S2140074000C4B1C61AB6ADB69984704460748FFF7DC
S21400741083FF0CB901233370204670BD4FF481748E
S214007420FAE700BF07B0CD5E045E002034340020CB
S21400743000A000440090004413B5204B1B7803B90D
S214007440FEE700231E4CCDE900336A4608231D499B
S214007450206801F01BFDF8B91B4AD2F84031D2F87B
S21400746040211F2B4FF0010311D9203A9340019A77
S2140074701A43019208236A461249206801F08EFEDC
S214007480124B134A1A602EF022FE02B010BD934033
S214007490009A1A430092EDE72D28F1D10A4AD2F855
S2140074A04031D2F840211F2B4FF0010385BF203A10
S2140074B093409340019398BF0093DBE7055E00205E
S2140074C04C68002000710800008000440000002086
S2140074D00B020FF038B50025AB6A0446B3F5804FB3
S2140074E010D21B6BB3F5804F0CD20748FFF774FE23
S2140074F0AB6A20461B6B5B689847BDE8384002487D
S214007500FFF70ABF38BD00BF5034002013B5002473
S214007510A36A0190B3F5804F13D21B6BB3F5804F6F
S2140075200FD20948FFF758FEA36A01211B6B01A87A
S2140075309B69984704460448FFF7EEFE204602B0D3
S21400754010BD4FF48174F9E75034002070B5002662
S214007550B36A0446B3F5804F0D4612D21B6BB3F5E3
S214007560804F0ED20848FFF737FEB36A20461B6BE3
S21400757029469B69984704460348FFF7CDFE2046F8
S21400758070BD4FF48174FAE75034002070B50026C1
S214007590B36A0446B3F5804F0D4612D21B6BB3F5A3
S2140075A0804F0ED20848FFF717FEB36A20461B6BC3
S2140075B02946DB69984704460348FFF7ADFE204698
S2140075C070BD4FF48174FAE750340020F8B50027F8
S2140075D0BB6A0446B3F5804F0D46164611D21B6BA8
S2140075E07BB10948FFF7F8FDBB6A20461B6B3246A5
S2140075F029465B6A984704460348FFF78DFE2046F7
S214007600F8BD4FF40174FAE75034002070B5002638
S214007610B36A0446B3F5804F0D4612D21B6BB3F522
S214007620804F0ED20848FFF7D7FDB36A20461B6B83
S21400763029469B6A984704460348FFF76DFE204696
S21400764070BD4FF40174FAE750340020F0B50027FF
S214007650BB6A0446B3F5804F0D461646ADF5337D3E
S21400766020D21B6BB3F5804F1CD21048FFF7B4FD39
S214007670BB6A20461B6B40F2C1225B6A01A9984791
S214007680044630B10948FFF747FE20460DF5337D26
S214007690F0BD836A32461B6B2946DB6A01A8984711
S2140076A00446EFE74FF40174EFE700BF50340020C4
S2140076B010B50024A36AB3F5804F10D21B6BB3F548
S2140076C0804F0CD20748FFF787FDA36A1B6B1B6B26
S2140076D0984704460348FFF71FFE204610BD0124C6
S2140076E0FBE700BF50340020F0B58FB0044601A879
S2140076F00E461546FFF7EEFE9DF80C30012B12D114
S214007700B5F5402F27D8B4F5402F24D86319B3F524
S214007710402F20D821462A46304613F0B5FC0024D8
S21400772020460FB0F0BD0027BB6AB3F5804F15D2D8
S2140077301B6BB3F5804F11D20A48FFF74DFDBB6AAD
S2140077402A461B6B314620465B6B98470446054825
S214007750FFF7E2FDE4E740F20244E1E740F20114FD
S214007760DEE700BF50340020F0B58FB0044601A815
S2140077700E461546FFF7AEFE9DF80C30012B1FD1C6
S214007780B5F5402F06D8B4F5402F03D86319B3F5E6
S214007790402F13D940F2024420460FB0F0BDE25805
S2140077A0013225D104339D42F9D82A463146204677
S2140077B02DF0D6F80028EDD00024EDE70023F2E700
S2140077C00027BB6AB3F5804F15D21B6BB3F5804F0D
S2140077D011D20A48FFF700FDBB6A2A461B6B3146EA
S2140077E020469B6B984704460448FFF795FDD3E771
S2140077F040F20344D0E740F20114CDE750340020B5
S21400780070B58EB0044601A80D46FFF763FE9DF8DE
S2140078100C30012B22D144EA0503C3F30C03002BE2
S21400782033D1B5F5402F04D940F2024420460EB0BD
S21400783070BDB4F5402FF7D82544B5F5402FF3D8E2
S214007840204604F500542DF084F8AC4202D00028FF
S214007850F6D1E9E70028E7D00024E7E70026B36A78
S214007860B3F5804F14D21B6BB3F5804F10D20A4885
S214007870FFF7B2FCB36A29461B6B2046DB6B9847C2
S21400788004460548FFF748FDD0E740F20444CDE73C
S21400789040F20114CAE700BF50340020BFF34F8FF8
S2140078A00549064BCA6802F4E0621343CB60BFF397
S2140078B04F8F00BFFDE700BF00ED00E00400FA05B3
S2140078C070B5D0B1C9B10E4E431E013913F8014F41
S2140078D02046325D02F00302012A11F8012F08BF8C
S2140078E004F12000B55C05F00305012D08BF203229
S2140078F0801A01D1002CE9D170BD0120FCE700BF41
S214007900E9B604000348044A0449121A92102DF0FE
S21400791073B800BF34410000D04200004C65002020
S21400792008B5154B83F30A8800F030F8FFF7EAFF36
S214007930124B13498B4212D30020124B12498B4232
S21400794018D3FDF7CFF9186850F82240586840F869
S2140079502240013298688242F5D30C33EAE70022CF
S214007960F8E71C6844F8220001325C68A242F8D3AB
S2140079700833E4E70022F8E708000020A8DB04004C
S214007980B4DB0400B4DB0400B4DB0400124B134A7F
S21400799070B59A60D3F88820114D42F47002C3F88F
S2140079A088206FF0010205F50054226641F2FF724E
S2140079B062660222C3F8D020BFF34F8FBFF36F8FEB
S2140079C04FF44036032004F065F90320E66004F027
S2140079D045F92E6170BD00BF00ED00E000400000DC
S2140079E000800044014B1860704700BF20680020EC
S2140079F0054B1860054B1B6F03F00703032B01D1E3
S214007A0035F026BB704700BF286800200080005075
S214007A102DE9F04104464FF001080C250D4E0CB937
S214007A20BDE8F08194FAA4F0B0FA80F00F2808FAC6
S214007A3000F2C8BF103824EA0204CABF05FB006281
S214007A4005FB0062B4325768002FE8D09168C0B2D8
S214007A50B847E4E76034002008B50C4837F0E4FA8D
S214007A60192004F009F928B1192004F013F9192097
S214007A7004F0F4F81A2004F0FFF828B11A2004F0F5
S214007A8009F91A2004F0EAF8002008BDF091040075
S214007A902DE9F0410E461746054618B30F2923D8A0
S214007AA00378DBB1013BDBB2022B19D8104AD35C5A
S214007AB06A78D340DB0717D50E4BD3F81043ACB922
S214007AC037F014FA80463A462846314602F042FE1F
S214007AD0404637F006FA2046BDE8F0817F23E7E708
S214007AE00023E5E72224F6E72124F4E70224F2E760
S214007AF0E08F040000C0035010B5044610B30378AE
S214007B00E3B1013BDBB2022B1AD8104AD35C627891
S214007B10D340DB0718D537F0E9F9012261782378DE
S214007B208A4030214B4341F2100103F1A04303F594
S214007B3070335A5037F0D5F9002010BD7F23E6E7A2
S214007B400023E4E72220F8E72120F6E7E08F040090
S214007B5010B5044610B30378E3B1013BDBB2022B49
S214007B601AD8104AD35C6278D340DB0718D537F0B2
S214007B70BDF90122617823788A4030214B4342F2D6
S214007B80100103F1A04303F570335A5037F0A9F9FA
S214007B90002010BD7F23E6E70023E4E72220F8E775
S214007BA02120F6E7E08F040038B50D46044618B3EA
S214007BB011B30378E3B1013BDBB2022B1AD8104AAB
S214007BC0D35C6278D340DB0718D537F08FF93022C4
S214007BD02378534303F1A04303F570335B6962785F
S214007BE0D34003F001032B7037F07BF9002038BD3B
S214007BF07F23E6E70023E4E72220F8E72120F6E7E4
S214007C00E08F04002DE9F0410D46164698460446DE
S214007C1000284FD000294DD00178002940D04B1EB7
S214007C20DBB2022B3ED8254AD25C6378DA40D20714
S214007C3001D4FF2940D1022E01D9042E3CD137F0C1
S214007C4055F923780746FF2B05D03246204629688B
S214007C5002F0C6FD28602B68013309D12378FF2B7C
S214007C6006D1174B6078D3F824142DF0A0FC2860BA
S214007C7029684B1C18D00C23124A03FB0122069BD2
S214007C80C2F8048093602378FF2B04D001230E4AA9
S214007C908B40C2F82434384637F023F9002007E03A
S214007CA07F22C2E70022C0E7384637F01AF92D20B7
S214007CB0BDE8F0812220FBE72120F9E7E08F0400F1
S214007CC000C003506034002000D0035008B502F016
S214007CD037FD044B00F05530C3F82004BDE80840DB
S214007CE0FFF796BE00E0035008B502F029FD044BEE
S214007CF000F0AA30C3F82004BDE80840FFF788BEAD
S214007D0000E003502DE9F04F144605460E469B460C
S214007D10C36B87B001225B6902A960689847EB6B6A
S214007D2001225B6903A93046984702A82DF063FA42
S214007D30074648B10023A37563754FF0FF33A36071
S214007D40002007B0BDE8F08F03A82DF061FA0123EC
S214007D50A375237E04EBC303DE611F846368B3420E
S214007D600ED1206003A82DF075FA4FF0FF33207572
S214007D70A360237D043B022B26D80023A375DFE7F0
S214007D8023681A1A53425341A37503A82DF062FACA
S214007D90237D834218BFA77503A82DF03DFA07463A
S214007DA002A82DF039FA874218BF002303A818BF8F
S214007DB0A3752DF039FA074602A82DF035FA87424A
S214007DC01CBF0023A375D4E703A82DF025FA80B1C5
S214007DD0EB6B022230465B6904A9984704A82DF095
S214007DE02AFA0346207D032839D8DFE800F0383821
S214007DF0040903A8F3E7CC22237E04EBC3031A840A
S214007E0001F06EFC109B187003A8277E2DF0F8F981
S214007E1004EBC70787F82200237E03A804EBC303FE
S214007E20B3F8209093F822702DF0F6F9804603A858
S214007E302DF0FAF98246B8F1000F15D0EB6B02224E
S214007E4030465B6904A9984704A82DF0B9F9607517
S214007E50637D6BB90023A3754FF0000838E0227EDF
S214007E6004EBC2021384CBE703A82DF094F9EEE7E7
S214007E7094F81680B8F1000FEED0B9F1000F09D1D2
S214007E80DFB10123E375637E002B4FD1012F42D172
S214007E90677614E06B6C06EB0A015A4286EA01002C
S214007EA010421CBF0022A2755A1E0A409B1A994512
S214007EB0D0D8A37D002BE3D1CEE7E37D43B94FF0C6
S214007EC000084B465246314628462CF0DFFEA0609E
S214007ED0A27D12B123694B4423611A49237E097897
S214007EE099422AD901332376BBF1000F27D032B34B
S214007EF0E37D23B3B8F1000F21D1032F1FD0A16873
S214007F004B1C1CD0109B2246009328460123FFF7EB
S214007F10F9FEA07513E095F8343063B9EB6A0133C7
S214007F20CFD1032FCDD10123A376C8E7012FCFD021
S214007F30032FC4D1F7E79846C3E70023A375A07DB7
S214007F40FFE600BF049004002DE9F04F0E46984669
S214007F5000238BB004464FF0FF31104617468DF8CD
S214007F60133001F0A7FBB6F5801F20D2314605AAD4
S214007F7004F108002DF091F8451C014603D1237C3E
S214007F80BBB92D2010E0384601F094FB012239469B
S214007F9020460DF113032CF0CBFE0028EFD09DF801
S214007FA0133088F8003000200BB0BDE8F08FB01C0E
S214007FB0E5D1E56A691C36D12046616A2CF0ACFD35
S214007FC00546B31C18BF0123DFF8CC900193636A03
S214007FD0626C0293236805A902FB053AE36B05224F
S214007FE05B695046984705A82DF0A0F92DF0C3F917
S214007FF050462DF0CBF94FF0000B824601464B1C45
S21400800005D0636C81EA0A025B42134211D029460E
S21400801020462CF081FD029BAB422CD0BBF1000F1A
S2140080202CD10546D3E72368ED1A636CB5FBF3F550
S214008030C7E7484601F03EFB0DF1130349462046CC
S214008040019A2CF075FE034690B1B21C03D0D9F805
S2140080500020B2420CD19DF8132003930D4B88F8F4
S214008060002049461A68384613F00EF8039B9B46D4
S214008070D9F80810C3E7BBF1000F82D0B6F5801F11
S21400808091D2314698F800307A6804F1080001F081
S2140080903FFA88E7009004003C3C00202DE9F341BD
S2140080A00446174698460E46184D816AE36A8B4288
S2140080B001D04B1C02D102B0BDE8F081284601F089
S2140080C0F9FA0122294620460DF107032CF030FE6E
S2140080D038B14346294620469DF80720B847002871
S2140080E0E9D0A9684A1C04D1696820462CF0A1FD95
S2140080F00146012EDAD16B6881EA0302636C5B42AB
S2140081001A4218BF4FF0FF31D0E700BF103C0020E6
S2140081102DE9F04F4FF0FF334FF6FF72002504466F
S21400812000F10806C0E909238BB0C3620562056347
S214008130304688462CF082FF20462CF0BDFC60BB03
S214008140204641462CF038FD20462CF0B5FC60BB9E
S2140081505E200BB0BDE8F08F2368E26B606C576959
S21400816000FB0530052205A9B84705A82DF0DEF866
S214008170012807460CD1294620462CF0EEFC012F9C
S214008180024600D10132294620462CF0B4FC03E01A
S2140081902DF0F6F80028EED10135E3699D42DBD3D9
S2140081A020462CF089FC0028CAD000254FF0FF3965
S2140081B04FF6FF73CA46A846C4E90853E3699845D4
S2140081C00AD3A5EB0905012D2CD84FF6FF72636A7A
S2140081D093423CD16720BCE72368E26B606C57692A
S2140081E000FB0830052205A9B84705A82DF09EF823
S2140081F0834605A82DF071F8074658462DF0BBF8C3
S21400820068B1574538BFC4F82480B94528BFB94679
S214008210BD4238BF3D46BA46236A0133236208F1A1
S2140082200108CBE74FF6FF7300256362E3699D42C2
S214008230CBD2676C2068E36B052207FB05005B6901
S21400824005A9984705A82DF048F80135EEE7E26B3A
S214008250676C2068694607FB030055690522A84736
S21400826068462DF03AF8626A2368606C4B4D00FB56
S21400827002302DF08BF84FF0FF33A062E3622A46FF
S2140082806FF00101204605ABFFF75EFE002846D1E1
S214008290AD6829462046E5622CF0EAFB206320B94B
S2140082A02046E16A2CF0C5FCE062294620462CF008
S2140082B0C0FC0546A36A9D4233D120462CF0ABFB9A
S2140082C000278046B946E36999453CD3B84559D955
S2140082D02046616A2CF020FC0026054604F1400A80
S2140082E0B74212D8626C2368694602FB0539E36B15
S2140082F005225B694846984768462CF0EEFF5346D1
S21400830002464946E06B2DF043F8294620462CF0FD
S21400831003FC0136B0450546E2D1642019E7A56A9C
S214008320B7E7294620462CF0A3FB236B29460344D7
S2140083300746236320462CF07CFC0546002FB9D167
S214008340C4E90B07B6E7636C2568052203FB0955ED
S214008350E36B05A95B692846984705A82CF0E6FF5D
S2140083602DF009F858B128462DF010F801462046A1
S2140083702CF07EFB636C143B984208BF013709F172
S2140083800109A0E730462CF059FE00232046194686
S214008390034AFFF783FE0020DBE600BF683C0020B0
S2140083A01F4D03002DE9F041036B9046826B076872
S2140083B09A4288BF8363426C436A90B002FB03779D
S2140083C0C36B0E46052201A95B69044638469847EA
S2140083D001A82CF0ABFF01280146307057D0656C21
S2140083E0E26B2368606AD2F814C005FB00300522F1
S2140083F006A9E04706A82CF099FF01284FF00005D3
S21400840023D0D4E90A3201219342CDE90B458DF8F9
S21400841034800E958DF83C102AD1194620462CF053
S21400842008FC236B626C14339B1AE06223630C9B7C
S21400843053B99DF83C303BB1626A616C2368E06BCF
S21400844001FB02312CF02AFF0C9DE36B05225B69D1
S21400845001A93846984701A82CF068FF30702846D6
S214008460236BA26B9A4288BFA36310B0BDE8F0816D
S214008470237C33B91C490BAA04F1080001F096F8D6
S214008480D5E72046194A0BABFFF708FECFE7237C5B
S21400849023BB2246164904F1080001F087F8616AFA
S2140084A020462CF05AFB616A421C20462CF023FB27
S2140084B0054620B9236B626C1344143B23632046A5
S2140084C0A16A2CF0B6FB2368A062C01A636CB0FBEE
S2140084D0F3F0606220462CF0EFFBB6E70023204660
S2140084E0044AFFF7DBFDDAE7498C0000C58B000085
S2140084F0B94D0300554D030073B50D46D11E4A42D3
S2140085001C461B7E4A419A4226D129682368994216
S21400851022D3636899421FD8114E0DF107033246E5
S214008520FFF712FDC0B972686B689A4214D19DF8C5
S2140085300730DA1E53425341227E93420CD16369C0
S21400854001336361D4E90323934205D22968A26804
S21400855042F8231001332361012002B070BD00BF32
S214008560683C00202DE9F04F9B4689B09DF84830C6
S2140085709046514A0193136907465B450D46C0F085
S2140085809580D94653680093B9F1000F7BD0FB6BFA
S21400859001225B6905A90098984705A82CF038FECB
S2140085A0454B1B68984240F0848005A82CF03CFEA2
S2140085B00428064615D105A82CF03DFE009B04466F
S2140085C01E44019B002B3ED1804512D91C46A8EBC9
S2140085D00008384600992CF02CFBA9EB0409009003
S2140085E0D2E7FB6B02225B69009806A9984706A8AB
S2140085F0E2E7A0EB08045C4528BF5C46032C464433
S214008600ABEB040B1DD9FB6B294630465B69A20811
S214008610984724F0030304F0030A1E441D44DDF8C3
S2140086200480BAF1000FD4D0FB6B012206A93046B5
S2140086305B6998475246284606A912F025FD554420
S214008640C7E7A246EBE7824600F0030302932B1827
S21400865003930644039BA6EB0A00A3EB0A05029BC2
S2140086609A4514D1BAF1000FB3D0FB6B012206A9CC
S2140086705B6998475246284606A912F0C1FE0028B4
S214008680DDD04FF03609484609B0BDE8F08FFB6BE9
S214008690012206A95B6998470422284606A912F01B
S2140086A0AFFE0028EDD1AAF1040AD3E74FF0630924
S2140086B0E9E74FF06F09E6E7943C00202DE9F0412A
S2140086C00F4616469846044688B060B390F8345075
S2140086D0FDB101212CF0E5F900210E9BCDE9051135
S2140086E0CDE902379DF83C30CDF804808DF81C307B
S2140086F0237C04968BB90D4901AA04F1080000F00A
S21400870055FFDDE90553E06B002E08BF1D462CF033
S21400871061FB284608B0BDE8F0812046044A01AB5C
S214008720FFF7BCFCEDE70546F3E700BF834D03000B
S214008730F98400007FB590F84260044601920DF17E
S2140087400B030A46304611492CF04CFB012E054619
S214008750E36B17D132465B6903A998479DF80B1067
S214008760039B019A59B19BB243EA02430122284671
S2140087700393E36B03A99B69984704B070BD62F34B
S2140087800F03F3E701229B6901A9F5E7943C00205B
S2140087902DE9F04F99B00E460D920A69416C0B9385
S2140087A01439D31DB3FBF1F3013302EBC302036BA1
S2140087B004469342C0F001820023DFF80494089335
S2140087C0E36A48461946059300F074FFD6E9033776
S2140087D007930B9B022B4DD1CC2F40F0D7810D9BDE
S2140087E03BB1314620462CF053FB656C14900120BB
S2140087F044E00120079B656C1B68149300F00100A1
S21400880000280CBF04230823782F0E9349D8059A16
S2140088106B1E1340ED1A3B1D9D423CD2002F3DD0EF
S214008820082D3ED80023042506934FF0040A33682B
S21400883006990B98C9F80030C9F810702CF00EFD98
S2140088404FEA9A030F93059B89F8140003930023BD
S21400885009930C9304930A93616C039B4A1E1A4077
S2140088608B1A27B35544AB4223D8236B5B1A1344A9
S21400887023632FE1782F656CB9D8F07D0D9B002B14
S214008880BCD0E36B01225B69706816A9984716A8EE
S2140088902CF0C2FCB4E700250695C6E7042506972B
S2140088A0C3E7012300254FF0080A0693BFE75345A8
S2140088B0DBD3A3EB0A029742039BB84628BF904639
S2140088C09742534428D90122D9F8101089F8172066
S2140088D08F4226D10399C9F80410049299F81720FC
S2140088E00AB399F818100398CA1C09EBC202506024
S2140088F004980131A2F80880907289F81810B8F12F
S214008900000F07D00B9A022A40F08180099A72B1B4
S214008910012209929B46ABE0049A002A18BF032264
S214008920DBE70222D9E7039AC9F80420E7E70C9AA6
S2140089304244032AEED9E26B1846956914A901222F
S2140089400993A847099B05460028E1D03D2D40F035
S2140089501E8104F1080303932368059A606CA2EB5A
S214008960030ABAFBF0FA00FB0A302CF00FFDE16AAE
S214008970804620462CF05DF9A26A824200F00F8104
S214008980626CD9F80830511E0B40216B2768891A93
S2140089900B442363089BE062DF1BB7FBF2F7BA4584
S2140089A040F0FA80059BB3EB080A12D0E36B4FEA5F
S2140089B09A0241469B6998478346E36A059A534460
S2140089C0E362236B03989B1A434423632CF036FB25
S2140089D0DA462368616CE06B01FB07312CF04BFC38
S2140089E020462CF069F820462CF066F92063BAF190
S2140089F0000F00F0D4803269616CD31D1439B3FBCC
S214008A00F1F3013302EBC3029042A5D2BFE00D9A08
S214008A10002A77D1B8F1030F4FEA98026ED9E16BBE
S214008A2018468D6907991093A847109B0546C0B94C
S214008A3018F0030515D0079A28F0030B02EB0B017C
S214008A409B444FF0FF3215A815922A46109312F059
S214008A501BFBE26B5846956915A90122A8470546F7
S214008A60109B9B46079A42440792002D40F08B804D
S214008A70049B16A80193069B009399F8142043467E
S214008A80316800F0CDFDE36B0F9A9B69039816A939
S214008A909847039A051E089B18BF1346089343463B
S214008AA05246204603992CF0F1F8236B08F1030296
S214008AB0A3EB0A0322F003029B1AC9F808002363FB
S214008AC0002D7FF443AF0C9BA7EB080743440C93A1
S214008AD0CDF80CB0204603992CF0ABF80025039097
S214008AE0002F7FF4B9AE364A3168936804F1080067
S214008AF0E36252680B9B00F00BFD49E09B4645463F
S214008B0007999EE79B4606F120021092F27D706858
S214008B10A2B1002296F818C00A99D5B2AC4511D970
S214008B20109D02F1010E35F832508D4228D90E986C
S214008B3006EBC2020144D069084403E00E9A0A9983
S214008B400A441044E26B15A9556901221193A847FF
S214008B50159A0A9B1392E26B0433956958460122D4
S214008B6013A90A93A847119B054603EB0802A2EB3C
S214008B700B02042A7FF679AF28B90BF1040BC5E780
S214008B807246491BC9E7CDF820B088E770252F4606
S214008B90384619B0BDE8F08F4FF0000A19E7326981
S214008BA0616CD31D1439B3FBF1F3013302EBC3023E
S214008BB0236B9342BFF404AEE9E71C27E8E700BF47
S214008BC03C3C0020032A2DE9F34106460D46174695
S214008BD01C4606D1237A012B23D0012002B0BDE823
S214008BE0F081DFF86080096842460DF10703FFF761
S214008BF0ABF960600028EDD19DF80720237A032AA0
S214008C00E8D0D8F804106A689142E3D1012B2969AC
S214008C10D4F80CC007D172690CEB0103934202D959
S214008C202074207CDAE708316144E1603B4601228B
S214008C3029463046FFF7ACFD60600028CAD0002009
S214008C40CCE700BF683C00202DE9F341089C032ACE
S214008C501746266806D1237A012B24D0012002B0BD
S214008C60BDE8F081DFF89080304642460DF10703FC
S214008C70FFF76AF960600028EDD12568D8F804008F
S214008C80A96AD5F844C04840CCF100031840227ABF
S214008C90E1D1012A09D1E268D8F81030134472698C
S214008CA0934202D92074207CD9E72868EB6A1B1A05
S214008CB0081AB3FBFCF3B0FBFCF083420BD1706CDC
S214008CC0F36A421E1340326B121A1344284633636B
S214008CD02BF0AFFFE862D8F81020E36808321344A0
S214008CE0E36001223B4604492068FFF751FD6060BF
S214008CF00028B0D00020B2E7683C00202DE9F04103
S214008D000025604B0E46D3F8008004461D6018B957
S214008D1021252846BDE8F08190F8347007B30A682C
S214008D2003689A4240F0A3804A6843689A4240F03B
S214008D309E808A6883689A4240F09980CA68C368B1
S214008D409A4240F094800A6943699A4240F08F80C4
S214008D508A69C36B9A4240F08A804B698361D8E780
S214008D6068223946856B11F0FFFFD6E90212336898
S214008D7004F1080023607368A56363603369636168
S214008D807369A3612CF06CF9B36904F14000E363E6
S214008D909B68984720B9676C17B16368B3FBF7F711
S214008DA094F84330E761002BB2D00023656C23664D
S214008DB0002D64D0002F62D02368B3FBF5F205FBCC
S214008DC01233002B55D16668B6FBF5F305FB13632B
S214008DD0002B4ED120462BF03BFEA3690433034400
S214008DE09E4248D340F634726369CC3B934244D8E3
S214008DF0B5F5805F43D3032120462BF052FED4E91D
S214008E000001E36B1B6898470546E36B0220DB68AE
S214008E109847CDB941462046FFF77AF964280546BB
S214008E2004D141462046FFF773F90546666C5DB9E6
S214008E30236A2046143E5E432BF00AFEA3690433E1
S214008E4003449E4238BF5A25002D0CBF0123002341
S214008E5084F8343007D1D4E900010B4A1368013393
S214008E6013602CF097F9E06B2BF0B4FF51E75D250B
S214008E704FE759254DE75A254BE75F2549E75B2520
S214008E8047E700BFCC350020C83500202DE9FF415C
S214008E900C4616461F46054680B390F834307BB322
S214008EA0B1F5801F2ED2DFF8608001212BF0F9FD8E
S214008EB02146424628460DF10F03FFF745F80446C3
S214008EC070B99DF80F30012B11D1D8F81030BB4285
S214008ED012D10246009031462846FFF743FB04466F
S214008EE0E86B2BF077FF204604B0BDE8F081022B3C
S214008EF014BF2D246024F3E76324F1E72124F2E76E
S214008F001124F0E72924EEE7943C00202DE9F043F5
S214008F1085B00C4617461E460546DDF8308098B3E9
S214008F2090F8343093B3B1F5801F31D2DFF86490F7
S214008F3001212BF0B6FD21464A4628460DF10F03C7
S214008F40FFF702F8044688B99DF80F30012B14D1BC
S214008F50D9F8102006EB08039A4213D30090434634
S214008F60324639462846FFF7FDFA0446E86B2BF0F2
S214008F7031FF204605B0BDE8F083022B14BF2D2438
S214008F806024F3E76324F1E72124F2E71124F0E7F5
S214008F902924EEE7943C002073B50C461646054699
S214008FA030B390F834302BB3B1F5801F24D20121B2
S214008FB02BF077FD21462846104A0DF10703FEF7F1
S214008FC0C3FF044680B99DF80730032B0CD0022B54
S214008FD00CD1284609492BF05BFF3060E86B2BF07C
S214008FE0F9FE204602B070BD2D24F7E76124F5E7B0
S214008FF02124F6E71124F4E72924F2E7943C002024
S2140090002DE9F3411E4600230C46174605463360FD
S21400901050B390F834304BB3B1F5801F28D2DFF848
S214009020548001212BF03DFD2146424628460DF195
S2140090300703FEF789FF0446A0B99DF80730032B07
S21400904010D0022B03BF01233B600423D8F8103056
S21400905018BF38603360E86B2BF0BCFE204602B0C9
S214009060BDE8F0812D24F6E72124F7E71124F5E783
S2140090702924F3E7943C002073B50446056B2BF0D7
S214009080E7FC636E03449D422CBF00230123854208
S21400909094BF00252D1A207C84F85030656584F82E
S2140090A05800A8B100230C4E1A46194620460096D2
S2140090B02BF0B2FF002305461A46194620460096B6
S2140090C02BF0B3FFE3682844984294BF0020C01AF0
S2140090D0E06502B070BD00BFFFFF0F002DE9F3474B
S2140090E01E4643690446B342884617469DF82890B4
S2140090F04ED300258DF8075020462BF0A9FCD4F857
S21400910030A082450AD2236AB5EB430F06D200226E
S21400911020460DF10701FFF745F9B8B39DF8073073
S214009120012B05D1002220460DF10701FFF73AF981
S214009130B9F1030F06D0314620462BF079FC256B9B
S214009140854227D3144D4FF0FF31284600F0B2FA7F
S2140091504B46294600222046C5E90376C5F800801E
S214009160FFF716FB236E054663B12046FFF784FF24
S21400917094F8503013B994F858301BB1236E04F1AC
S21400918050009847284602B0BDE8F0870135B3E79F
S2140091906225F7E71C25F5E7683C00202DE9FF412E
S2140091A00F4690461E46054698B390F8343093B363
S2140091B0B1F5801F31D21A4C02212BF072FC2246E8
S2140091C0394628460DF10F03FEF7BEFE024678B17B
S2140091D0012342460093394633462846FFF77EFF72
S2140091E00446E86B2BF0F6FD204604B0BDE8F0819F
S2140091F09DF80F30012BEBD12169B142E8D10093E5
S214009200414633462846FFF7ADF904460028DFD12D
S214009210E7E72124E8E71124E6E72924E4E700BF8E
S214009220943C00202DE9F04790F8423086B0012BA0
S21400923005460391A1EB020740F0AA80FF2F03D852
S2140092401E464FF0640807E00226012B14BF4FF0BD
S21400925032084FF06408013600244FF6FF79DFF835
S21400926044A195F84230012B14BF322364239C425C
S21400927002D35FFA88F40DE005AB22465146284635
S2140092802BF0E4FD95F84230012B059B34D14B457D
S2140092902DD1E4B295F84230012B14BF322264225D
S2140092A0121BB24217D3012E39D10022012B05978B
S2140092B08DF8132027D1082205A90DF113002CF0F4
S2140092C081F89DF81330059A42EA03222146284683
S2140092D0FFF730FA40B10223324900932846CC23E8
S2140092E0096803AAFFF7FAFE06B0BDE8F087DBB20E
S2140092F003B902340134B4E7591CCAD09BB2002B20
S214009300F8D10134F6E7102205A90DF113002CF070
S21400931059F89DF81330059A42EA0342D6E7039AB5
S214009320012B059223D10823202205A90DF1130055
S2140093308DF813302CF046F89DF8132012022146C3
S2140093402846FFF7F7F995F84230611C012BC9B2A1
S2140093501AD10028BFD12846BDF81420FFF7EAF935
S2140093600028B8D10234BDF81620E1B2AFE71023CA
S214009370202205A90DF113008DF813302CF022F8E9
S2140093809DF813201204DAE70028A4D1059A9EE778
S214009390B7F5803F4FF00106BFF457AF4FF03208E5
S2140093A05AE700BF943C002070B586B00E460546CE
S2140093B00392A0B390F834309BB3B1F5801F32D23D
S2140093C002212BF06EFB31462846184A0DF1170392
S2140093D0FEF7BAFD044618B99DF81730032B0ED1D8
S2140093E00223314600932846CC2303AAFFF776FED5
S2140093F00446E86B2BF0EEFC204606B070BD022B50
S2140094000BD10A4928462BF043FD039902468142B8
S214009410EFD02846FFF706FFEAE76124E9E72124B4
S214009420EAE71124E8E72924E6E700BF943C002099
S214009430F7B50C461646054668B390F8343063B365
S214009440B1F5801F2BD202212BF02BFB214628469C
S214009450144A0DF10703FEF777FDC0B99DF80730F3
S214009460032B14D0022B14D10E4928462BF010FDE6
S214009470471C024639462846FFF7D4FE044606B186
S2140094803760E86B2BF0A6FC204603B0F0BD2D2419
S214009490F7E76124F5E72124F6E71124F4E7292409
S2140094A0F2E700BF943C002030B50C46054685B078
S2140094B028B390F8343023B3B1F5801F23D20221AD
S2140094C02BF0EFFA0DF10F03214628460F4AFEF760
S2140094D03BFD034688B99DF80F20032A0DD00322D2
S2140094E02146009202462846FFF7F8FD0446E86B40
S2140094F02BF070FC204605B030BD2D24F7E7212464
S214009500F8E71124F6E72924F4E700BF943C00208E
S2140095102DE9F043466886B3056898464FF0000C80
S214009520A946AE4655F83C400CF1010CC4F31307AF
S214009530013401D0B94217D0B4450EF1080EF1D16E
S2140095402F46002403E0B44207F1080712D055F86E
S214009550343001340133F6D1C1F3130141EA085126
S214009560C7E90012BDE8F08341EA0851CEE90012CF
S214009570BDE8F083B8F1030F03D101230372BDE801
S214009580F083002303E0B34209F10809F5D055F84B
S21400959033400133C4F30754032CF4D1C1F313034F
S2140095A043EA0853C9E90032BDE8F0832DE9F041EB
S2140095B00646406882B0B8B10F469046002433682D
S2140095C053F8345003EBC403C5F30752C5F3130135
S2140095D0013506D05B683046CDF80080B84718B134
S2140095E0706801348442EAD302B0BDE8F08100BF5F
S2140095F0024B1968024B1868FFF780BB2C680020E6
S2140096004C68002008B535F064FC014B186008BDB6
S214009610C03C0020014B186835F056BCC03C00200A
S21400962073B504462248012A00EAC1119DF8185075
S21400963023F07C4007D9961E012E28D9073303F065
S2140096407F03194308E09DF81C300A43DB0603F04D
S214009650C053134343F060410023C4E900108DF863
S2140096600730B5B1202221460DF107002BF0AAFEE7
S2140096701A220DF10700211D2BF0A4FE08206368B6
S2140096809DF8072043EA8263636002B070BD114311
S214009690E2E71B220DF1070021462BF093FE23681C
S2140096A09DF80720042043EAC2632360EDE700BF6D
S2140096B080FFFF0738B5094B0D461A68002104469F
S2140096C011F052FB00234FF0FF322383C4E900253C
S2140096D02361A260E382A37638BD00BF0090040039
S2140096E00138C0B205289ABF014B185C01207047AC
S2140096F0059004002DE9F0410746154600240E4665
S214009700596888B0490A012922464FEA510104F1F6
S2140097100104F8D8DC78997824031B88C90201F480
S214009720006104F480540C43C3F30A035203234439
S21400973092B24FF000089C18274B6FEA044403933C
S21400974025F07843ED4302A90DF107001B22029392
S2140097508DF807802BF036FE9DF80720029B02A9A5
S21400976043EAC2630DF107001B2225F078450493F7
S21400977002958DF807802BF025FE9DF80720029BAA
S2140097806FEA144443EAC26305934FF0FF3307942D
S214009790069307A9BB69012206F110009847BB692A
S2140097A005A90446012206F108009847BB69404512
S2140097B018BF044604A90122301D984701224045DF
S2140097C018BF0446BB69304603A99847404508BF02
S2140097D0204608B0BDE8F08101009AB238B5104BBB
S2140097E00546D3F800310C4603F00303022B0BD0DA
S2140097F0032B0DD0012B0FD133F044FC032305B10E
S214009800286004B1236038BD33F086FC0723F6E7F2
S21400981035F072FB0623F2E701230020EFE700BFD6
S2140098200080005038B5134B0546D3F820010C468F
S21400983000F0070004281AD8DFE800F003090D112D
S2140098401500012305B1286004B1236038BD33F04C
S214009850DFFB0423F6E733F015FC0323F2E733F0CF
S21400986017FC0523EEE733F009FC0223EAE70023A2
S2140098701846E7E70080005038B5104B0546D3F889
S21400988040310C4603F00303022B0BD0032B0DD004
S214009890012B0FD135F032FB082305B1286004B147
S2140098A0236038BD33F038FC0723F6E735F029FB94
S2140098B00923F2E701230020EFE700BF00800050F5
