S01B00006275696C642F72656C656173652F7A69676265652E73333714
S214006000081000200D9E00002DE600001728030053
S2140060101728030035E600003DE6000017280300B9
S2140060201728030017280300172803001728030063
S21400603041E600006C6904001728030017280300D7
S214006040172803001728030017280300DD98000010
S2140060501728030017280300172803001728030033
S2140060601728030017280300172803001728030023
S214006070ADEB0000172803001728030017280300BD
S2140060801728030017280300172803001728030003
S21400609017280300172803001728030017280300F3
S2140060A017280300D9A10000B9A100001728030093
S2140060B0172803001D2F020017280300813902004D
S2140060C037800300338003005D3102004D800300FB
S2140060D03B800300513902003F800300C1390200B3
S2140060E02D400200291D02002D3A02001728030049
S2140060F01728030017280300172803001728030093
S2140061001728030017280300172803001728030082
S2140061101728030017280300172803001728030072
S2140061201728030017280300172803001728030062
S2140061301728030017280300172803001728030052
S21400614082B030BF074BD3F8F030DB0704D500230E
S2140061500193019B052B01DD02B07047019B0133C3
S214006160F6E700BF00ED00E0F0B5114A114C124E04
S21400617000F00105E3695F0713D40DB9334213D16C
S21400618003EA00078F4207D10B4A1A40002A14BFC1
S2140061906FF001000020F0BD013AEBD16FF0020075
S2140061A0F9E74FF0FF30F6E76FF00100F3E700BFC6
S2140061B08096980000000350020001000B4B70B55B
S2140061C0D96911F480310DD101244FF48072084E44
S2140061D0084DF46020462C641A61FFF7C5FF34644E
S2140061E0EC6070BD6FF00100FBE700BF00000350DD
S2140061F000100350002003504FF4003238B50F4B08
S2140062000F4C9A6641F671330122E569E3630D4B44
S2140062100021DA60022360612120236105F48035C5
S214006220FFF7A2FF10B92120FFF79EFF0122064BC1
S214006230DA600DB10023E36338BD00BF0090005064
S21400624000000350001003500020035070B5134C9C
S2140062506061E3695B071ED40E4656F8043B8D1852
S214006260A361AE420BD10423002121202361FFF756
S2140062707BFF58B9BDE870402120FFF775BF0821A5
S2140062800846FFF771FF10B10423236170BD56F86E
S214006290043BA361E5E74FF0FF30F7E7000003504B
S2140062A02DE9F84315464FF40032184B89469A6696
S2140062B041F6713203F51C33DF69DA6301220646C4
S2140062C003F58053DFF84C8007F48037DA6055B961
S2140062D0284601220E4BDA601FB10022A3F50053B8
S2140062E0DA63BDE8F88306F5005404EA0804A41B44
S2140062F0AC4228BF2C46494622463046FFF7A6FF4A
S2140063000028E6D12644A1442D1BE0E7009000506B
S20C0063100020035000E0FFFF2F
S2140063182DE9F04F4FF0FD0BC9B09A460DF11B0959
S2140063289DF8503108AFCDF80C90CDF808B001971D
S214006338059303890446009383790E469046418860
S2140063488288407812F058FB054650B10090A38822
S214006358002062883A4912F093FE284649B0BDE804
S214006368F08F99F800002FF070F938B12846A38806
S2140063786288344912F084FE8D25EEE75A4639467F
S21400638899F800002FF009F98346002851D0529B4F
S2140063981BB1BDF84C3198424BD8002399F80090B1
S2140063A80793A9F14102012A5FFA8BF123D83846F0
S2140063B80139254ADFF898C05FFA81FE734513DB7A
S2140063C8059B04210792C3B907AF18221F489FED03
S2140063D81A7B02FB060420460A460830394684ED36
S2140063E8027B17F0A1FC11E010F8011F01335140A1
S2140063F80CFB01F2E2E7059B33B123464A463846D2
S214006408009610F07BFAA8E70829DED9B8F1000F45
S21400641801D088F80090BAF1000F01D0AAF800B0B1
S214006428529B002B99D05A46184608A917F07CFCB0
S21400643893E7012591E700BF000000000000000078
S214006448381204006D120400C59D1C8180100020BF
S21400645893010001000000002DE9F04F93B0CDE94C
S2140064680A32DDE91C530E9353EC102BCDE90801D4
S214006478104619468DED060B1E9E16F0DFFE80B1FF
S214006488DDE906014FF0FF32C54B16F0FFFE40B9B6
S214006498DDE906014FF0FF326FF4801316F0D8FEE0
S2140064A870B1DDE908019DED060B0E9B1E96CDE941
S2140064B81C53DDE90A3213B0BDE8F04F00F088B986
S2140064C80022DDE90601002316F0C2FE002800F0CF
S2140064D83381DDE906A303F1004BCBF30A5016F42B
S2140064E88063A0F2FF3008BF06250F9316F0D4FB92
S2140064F89BA3D3E9002316F039FC9BA3D3E900231A
S21400650816F07EFACBF31304894644F07F51804692
S2140065180022A44B504641F4401116F06FFA94A39B
S214006528D3E9002316F022FC02460B4640464946AD
S21400653816F066FA16F0B4FE044616F0ADFB8EA307
S214006548D3E900238046894616F010FC0022964BB5
S21400655816F056FA16F0A4FE89A3D3E900230746D8
S2140065684946404616F002FC80463846894616F0EC
S21400657893FB85A3D3E9002316F0F8FB02460B46E7
S2140065884046494616F03AFA02460B46CDE90C2331
S21400659816F0ECFBDDE90C238046894610461946C2
S2140065A816F02EFA0022CDE91001804B40464946E7
S2140065B816F006FD00227E4B16F022FA02460B461F
S2140065C84046494616F0FCFC00227A4B16F018FAAC
S2140065D802460B464046494616F0F2FCDDE90C2317
S2140065E88046894600204FF0804116F007FA02469A
S2140065F80B464046494616F003FA02460B46DDE9C6
S214006608100116F0DDFC07F2FF3700226A4B16F081
S214006618F7F900223B0516F0A9FB52465B46804672
S214006628894616F033FE002840F08980CDE90C89AB
S21400663804F16303C62B8CBF0527042731051BD539
S21400664853A3D3E900235046594616F015FE0028F2
S2140066587FD051A3D3E900235046594616F0F8FDDB
S214006668002876D00027A542C6BF2C1B04F1FF35AC
S21400667800253C4646F480660E9B9F422CBF4FF092
S2140066880008A3EB070816F0020903D0002F18BF6E
S2140066984FF000083CB1DDE90C235046594616F089
S2140066A88FFC82468B46DDE906010022002316F0A1
S2140066B8CFFD10B10BF100439B46DDE9080126F437
S2140066C80063CDE90183DDE90A324BEC10AB009597
S2140066D800F07EF802465FB3DDE9091316F0200FD6
S2140066E800F10105089E0CBF65204520B047DDE98E
S2140066F808010523002205930A23002CCDE902325F
S21400670807F1FF374FEAD473B8BF64422A460193AD
S21400671804970A9B009430F0C8FE0246B9F1000FB1
S21400672806D00B9BC41A0B9B1A190E9BA34245D87E
S214006738104613B0BDE8F08FDDE906ABCDE60022C3
S214006748404649461A4B16F03BFC013CCDE90C0185
S2140067586EE7002D90D00F9B002B8DD0013D8BE768
S214006768FB799F501344D33FB3C8608B288AC63F33
S21400677861436F63A787D23F71A379094F930A4095
S2140067881655B5BBB16B0240EF39FAFE422EE63F0E
S2140067982D431CEBE2361A3F0000000080842E4191
S2140067A8FFFFEF7F0000F83F0000E03F00002C40AE
S2140067B800002440000018400000F03F2020DDE9DB
S2140067C80913089DA8470134ADE700BF0000000084
S2140067D82DE9F04F5BEC10AB97B0CDE90501DDE98C
S2140067E82058CDE90723504652465B465946229F15
S2140067F816F024FD70B90323CDE902870193AA4B4E
S2140068080093DDE90501DDE9072330F080FD17B0C8
S214006818BDE8F08F4FF0FF326FF4801350465946AC
S21400682816F016FD28B10423CDE9028701939F4B85
S214006838E6E74FF0FF32504659469D4B16F026FDC8
S21400684868B19C4A07F00403002B08BF03229A4B42
S2140068581CBF13460422CDE902870192D0E75046B2
S2140068688DA3D3E90023594616F010FD38B98CA33A
S214006878D3E900235046594616F0EAFC68B1DDE92C
S2140068880723DDE905014BEC10ABCDE92187209500
S21400689817B0BDE8F04FFFF7DFBD002200235046D3
S2140068A8594616F0D5FC002800F091805B46524603
S2140068B80020002116F0A2F8012382468B46099391
S2140068C817F4806400F08580092D40F28580002446
S2140068D830210EABA5F109020134202C03F8011B68
S2140068E8A5EB040901D09442F6D15946504616F055
S2140068F8D7FC724B054603EBC90393ED007B8DED81
S2140069080A7B16F0C9F902460B465046594616F059
S21400691875F8DDE90A2316F029FA02460B46CDE992
S2140069280C2316F0E5FC064616F0A6F902460B46BA
S214006938DDE90C0116F062F802460B46CDE90C2399
S21400694800225F4B16F0A2FC002848D001363046DD
S21400695816F092F902460B46DDE90A0116F082FCAB
S21400696808B100260135B9F1000F45D1284616F0C2
S21400697893F902460B465046594616F03FF8002251
S2140069884F4B16F065FC10B9E90700D501350A210A
S2140069980EAB1A19202C0AD095FBF1F001FB105506
S2140069A8303502F8015B013405460028F2D107F0BD
S2140069B80302012A55D1B8F1000F52D0099A12B92C
S2140069C817F00C0F01D008F1FF38302240E009908C
S2140069D876E74FF0060988E7A946002485E70022EF
S2140069E8DDE90C01364B16F033FC0028BBD10EB19E
S2140069F8F007B8D50136B6E70A210EAB1A19202CCF
S214006A080DD0B6FBF1F001FB1063092E03F130033D
S214006A1809F1FF3904F1010402F8013B11D83021CD
S214006A28A1440EAA202CB2D04C4504F101030AD189
S214006A3804F158020DEB02042E2204F8202C1C4602
S214006A48A5E70646DBE7A1541C46EBE71A550134D2
S214006A58444506D2202CF9D1CDE9028701940EAB25
S214006A68CEE6202CF8D0099B3BB12D2204F1580322
S214006A786B4403F8202C0134EEE77A0704D504F1BA
S214006A8858032B226B44F4E73B07E5D504F158037B
S214006A9820226B44EDE700BF0000000065CDCD4125
S214006AA80000000065CDCDC15B2F04005F2F0400F9
S214006AB8FFFFEF7F522F0400572F04006078040072
S214006AC80000E03F0000000070B58EB02C220021C8
S214006AD803A816F099FF64234FF002320893CDE915
S214006AE805230B2301218DF834305B4B8DF81010ED
S214006AF81D880D4040F0A980084634F047FD0A225C
S214006B08564B574C1A704FF42873ADF812304FF0A6
S214006B18FF332360534B54491B8820460B82534B44
S214006B28534A1B68CD828B61524B0D621B884B8281
S214006B38514B1B68CB611DF041F820B14FF41B7117
S214006B484E4835F050FD0521206831F016FB20B17F
S214006B5840F27D21494835F046FD206815F00AFFC9
S214006B68474B2068196830F082FE0C2535F076F918
S214006B786843099035F072F968430DEB05010790F4
S214006B88206817F0DDFB20B140F295213B4835F030
S214006B982AFD25681FF03CFC00220146284630F0F6
S214006BA8DEFE20B140F29721344835F01CFD40F255
S214006BB80353344D344E2B80052396F90000AB70F2
S214006BC87F2801D11DF0E2FA3378EB7035F046F9EC
S214006BD800EB80008000A88035F040F90023C00054
S214006BE84FF0FF31E880AB604FF0FF3018A3D3E9D1
S214006BF8002334F01DFE2549206830F069FE206821
S214006C0802A931F061FB20B14FF434711B4835F00E
S214006C18EAFC042220680DEB020130F0FDFD042892
S214006C2804D040F2D721154835F0DDFC01A9012033
S214006C3830F0BEF907F03AFD01201DF02BFF2CF0CE
S214006C48D4FB1DF051FF1DF039FA0EB070BD00BF21
S214006C580A0020FF420300000E5A00204061002070
S214006C68345400200092040034680020089204007F
S214006C78BDB50300FE9104000492040024680400D5
S214006C887465002028540020086B002031B60300E5
S214006C980348044B834202D0034B03B1184770479E
S214006CA8346B0020346B002000000000064B0749B8
S214006CB8C91A891048BF0131491003D0044B0BB1DB
S214006CC801481847704700BF346B0020346B00201B
S214006CD80000000010B5064C237843B9FFF7D8FF2C
S214006CE8044B13B10448AFF300800123237010BD92
S214006CF8B81500200000000020CD040008B5044B9D
S214006D081BB104490448AFF30080BDE80840CDE74E
S214006D1800000000BC15002020CD0400A3F5803A32
S214006D28704700BF154B002B08BF114B9D46FFF759
S214006D38F5FF00218B460F461148124A121A16F024
S214006D4863FE0C4B002B00D098470B4B002B00D053
S214006D5898470020002104000D000B4817F09AF908
S214006D6816F02AFE200029002BF058FA17F080F9B2
S214006D7800000800000000000000000008100020C6
S214006D88081000209461002005E1010007B50121E4
S214006D9820200DF1070201F039F858B1022301212D
S214006DA820200DF107028DF8073001F03FF803B0F8
S214006DB85DF804FB9DF807100229F8D0022209485E
S214006DC815F004FD022301210DF1070220208DF89D
S214006DD8073001F02BF82BF07BF94FF4FA6000F03F
S214006DE85DFEE4E730CA030038B501F0E3FF01F0C2
S214006DF8ABF9012805D001F0A7F9022801D001F067
S214006E08C9F9064D2B783BB901F09EF901280446CE
S214006E1802D12BF0E6F92C7038BD00BFEC5A0020E2
S214006E2810B5044600882BF027F9A37884F84400A8
S214006E38834202BF0123E3702371074B04F11C0051
S214006E48C4E9073401F038F8224620880349BDE82B
S214006E58104000F075BF00BF171E0300E11D0300B9
S214006E6870B5C37804460D461646002B34D1D1B10A
S214006E78214815F0ABFC0123E370E36CA6600BB168
S214006E88E06D9847E368F61A63699E4221D2217E30
S214006E981A480131C9B2217615F098FCA36D13B1D2
S214006EA8217EE06D9847E5702BF025F915B3237918
S214006EB803BBA268238A801A83421BD80123104882
S214006EC8237115F083FC236DA3B1E06DBDE8704017
S214006ED8184701232376E6E70029E4D1094815F088
S214006EE875FC636DE660E5702571002BDBD0E06D00
S214006EF89847D8E770BD00BF58CA030069CA0300A0
S214006F0897CA030084CA030070B51E4683880446E1
S214006F180D46C18002810BB1868070BD81780088DD
S214006F282AF096FF0123E370064BA680C4E90334D3
S214006F380C34204600F0C0FF29462046BDE87040C5
S214006F482BF0D0B8631E030010B501790446B1FAD9
S214006F5881F1008849092AF0F2FF21796088B1FAA0
S214006F6881F149092AF0EBFF034B1A68A24204BFD5
S214006F7800221A6010BD00BFD415002070B54379F2
S214006F880446A3B100880E4E04F10805336813B111
S214006F980C4B1B786BB121792AF0D1FF64210A4B80
S214006FA83460A3602846BDE870402BF09BB8408844
S214006FB8E9E7064815F00AFC054B3221A360F1E71D
S214006FC8D4150020ED5A0020516F0000ADCA03000A
S214006FD8856F000010B50446E0B10F4815F0F6FBC3
S214006FE801236371A37953B9217920882AF0A7FF72
S214006FF8236B7BB1606B0121BDE810401847204623
S214007008FFF7A2FF04F108002BF071F82046FFF7FF
S214007018B5FFEDE710BD00BFE3CA030010B5044690
S214007028F8B1104815F0D2FB00236371A3796BB949
S21400703821792088B1FA81F149092AF080FF236B6B
S2140070487BB1606B0021BDE8104018472046FFF76B
S2140070587BFF04F108002BF04AF82046FFF78EFF66
S214007068EDE710BDEECA030010B5044668B1074840
S21400707815F0ACFB637920461BB1BDE81040FFF75E
S214007088CDBFBDE81040FFF7A5BF10BDFACA030084
S21400709810B50E4C0E48214615F098FB82210D4877
S2140070A815F094FB82210220A21E00F0BFFE0146C6
S2140070B830B134F8022C0848BDE8104015F086BBFD
S2140070C80648BDE8104015F081BB00BF7A55002081
S2140070D809CB030024CB03002FCB030073CB03009C
S2140070E838B5114C82212246022000F08FFEA51CDE
S2140070F8014688B122880D4815F068FB2A460C4BD5
S21400710803F12C0153F8040B8B4242F8040BF9D117
S2140071181B7813702C23238035F8021C054A064872
S214007128BDE8384015F052BB785500207ECB0300EA
S214007138FECB03007A550020DCCB0300034B1B78FC
S2140071481BB18B4201D82AF0C3BF7047B06A002033
S21400715810B5044601460E4815F038FB012C11D12F
S2140071680C4B0D481A884FF6FF739A421EBF002232
S214007178094B5A742AF0C9FE01F072FFBDE81040A8
S21400718801F044BE0448BDE810402AF0C0BE00BF67
S2140071982BCC0300646A00200065002070B500242C
S2140071A81A4D1B4E3378A3421BDC0024194D1A4E89
S2140071B83378A3421BDC0024184D194E3378A342BB
S2140071C81BDC00F0C1FF012816481CD12AF09DFEE2
S2140071D801F046FF01F01AFEBDE87040124800F0C4
S2140071E8D3BF2846FFF71CFE01346035DAE7284689
S2140071F82AF071FE01343435DAE728462AF0A4FE70
S21400720801343835DAE72AF082FEE5E73022002036
S214007218F35A002050260020F45A002000200020B0
S214007228F25A002000650020597100002DE9F04F41
S21400723887B0FFF755FFB94B05A805932AF0A8FEB7
S214007248054616F0DDFAB64CC2B21F2A627004D99B
S214007258B44815F0BBFA00F015FC2946A01C16F039
S21400726863FD05A82AF094FE054616F0C9FAC2B2D0
S2140072781F2A84F8212001D9AB48EAE7294604F1F9
S214007288220016F051FD05A82AF082FE3226044692
S21400729800272578002D40F09F80A44CFFF77EFF3E
S2140072A82378DFF8C8A2DFF8C882A14F00939AF8BF
S2140072B8003098F8002039789E4815F087FA3A7812
S2140072C898F800109AF8000053180344DFF894B2B0
S2140072D820782C4603445846DBB2AA4200F3E482E0
S2140072E8012B38BF0123944E0293324600233546BD
S2140072F84FF482714FF6FF74029801339842137068
S2140073085180948002F10C02F6DC8C4B8A49844842
S214007318AB6000F0EFFFE879AB68DFF8449200EB6B
S214007328400003EB800000F0BBFDEB79B9F80020C5
S2140073380133A242EB7103D07F49814801F0DCF8A3
S2140073484FF6FF73B9F800207B49D21A18BF0122FE
S2140073587C4801F09BFC4FF00009784C3A784A4587
S21400736800F3CA8200264FF00C09774ADFF8C8B146
S21400737898F800003978B04200F3D28246180C21FB
S214007388002501FB06B19AF800009423A8426F4A2C
S21400739800F3E4820C253E7898F8003000274FF07A
S2140073A870081E44064405FB06B5DFF8C8A15F4B07
S2140073B81B78BB4200F3E58202995F4800F0FEFDA9
S2140073C8059B56491A468B4240F0EE82604807B045
S2140073D8BDE8F04F15F0FAB9532D0FD163784C2B52
S2140073E840F04881A378502B40F044810122594B45
S2140073F81A7005A82AF0CCFD04464AE7442D13D196
S2140074086378303B092BF4D8601C2AF0CEFD524B2B
S214007418524A1978002386B2994202F16002E8DDE2
S21400742822F8466C0133F7E7422D0BD16378542BCC
S21400743854D1A01C00F0D2FC494B188018462AF0FC
S214007448A8FCD6E7582D33D8412DD2D9433D152D63
S214007458CFD801A353F825F01F780000FB7300006F
S214007468FB730000FB730000FB730000FB73000057
S214007478CF750000FB730000FB73000081750000E9
S214007488CB740000FB730000FB730000FB73000066
S214007498FB730000017700007D760000FB73000098
S2140074A8FB730000FB730000FB7300007777000097
S2140074B8692D9ED1601C2AF078FD80B22AF004FE61
S2140074C897E71B4B012019780023264A994202F1B8
S2140074D8D4028EDD02F8D20C0133F7E7601C00F008
S2140074E87DFC0546E01C2AF0D8FD01210246284608
S2140074F82AF08FFD60211848184C03785943621803
S21400750865524FF4FA6111824FF448715161164979
S21400751856831165013303706BE700BF7A55002068
S214007528146400204ACC030061CC0300EE5A002005
S214007538F15A002071CC0300A0160020181700206E
S21400754850160020D8150020A41B0020E81900209B
S214007558C1CC0300ED5A0020F35A00203022002048
S214007568646A0020A41C0020831F0300EF5A002032
S214007578F05A002098180020601C00F02FFC00220B
S2140075884FF034088146CC4F11462AF042FD387831
S214007598CA4D08FB00F325F80390EA18E37810466E
S2140075A8693B18BF012393702AF095FC0021C44A52
S2140075B83B785160012103FB08550B443B7015606E
S2140075C80F46117415E7601C00F008FC00221146EF
S2140075D881462AF01EFD3422B74DDFF8E08228786F
S2140075E802FB00F328F8039008EB0301E37808464B
S2140075F8693B18BF01238B702AF06DFCB14A002343
S2140076081046916B31BB00EB831034232A7802FBBB
S21400761803838363AC4A00231046D2F8A410F9B952
S214007628D42202FB030034232A7802FB0383C0F823
S214007638A4305FB9A24A3B46114652F8040BA8B9D3
S2140076483422287800FB028241F823202B78013365
S2140076582B70CEE60133042B02F14002D1D1D9E7D4
S2140076680133042B02F1D402D7D1E2E70133042B0D
S214007678E3D1EBE7601C00F0B1FB8046E01C2AF083
S2140076880CFD0121024640462AF0C3FC60218F48C3
S2140076988F4D0278DFF854C251436B1825F80180E5
S2140076A84FF44871198259618A495E839965E17871
S2140076B8D424642904BF012199709CF80030DFF8AF
S2140076C808E25C430EEB04010EF804304FF4007435
S2140076D84C8003240C718C7102EB420405EB4415B4
S2140076E832240133DBB201324B718D6081F8A04041
S2140076F802708CF800307CE6601C00F06FFB0022FD
S2140077084FF0380A8146DFF8DC8111462AF081FC02
S21400771898F80030704D0AFB03F325F803904FF0F5
S2140077280109EA1882F80490E37873B1E01C00F0C7
S21400773855FB0022044611462AF06BFC98F80030E8
S2140077480AFB03535C8083F8069064485D4A037816
S2140077589901535498F8001002EB8314C1EBC10248
S21400776805EBC2054A1C656388F80020D2E6601C53
S21400777800F034FB8046E01C00F030FB0546601D38
S2140077882AF08BFC04460246012140462AF041FCBA
S2140077982246284601212AF03CFC60204FF4487C0B
S2140077A8DFF828E14A4A9EF8003000FB03F422F886
S2140077B80480DFF820811119A1F810C0C1F814C0A0
S2140077C84E83C1F85880591CC9B248431418A4F807
S2140077D810C0C4F814C06683C4F8588094241552A0
S2140077E83F4D981C8EF800002878DFF804C1444303
S2140077F803EB430301EB41010CEB040E02EB4313CE
S21400780802EB41120CF80400CEF80430CEF808203B
S21400781801302870EDE5601C00F0E0FA8046E01CB8
S21400782800F0DCFA00220546114640462AF0F1FB35
S21400783800223824114628462AF0EBFB2948264A17
S21400784803784FF0000E04FB03FC22F80C804FF080
S214007858010802EB0C0181F806E081F8048003EBCE
S2140078680801C9B24C4302EB040C15539C1C047067
S21400787870241D4D8CF806E028788CF80480444364
S214007888DFF870C0C3EBC303C1EBC1010CEB040EF9
S21400789802EBC30302EBC1020CF80400CEF8043076
S2140078A8CEF808204044B4E7467901358E4284BFB6
S2140078B804714471D43010E5F45A00205026002094
S2140078C800650020A41B0020A41C0020F35A0020FA
S2140078D8302200204571000000200020F05A0020C9
S2140078E8EF5A0020F25A0020EE5A0020F15A0020E3
S2140078F8E819002098180020B9F1000F06D016F8ED
S214007908052C02EB420204EB8204B460314658466A
S21400791801F084FD09F101090BF1D40B0C361DE5C5
S21400792871180AD0481E09FB00B0C07900EB400069
S21400793804EB800409FB01B08460104609FB015182
S214007948039201F01FFB39781C48314409FB0151AA
S21400795801F086F8039A0136403209E5F54218BF69
S21400796811F8050C03911EBF00EB400004EB8004E1
S2140079788C6003FB052000F083FF039901350C316A
S21400798801E5F74218BF15F8053C29461CBF03EB6E
S214007998430304EB830408FB07A018BFAC6000F0A1
S2140079A845FE01370C3502E513F8011D00297FF462
S2140079B808AD3B2102F8011C03E500BFF41F0020B8
S2140079C807B5012121200DF1070200F01FFA18B9AA
S2140079D89DF80720024B1A7003B05DF804FB00BF41
S2140079E8B06A002007B5064B8DF80700187001210D
S2140079F80DF10702212000F019FA03B05DF804FB28
S214007A08B06A002007B5022101200DF1060200F039
S214007A18FDF938B9044814F0D9FEBDF8060003B0DD
S214007A285DF804FB0020FAE7DECC030007B5022168
S214007A38ADF806000DF10602012000F0F7F9014640
S214007A4810B1034814F0C2FE03B05DF804FB00BF93
S214007A58FFCC030010B5FFF7D5FF044601460748DC
S214007A6814F0B4FE0121064814F0B0FE24B9BDE8AF
S214007A7810400120FFF7DABF10BD00BF2FCD03006E
S214007A8841CD030008B5044814F0A0FE00F0DEF966
S214007A982AF01EFB2AF019FB57CD030038B504461A
S214007AA8084D094B28462B6000F006FA002C18BF34
S214007AB821462846BDE8384008BF4FF496712AF09C
S214007AC811BB00BF54270020D11F03002DE9F04347
S214007AD8394D93B008AC0746894690460FCD0FC47B
S214007AE80FCD00260FC495E803000323012584E87C
S214007AF80300324C3248CDE90366CDE905668DF8B9
S214007B080E300796029534F008FD2E4834F005FD31
S214007B1832462D4920468DF8176005F029F8334679
S214007B2832462A498DF81900009020468DF8239091
S214007B38CDF82C808DF8216005F034F80A902046A0
S214007B488DF8097004F094FF204608AA05A905F0E8
S214007B584FF802AA204603A92BF0C5FB4FF4007283
S214007B681B4B5A62194BE560626A920510D46BB9D2
S214007B784FF40072164B11485A6204F079FF114808
S214007B8834F0CEFC002013B0BDE8F083013BEBE7F1
S214007B98002BEDD0094908A82BF0D8FB4FF400724B
S214007BA80B4B06485A6204F063FF064834F0B8FCEC
S214007BB8BDF82000E7E700BF1C6904000040005A33
S214007BC86C6B0400686B040080841E0040420F0043
S214007BD80060005A0122034B1870034B1980034BB0
S214007BE81A707047F65A00206C6A0020F55A002072
S214007BF8F8B5454B1B780BB90020F8BD434B1B78EE
S214007C08012B03D1BDE8F8402AF0E1B9404B1C88A7
S214007C184FF6FF739C42EFD03E4834F07EFC0023BC
S214007C28260AE4B21A462146304604F0E1FE012E42
S214007C38354604F0010335D015D9B51E012DDBD81D
S214007C48002B0BBF4FF480754FF080754FF47061B2
S214007C584FF070610BBF01274FF480370F204FF4A9
S214007C6870202D4B11E0002B0BBF4FF480754FF0A2
S214007C7880754FF470614FF070610BBF01274FF4A9
S214007C8880370F204FF47020244B1A6802401CD00F
S214007C98BA421AD01A680A4032D11A6822EA010291
S214007CA82A4316E0002B0BBF4FF480754FF0807503
S214007CB84FF470614FF070610BBF01274FF48037A7
S214007CC80F204FF47020164BDFE71A6822EA0002EE
S214007CD83A431A602AF07BF9054600288CD0083605
S214007CE844EA06102A460321C0B2FFF7EFFE40F624
S214007CF8FF73684300F2FF70B0FBF3F080B27CE7D6
S214007D0895427FF479AFC8E7F55A0020F65A002066
S214007D186C6A00206C6B040028C3035020C3035011
S214007D2824C3035010B5044C237823B9034834F011
S214007D38F4FB0123237010BDF85A00206C6B040076
S214007D482DE9F0431F4C85B0074688469146FFF755
S214007D58E9FF23781BB902F0F1F8012323707BBAF8
S214007D68ADF80C3030220023174E02FB03F4315DC9
S214007D78A51901BB012333554FF0FF3304F110005A
S214007D8812493044AB606F80C5F80480C5F80C9083
S214007D9809F0CCFB04F10801042231440C4B009591
S214007DA803A802F0A1F9A96802460A4814F00EFDD5
S214007DB805B0BDE8F0830133102BD6D1064814F081
S214007DC805FDF5E7F75A00207C270020FB1F030077
S214007DD80D20030064CD030092CD030080B1027825
S214007DE8A2F14103032B0BD840783038C0B20828DC
S214007DF806D8054B134413F8413C40EA0320704765
S214007E084FF6FF70704700BF4469040008B50B467C
S214007E1842B101460448006803F0AEFABDE80840DF
S214007E282AF04CB9022008BD6C65002008B50B4640
S214007E3842B101460448006803F026FCBDE8084045
S214007E482AF03CB9022008BD6C650020F0B5002673
S214007E58124F8DB0FF2300930A223346386802A9D2
S214007E682AF0E6FFC0B102AB1D4603EB800404E02F
S214007E7855F8043BB34228BF5E1CAC423868E9D9C3
S214007E88296803F087FD0028F2D02D28F0D00DB021
S214007E98BDE8F0402AF012B90DB0F0BD6C650020C0
S214007EA828B1034B0360034B43600023836070478D
S214007EB81900000314650020FF2307B50021044AB3
S214007EC80093083009F0B6FA03B05DF804FB00BF6B
S214007ED8E72003000B460449024608680349097868
S214007EE808B12AF023B97047882A0020FA5A0020D9
S214007EF8F7B50C4618B12921194834F074FB2468E4
S214007F0823685E795F8830463946FFF7E3FFF0B1AD
S214007F188568E5B1A089227D3946904291BF002048
S214007F28801AA36880B294BF03469B18E27C009030
S214007F383046A8470138032803D8DFE800F0080FC2
S214007F480B0D002420462EF0E8F8204600E081209D
S214007F5803B0F0BD8024F5E79324F3E78724F1E720
S214007F68BACD0300F8B515460D4A044610680D4A02
S214007F780B46117850B122462AF0D8F8034628B1A5
S214007F8800210C27C678B14201DB0020F8BD07FBAC
S214007F9801F45A681019125BAA42F7D00131F2E7C9
S214007FA8882A0020FA5A002008B5034B1B6803B13C
S214007FB89847002008BD00BF842A00202DE9F74F07
S214007FC804460D460026454B454F1860454B19702C
S214007FD833010021F85C013610F0FCFA0C2EF7D1BC
S214007FE80C2D28BF0C254FF0000901953C4EDFF8F4
S214007FF800A13D4DDFF8FC80019B4B4502DC03B039
S214008008BDE8F08F23784FF0000B337063887380D9
S214008018A388B380A379C6F80880B371E379C8F853
S214008028005088F804304FF00003A768A8F8063018
S214008038E3795B450ADC012116F8100B10F0CAFA42
S21400804808F1080809F101090C34D5E74FF00003D8
S21400805838886B812880FB784FF0000C2B81BA7823
S214008068C5F804A0002A00920CBF802240222A737A
S21400807879680AF10C02634513DC03EB43030AEB49
S214008088830ABB6843B1009A4FF6FF71B2FA82F2D0
S214008098164B52092DF0D1FF14350BF1010B0C3796
S2140080A8C6E7B1F800E00CF1010C22F80CEC91F8E8
S2140080B802E00C3202F816EC91F804E00C3102F8F3
S2140080C815EC11F809ECBEF1010F14BF4FF0100EB5
S2140080D84FF0110E02F814ECCDE700BF882A0020F6
S2140080E8E0410020FA5A00208C300020F97E00007B
S2140080F88C2A00200C330020014B1860704700BF04
S214008108802A0020014B1860704700BF842A002090
S21400811870B5128805460E46FFF724FF044670B170
S21400812802790499806815F0C1FC064B1B680BB9E8
S214008138002070BD3146284622889847F8E78620F2
S214008148F7E700BF802A002008B50FF0DFFA0228FC
S21400815806D0012806D0044B18784000C0B208BDE7
S2140081680120FCE70220FAE7F95A0020054B10B573
S2140081781C682CB1FFF7E8FF2346BDE810401847F7
S21400818810BD00BF7C2A0020014B1860704700BF56
S2140081987C2A0020034B1A781AB901221A700BF0B1
S2140081A815BB7047F95A00200022024B1A70FFF7D9
S2140081B8DDBF00BFF95A002037B50446002832D084
S2140081C80FF0A4FA022830D160892EF008FBE07977
S2140081D8237A003818BF0120012B637A08BF40F0C5
S2140081E808000BB140F0100063890BB140F00400A2
S2140081F8257CA188A2790DB1E36873B90C4B10F001
S214008208C5FD2178084610F03DFE2DF011FE002829
S21400821814BF0320002003B030BDCDE90035054B60
S21400822810F0B4FDEDE70220F5E70120F3E700BF04
S214008238851E04004EEE030008B50DF025FC014629
S21400824830B1044814F0C2FABDE808400DF0C0BFCB
S21400825808BD00BF2CCE0300034B044A5B7C0121FB
S21400826803201370FFF7E2BD00650020FB5A0020CC
S21400827810B50446FFF7F0FFB4F57F4F0BD1002486
S2140082880F4B1A8813449C70FEF702FF2046BDE881
S2140082981040FFF703BC4FF601739C4204D1BDE8BB
S2140082A81040084829F019BE4FF602739C4205D1C3
S2140082B8BDE81040044B1878FFF794BB10BD00BF0C
S2140082C87855002000650020B06A002010B5074CDD
S2140082D8012122460320FFF799FD28B92378044A8E
S2140082E8003B18BF0123537410BD00BFFB5A002083
S2140082F800650020F8B5564B564C1A884FF6FF73A3
S2140083089A4218BF03234FF0080218BF2370524B37
S21400831830251A7032225A70DA70DA7134229D705B
S2140083285D7137251A724FF400129D714B4D362633
S214008338C5644B4D426405654A4D012285654A4D24
S2140083481E71C565494D86184566494DC6678566DA
S214008358484D494E0567494D80F848204567202511
S21400836880F8785080F8845000F12105C0F88850CD
S214008378434D80F85420C0F88C5080F8602080F870
S2140083886C20C0F8806080F89020C0F89440C0F850
S214008398B8303C4B3C4CC0F8BC300223C0F8984080
S2140083A83A4C80F8C030C0F8A4400F24384B80F808
S2140083B8A840C0F8C430374B374CC0F8C8308223C2
S2140083C8C0F8AC40354C80F8CC30C0F8B040092432
S2140083D8334B344DC0F8D030334B80F8B440C0F837
S2140083E8D4302C7C314B80F89C20C0F8A00080F854
S2140083F8D820C0F8DC3044B12D4B80F8E420C0F813
S214008408E03005F11103C0F8E8304FF0000CCA79E7
S2140084188E6802EB42039F00443006EB830326F87F
S21400842807C0586001200D349870DC701318CB71A3
S214008438FFF7C6FAFFF74AFFFFF786FE012806D1C0
S2140084482B7C23B1BDE8F840164829F046BDF8BD98
S214008458646A0020B16A0020FC5A00205D690400A6
S214008468010020005C690400020020005B6904002B
S214008478030020005A690400050042000400420078
S21400848807003000FDFF21001200100100404200E6
S2140084985869040000FF44014869040006004200C9
S2140084A8785500200065002002FF2001B06A0020F1
S2140084B801FF100113B504460D4829F075FC642227
S2140084C8C0F30F43637083B2B3FBF2F3A078237054
S2140084D82022012129F04CFEA0782122012129F032
S2140084E847FE0449201D02B0BDE8104029F0FABD39
S2140084F8646A0020E09304000B7870B583704CF62D
S2140085081E0303804FF02013C362012380F8303027
S21400851880F83C30C3180364124B044643640223B5
S214008528114A80F84830114B8263C3644063CA79A5
S2140085388D6802EB420305EB830004F12C064660C7
S2140085480B4E45F8236000238360531CCB71094B00
S214008558201DC4E90134FFF7AFFC2046BDE8704093
S214008568FFF7A8BFFDFF2100210020005E69040078
S21400857801000103BD840000437B044A01211370F7
S21400858800781130C0B2FFF751BC00BF065B002070
S21400859838B504460078054D11302A460121C0B288
S2140085A8FFF734FC08B92B78637338BD065B0020E8
S2140085B8024B53F8200029F0B6BE00BF6C330020EB
S2140085C8012908B506D0022907D049B929F0A2FE24
S2140085D8002008BD29F0A1FEFAE729F0A1FEF7E77A
S2140085E8024814F0F3F80120F3E700BF59CE030061
S2140085F810B4054C114654F820001A46BDF804304D
S2140086085DF8044BFFF7DCBF6C330020002310B581
S214008618044683810364A0F844304830FFF74CFCD6
S214008628014BC4E9123410BD1523030038B50446BF
S2140086380B781A4A43700D4642F82300FFF7E6FF08
S2140086482046FFF7A5FF4FF4401323610123144A81
S2140086582375A261134A84F82030E261124A84F82E
S2140086682C306262114A84F83830A26204F10C0297
S21400867822630F4A04F10D036263E363EA79A8688C
S21400868802EB420300EB830110344C60094C40F8BF
S2140086982340094B8B60531CEB7138BD6C330020AC
S2140086A8055B002008002000B26A002000FF3000AA
S2140086B801FF100102010104F985000010B47024BE
S2140086C8427B0D48013A012904FB020006D0022924
S2140086D808D059B95DF8044B29F01CBE5DF8044B68
S2140086E829F01BBE5DF8044B29F01ABE03485DF856
S2140086F8044B14F06BB800BF9818002075CE030022
S214008708B0F85C302DE9F0418B4204460E4638D06E
S214008718437B077C8BB31C4A12789A422DD370256C
S2140087281A4A013B05FB032390F80F801B7B424641
S21400873829F007FEB845054601D1FF281FD13A465D
S2140087483146204694F8903029F0FBFD2F46054622
S214008758552212216078A4F85C6029F009FDFF2FE5
S21400876803D039462046FFF7A9FFFF2D09D0294632
S2140087782046BDE8F04129F024BEFF25DFE707467E
S214008788E6E7BDE8F08100BFEE5A00209818002002
S21400879841688268C978D27849B112B10321FFF7D7
S2140087A8AFBF837B002B0CBF01210221F7E72AB15C
S2140087B8837B002B0CBF02210121F0E7014814F04F
S2140087C805B800BF86CE0300037BD3B14368DA78CA
S2140087D812B18268D278A2B91B7933B1837B002B99
S2140087E80CBF04210521FFF78BBF83681B792BB1CB
S2140087F8837B002B0CBF05210421F4E7014813F006
S214008808E5BF7047B8CE0300084A437B05211370BE
S214008818837B5370C37B9370037CD370037B137185
S21400882800780E30C0B2FFF701BB00BF075B002020
S21400883838B5044600780C4D0E302A460521C0B2DD
S214008848FFF7E4FA20B1BDE83840084813F0BEBF89
S2140088582B7863736B78A373AB78E373EB78237426
S2140088682B79237338BD00BF075B0020F4CE0300C6
S214008878024B53F8200029F0EEBD00BF94330020C9
S214008888F8B504460B78424A43700D4642F8230072
S214008898404E29F0FEFDFFF7CBFF6268A3683E480E
S2140088A83E49D6641165D4655065C3E91410DE6484
S2140088B8DC654FF0987302266361012304F10C010E
S2140088C8E16137491032216204F10D01A162354990
S2140088D82376E16204F10E016163334984F824309B
S2140088E8A16304F10F012164304984F830306164D3
S2140088F804F11001E1642E4984F83C3084F84830CD
S214008908216584F85460A265E879A96800EB4002FE
S21400891801EB820704F1140CC7F804C04FF4817CFD
S214008928244F41F82270C218D2B202EB420241F834
S21400893822C001EB820700227A601F4A84F8703052
S21400894822661E4A84F88830A2661D4A1D4BE266D7
S2140089581D4AC4F88C3062671C4A8319A26704F162
S2140089685C02C4F88020DBB2194A03EB4303C4F860
S214008978842084F8646084F87C6001EB83026034A9
S2140089885460144A033041F82320E871F8BD00BF4C
S214008998943300209987000021240300D187000023
S2140089A8010020010200100103003001040030011C
S2140089B80500210101FC01064A0021006069040047
S2140089C85100100062690400636904005500210024
S2140089D86F0018001200010470B50D4606461446CE
S2140089E813460A4601461A4813F0F0FE25B92046F3
S2140089F8BDE87040FFF73CBC072D05D12146304640
S214008A08BDE8704000F0CEBC4FF601439D4205D14C
S214008A1821463046BDE87040FFF72ABF062D05D12F
S214008A2821463046BDE8704000F066BAB5F5817F4D
S214008A3805D121463046BDE87040FFF7B9BD202D68
S214008A4804D12046BDE8704000F0ECB870BD00BF09
S214008A5823CF03000148FFF74FBB00BFE1890000A2
S214008A684FF4C01330B5036001230371074B8C68BD
S214008A788360CA7902EB420304EB83056860044806
S214008A8844F82300531CCB7130BD00BF6469040052
S214008A98040001010368064A0C211360436853600A
S214008AA803891381438922205381FFF7BFB900BF8A
S214008AB8BC33002010B50368044686B0FBB11148E5
S214008AC813F084FEA37B104A8DF804304FF48273AB
S214008AD8ADF806300123CDE90223002301A804934C
S214008AE88DF81430FFF768FB2046618929F0E1FC11
S214008AF82046FA2150F8143B594329F0F3FA06B0F9
S214008B0810BD00BF56CF03002000000110B5064C6C
S214008B18236843B1054813F059FE2068BDE81040A5
S214008B28418929F0C6BC10BDC833002077CF0300A2
S214008B3870B5364910460C68BDF81020002C5ED07B
S214008B4803285CD8DFE800F0021E2745002B5AD021
S214008B58022A58D91D78B3F80160291E18BF0121CA
S214008B6832462B4813F032FE2DB13146204629F006
S214008B78A0FC002070BDE573FA206368584329F00E
S214008B8838FBF6E7234813F021FEE37B002B38D0AA
S214008B980023E373F0E7002B35D0032A33D91D688A
S214008BA81D48294613F012FE1C4B2A1F9A4201D96B
S214008BB80220DFE723680BB19D42F9D823899D423E
S214008BC8F6D3E37B6560B3B9FA20684329F011FB56
S214008BD811E0002BCED0012ACCD91D881048294692
S214008BE813F0F4FD002DE3D063689D42E0D8E37BE4
S214008BF82581002BE8D12046FFF74CFFB9E7012076
S214008C08B8E70420B6E70320B4E700BFC83300205F
S214008C189ACF0300D1CF0300F0CF0300FCFF6D000E
S214008C281BD0030038B5154B1C6834B3F0B921685F
S214008C38134813F0CBFD23683BB16268934204D215
S214008C48104813F0C3FD6368236004F11405284632
S214008C5829F04DFA236823B1FA212846594329F00A
S214008C6841FA2046BDE83840FFF714BF032804D170
S214008C786189054813F0AAFDF3E738BDC83300201C
S214008C8846D0030074D00300A9D0030070B53E4B4D
S214008C980D46044609781860002A6FD101231A4643
S214008CA8A1730021E1730121A1814FF46151C4E948
S214008CB800132823354E22810C2132462220638158
S214008CC8FFF7A4F860B9D6E900230AB19A4207D399
S214008CD8318999429FBFC4E9002373892181638142
S214008CE82B4B2C4AE363042384F8403084F84C303A
S214008CF8E3182365284BA2646365022304F108027F
S214008D08E265264A84F85830226604F10A02A2660A
S214008D18234A84F8643084F8703004F10C03E26661
S214008D2863676464EA79A86802EB420300EB830190
S214008D3804F13C064E601B4E40F82360FA261A4B98
S214008D481A488B60531CEB71FFF7DCF9208904F195
S214008D581405704329F04DFA6189204629F0A9FBCD
S214008D68134B2846C4E90534FFF7A6F8216849B12D
S214008D7828467143BDE8704029F0B4B94FF4F07343
S214008D8802228DE770BD00BFC8330020BC33002028
S214008D980000230101002300020021000300210136
S214008DA8FDFF210020000105398B0000158B00000F
S214008DB8BD8A0000134B10B51C680CB3E37BEBB1FF
S214008DC829F099F92369C01A002809DB0E4813F020
S214008DD8FDFC0023FA20E3736368584329F009FA78
S214008DE8E37B5BB12489FA235C4329F00DFAA042A1
S214008DF806D02046BDE8104029F0FBB96468F2E7C3
S214008E0810BD00BFC8330020D6D0030038B50024F4
S214008E18044D55F8040B08B129F05EFB01340A2C02
S214008E28F7D138BDCC330020042908B50AD172B171
S214008E386BB113781BB929F07AFB002008BD29F01E
S214008E486CFBFAE7034813F0C1FC0120F6E70320A1
S214008E58F4E700BF10D1030010B4054C114654F8CF
S214008E6820001A46BDF804305DF8044BFFF7DCBF57
S214008E78CC3300200229024608B50ED004D839B9EA
S214008E88104629F054FB06E04029F9D0412907D1BD
S214008E98104629F042FB002008BD29F052FBFAE7ED
S214008EA8024813F093FC0120F6E700BF30D1030018
S214008EB810B4054C114654F820001A46BDF8043084
S214008EC85DF8044BFFF7D6BFCC330020426B094B46
S214008ED852791A7082785A70C2789A70826B12B178
S214008EE890F83C20DA70007804210930014AC0B2B4
S214008EF8FEF79CBF0C5B0020024B53F8200029F0BD
S214008F083CBB00BFCC33002038B504460078084D7B
S214008F1809302A460421C0B2FEF778FF30B96B78CC
S214008F28A370AB78E370EB7884F83C3038BD00BFAC
S214008F380C5B002038B504460078114D09302A46E7
S214008F480421C0B2FEF762FFC8B9A3782A78022BBC
S214008F580CD004D863B9204629F0E9FA01E0FF2BC3
S214008F680AD02046BDE8384029F0B6BA002AF2D121
S214008F78204629F0D2FAF4E7002AF9D1EBE738BD03
S214008F880C5B0020F8B504460B78284A0D4642F8D4
S214008F9823004370FFF7B8FF636B254A5C631A63C8
S214008FA82046FFF7C7FF204629F096FA4FF48013AD
S214008FB863600123626BA66B0532E2601D4A23726A
S214008FC82261A21C2375A26166B11B4A84F8203070
S214008FD8E261E21C6262194A84F82C3004F13C0310
S214008FE8A26223630627EA79A96802EB4203002EE9
S214008FF821F8237001EB83000CBF02230423C370FF
S214009008012383700E4B04348360531C4460DBB228
S2140090180C4C03EB430341F8234001EB8300002389
S2140090284360094B02328360EA71F8BDCC330020F6
S2140090385F2503000340300101FF300102FF1001E5
S214009048B98E000008000100618E000028B1034BAD
S2140090581B78834234BF002001207047F05A002056
S21400906870B500250A4C0B4E3378AB4200DC70BD59
S214009078D4F8A42042B123791BB16079FFF7E6FF44
S21400908810B9104628F01AFF0135D434ECE700BFB3
S214009098A41C0020F15A002008B542790146104663
S2140090A8FFF7D4FFA8B1CB780A48013A042B00EBA7
S2140090B882100ED8012B08D81BB9BDE8084029F045
S2140090C82CBABDE8084029F032BABDE8084029F0B5
S2140090D838BA08BDA41B002008B5427901461046D8
S2140090E8FFF7B4FFA8B1CB780A48013A042B00EB87
S2140090F882100ED8012B08D81BB9BDE8084029F005
S21400910816BABDE8084029F008BABDE8084029F0B4
S21400911818BA08BDA41B002010B586B00446FFF791
S21400912813F8012830D1E278042A2DD8DFE802F0B7
S21400913813323403030061790846FFF787FF58B3F4
S2140091481648032A00EB811050F80C3C58791DD1BC
S214009158003818BF012063784FF480728DF8043009
S2140091684FF48273ADF806300623ADF808300123B5
S2140091788DF80B3000238DF80A0001A8CDE90323EB
S2140091888DF81430FFF718F806B010BDB0FA80F066
S2140091984009E0E70020DEE70220DCE7A41B002009
S2140091A810B586B00446FEF7CFFF012830D1E27826
S2140091B8042A2DD8DFE802F013133203030061797E
S2140091C80846FFF743FF48B31548032A00EB81100B
S2140091D850F80C3C5B791DD11A1E18BF0122637823
S2140091E88DF80A208DF804304FF48273ADF80630F7
S2140091F80623ADF8083001234FF480728DF80B3043
S214009208002301A8CDE903238DF81430FEF7D4FF18
S21400921806B010BDB3FA83F25209E0E70222DEE791
S214009228A41B002010B586B00446FEF78DFF012863
S21400923812D16378094A8DF804304FF48273ADF87A
S21400924806304FF48073CDE90223002301A8049367
S2140092588DF81430FEF7B0FF06B010BD0800070101
S21400926810B586B00446FEF76FFF012820D1627855
S214009278104B8DF804204FF4827294F8A01094F8DE
S214009288A10059701870ADF8062004934FF4807248
S2140092980223094901A88DF81430CDE90212FEF719
S2140092A88BFF94F8A130013B18BF012384F8A13046
S2140092B806B010BD105B00200800050110B58378C5
S2140092C804464BB30379022B0AD142791046FFF7BE
S2140092D8BDFE28B11148013A00EB821029F031F999
S2140092E8A379022B02D12046FFF716FF2046FFF788
S2140092F8B7FF012384F8A830022360781221A4F867
S2140093086C30552228F034FF04F1AC004FF47A7123
S214009318BDE8104028F0E6BE10BD00BFA41B002024
S2140093284388094A082113808388538083681B8AE8
S214009338938090F8A03093718379D37100780430C5
S214009348C0B2FEF773BD00BFFA55002038B50D460B
S21400935804460178114813F039FA4FF602739D4215
S2140093680ED10F4B1B782BB963712046BDE83840E9
S214009378FFF7D6BF62790AB19342F6D20123F3E724
S214009388B5F57F4FF1D1204629F0A0F9A378022B36
S2140093980CBF01220022A3689A70E6E74CD10300AE
S2140093A8F05A0020024B53F82000FFF7CFBF00BF4B
S2140093B8F433002038B504460078144D04302A46A5
S2140093C80821C0B2FEF722FD20B1BDE8384010489B
S2140093D813F0FCB92B8863806B88E978A380AA8889
S2140093E8A3681A82AB7984F8A030EB79A371094B8D
S2140093F81B780BB9637138BD09B19942FBD9064889
S21400940813F0E4F923780133F4E700BFFA55002097
S21400941866D10300F05A00208FD10300F8B5044641
S2140094280B784B4A0D4642F823004370FFF7C2FFFD
S214009438484B04F1AC00C4E92B34FEF73DFDA268A6
S214009448454BD465D364454B02265365444BA11C53
S21400945813654FF44013E36001236161E1624149FB
S214009468103221632265211D3F4AA1633F484049C7
S214009478626504F1A002A061E163E265E01C611D7B
S2140094883C4A206261643C483C492266A21D23741B
S214009498237784F8283084F8343084F84030A16480
S2140094A884F84C6084F8583084F864306062A266A9
S2140094B8E879AA6800EB400102EB810704F10C0C7E
S2140094C8C7F804C04FF0060C2D4F42F82170C1189B
S2140094D8C9B201EB410142F821C002EB8107002125
S2140094E87960284F84F880302767274F84F89830AB
S2140094F8A767264F264BE767264F84F8746084F8DC
S2140095088C60C4F89C3004F16C06831CC4F8847024
S214009518C4F89060204F214EDBB203EB4303C4F837
S2140095289460C4F8887002EB83067034746008266A
S2140095381B4C42F82340C31CDBB203EB430302EB8D
S2140095488304043042F823606160E871F8BD00BF08
S214009558F4330020A925030011260300692603001A
S214009568C592000001FF300104FF20011000300101
S21400957802FF200105FF300100FF300103FF210133
S214009588070001084A00210066690400510010001F
S2140095986869040069690400550021006F00180016
S2140095A81200010400239B6AB3F5C04F03D2196862
S2140095B8064A914203D00023037083607047012255
S2140095C802709A689B694260F7E700BF07B0CD5EF5
S2140095D8024B034A1A602AF0C9BA00BF00000020EE
S2140095E802020FF073B5534B04461A781AB10222DA
S2140095F81A7002B070BDCDE900220028F9D0012605
S2140096081E7032F069FF4C4D4C4B186017F0E0FAAC
S2140096182B785BB902F062FA40B949480823494AF0
S2140096284949006801F0A8FE00B92E70474B5A6EEB
S21400963862619B6E464AA3614FF40043936603F14A
S21400964888435968E16143499960196E2160596EEB
S2140096586160D3F87011A160196CE160596C2161E2
S2140096683D49086C1864496C5964012151664FF4E9
S214009678005191661A6E560436D53849CA68D4071A
S214009688FCD45B6E5A0434D5354AD36B13F0430FBB
S214009698FBD1344B1A68531C31D04FF40013934057
S2140096A8314A13660423304C684623664FF48063B9
S2140096B82366102323664FF4005323664FF0804337
S2140096C823664FF4804301A9636629F017F8009BC8
S2140096D82366019B63662B78002B8AD0194B1A6881
S2140096E822665B68636684E72049CA68D007FCD4AC
S2140096F8C7E71F4AD36B13F0430FFBD1C9E71D4BCF
S2140097081B78002BCED14FF48072114B5A661A4A3A
S21400971852681AB94FF40011134A11664FF40072D2
S2140097285A66164B5B68002BBCD14FF480020E4B72
S2140097381A66B7E7135B0020145B00203C34002051
S2140097486C6500204034002000710800008000503E
S2140097580090005055CEAC0000C0005400000440F5
S2140097680000024C386500200090004400000450B9
S2140097780000025C125B002000C005500000065086
S21400978870B52C4D04462E78012E02D001232B707E
S21400979870BD0028FCD028F0D6FF01300BD028F08A
S2140097A8D2FF40F20113984205D0234B234A5E6647
S2140097B8D368DE07FCD4224B22491B6E13F0040F35
S2140097C84FF4005314BF1C4A1F4A9366CA6B12F024
S2140097D84302FBD121681A4B196661685966A1686D
S2140097E8C3F87011E168196421695964E169C8070A
S2140097F848BF9A60154B1A6801320DD1144A127880
S21400980852B914494968C90748BF1A60124A5268CB
S214009818D20744BF01221A606269104B5A66A269D1
S2140098289A6617F0DDF90E4B186832F050FE0023E2
S214009838ADE700BF135B0020009000400000044026
S214009848008000440000024C00900050386500205C
S214009858125B002000C00550000006500080005033
S2140098683C34002070B50024A36AB3F5C04F23D259
S2140098781A68134B9A421FD1124E337813F0FD051F
S21400988818D14FF480341048FFF7ACFE032004F0DC
S214009898B9FC0E4B0320DC6004F098FC0C4B1C61F2
S2140098A8AB6ADB69984704460748FFF769FF0CB9B7
S2140098B801233370204670BD4FF48174FAE700BF69
S2140098C807B0CD5E125B00201C34002000A00044C8
S2140098D80090004413B5204B1B7803B9FEE700231D
S2140098E81E4CCDE900336A4608231D49206801F05E
S2140098F843FDF8B91B4AD2F84031D2F840211F2B55
S2140099084FF0010311D9203A9340019A1A43019265
S21400991808236A461249206801F0B6FE124B134A1D
S2140099281A602AF023F902B010BD9340009A1A4331
S2140099380092EDE72D28F1D10A4AD2F84031D2F844
S21400994840211F2B4FF0010385BF203A93409340D8
S214009958019398BF0093DBE7135B00206C6500203B
S2140099680071080000800044000000200B020FF081
S21400997838B50025AB6A0446B3F5C04F10D21B6B4A
S214009988B3F5C04F0CD20748FFF72CFEAB6A20464B
S2140099981B6B5B689847BDE838400248FFF7F0BE87
S2140099A838BD00BF4834002013B50024A36A0190D0
S2140099B8B3F5C04F13D21B6BB3F5C04F0FD209488F
S2140099C8FFF710FEA36A01211B6B01A89B69984745
S2140099D804460448FFF7D4FE204602B010BD4FF4F4
S2140099E88174F9E74834002070B50026B36A044647
S2140099F8B3F5C04F0D4612D21B6BB3F5C04F0ED24F
S214009A080848FFF7EFFDB36A20461B6B29469B699B
S214009A18984704460348FFF7B3FE204670BD4FF448
S214009A288174FAE74834002070B50026B36A044605
S214009A38B3F5C04F0D4612D21B6BB3F5C04F0ED20E
S214009A480848FFF7CFFDB36A20461B6B2946DB693B
S214009A58984704460348FFF793FE204670BD4FF428
S214009A688174FAE748340020F8B50027BB6A044634
S214009A78B3F5C04F0D46164611D21B6B7BB109488D
S214009A88FFF7B0FDBB6A20461B6B324629465B6A69
S214009A98984704460348FFF773FE2046F8BD4FF480
S214009AA80174FAE74834002070B50026B36A044605
S214009AB8B3F5C04F0D4612D21B6BB3F5C04F0ED28E
S214009AC80848FFF78FFDB36A20461B6B29469B6A3A
S214009AD8984704460348FFF753FE204670BD4FF4E8
S214009AE80174FAE748340020F0B50027BB6A04463C
S214009AF8B3F5C04F0D461646ADF5177D20D21B6B45
S214009B08B3F5C04F1CD21048FFF76CFDBB6A204661
S214009B181B6B40F251225B6A01A99847044630B194
S214009B280948FFF72DFE20460DF5177DF0BD836A20
S214009B3832461B6B2946DB6A01A898470446EFE7BE
S214009B484FF40174EFE700BF4834002010B5002436
S214009B58A36AB3F5C04F10D21B6BB3F5C04F0CD237
S214009B680748FFF73FFDA36A1B6B1B6B9847044625
S214009B780348FFF705FE204610BD0124FBE700BF9B
S214009B8848340020F0B58FB0044601A80E461546A6
S214009B98FFF7EEFE9DF80C30012B12D1B5F5002F1D
S214009BA827D8B4F5002F24D86319B3F5002F20D88A
S214009BB821462A46304614F0B7F8002420460FB04F
S214009BC8F0BD0027BB6AB3F5C04F15D21B6BB3F5C3
S214009BD8C04F11D20A48FFF705FDBB6A2A461B6B21
S214009BE8314620465B6B984704460548FFF7C8FD94
S214009BF8E4E740F20244E1E740F20114DEE700BF82
S214009C0848340020F0B58FB0044601A80E46154625
S214009C18FFF7AEFE9DF80C30012B1FD1B5F5002FCF
S214009C2806D8B4F5002F03D86319B3F5002F13D957
S214009C3840F2024420460FB0F0BDE258013225D16A
S214009C4804339D42F9D82A463146204600F082F869
S214009C580028EDD00024EDE70023F2E70027BB6AD2
S214009C68B3F5C04F15D21B6BB3F5C04F11D20A48D7
S214009C78FFF7B8FCBB6A2A461B6B314620469B6B2F
S214009C88984704460448FFF77BFDD3E740F20344B1
S214009C98D0E740F20114CDE74834002070B58EB006
S214009CA8044601A80D46FFF763FE9DF80C30012B0D
S214009CB822D144EA0503C3F30C03002B33D1B5F5D0
S214009CC8002F04D940F2024420460EB070BDB4F509
S214009CD8002FF7D82544B5F5002FF3D8204604F50D
S214009CE8005400F029F8AC4202D00028F6D1E9E783
S214009CF80028E7D00024E7E70026B36AB3F5C04F8C
S214009D0814D21B6BB3F5C04F10D20A48FFF76AFC93
S214009D18B36A29461B6B2046DB6B98470446054802
S214009D28FFF72EFDD0E740F20444CDE740F20114D9
S214009D38CAE700BF483400204FF4003208B5044B89
S214009D489A6632F06DFEB0FA80F0400908BD00BF92
S214009D5800900050134610B562B103439B070BD121
S214009D684FF40034054B9C6632F052FEB0FA80F091
S214009D78400910BD0120FCE70020FAE700900050DB
S214009D88BFF34F8F0549064BCA6802F4E0621343D7
S214009D98CB60BFF34F8F00BFFDE700BF00ED00E0CC
S214009DA80400FA0570B5D0B1C9B10E4E431E01398C
S214009DB813F8014F2046325D02F00302012A11F81B
S214009DC8012F08BF04F12000B55C05F00305012D3E
S214009DD808BF2032801A01D1002CE9D170BD0120BD
S214009DE8FCE700BFFD9004000348044A0449121A21
S214009DF8921028F00DBD00BF4061000018630000F7
S214009E083062002008B5154B83F30A8800F030F856
S214009E18FFF7EAFF124B13498B4212D30020124B6E
S214009E2812498B4218D3FCF77DFF186850F8224079
S214009E38586840F82240013298688242F5D30C33BD
S214009E48EAE70022F8E71C6844F8220001325C685A
S214009E58A242F8D30833E4E70022F8E70800002017
S214009E6828CD040034CD040034CD040034CD0400DD
S214009E784FF40041134B144A70B59A60D3F8882003
S214009E88124D42F47002C3F88820114A05F50054B2
S214009E9891664FF0FF3222664FF6DF726266022244
S214009EA8C3F8D020BFF34F8FBFF36F8F4FF4403601
S214009EB8032004F0A7F90320E66004F087F92E6172
S214009EC870BD00BF00ED00E00060000000800044A8
S214009ED800900050054B1860054B1B6F03F00703F6
S214009EE8032B01D130F044BC704700BF4865002002
S214009EF8008000502DE9F04104464FF001080C257B
S214009F080D4E0CB9BDE8F08194FAA4F0B0FA80F0D2
S214009F180F2808FA00F2C8BF103824EA0204CABF9D
S214009F2805FB006205FB0062B4325768002FE8D0D4
S214009F389168C0B2B847E4E76834002008B50C4812
S214009F4832F0EBFA192004F04FF928B1192004F082
S214009F5859F9192004F03AF91A2004F045F928B1FD
S214009F681A2004F04FF91A2004F030F9002008BD32
S214009F786C6B04002DE9F0410E461746054618B3EB
S214009F880F2923D80378DBB1013BDBB2022B19D8A3
S214009F98104AD35C6A78D340DB0717D50E4BD3F844
S214009FA81043ACB932F098FA80463A46284631460D
S214009FB803F064F8404632F08AFA2046BDE8F0819D
S214009FC87F23E7E70023E5E72224F6E72124F4E7E2
S214009FD80224F2E7BC69040000C0035010B504462A
S214009FE810B30378E3B1013BDBB2022B1AD8104A50
S214009FF8D35C6278D340DB0718D532F06DFA0122BD
S21400A008617823788A4030214B4341F2100103F1EE
S21400A018A04303F570335A5032F059FA002010BDA9
S21400A0287F23E6E70023E4E72220F8E72120F6E787
S21400A038BC69040010B5044610B30378E3B1013BCD
S21400A048DBB2022B1AD8104AD35C6278D340DB07FF
S21400A05818D532F041FA0122617823788A403021F7
S21400A0684B4342F2100103F1A04303F570335A50F4
S21400A07832F02DFA002010BD7F23E6E70023E4E740
S21400A0882220F8E72120F6E7BC69040038B50D461B
S21400A098044618B311B30378E3B1013BDBB2022BD5
S21400A0A81AD8104AD35C6278D340DB0718D532F04A
S21400A0B813FA30222378534303F1A04303F5703391
S21400A0C85B696278D34003F001032B7032F0FFF926
S21400A0D8002038BD7F23E6E70023E4E72220F8E7E0
S21400A0E82120F6E7BC6904002DE9F0410D46164626
S21400A0F89846044600284FD000294DD001780029FC
S21400A10840D04B1EDBB2022B3ED8254AD25C637881
S21400A118DA40D20701D4FF2940D1022E01D9042EF5
S21400A1283CD132F0D9F923780746FF2B05D03246C2
S21400A1382046296802F0E8FF28602B68013309D119
S21400A1482378FF2B06D1174B6078D3F8241429F010
S21400A15830F9286029684B1C18D00C23124A03FBD8
S21400A1680122069BC2F8048093602378FF2B04D054
S21400A17801230E4A8B40C2F82434384632F0A7F939
S21400A188002007E07F22C2E70022C0E7384632F008
S21400A1989EF92D20BDE8F0812220FBE72120F9E773
S21400A1A8BC69040000C003506834002000D0035087
S21400A1B808B502F059FF054B00F0553020F0502046
S21400A1C8C3F82004BDE80840FFF794BE00E003503B
S21400A1D808B502F049FF054B00F0AA3020F0A02091
S21400A1E8C3F82004BDE80840FFF784BE00E003502B
S21400A1F82DE9F04F144605460E469B46C36B87B0BE
S21400A20801225B6902A960689847EB6B01225B69CB
S21400A21803A93046984702A828F0F9FE074648B131
S21400A2280023A37563754FF0FF33A360002007B0C3
S21400A238BDE8F08F03A828F0F7FE0123A375237E58
S21400A24804EBC303DE611F846368B3420ED120604B
S21400A25803A828F00BFF4FF0FF332075A360237D7B
S21400A268043B022B26D80023A375DFE723681A1AB7
S21400A27853425341A37503A828F0F8FE237D834272
S21400A28818BFA77503A828F0D3FE074602A828F02B
S21400A298CFFE874218BF002303A818BFA37528F06F
S21400A2A8CFFE074602A828F0CBFE87421CBF002335
S21400A2B8A375D4E703A828F0BBFE80B1EB6B022297
S21400A2C830465B6904A9984704A828F0C0FE0346F0
S21400A2D8207D032839D8DFE800F03838040903A8B9
S21400A2E8F3E7CC22237E04EBC3031A8401F06EFC4A
S21400A2F8109B187003A8277E28F08EFE04EBC7076D
S21400A30887F82200237E03A804EBC303B3F8209043
S21400A31893F8227028F08CFE804603A828F090FE5A
S21400A3288246B8F1000F15D0EB6B022230465B6907
S21400A33804A9984704A828F04FFE6075637D6BB99A
S21400A3480023A3754FF0000838E0227E04EBC20213
S21400A3581384CBE703A828F02AFEEEE794F81680C5
S21400A368B8F1000FEED0B9F1000F09D1DFB1012323
S21400A378E375637E002B4FD1012F42D1677614E038
S21400A3886B6C06EB0A015A4286EA010010421CBFB3
S21400A3980022A2755A1E0A409B1A9945D0D8A37D5A
S21400A3A8002BE3D1CEE7E37D43B94FF000084B46D8
S21400A3B852463146284628F075FBA060A27D12B1A9
S21400A3C823694B4423611A49237E097899422AD97E
S21400A3D801332376BBF1000F27D032B3E37D23B3D6
S21400A3E8B8F1000F21D1032F1FD0A1684B1C1CD039
S21400A3F8109B2246009328460123FFF7F9FEA07516
S21400A40813E095F8343063B9EB6A0133CFD1032FE4
S21400A418CDD10123A376C8E7012FCFD0032FC4D10F
S21400A428F7E79846C3E70023A375A07DFFE600BFBD
S21400A438E06904002DE9F04F0E46984600238BB0DD
S21400A44804464FF0FF31104617468DF8133001F0DA
S21400A458A7FBB6F5801F20D2314605AA04F10800EE
S21400A46828F027FD451C014603D1237CBBB92D20C7
S21400A47810E0384601F094FB0122394620460DF1DB
S21400A488130328F061FB0028EFD09DF8133088F8F6
S21400A498003000200BB0BDE8F08FB01CE5D1E56AAF
S21400A4A8691C36D12046616A28F042FA0546B31C74
S21400A4B818BF0123DFF8CC900193636A626C02939D
S21400A4C8236805A902FB053AE36B05225B6950463B
S21400A4D8984705A828F036FE28F059FE504628F07A
S21400A4E861FE4FF0000B824601464B1C05D0636C9C
S21400A4F881EA0A025B42134211D02946204628F018
S21400A50817FA029BAB422CD0BBF1000F2CD10546A4
S21400A518D3E72368ED1A636CB5FBF3F5C7E748463F
S21400A52801F03EFB0DF1130349462046019A28F038
S21400A5380BFB034690B1B21C03D0D9F80020B242F8
S21400A5480CD19DF8132003930D4B88F8002049463C
S21400A5581A68384613F0E8FB039B9B46D9F80810A0
S21400A568C3E7BBF1000F82D0B6F5801F91D2314603
S21400A57898F800307A6804F1080001F03FFA88E796
S21400A588DC690400443C00202DE9F34104461746E4
S21400A59898460E46184D816AE36A8B4201D04B1CDA
S21400A5A802D102B0BDE8F081284601F0F9FA01228E
S21400A5B8294620460DF1070328F0C6FA38B1434667
S21400A5C8294620469DF80720B8470028E9D0A968FC
S21400A5D84A1C04D16968204628F037FA0146012E3D
S21400A5E8DAD16B6881EA0302636C5B421A4218BFD1
S21400A5F84FF0FF31D0E700BF183C00202DE9F04FA0
S21400A6084FF0FF334FF6FF720025044600F10806A8
S21400A618C0E909238BB0C3620562056330468846E5
S21400A62828F018FC204628F053F960BB204641461F
S21400A63828F0CEF9204628F04BF960BB5E200BB018
S21400A648BDE8F08F2368E26B606C576900FB053045
S21400A658052205A9B84705A828F074FD012807466D
S21400A6680CD12946204628F084F9012F024600D14D
S21400A67801322946204628F04AF903E028F08CFDE6
S21400A6880028EED10135E3699D42DBD3204628F049
S21400A6981FF90028CAD000254FF0FF394FF6FF7380
S21400A6A8CA46A846C4E90853E36998450AD3A5EB01
S21400A6B80905012D2CD84FF6FF72636A93423CD1E8
S21400A6C86720BCE72368E26B606C576900FB0830BC
S21400A6D8052205A9B84705A828F034FD834605A82D
S21400A6E828F007FD0746584628F051FD68B157453B
S21400A6F838BFC4F82480B94528BFB946BD4238BF1C
S21400A7083D46BA46236A0133236208F10108CBE7BF
S21400A7184FF6FF7300256362E3699D42CBD2676CF0
S21400A7282068E36B052207FB05005B6905A99847C7
S21400A73805A828F0DEFC0135EEE7E26B676C2068BA
S21400A748694607FB030055690522A847684628F0AE
S21400A758D0FC626A2368606C4B4D00FB023028F020
S21400A76821FD4FF0FF33A062E3622A466FF0010135
S21400A778204605ABFFF75EFE002846D1AD682946A1
S21400A7882046E56228F080F8206320B92046E16A72
S21400A79828F05BF9E0622946204628F056F9054677
S21400A7A8A36A9D4233D1204628F041F80027804608
S21400A7B8B946E36999453CD3B84559D92046616AF4
S21400A7C828F0B6F80026054604F1400AB74212D823
S21400A7D8626C2368694602FB0539E36B05225B69F0
S21400A7E848469847684628F084FC53460246494639
S21400A7F8E06B28F0D9FC2946204628F099F801365F
S21400A808B0450546E2D1642019E7A56AB7E72946A8
S21400A818204628F039F8236B294603440746236365
S21400A828204628F012F90546002FB9D1C4E90B07CF
S21400A838B6E7636C2568052203FB0955E36B05A993
S21400A8485B692846984705A828F07CFC28F09FFCFA
S21400A85858B1284628F0A6FC0146204628F014F8E9
S21400A868636C143B984208BF013709F10109A0E759
S21400A878304628F0EFFA002320461946034AFFF729
S21400A88883FE0020DBE600BF703C00203F2B030061
S21400A8982DE9F041036B9046826B07689A4288BFA1
S21400A8A88363426C436A90B002FB0377C36B0E4621
S21400A8B8052201A95B6904463846984701A828F08E
S21400A8C841FC01280146307057D0656CE26B23685E
S21400A8D8606AD2F814C005FB0030052206A9E047D6
S21400A8E806A828F02FFC01284FF0000523D0D4E94D
S21400A8F80A3201219342CDE90B458DF834800E9536
S21400A9088DF83C102AD11946204628F09EF8236B6D
S21400A918626C14339B1AE06223630C9B53B99DF850
S21400A9283C303BB1626A616C2368E06B01FB023124
S21400A93828F0C0FB0C9DE36B05225B6901A938462D
S21400A948984701A828F0FEFB30702846236BA26BB8
S21400A9589A4288BFA36310B0BDE8F081237C33B960
S21400A9681C490BAA04F1080001F096F8D5E7204622
S21400A978194A0BABFFF708FECFE7237C23BB22461A
S21400A988164904F1080001F087F8616A204627F0A6
S21400A998F0FF616A421C204627F0B9FF054620B939
S21400A9A8236B626C1344143B23632046A16A28F089
S21400A9B84CF82368A062C01A636CB0FBF3F06062C0
S21400A9C8204628F085F8B6E700232046044AFFF715
S21400A9D8DBFDDAE73DB10000B9B00000D92B030073
S21400A9E8752B030073B50D46D11E4A421C461B7EC6
S21400A9F84A419A4226D129682368994222D3636835
S21400AA0899421FD8114E0DF107033246FFF712FD83
S21400AA18C0B972686B689A4214D19DF80730DA1E7E
S21400AA2853425341227E93420CD1636901336361DA
S21400AA38D4E90323934205D22968A26842F8231072
S21400AA4801332361012002B070BD00BF703C0020B6
S21400AA582DE9F04F9B4689B09DF848309046514AFC
S21400AA680193136907465B450D46C0F09580D946A5
S21400AA7853680093B9F1000F7BD0FB6B01225B692A
S21400AA8805A90098984705A828F0CEFA454B1B68F4
S21400AA98984240F0848005A828F0D2FA0428064692
S21400AAA815D105A828F0D3FA009B04461E44019B3E
S21400AAB8002B3ED1804512D91C46A8EB0008384624
S21400AAC8009927F0C2FFA9EB04090090D2E7FB6BB8
S21400AAD802225B69009806A9984706A8E2E7A0EB59
S21400AAE808045C4528BF5C46032C4644ABEB040BC5
S21400AAF81DD9FB6B294630465B69A208984724F0A7
S21400AB08030304F0030A1E441D44DDF80480BAF16A
S21400AB18000FD4D0FB6B012206A930465B69984724
S21400AB285246284606A913F0FFF85544C7E7A2463A
S21400AB38EBE7824600F0030302932B1803930644C0
S21400AB48039BA6EB0A00A3EB0A05029B9A4514D1C1
S21400AB58BAF1000FB3D0FB6B012206A95B699847D0
S21400AB685246284606A913F09BFA0028DDD04FF077
S21400AB783609484609B0BDE8F08FFB6B012206A9E6
S21400AB885B6998470422284606A913F089FA002824
S21400AB98EDD1AAF1040AD3E74FF06309E9E74FF0CD
S21400ABA86F09E6E79C3C00202DE9F0410F46164663
S21400ABB89846044688B060B390F83450FDB1012139
S21400ABC827F07BFE00210E9BCDE90511CDE9023763
S21400ABD89DF83C30CDF804808DF81C30237C049614
S21400ABE88BB90D4901AA04F1080000F055FFDDE90C
S21400ABF80553E06B002E08BF1D4627F0F7FF2846D2
S21400AC0808B0BDE8F0812046044A01ABFFF7BCFC5B
S21400AC18EDE70546F3E700BFA32B0300EDA9000008
S21400AC287FB590F84260044601920DF10B030A4680
S21400AC383046114927F0E2FF012E0546E36B17D18F
S21400AC4832465B6903A998479DF80B10039B019A47
S21400AC5859B19BB243EA0243012228460393E36BA9
S21400AC6803A99B69984704B070BD62F30F03F3E726
S21400AC7801229B6901A9F5E79C3C00202DE9F04FCD
S21400AC8899B00E460D920A69416C0B931439D31D80
S21400AC98B3FBF1F3013302EBC302036B04469342A2
S21400ACA8C0F001820023DFF804940893E36A48465C
S21400ACB81946059300F074FFD6E9033707930B9BF4
S21400ACC8022B4DD1CC2F40F0D7810D9B3BB131469E
S21400ACD8204627F0E9FF656C1490012044E0012027
S21400ACE8079B656C1B68149300F0010000280CBFD6
S21400ACF804230823782F0E9349D8059A6B1E134011
S21400AD08ED1A3B1D9D423CD2002F3DD0082D3ED863
S21400AD180023042506934FF0040A336806990B9817
S21400AD28C9F80030C9F8107028F0A4F94FEA9A0359
S21400AD380F93059B89F814000393002309930C933B
S21400AD4804930A93616C039B4A1E1A408B1A27B316
S21400AD585544AB4223D8236B5B1A134423632FE175
S21400AD68782F656CB9D8F07D0D9B002BBCD0E36BB3
S21400AD7801225B69706816A9984716A828F058F942
S21400AD88B4E700250695C6E704250697C3E701231A
S21400AD9800254FF0080A0693BFE75345DBD3A3EB1D
S21400ADA80A029742039BB84628BF904697425344E8
S21400ADB828D90122D9F8101089F817208F4226D1F1
S21400ADC80399C9F80410049299F817200AB399F859
S21400ADD818100398CA1C09EBC20250600498013187
S21400ADE8A2F80880907289F81810B8F1000F07D0FA
S21400ADF80B9A022A40F08180099A72B101220992C0
S21400AE089B46ABE0049A002A18BF0322DBE702221F
S21400AE18D9E7039AC9F80420E7E70C9A4244032ABC
S21400AE28EED9E26B1846956914A901220993A8473A
S21400AE38099B05460028E1D03D2D40F01E8104F10F
S21400AE48080303932368059A606CA2EB030ABAFB0F
S21400AE58F0FA00FB0A3028F0A5F9E16A8046204699
S21400AE6827F0F3FDA26A824200F00F81626CD9F8DF
S21400AE780830511E0B40216B2768891A0B44236340
S21400AE88089BE062DF1BB7FBF2F7BA4540F0FA8092
S21400AE98059BB3EB080A12D0E36B4FEA9A024146C9
S21400AEA89B6998478346E36A059A5344E362236B93
S21400AEB803989B1A4344236327F0CCFFDA4623689B
S21400AEC8616CE06B01FB073128F0E1F8204627F0BB
S21400AED8FFFC204627F0FCFD2063BAF1000F00F0C7
S21400AEE8D4803269616CD31D1439B3FBF1F3013396
S21400AEF802EBC3029042A5D2BFE00D9A002A77D192
S21400AF08B8F1030F4FEA98026ED9E16B18468D69BF
S21400AF1807991093A847109B0546C0B918F0030573
S21400AF2815D0079A28F0030B02EB0B019B444FF051
S21400AF38FF3215A815922A46109312F0F5FEE26B1A
S21400AF485846956915A90122A8470546109B9B46B1
S21400AF58079A42440792002D40F08B80049B16A85F
S21400AF680193069B009399F814204346316800F035
S21400AF78CDFDE36B0F9A9B69039816A99847039A29
S21400AF88051E089B18BF134608934346524620469C
S21400AF98039927F087FD236B08F10302A3EB0A0346
S21400AFA822F003029B1AC9F808002363002D7FF4D9
S21400AFB843AF0C9BA7EB080743440C93CDF80CB0A3
S21400AFC82046039927F041FD00250390002F7FF4C3
S21400AFD8B9AE364A3168936804F10800E3625268ED
S21400AFE80B9B00F00BFD49E09B46454607999EE7FC
S21400AFF89B4606F120021092F27D7068A2B10022EC
S21400B00896F818C00A99D5B2AC4511D9109D02F128
S21400B018010E35F832508D4228D90E9806EBC2023A
S21400B0280144D069084403E00E9A0A990A44104479
S21400B038E26B15A9556901221193A847159A0A9B30
S21400B0481392E26B043395695846012213A90A93B2
S21400B058A847119B054603EB0802A2EB0B02042A3D
S21400B0687FF679AF28B90BF1040BC5E77246491B82
S21400B078C9E7CDF820B088E770252F46384619B0BE
S21400B088BDE8F08F4FF0000A19E73269616CD31DEE
S21400B0981439B3FBF1F3013302EBC302236B93427B
S21400B0A8BFF404AEE9E71C27E8E700BF443C0020ED
S21400B0B8032A2DE9F34106460D4617461C4606D1D7
S21400B0C8237A012B23D0012002B0BDE8F081DFF8F7
S21400B0D86080096842460DF10703FFF7ABF9606028
S21400B0E80028EDD19DF80720237A032AE8D0D8F85F
S21400B0F804106A689142E3D1012B2969D4F80CC080
S21400B10807D172690CEB0103934202D92074207CA4
S21400B118DAE708316144E1603B46012229463046B9
S21400B128FFF7ACFD60600028CAD00020CCE700BF5F
S21400B138703C00202DE9F341089C032A1746266830
S21400B14806D1237A012B24D0012002B0BDE8F08175
S21400B158DFF89080304642460DF10703FFF76AF99C
S21400B16860600028EDD12568D8F80400A96AD5F8EB
S21400B17844C04840CCF100031840227AE1D1012AA5
S21400B18809D1E268D8F8103013447269934202D99C
S21400B1982074207CD9E72868EB6A1B1A081AB3FBC8
S21400B1A8FCF3B0FBFCF083420BD1706CF36A421ED2
S21400B1B81340326B121A13442846336327F045FCB3
S21400B1C8E862D8F81020E36808321344E3600122E6
S21400B1D83B4604492068FFF751FD60600028B0D060
S21400B1E80020B2E7703C00202DE9F0410025604BB6
S21400B1F80E46D3F8008004461D6018B92125284657
S21400B208BDE8F08190F8347007B30A6803689A427C
S21400B21840F0A3804A6843689A4240F09E808A6855
S21400B22883689A4240F09980CA68C3689A4240F098
S21400B23894800A6943699A4240F08F808A69C36B92
S21400B2489A4240F08A804B698361D8E7682239467B
S21400B258856B12F0D9FBD6E90212336804F10800B0
S21400B26823607368A5636360336963617369A36168
S21400B27827F002FEB36904F14000E3639B68984731
S21400B28820B9676C17B16368B3FBF7F794F84330D7
S21400B298E761002BB2D00023656C2366002D64D0CE
S21400B2A8002F62D02368B3FBF5F205FB1233002BA0
S21400B2B855D16668B6FBF5F305FB1363002B4ED134
S21400B2C8204627F0D1FAA369043303449E4248D3A4
S21400B2D840F634726369CC3B934244D8B5F5805F38
S21400B2E843D30321204627F0E8FAD4E90001E36BAC
S21400B2F81B6898470546E36B0220DB689847CDB97C
S21400B30841462046FFF77AF96428054604D14146A7
S21400B3182046FFF773F90546666C5DB9236A204632
S21400B328143E5E4327F0A0FAA369043303449E4202
S21400B33838BF5A25002D0CBF0123002384F834306B
S21400B34807D1D4E900010B4A13680133136027F0CC
S21400B3582DFEE06B27F04AFC51E75D254FE759259F
S21400B3684DE75A254BE75F2549E75B2547E700BFCA
S21400B378D4350020D03500202DE9FF410C4616466E
S21400B3881F46054680B390F834307BB3B1F5801F6E
S21400B3982ED2DFF86080012127F08FFA2146424638
S21400B3A828460DF10F03FFF745F8044670B99DF8D7
S21400B3B80F30012B11D1D8F81030BB4212D10246FB
S21400B3C8009031462846FFF743FB0446E86B27F013
S21400B3D80DFC204604B0BDE8F081022B14BF2D24D6
S21400B3E86024F3E76324F1E72124F2E71124F0E769
S21400B3F82924EEE79C3C00202DE9F04385B00C4656
S21400B40817461E460546DDF8308098B390F8343067
S21400B41893B3B1F5801F31D2DFF86490012127F08D
S21400B4284CFA21464A4628460DF10F03FFF702F864
S21400B438044688B99DF80F30012B14D1D9F810208E
S21400B44806EB08039A4213D3009043463246394621
S21400B4582846FFF7FDFA0446E86B27F0C7FB2046A8
S21400B46805B0BDE8F083022B14BF2D246024F3E753
S21400B4786324F1E72124F2E71124F0E72924EEE714
S21400B4889C3C002073B50C461646054630B390F82B
S21400B49834302BB3B1F5801F24D2012127F00DFAE2
S21400B4A821462846104A0DF10703FEF7C3FF044657
S21400B4B880B99DF80730032B0CD0022B0CD12846F8
S21400B4C8094927F0F1FB3060E86B27F08FFB204630
S21400B4D802B070BD2D24F7E76124F5E72124F6E7CE
S21400B4E81124F4E72924F2E79C3C00202DE9F341D7
S21400B4F81E4600230C4617460546336050B390F8A0
S21400B50834304BB3B1F5801F28D2DFF854800121C0
S21400B51827F0D3F92146424628460DF10703FEF7E1
S21400B52889FF0446A0B99DF80730032B10D0022BDC
S21400B53803BF01233B600423D8F8103018BF3860D7
S21400B5483360E86B27F052FB204602B0BDE8F08176
S21400B5582D24F6E72124F7E71124F5E72924F3E755
S21400B5689C3C002073B50446056B27F07DF9636E96
S21400B57803449D422CBF00230123854294BF002527
S21400B5882D1A207C84F85030656584F85800A8B1D8
S21400B59800230C4E1A4619462046009627F048FC0B
S21400B5A8002305461A4619462046009627F049FC09
S21400B5B8E3682844984294BF0020C01AE06502B0A9
S21400B5C870BD00BFFFFF0F002DE9F3471E46436915
S21400B5D80446B342884617469DF828904ED3002561
S21400B5E88DF80750204627F03FF9D4F830A082455A
S21400B5F80AD2236AB5EB430F06D2002220460DF185
S21400B6080701FFF745F9B8B39DF80730012B05D1B8
S21400B618002220460DF10701FFF73AF9B9F1030FAA
S21400B62806D03146204627F00FF9256B854227D3EA
S21400B638144D4FF0FF31284600F0B2FA4B46294623
S21400B64800222046C5E90376C5F80080FFF716FBFA
S21400B658236E054663B12046FFF784FF94F8503002
S21400B66813B994F858301BB1236E04F1500098476C
S21400B678284602B0BDE8F0870135B3E76225F7E74C
S21400B6881C25F5E7703C00202DE9FF410F46904643
S21400B6981E46054698B390F8343093B3B1F5801F2C
S21400B6A831D21A4C022127F008F922463946284694
S21400B6B80DF10F03FEF7BEFE024678B1012342469F
S21400B6C80093394633462846FFF77EFF0446E86B64
S21400B6D827F08CFA204604B0BDE8F0819DF80F30BC
S21400B6E8012BEBD12169B142E8D10093414633469C
S21400B6F82846FFF7ADF904460028DFD1E7E72124FE
S21400B708E8E71124E6E72924E4E700BF9C3C00208C
S21400B7182DE9F04790F8423086B0012B0546039194
S21400B728A1EB020740F0AA80FF2F03D81E464FF071
S21400B738640807E00226012B14BF4FF032084FF0CA
S21400B7486408013600244FF6FF79DFF844A195F81F
S21400B7584230012B14BF322364239C4202D35FFA83
S21400B76888F40DE005AB22465146284627F07AFABB
S21400B77895F84230012B059B34D14B452DD1E4B2C8
S21400B78895F84230012B14BF32226422121BB242B3
S21400B79817D3012E39D10022012B05978DF81320D7
S21400B7A827D1082205A90DF1130027F017FD9DF8EB
S21400B7B81330059A42EA032221462846FFF730FA54
S21400B7C840B10223324900932846CC23096803AACD
S21400B7D8FFF7FAFE06B0BDE8F087DBB203B902341D
S21400B7E80134B4E7591CCAD09BB2002BF8D10134F7
S21400B7F8F6E7102205A90DF1130027F0EFFC9DF8D7
S21400B8081330059A42EA0342D6E7039A012B0592BB
S21400B81823D10823202205A90DF113008DF8133033
S21400B82827F0DCFC9DF81320120221462846FFF775
S21400B838F7F995F84230611C012BC9B21AD10028D5
S21400B848BFD12846BDF81420FFF7EAF90028B8D17A
S21400B8580234BDF81620E1B2AFE71023202205A96E
S21400B8680DF113008DF8133027F0B8FC9DF813205F
S21400B8781204DAE70028A4D1059A9EE7B7F5803FB8
S21400B8884FF00106BFF457AF4FF032085AE700BF33
S21400B8989C3C002070B586B00E4605460392A0B3C1
S21400B8A890F834309BB3B1F5801F32D2022127F0CE
S21400B8B804F831462846184A0DF11703FEF7BAFD74
