S01B00006275696C642F72656C656173652F7A69676265652E73333714
S2140040000810002031790000C5C000001F4A0300D8
S2140040101F4A0300CDC00000D5C000001F4A0300A1
S2140040201F4A03001F4A03001F4A03001F4A0300DB
S214004030D9C00000C48F04001F4A03001F4A0300B3
S2140040401F4A03001F4A03001F4A0300497400006A
S2140040501F4A03001F4A03001F4A03001F4A0300AB
S2140040601F4A03001F4A0300D9C500001F4A030069
S2140040701F4A03001F4A03001F4A03001F4A03008B
S2140040801F4A03001F4A03001F4A03001F4A03007B
S2140040901F4A03001F4A03001F4A03001F4A03006B
S2140040A01F4A0300F97C0000DD7C00001F4A030065
S2140040B01F4A03001F4A03001F4A03002915020077
S2140040C011A603000DA603008D0C020027A6030010
S2140040D015A60300E914020019A603001DF9010045
S2140040E0691502001F4A03001F4A03001F4A030007
S2140040F01F4A03001F4A03001F4A03001F4A03000B
S2140041001F4A03001F4A03001F4A03001F4A0300FA
S2140041101F4A03001F4A03001F4A03001F4A0300EA
S2140041201F4A03001F4A03001F4A03001F4A0300DA
S2080041301F4A03001A
S214004134F0B5114A114C124E00F00105E3695F0711
S21400414413D40DB9334213D103EA00078F4207D1C3
S2140041540B4A1A40002A14BF6FF001000020F0BD7D
S214004164013AEBD16FF00200F9E74FF0FF30F6E7C3
S2140041746FF00100F3E700BF80969800000003503C
S214004184020001000B4B70B5D96911F480310DD1D2
S21400419401244FF48072084E084DF46020462C64C7
S2140041A41A61FFF7C5FF3464EC6070BD6FF0010060
S2140041B4FBE700BF0000035000100350002003502C
S2140041C438B541F6713301220C4C0021E569E363EE
S2140041D40B4B05F48035DA600223606121202361ED
S2140041E4FFF7A6FF10B92120FFF7A2FF0122054B17
S2140041F4DA600DB10023E36338BD00BF000003504E
S214004204001003500020035070B5134C6061E3693E
S2140042145B071ED40E4656F8043B8D18A361AE42C7
S2140042240BD10423002121202361FFF781FF58B915
S214004234BDE870402120FFF77BBF08210846FFF742
S21400424477FF10B10423236170BD56F8043BA361C5
S214004254E5E74FF0FF30F7E7000003502DE9F84399
S214004264154641F67132164B8946DF69DA63012238
S214004274064603F58053DFF8508007F48037DA608B
S21400428455B9284601220F4BDA601FB10022A3F568
S2140042940053DA63BDE8F88306F5005404EA08041C
S2140042A4A41BAC4228BF2C46494622463046FFF79C
S2140042B4ABFF0028E6D12644A1442D1BE0E700BF4F
S2100042C4000003500020035000E0FFFF45
S2140042D02DE9F04F4FF0FD0BC9B09A460DF11B09C2
S2140042E09DF8503108AFCDF80C90CDF808B0019786
S2140042F0059303890446009383790E4690464188C9
S2140043008288407811F02EFE054650B10090A388B2
S214004310002062883A4912F069F9284649B0BDE89B
S214004320F08F99F8000033F091FC38B12846A38846
S2140043306288344912F05AF98D25EEE75A46394616
S21400434099F8000033F02AFC8346002851D0529B8F
S2140043501BB1BDF84C3198424BD8002399F8009019
S2140043600793A9F14102012A5FFA8BF123D8384658
S2140043700139254ADFF898C05FFA81FE734513DBE2
S214004380059B04210792C3B907AF18221F489FED6B
S2140043901A7B02FB060420460A460830394684ED9E
S2140043A0027B16F079FE11E010F8011F0133514030
S2140043B00CFB01F2E2E7059B33B123464A4638463A
S2140043C000960FF0F7FCA8E70829DED9B8F1000F31
S2140043D001D088F80090BAF1000F01D0AAF800B01A
S2140043E0529B002B99D05A46184608A916F054FE40
S2140043F093E7012591E700BF0000000000000000E1
S214004400563904008B390400C59D1C81801000209D
S21400441093010001000000002DE9F04F93B0CDE9B4
S2140044200A32DDE91C530E9353EC102BCDE908013C
S214004430104619468DED060B1E9E16F0B7F880B195
S214004440DDE906014FF0FF32C54B16F0D7F840B94C
S214004450DDE906014FF0FF326FF4801316F0B0F876
S21400446070B1DDE908019DED060B0E9B1E96CDE9A9
S2140044701C53DDE90A3213B0BDE8F04F00F088B9EE
S2140044800022DDE90601002316F09AF8002800F065
S2140044903381DDE906A303F1004BCBF30A5016F493
S2140044A08063A0F2FF3008BF06250F9315F0ACFD21
S2140044B09BA3D3E9002315F011FE9BA3D3E90023A9
S2140044C015F056FCCBF31304894644F07F51804622
S2140044D00022A44B504641F4401115F047FC94A32B
S2140044E0D3E9002315F0FAFD02460B46404649463E
S2140044F015F03EFC16F08CF8044615F085FD8EA3EC
S214004500D3E900238046894615F0E8FD0022964B45
S21400451015F02EFC16F07CF889A3D3E90023074695
S2140045204946404615F0DAFD80463846894615F07D
S2140045306BFD85A3D3E9002315F0D0FD02460B469C
S2140045404046494615F012FC02460B46CDE90C23C0
S21400455015F0C4FDDDE90C23804689461046194651
S21400456015F006FC0022CDE91001804B4046494676
S21400457015F0DEFE00227E4B15F0FAFB02460B46D7
S2140045804046494615F0D4FE00227A4B15F0F0FB63
S21400459002460B464046494615F0CAFEDDE90C23A6
S2140045A08046894600204FF0804115F0DFFB02462A
S2140045B00B464046494615F0DBFB02460B46DDE956
S2140045C0100115F0B5FE07F2FF3700226A4B15F012
S2140045D0CFFB00223B0515F081FD52465B46804628
S2140045E0894616F00BF8002840F08980CDE90C8942
S2140045F004F16303C62B8CBF0527042731051BD5A2
S21400460053A3D3E900235046594615F0EDFF002882
S2140046107FD051A3D3E900235046594615F0D0FF6A
S214004620002876D00027A542C6BF2C1B04F1FF3514
S21400463000253C4646F480660E9B9F422CBF4FF0FA
S2140046400008A3EB070816F0020903D0002F18BFD6
S2140046504FF000083CB1DDE90C235046594615F0F2
S21400466067FE82468B46DDE906010022002315F030
S214004670A7FF10B10BF100439B46DDE9080126F4C5
S2140046800063CDE90183DDE90A324BEC10AB0095FF
S21400469000F07EF802465FB3DDE9091316F0200F3E
S2140046A000F10105089E0CBF65204520B047DDE9F6
S2140046B008010523002205930A23002CCDE90232C7
S2140046C007F1FF374FEAD473B8BF64422A46019316
S2140046D004970A9B009435F013F90246B9F1000FCF
S2140046E006D00B9BC41A0B9B1A190E9BA34245D8E7
S2140046F0104613B0BDE8F08FDDE906ABCDE600222C
S214004700404649461A4B15F013FE013CCDE90C0114
S2140047106EE7002D90D00F9B002B8DD0013D8BE7D0
S214004720FB799F501344D33FB3C8608B288AC63F9B
S21400473061436F63A787D23F71A379094F930A40FD
S2140047401655B5BBB16B0240EF39FAFE422EE63F76
S2140047502D431CEBE2361A3F0000000080842E41F9
S214004760FFFFEF7F0000F83F0000E03F00002C4016
S21400477000002440000018400000F03F2020DDE943
S2140047800913089DA8470134ADE700BF00000000EC
S2140047902DE9F04F5BEC10AB97B0CDE90501DDE9F4
S2140047A02058CDE90723504652465B465946229F7D
S2140047B015F0FCFE70B90323CDE902870193AA4BDE
S2140047C00093DDE90501DDE9072334F0CBFF17B0E0
S2140047D0BDE8F08F4FF0FF326FF480135046594615
S2140047E015F0EEFE28B10423CDE9028701939F4B16
S2140047F0E6E74FF0FF32504659469D4B15F0FEFE59
S21400480068B19C4A07F00403002B08BF03229A4BAA
S2140048101CBF13460422CDE902870192D0E750461A
S2140048208DA3D3E90023594615F0E8FE38B98CA3CA
S214004830D3E900235046594615F0C2FE68B1DDE9BB
S2140048400723DDE905014BEC10ABCDE92187209568
S21400485017B0BDE8F04FFFF7DFBD0022002350463B
S214004860594615F0ADFE002800F091805B46524692
S2140048700020002115F07AFA012382468B46099320
S21400488017F4806400F08580092D40F285800024AE
S21400489030210EABA5F109020134202C03F8011BD0
S2140048A0A5EB040901D09442F6D15946504615F0BE
S2140048B0AFFE724B054603EBC90393ED007B8DED0F
S2140048C00A7B15F0A1FB02460B465046594615F0EA
S2140048D04DFADDE90A2315F001FC02460B46CDE948
S2140048E00C2315F0BDFE064615F07EFB02460B4671
S2140048F0DDE90C0115F03AFA02460B46CDE90C2329
S21400490000225F4B15F07AFE002848D0013630466C
S21400491015F06AFB02460B46DDE90A0115F05AFE61
S21400492008B100260135B9F1000F45D1284615F02B
S2140049306BFB02460B465046594615F017FA002206
S2140049404F4B15F03DFE10B9E90700D501350A2199
S2140049500EAB1A19202C0AD095FBF1F001FB10556E
S214004960303502F8015B013405460028F2D107F025
S2140049700302012A55D1B8F1000F52D0099A12B994
S21400498017F00C0F01D008F1FF38302240E00990F4
S21400499076E74FF0060988E7A946002485E7002257
S2140049A0DDE90C01364B15F00BFE0028BBD10EB12D
S2140049B0F007B8D50136B6E70A210EAB1A19202C37
S2140049C00DD0B6FBF1F001FB1063092E03F13003A6
S2140049D009F1FF3904F1010402F8013B11D8302136
S2140049E0A1440EAA202CB2D04C4504F101030AD1F2
S2140049F004F158020DEB02042E2204F8202C1C466B
S214004A00A5E70646DBE7A1541C46EBE71A5501343A
S214004A10444506D2202CF9D1CDE9028701940EAB8D
S214004A20CEE6202CF8D0099B3BB12D2204F158038A
S214004A306B4403F8202C0134EEE77A0704D504F122
S214004A4058032B226B44F4E73B07E5D504F15803E3
S214004A5020226B44EDE700BF0000000065CDCD418D
S214004A600000000065CDCDC145570400495704003D
S214004A70FFFFEF7F3C57040041570400009F0400EF
S214004A800000E03F0000000070B58EB02C22002130
S214004A9003A816F071F964234FF002320893CDE9AB
S214004AA005230B2301218DF834305B4B8DF8101055
S214004AB01D880D4040F0A980084639F0DFF90A222B
S214004AC0564B574C1A704FF42873ADF812304FF00F
S214004AD0FF332360534B54491B8820460B82534BAD
S214004AE0534A1B68CD828B61524B0D621B884B82EA
S214004AF0514B1B68CB611CF0ADFD20B14FF41B7110
S214004B004E483AF0FCFA0521206835F0E2F820B16C
S214004B1040F27D2149483AF0F2FA206815F0E2F8B2
S214004B20474B2068196835F097F90C2539F00EFECA
S214004B306843099039F00AFE68430DEB05010790BB
S214004B40206816F0DBFF20B140F295213B483AF092
S214004B50D6FA25681FF028F900220146284635F0C7
S214004B60F3F920B140F2972134483AF0C8FA40F2FF
S214004B700353344D344E2B80052396F90000AB705A
S214004B807F2801D11CF05CFE3378EB7039F0DEFD37
S214004B9000EB80008000A88039F0D8FD0023C0001C
S214004BA04FF0FF31E880AB604FF0FF3018A3D3E939
S214004BB0002339F0B5FA2549206835F07EF92068DB
S214004BC002A935F09AFD20B14FF434711B483AF033
S214004BD096FA042220680DEB020135F012F904283B
S214004BE004D040F2D72115483AF089FA01A90120ED
S214004BF034F01DFD07F0AAFA01201DF0B3FA30F0DC
S214004C0006FD1DF0D9FA1CF0B3FD0EB070BD00BF56
S214004C100A0020FF42030000025D00205A640020C4
S214004C203455002032B80400146B002038B8040055
S214004C30A5DE030030B8040034B80400748E040007
S214004C406468002028550020326E002019DF03001B
S214004C500348044B834202D0034B03B11847704706
S214004C60646E0020646E002000000000064B0749BA
S214004C70C91A891048BF0131491003D0044B0BB143
S214004C8001481847704700BF646E0020646E00201D
S214004C900000000010B5064C237843B9FFF7D8FF94
S214004CA0044B13B10448AFF300800123237010BDFA
S214004CB06816002000000000D8DB040008B5044B8E
S214004CC01BB104490448AFF30080BDE80840CDE7B7
S214004CD0000000006C160020D8DB0400A3F5803A24
S214004CE0704700BF154B002B08BF114B9D46FFF7C2
S214004CF0F5FF00218B460F461148124A121A16F08D
S214004D003BF80C4B002B00D098470B4B002B00D0E9
S214004D1098470020002104000D000B4816F072FB97
S214004D2016F002F8200029002FF07CFB16F058FB46
S214004D30000008000000000000000000081000202E
S214004D4008100020C06400206DB4010007B50121E2
S214004D5020200DF1070201F025F850B10121202096
S214004D600DF107028DF8071001F02CF803B05DF87E
S214004D7004FB9DF807100129F8D00122084814F01A
S214004D80E9FE01210DF1070220208DF8071001F041
S214004D9019F82FF0C9FA4FF4FA6000F04DFEE5E777
S214004DA048F5030038B501F095F9012805D001F063
S214004DB091F9022801D001F0B3F9064D2B783BB9E2
S214004DC001F088F90128044602D12FF022FB2C704E
S214004DD038BD00BFEE5D002010B5044600882FF0F9
S214004DE077FAA37884F84400834202BF0123E37075
S214004DF02371074B04F11C00C4E9073401F028F8BE
S214004E00224620880349BDE8104000F065BF00BF79
S214004E10674003003140030070B5C37804460D4672
S214004E201646002B34D1D1B1214814F093FE01234D
S214004E30E370E36CA6600BB1E06D9847E368F61A82
S214004E4063699E4221D2217E1A480131C9B2217679
S214004E5014F080FEA36D13B1217EE06D9847E570D7
S214004E602FF075FA15B3237903BBA268238A801A3C
S214004E7083421BD801231048237114F06BFE236D68
S214004E80A3B1E06DBDE87040184701232376E6E73E
S214004E900029E4D1094814F05DFE636DE660E57014
S214004EA02571002BDBD0E06D9847D8E770BD00BFBA
S214004EB070F5030081F50300AFF503009CF50300D1
S214004EC070B51E46838804460D46C18002810BB12C
S214004ED0868070BD817800882FF0E6F80123E370A5
S214004EE0064BA680C4E903340C34204600F0B0FF1D
S214004EF029462046BDE870402FF020BAB340030094
S214004F0010B501790446B1FA81F1008849092FF0FD
S214004F1042F921796088B1FA81F149092FF03BF90D
S214004F20034B1A68A24204BF00221A6010BD00BFDD
S214004F308416002070B543790446A3B100880E4E4F
S214004F4004F10805336813B10C4B1B786BB121795B
S214004F502FF021F964210A4B3460A3602846BDE88F
S214004F6070402FF0EBB94088E9E7064814F0F2FDF0
S214004F70054B3221A360F1E784160020EF5D002088
S214004F80014F0000C5F50300354F000010B504467C
S214004F90E0B10F4814F0DEFD01236371A37953B925
S214004FA0217920882FF0F7F8236B7BB1606B012105
S214004FB0BDE8104018472046FFF7A2FF04F108009E
S214004FC02FF0C1F92046FFF7B5FFEDE710BD00BF93
S214004FD0FBF5030010B50446F8B1104814F0BAFD0E
S214004FE000236371A3796BB921792088B1FA81F126
S214004FF049092FF0D0F8236B7BB1606B0021BDE828
S214005000104018472046FFF77BFF04F108002FF0FA
S2140050109AF92046FFF78EFFEDE710BD06F603006F
S21400502010B5044668B1074814F094FD637920462D
S2140050301BB1BDE81040FFF7CDBFBDE81040FFF73D
S214005040A5BF10BD12F6030010B50E4C0E48214643
S21400505014F080FD82210D4814F07CFD8221022090
S214005060A21E00F0AFFE014630B134F8022C08480C
S214005070BDE8104014F06EBD0648BDE8104014F0C0
S21400508069BD00BF8656002021F603003CF60300EB
S21400509047F603008BF6030038B5104C82212246F3
S2140050A0022000F07FFEA51C014678B122880C483D
S2140050B014F050FD2A460B4B03F1340153F8040B51
S2140050C08B4242F8040BF9D13323238035F8021CB7
S2140050D0054A0648BDE8384014F03CBD845600201A
S2140050E096F6030016F7030086560020F4F6030033
S2140050F0034B1B781BB18B4201D82FF015B97047B4
S214005100D26D002010B5044601460E4814F022FD6C
S214005110012C11D10C4B0D481A884FF6FF739A429A
S2140051201EBF0022094B5A742FF01BF801F09AFD9F
S214005130BDE8104001F06CBC0448BDE810402FF0FC
S21400514012B800BF4AF70300846D0020F067002005
S21400515070B500241A4D1B4E3378A3421BDC002486
S214005160194D1A4E3378A3421BDC0024184D194EF5
S2140051703378A3421BDC00F0ADFF012816481CD193
S2140051802EF0EFFF01F06EFD01F042FCBDE870402E
S214005190124800F0BFBF2846FFF71EFE01346035F8
S2140051A0DAE728462EF0C3FF01343435DAE728461E
S2140051B02EF0F6FF01343835DAE72EF0D4FFE5E7B7
S2140051C068220020F55D002088260020F65D00207D
S2140051D038200020F45D0020F06700200551000014
S2140051E02DE9F04F87B0FFF757FFB34B05A805939F
S2140051F02EF0FAFF054615F0BBFCB04CC2B21F2AD3
S214005200627004D9AE4814F0A5FC00F009FC2946EB
S214005210A01C15F041FF05A82EF0E6FF054615F088
S214005220A7FCC2B21F2A84F8212001D9A548EAE7C4
S214005230294604F1220015F02FFF05A82EF0D4FF12
S2140052403226044600272578002D40F092809E4C9A
S214005250FFF77EFF2378DFF8ACA2DFF8AC829B4E28
S21400526000939AF8003098F800203178984814F0A7
S21400527071FC327898F800109AF80000531803442E
S214005280944F20782C4603443846DBB2AA4200F3FB
S214005290D782012B38BF0123DFF840B202935A466B
S2140052A000235D464FF482714FF6FF740298013377
S2140052B0834213705180948002F10C02F6DB864B19
S2140052C086497E48AB6000F0DBFFE879AB6800EB10
S2140052D0400003EB800000F0AFFDEB790133EB718B
S2140052E07F4B1B88A34203D07C497E4801F0CAF856
S2140052F04FF00009784C32784A4500F3CB820027FD
S2140053004FF00C09784ADFF8D4B198F800003178ED
S214005310B84200F3D48247180C21002501FB07B1E0
S2140053209AF800009423A842704A00F3E6820C25FF
S21400533098F8003000274FF070083678DFF8CCA1D8
S2140053401E44064405FB06B55F4B1B78BB4200F3C4
S214005350E7820299614800F0FDFD059B56491A4612
S2140053608B4240F0F082624807B0BDE8F04F14F080
S214005370F1BB532D0FD163784C2B40F04781A378B7
S214005380502B40F0438101225A4B1A7005A82EF08C
S2140053902BFF044657E7442D13D16378303B092B87
S2140053A0F4D8601C2EF02DFF534B544A1978002376
S2140053B086B2994202F16002E8DD22F8466C0133BB
S2140053C0F7E7422D0BD16378542B55D1A01C00F083
S2140053D0D1FC434B188018462EF007FED6E7582D12
S2140053E034D8412DD2D9433D152DCFD801A353F83B
S2140053F025F000BFAF5700008D5300008D5300000E
S2140054008D5300008D5300008D5300005F55000043
S2140054108D5300008D530000115500005F540000AE
S2140054208D5300008D5300008D5300008D530000F7
S214005430915600000D5600008D5300008D5300005D
S2140054408D5300008D53000007570000692D9DD135
S214005450601C2EF0D6FE80B22EF062FF96E71B4B45
S2140054600120197800231B4A994202F1D4028DDDEF
S21400547002F8D20C0133F7E7601C00F07BFC05460F
S214005480E01C2EF036FF0121024628462EF0EDFEE7
S21400549060211948194C03785943621865524FF435
S2140054A0FA6111824FF448715161154956831165AE
S2140054B0013303706AE700BF8656002004670020A9
S2140054C069F7030080F70300F05D0020F35D00201D
S2140054D090F70300DC1C002050170020D816002090
S2140054E0846D002088160020DC1B0020201A002077
S2140054F0E0F70300EF5D0020F55D00206822002045
S214005500D3410300F15D0020F25D0020D01800209A
S214005510601C00F02FFC00224FF034088146CD4F6F
S21400552011462EF0A2FE3878CB4D08FB00F325F886
S2140055300390EA18E3781046693B18BF012393707E
S2140055402EF0F5FD0021C54A3B785160012103FB92
S21400555008550B443B7015600F46117416E7601C27
S21400556000F008FC0022114681462EF07EFE342212
S214005570B84DDFF8E482287802FB00F328F80390A1
S21400558008EB0301E3780846693B18BF01238B70DC
S2140055902EF0CDFDB24A00231046916B31BB00EBD6
S2140055A0831034232A7802FB03838363AD4A0023E7
S2140055B01046D2F8A410F9B9D42202FB0300342313
S2140055C02A7802FB0383C0F8A4305FB9A34A3B469F
S2140055D0114652F8040BA8B93422287800FB028240
S2140055E041F823202B7801332B70CFE60133042BB0
S2140055F002F14002D1D1D9E70133042B02F1D402E3
S214005600D7D1E2E70133042BE3D1EBE7601C00F0CF
S214005610B1FB8046E01C2EF06CFE0121024640469F
S2140056202EF023FE60219048904D0278DFF858C295
S21400563051436B1825F801804FF44871198259615F
S2140056408B495E839965E178D424642904BF0121DF
S21400565099709CF80030DFF80CE25C430EEB040116
S2140056600EF804304FF400744C8003240C718C71D7
S21400567002EB420405EB441532240133DBB201325F
S2140056804B718D6081F8A04002708CF800307DE68A
S214005690601C00F06FFB00224FF0380A8146DFF8EE
S2140056A0E08111462EF0E1FD98F80030714D0AFBBE
S2140056B003F325F803904FF00109EA1882F80490E6
S2140056C0E37873B1E01C00F055FB00220446114657
S2140056D02EF0CBFD98F800300AFB03535C8083F86D
S2140056E0069065485E4A03789901535498F800106E
S2140056F002EB8314C1EBC10205EBC2054A1C6563CD
S21400570088F80020D4E6601C00F034FB8046E01CDD
S21400571000F030FB0546601D2EF0EBFD0446024609
S214005720012140462EF0A1FD2246284601212EF0FA
S2140057309CFD60204FF4487CDFF82CE14B4A9EF835
S214005740003000FB03F422F80480DFF824811119EE
S214005750A1F810C0C1F814C04E83C1F85880591C77
S214005760C9B248431418A4F810C0C4F814C066831D
S214005770C4F8588094241552404D981C8EF80000AA
S2140057802878DFF808C1444303EB430301EB4101EB
S2140057900CEB040E02EB431302EB41120CF8040070
S2140057A0CEF80430CEF8082001302870EEE5601CF4
S2140057B000F0E0FA8046E01C00F0DCFA0022054625
S2140057C0114640462EF051FD002238241146284648
S2140057D02EF04BFD2A48274A03784FF0000E04FBB4
S2140057E003FC22F80C804FF0010802EB0C0181F854
S2140057F006E081F8048003EB0801C9B24C4302EBD3
S214005800040C15539C1C047070241E4D8CF806E086
S21400581028788CF804804443DFF874C0C3EBC303D5
S214005820C1EBC1010CEB040E02EBC30302EBC10299
S2140058300CF80400CEF80430CEF808204044B4E754
S21400584090F805C001358C4584BF04714471D4308E
S2140058501CE500BFF65D002088260020F0670020CB
S214005860DC1B0020DC1C0020F55D002068220020E8
S214005870F150000038200020F25D0020F15D00208D
S214005880F45D0020F05D0020F35D0020201A00206B
S214005890D0180020B9F1000F07D01BF8052C02EB3A
S2140058A0420204EB8204CBF808405946384601F021
S2140058B0B7FB09F10109D4370BF10C0B1BE579187E
S2140058C00AD0481E09FB00B0C07900EB400004EB8C
S2140058D0800409FB01B08460104609FB0151039265
S2140058E001F052F931781C48394409FB015101F0A6
S2140058F075F8039A0137403207E5FD4218BF11F8E4
S214005900050C03911EBF00EB400004EB80048C6086
S21400591003FB052000F07AFF039901350C31FFE404
S214005920F74218BF15F8053C29461CBF03EB430396
S21400593004EB830408FB07A018BFAC6000F03CFE35
S21400594001370C3500E513F8011D00297FF406AD7C
S2140059503B2102F8011C01E52C20002007B501219F
S21400596021200DF1070200F01DFA18B99DF8072056
S214005970024B1A7003B05DF804FB00BFD26D002026
S21400598007B5064B8DF80700187001210DF10702C8
S214005990212000F017FA03B05DF804FBD26D00205A
S2140059A007B5022101200DF1060200F0FBF938B917
S2140059B0044814F0CFF8BDF8060003B05DF804FB09
S2140059C00020FAE7FDF7030007B50221ADF8060050
S2140059D00DF10602012000F0F5F9014610B103486A
S2140059E014F0B8F803B05DF804FB00BF1EF803001F
S2140059F010B5FFF7D5FF04460146074814F0AAF88D
S214005A000121064814F0A6F824B9BDE8104001208C
S214005A10FFF7DABF10BD00BF4EF8030060F80300C2
S214005A2008B5044814F096F800F0DCF92EF07CFC7B
S214005A302EF077FC76F8030038B50446084D094B7F
S214005A4028462B6000F004FA002C18BF2146284692
S214005A50BDE8384008BF4FF496712EF06FBC00BF0B
S214005A608C270020214203002DE9F043384D91B0E9
S214005A7008AC0746894690460FCD0FC495E80F0040
S214005A80002684E80F0001250323324C3248CDE976
S214005A900366CDE905668DF80E300796029539F057
S214005AA0D7FA2E4839F0D4FA32462D4920468DF8DA
S214005AB0176004F0E7FB334632462A498DF8190092
S214005AC0009020468DF82390CDF82C808DF821602C
S214005AD004F0F2FB0A9020468DF8097004F054FB9F
S214005AE0204608AA05A904F00DFC02AA204603A930
S214005AF02FF0E9FC4FF400721B4B5A62194BE5601D
S214005B00626A920510D46BB94FF40072164B1148B6
S214005B105A6204F039FB114839F09DFA002011B0A2
S214005B20BDE8F083013BEBE7002BEDD0094908A860
S214005B302FF0FCFC4FF400720B4B06485A6204F040
S214005B4023FB064839F087FABDF82000E7E700BFD8
S214005B507C8F04000040005A249204002092040027
S214005B6080841E0040420F000060005A0122034B52
S214005B701870034B1980034B1A707047F85D0020AD
S214005B808C6D0020F75D0020F8B5454B1B780BB9EF
S214005B900020F8BD434B1B78012B03D1BDE8F8402D
S214005BA02EF041BB404B1C884FF6FF739C42EFD053
S214005BB03E4839F04DFA0023260AE4B21A4621463A
S214005BC0304604F0A1FA012E354604F0010335D024
S214005BD015D9B51E012DDBD8002B0BBF4FF48075F1
S214005BE04FF080754FF470614FF070610BBF012766
S214005BF04FF480370F204FF470202D4B11E0002B10
S214005C000BBF4FF480754FF080754FF470614FF006
S214005C1070610BBF01274FF480370F204FF47020C0
S214005C20244B1A6802401CD0BA421AD01A680A409E
S214005C3032D11A6822EA01022A4316E0002B0BBF73
S214005C404FF480754FF080754FF470614FF07061BF
S214005C500BBF01274FF480370F204FF47020164BF0
S214005C60DFE71A6822EA00023A431A602EF0DBFAEF
S214005C70054600288CD0083644EA06102A4603213A
S214005C80C0B2FFF7F1FE40F6FF73684300F2FF7004
S214005C90B0FBF3F080B27CE795427FF479AFC8E7BB
S214005CA0F75D0020F85D00208C6D00202492040033
S214005CB028C3035020C3035024C3035010B5044C1C
S214005CC0237823B9034839F0C3F90123237010BDA4
S214005CD0FA5D0020249204002DE9F0431F4C85B0A5
S214005CE0074688469146FFF7E9FF23781BB901F07F
S214005CF0BBFE012323707BBAADF80C3030220023A4
S214005D00174E02FB03F4315DA51901BB0123335581
S214005D104FF0FF3304F1100012493044AB606F803F
S214005D20C5F80480C5F80C9009F030F904F10801B4
S214005D30042231440C4B009503A801F06BFFA968C0
S214005D4002460A4813F006FF05B0BDE8F0830133AB
S214005D50102BD6D1064813F0FDFEF5E7F95D0020BE
S214005D60B42700204B4203005D42030083F8030083
S214005D70B1F8030080B10278A2F14103032B0BD8DF
S214005D8040783038C0B2082806D8054B134413F8BC
S214005D90413C40EA032070474FF6FF70704700BF53
S214005DA09C8F040008B50B4642B1014604480068C3
S214005DB003F074F8BDE808402EF0ACBA022008BD27
S214005DC05C68002008B50B4642B1014604480068EE
S214005DD003F0ECF9BDE808402EF09CBA022008BD9E
S214005DE05C680020F0B50026124F8DB0FF230093AC
S214005DF00A223346386802A92FF022F9C0B102AB56
S214005E001D4603EB800404E055F8043BB34228BF6C
S214005E105E1CAC423868E9D9296803F04DFB0028BF
S214005E20F2D02D28F0D00DB0BDE8F0402EF072BABA
S214005E300DB0F0BD5C68002028B1034B0360034B37
S214005E404360002383607047190000030468002045
S214005E50FF2307B50021044A0093083009F01AF81A
S214005E6003B05DF804FB00BF374303000B4604494C
S214005E70024608680349097808B12EF06FBA7047E1
S214005E80C02A0020FC5D0020F7B50C4618B1292179
S214005E90194839F034F9246823685E795F883046FB
S214005EA03946FFF7E3FFF0B18568E5B1A089227DAA
S214005EB03946904291BF0020801AA36880B294BFF2
S214005EC003469B18E27C00903046A847013803281A
S214005ED003D8DFE800F0080F0B0D0024204632F050
S214005EE01FFC204600E0812003B0F0BD8024F5E7CB
S214005EF09324F3E78724F1E7D9F80300F8B51546AD
S214005F000D4A044610680D4A0B46117850B12246D9
S214005F102EF024FA034628B100210C27C678B14299
S214005F2001DB0020F8BD07FB01F45A681019125B6C
S214005F30AA42F7D00131F2E7C02A0020FC5D00201B
S214005F4008B5034B1B6803B19847002008BD00BF87
S214005F50BC2A00202DE9F74F04460D460026454B87
S214005F60454F1860454B197033010021F85C013627
S214005F700FF0E6FD0C2EF7D10C2D28BF0C254FF0A8
S214005F80000901953C4EDFF800A13D4DDFF8FC808E
S214005F90019B4B4502DC03B0BDE8F08F23784FF041
S214005FA0000B337063887380A388B380A379C6F828
S214005FB00880B371E379C8F8005088F804304FF0D1
S214005FC00003A768A8F80630E3795B450ADC0121E0
S214005FD016F8100B0FF0B4FD08F1080809F10109D6
S214005FE00C34D5E74FF0000338886B812880FB78A7
S214005FF04FF0000C2B81BA78C5F804A0002A009256
S2140060000CBF802240222A7379680AF10C0263458D
S21400601013DC03EB43030AEB830ABB6843B1009A25
S2140060204FF6FF71B2FA82F2164B520932F008FBB5
S21400603014350BF1010B0C37C6E7B1F800E00CF194
S214006040010C22F80CEC91F802E00C3202F816EC87
S21400605091F804E00C3102F815EC11F809ECBEF1E9
S214006060010F14BF4FF0100E4FF0110E02F814EC93
S214006070CDE700BFC02A002088410020FC5D00203C
S214006080C4300020895E0000C42A0020443300206B
S214006090014B1860704700BFB82A002070B5128800
S2140060A005460E46FFF72AFF044670B102790499AA
S2140060B0806814F0B3FE064B1B680BB9002070BD59
S2140060C03146284622889847F8E78620F7E700BF3B
S2140060D0B82A002008B50EF0CFFD022806D0012809
S2140060E006D0044B18784000C0B208BD0120FCE77B
S2140060F00220FAE7FB5D0020054B10B51C682CB1AA
S214006100FFF7E8FF2346BDE81040184710BD00BF64
S214006110B42A0020014B1860704700BFB42A002044
S214006120034B1A781AB901221A700AF0ABBD7047F1
S214006130FB5D00200022024B1A70FFF7DDBF00BF98
S214006140FB5D002037B50446002832D00EF094FDE3
S214006150022830D1608932F060FEE079237A003878
S21400616018BF0120012B637A08BF40F008000BB16E
S21400617040F0100063890BB140F00400257CA18834
S214006180A2790DB1E36873B90C4B10F0B5F821781D
S214006190084610F02DF932F04CF9002814BF032001
S2140061A0002003B030BDCDE90035054B10F0A4F853
S2140061B0EDE70220F5E70120F3E700BF6F46040095
S2140061C07215040008B50CF0BBFE014630B1044859
S2140061D013F0C0FCBDE808400DF056BA08BD00BF7D
S2140061E04BF90300034B044A5B7C01210320137028
S2140061F0FFF7E8BDF0670020FD5D002010B50446FF
S214006200FFF7F0FFB4F57F4F0BD100240F4B1A8831
S21400621013449C70FEF718FF2046BDE81040FFF7B9
S2140062200BBC4FF601739C4204D1BDE810400848F1
S2140062302DF07FBF4FF602739C4205D1BDE810409B
S214006240044B1878FFF79CBB10BD00BF8456002097
S214006250F0670020D26D002010B5074C01212246C1
S2140062600320FFF79FFD28B92378044A003B18BF98
S2140062700123537410BD00BFFD5D0020F0670020B1
S214006280F8B5564B564C1A884FF6FF739A4218BF0D
S21400629003234FF0080218BF2370524B30251A70A4
S2140062A032225A70DA70DA7134229D705D713725A9
S2140062B01A724FF400129D714B4D3626C5644B4D35
S2140062C0426405654A4D012285654A4D1E71C565C5
S2140062D0494D86184566494DC6678566484D494E00
S2140062E00567494D80F848204567202580F8785096
S2140062F080F8845000F12105C0F88850434D80F89E
S2140063005420C0F88C5080F8602080F86C20C0F8CC
S214006310806080F89020C0F89440C0F8B8303C4BBD
S2140063203C4CC0F8BC300223C0F898403A4C80F889
S214006330C030C0F8A4400F24384B80F8A840C0F8FE
S214006340C430374B374CC0F8C8308223C0F8AC4056
S214006350354C80F8CC30C0F8B0400924334B344D6F
S214006360C0F8D030334B80F8B440C0F8D4302C7C22
S214006370314B80F89C20C0F8A00080F8D820C0F8E8
S214006380DC3044B12D4B80F8E420C0F8E03005F155
S2140063901103C0F8E8304FF0000CCA798E6802EBA3
S2140063A042039F00443006EB830326F807C058607C
S2140063B001200D349870DC701318CB71FFF7CEFAFD
S2140063C0FFF74AFFFFF786FE012806D12B7C23B194
S2140063D0BDE8F84016482DF0ACBEF8BD846D002030
S2140063E0D36D0020FE5D0020B58F04000100200064
S2140063F0B48F040002002000B38F040003002000C6
S214006400B28F04000500420004004200070030007E
S214006410FDFF21001200100100404200B08F040072
S21400642000FF4401A08F04000600420084560020AE
S214006430F067002002FF2001D26D002001FF10014E
S21400644013B504460D482DF0DBFD6422C0F30F4360
S214006450637083B2B3FBF2F3A0782370202201218D
S2140064602DF09EFFA078212201212DF099FF0449EE
S214006470201D02B0BDE810402DF060BF846D0020E6
S214006480E09304000B7870B583704CF61E0303800F
S2140064904FF02013C362012380F8303080F83C3080
S2140064A0C3180364124B044643640223114A80F85F
S2140064B04830114B8263C3644063CA798D6802EB2F
S2140064C0420305EB830004F12C0646600B4E45F8AC
S2140064D0236000238360531CCB71094B201DC4E945
S2140064E00134FFF7B5FC2046BDE87040FFF7A8BFB3
S2140064F0FDFF210021002000B68F040001000103EB
S21400650041640000437B044A012113700078113077
S214006510C0B2FFF757BC00BF085E002038B504467F
S2140065200078054D11302A460121C0B2FFF73AFC2B
S21400653008B92B78637338BD085E0020024B53F809
S21400654020002DF0F4BF00BFA4330020012908B5B9
S21400655006D0022907D049B92DF0E0FF002008BD7B
S2140065602DF0DFFFFAE72DF0DFFFF7E7024813F024
S214006570F1FA0120F3E700BF78F9030010B4054CE8
S214006580114654F820001A46BDF804305DF8044B56
S214006590FFF7DCBFA4330020002310B50446838138
S2140065A00364A0F844304830FFF752FC014BC4E9BE
S2140065B0123410BD1545030038B504460B781A4A48
S2140065C043700D4642F82300FFF7E6FF2046FFF72C
S2140065D0A5FF4FF4401323610123144A2375A261DB
S2140065E0134A84F82030E261124A84F82C30626242
S2140065F0114A84F83830A26204F10C0222630F4A72
S21400660004F10D036263E363EA79A86802EB4203D0
S21400661000EB830110344C60094C40F82340094BD2
S2140066208B60531CEB7138BDA4330020075E00203E
S21400663008002000D46D002000FF300001FF10018C
S214006640020101047D65000010B47024427B0D48F1
S214006650013A012904FB020006D0022908D059B9E4
S2140066605DF8044B2DF05ABF5DF8044B2DF059BF72
S2140066705DF8044B2DF058BF03485DF8044B13F04B
S21400668069BA00BFD018002094F90300B0F85C3057
S2140066902DE9F0418B4204460E4638D0437B077CFA
S2140066A08BB31C4A12789A422DD370251A4A013BA6
S2140066B005FB032390F80F801B7B42462DF045FF19
S2140066C0B845054601D1FF281FD13A463146204637
S2140066D094F890302DF039FF2F46054655221221AA
S2140066E06078A4F85C602DF05BFEFF2F03D039467F
S2140066F02046FFF7A9FFFF2D09D029462046BDE812
S214006700F0412DF062BFFF25DFE70746E6E7BDE86C
S214006710F08100BFF05D0020D0180020416882683C
S214006720C978D27849B112B10321FFF7AFBF837B96
S214006730002B0CBF01210221F7E72AB1837B002B37
S2140067400CBF02210121F0E7014813F003BA00BF95
S214006750A5F90300037BD3B14368DA7812B18268E7
S214006760D278A2B91B7933B1837B002B0CBF0421EE
S2140067700521FFF78BBF83681B792BB1837B002B2A
S2140067800CBF05210421F4E7014813F0E3B9704774
S214006790D7F90300084A437B05211370837B5370A7
S2140067A0C37B9370037CD370037B137100780E3029
S2140067B0C0B2FFF707BB00BF095E002038B504462D
S2140067C000780C4D0E302A460521C0B2FFF7EAFAD3
S2140067D020B1BDE83840084813F0BCB92B78637385
S2140067E06B78A373AB78E373EB7823742B792373FE
S2140067F038BD00BF095E002013FA0300024B53F8B1
S21400680020002DF02CBF00BFCC330020F8B5044686
S2140068100B78424A43700D4642F82300404E2DF056
S2140068203CFFFFF7CBFF6268A3683E483E49D6644C
S2140068301165D4655065C3E91410DE64DC654FF05D
S214006840987302266361012304F10C01E161374964
S2140068501032216204F10D01A16235492376E1620E
S21400686004F10E016163334984F82430A16304F116
S2140068700F012164304984F83030616404F110015E
S214006880E1642E4984F83C3084F84830216584F869
S2140068905460A265E879A96800EB400201EB820724
S2140068A004F1140CC7F804C04FF4817C244F41F85F
S2140068B02270C218D2B202EB420241F822C001EBAB
S2140068C0820700227A601F4A84F8703022661E4AC9
S2140068D084F88830A2661D4A1D4BE2661D4AC4F83D
S2140068E08C3062671C4A8319A26704F15C02C4F804
S2140068F08020DBB2194A03EB4303C4F8842084F8F3
S214006900646084F87C6001EB830260345460144A4F
S214006910033041F82320E871F8BD00BFCC330020D7
S2140069201D67000021460300556700000100200196
S21400693002001001030030010400300105002101AF
S21400694001FC01064A002100B88F04005100100027
S214006950BA8F0400BB8F0400550021006F0018009A
S2140069601200010470B50D460646144613460A4644
S2140069700146164813F0EEF825B92046BDE87040EB
S214006980FFF73CBC072D05D121463046BDE87040D8
S21400699000F00ABB4FF601439D4205D12146304622
S2140069A0BDE87040FFF72ABF062D05D121463046C8
S2140069B0BDE8704000F0A2B8B5F5817F05D121464C
S2140069C03046BDE87040FFF7B9BD70BD42FA03001F
S2140069D00148FFF75DBB00BF656900004FF4C013B8
S2140069E030B5036001230371074B8C688360CA7956
S2140069F002EB420304EB83056860044844F8230076
S214006A00531CCB7130BD00BFBC8F040004000101D5
S214006A1038B50024044D55F8040B08B12DF04DFE92
S214006A2001340A2CF7D138BDF4330020042908B508
S214006A300AD172B16BB113781BB92DF069FE002034
S214006A4008BD2DF05BFEFAE7034813F083F801203B
S214006A50F6E70320F4E700BF75FA030010B4054C10
S214006A60114654F820001A46BDF804305DF8044B71
S214006A70FFF7DCBFF43300200229024608B50ED02B
S214006A8004D839B910462DF043FE06E04029F9D067
S214006A90412907D110462DF031FE002008BD2DF00B
S214006AA041FEFAE7024813F055F80120F6E700BF6A
S214006AB095FA030010B4054C114654F820001A4607
S214006AC0BDF804305DF8044BFFF7D6BFF433002062
S214006AD0426B094B52791A7082785A70C2789A7053
S214006AE0826B12B190F83C20DA70007804210930ED
S214006AF0014AC0B2FFF766B90E5E0020024B53F89B
S214006B0020002DF02BBE00BFF433002038B504461D
S214006B100078084D09302A460421C0B2FFF742F932
S214006B2030B96B78A370AB78E370EB7884F83C30C0
S214006B3038BD00BF0E5E002038B504460078114D03
S214006B4009302A460421C0B2FFF72CF9C8B9A37849
S214006B502A78022B0CD004D863B920462DF0D8FD35
S214006B6001E0FF2B0AD02046BDE838402DF0A5BD39
S214006B70002AF2D120462DF0C1FDF4E7002AF9D113
S214006B80EBE738BD0E5E0020F8B504460B78284AC1
S214006B900D4642F823004370FFF7B8FF636B254AA3
S214006BA05C631A632046FFF7C7FF20462DF085FD7D
S214006BB04FF4801363600123626BA66B0532E260BC
S214006BC01D4A23722261A21C2375A26166B11B4A6C
S214006BD084F82030E261E21C6262194A84F82C30A4
S214006BE004F13C03A26223630627EA79A96802EB54
S214006BF04203002E21F8237001EB83000CBF022312
S214006C000423C370012383700E4B04348360531C2B
S214006C104460DBB20C4C03EB430341F8234001EB2A
S214006C20830000234360094B02328360EA71F8BD9B
S214006C30F4330020394703000340300101FF3001E0
S214006C4002FF1001B56A0000080001005D6A00003E
S214006C5028B1034B1B78834234BF002001207047C5
S214006C60F25D002070B500250A4C0B4E3378AB421F
S214006C7000DC70BDD4F8A42042B123791BB1607942
S214006C80FFF7E6FF10B910462DF044FA0135D4346C
S214006C90ECE700BFDC1C0020F35D002008B542795D
S214006CA001461046FFF7D4FFA8B1CB780A48013A50
S214006CB0042B00EB82100ED8012B08D81BB9BDE8B8
S214006CC008402DF01BBDBDE808402DF021BDBDE8F5
S214006CD008402DF027BD08BDDC1B002008B5427912
S214006CE001461046FFF7B4FFA8B1CB780A48013A30
S214006CF0042B00EB82100ED8012B08D81BB9BDE878
S214006D0008402DF005BDBDE808402DF0F7BCBDE8F5
S214006D1008402DF007BD08BDDC1B002010B586B06E
S214006D200446FFF7D7F9012830D1E278042A2DD897
S214006D30DFE802F013323403030061790846FFF7F8
S214006D4087FF58B31648032A00EB811050F80C3C16
S214006D5058791DD1003818BF012063784FF480722F
S214006D608DF804304FF48273ADF806300623ADF884
S214006D70083001238DF80B3000238DF80A0001A897
S214006D80CDE903238DF81430FFF7DCF906B010BD0B
S214006D90B0FA80F04009E0E70020DEE70220DCE7FA
S214006DA0DC1B002010B586B00446FFF793F90128D7
S214006DB030D1E278042A2DD8DFE802F0131332032C
S214006DC0030061790846FFF743FF48B31548032AD6
S214006DD000EB811050F80C3C5B791DD11A1E18BFD1
S214006DE0012263788DF80A208DF804304FF4827300
S214006DF0ADF806300623ADF8083001234FF4807254
S214006E008DF80B30002301A8CDE903238DF814304C
S214006E10FFF798F906B010BDB3FA83F25209E0E71F
S214006E200222DEE7DC1B002010B586B00446FFF722
S214006E3051F9012812D16378094A8DF804304FF4CD
S214006E408273ADF806304FF48073CDE90223002339
S214006E5001A804938DF81430FFF774F906B010BD3E
S214006E600800070110B586B00446FFF733F901287D
S214006E7020D16278104B8DF804204FF4827294F87B
S214006E80A01094F8A10059701870ADF8062004936D
S214006E904FF480720223094901A88DF81430CDE919
S214006EA00212FFF74FF994F8A130013B18BF0123F7
S214006EB084F8A13006B010BD125E0020080005015F
S214006EC010B5837804464BB30379022B0AD1427976
S214006ED01046FFF7BDFE28B11148013A00EB8210BC
S214006EE02DF020FCA379022B02D12046FFF716FFD7
S214006EF02046FFF7B7FF012384F8A8300223607806
S214006F001221A4F86C3055222DF04AFA04F1AC0098
S214006F104FF47A71BDE810402DF010BA10BD00BFD6
S214006F20DC1B00204388094A08211380838853808D
S214006F3083681B8A938090F8A03093718379D3710D
S214006F4000780430C0B2FEF73DBF00BF06570020F1
S214006F5038B50D4604460178114812F0FBFD4FF691
S214006F6002739D420ED10F4B1B782BB963712046DE
S214006F70BDE83840FFF7D6BF62790AB19342F6D231
S214006F800123F3E7B5F57F4FF1D120462DF08FFCB6
S214006F90A378022B0CBF01220022A3689A70E6E7B2
S214006FA0B1FA0300F25D0020024B53F82000FFF711
S214006FB0CFBF00BF1C34002038B504460078144DFF
S214006FC004302A460821C0B2FEF7ECFE20B1BDE828
S214006FD03840104812F0BEBD2B8863806B88E97875
S214006FE0A380AA88A3681A82AB7984F8A030EB79CC
S214006FF0A371094B1B780BB9637138BD09B199426F
S214007000FBD9064812F0A6FD23780133F4E700BF4B
S21400701006570020CBFA0300F25D0020F4FA0300C6
S214007020F8B504460B784B4A0D4642F823004370E9
S214007030FFF7C2FF484B04F1AC00C4E92B34FEF75F
S21400704007FFA268454BD465D364454B02265365BB
S214007050444BA11C13654FF44013E36001236161A8
S214007060E1624149103221632265211D3F4AA16336
S2140070703F484049626504F1A002A061E163E26511
S214007080E01C611D3C4A206261643C483C49226623
S214007090A21D2374237784F8283084F8343084F8CB
S2140070A04030A16484F84C6084F8583084F864302A
S2140070B06062A266E879AA6800EB400102EB8107ED
S2140070C004F10C0CC7F804C04FF0060C2D4F42F824
S2140070D02170C118C9B201EB410142F821C002EB90
S2140070E0810700217960284F84F880302767274F72
S2140070F084F89830A767264F264BE767264F84F814
S214007100746084F88C60C4F89C3004F16C06831CB0
S214007110C4F88470C4F89060204F214EDBB203EBB5
S2140071204303C4F89460C4F8887002EB8306703496
S214007130746008261B4C42F82340C31CDBB203EBEA
S214007140430302EB8304043042F823606160E87175
S214007150F8BD00BF1C34002083470300EB47030044
S21400716043480300C16E000001FF300104FF200108
S2140071701000300102FF200105FF300100FF300142
S21400718003FF2101070001084A002100BE8F04000A
S21400719051001000C08F0400C18F0400550021006C
S2140071A06F0018001200010400239B6AB3F5804F9D
S2140071B003D21968064A914203D000230370836005
S2140071C07047012202709A689B694260F7E700BF29
S2140071D007B0CD5E024B034A1A602EF08CBF00BF8C
S2140071E00000002002020FF073B53F4B04461A78E9
S2140071F01AB102221A7002B070BDCDE90022002832
S214007200F9D001261E7037F085FE384D384B1860D1
S21400721017F082FA2B785BB902F0F2F940B93548DC
S2140072200823354A3549006801F038FE00B92E704B
S214007230334B5A68E260334A9A601A6E22605A6E7E
S2140072406260D3F87021A2601B6E5C042CD52E4AB7
S214007250D368D807FCD42D4B1A68531C29D04FF49A
S214007260801393402A4A13660423294C4FF0804229
S21400727023664FF480632366102323664FF400537F
S2140072806846236601A9226663662DF028FB009BEC
S2140072902366019B63662B78002BACD0164B1A68CE
S2140072A022665B686366A6E71A4AD368D907FCD4E9
S2140072B0D1E7194B1B78002BD6D1184B5A68144BC4
S2140072C012B94FF480121A66154A526812B94FF472
S2140072D000121A66134B5B68002BC5D14FF4800270
S2140072E00B4B1A66C0E700BF155E0020165E002036
S2140072F0543400205C6800205834002000710800D8
S2140073000080004455CEAC000000044028680020F1
S2140073100090004400000450145E002000800550D9
S21400732000C005500000065038B5224D04462B78A4
S214007330012B02D001232B7038BD0028FCD02DF085
S214007340F3FA013009D02DF0EFFA40F2011398421B
S21400735003D0194AD368DB07FCD42268174B1A6699
S21400736062685A66A268C3F87021E268D40744BF10
S21400737000229A60124B1A68013213D1114A127811
S21400738082B911494968C80748BF1A600F4A52684F
S214007390D10744BF01221A600D4A5268D20744BF83
S2140073A002221A6017F0C0F90A4B186837F0ADFDD4
S2140073B00023C0E7155E0020000004400080004463
S2140073C028680020145E00200080055000C005508C
S2140073D0000006505434002070B50024A36AB3F5AC
S2140073E0804F23D21A68134B9A421FD1124E33781D
S2140073F013F0FD0518D14FF480341048FFF7F4FE63
S214007400032004F04FFC0E4B0320DC6004F02EFC3F
S2140074100C4B1C61AB6ADB69984704460748FFF7CC
S21400742083FF0CB901233370204670BD4FF481747E
S214007430FAE700BF07B0CD5E145E0020443400209B
S21400744000A000440090004413B5204B1B7803B9FD
S214007450FEE700231E4CCDE900336A4608231D498B
S214007460206801F01BFDF8B91B4AD2F84031D2F86B
S21400747040211F2B4FF0010311D9203A9340019A67
S2140074801A43019208236A461249206801F08EFECC
S214007490124B134A1A602EF02EFE02B010BD934017
S2140074A0009A1A430092EDE72D28F1D10A4AD2F845
S2140074B04031D2F840211F2B4FF0010385BF203A00
S2140074C093409340019398BF0093DBE7155E00203E
S2140074D05C68002000710800008000440000002066
S2140074E00B020FF038B50025AB6A0446B3F5804FA3
S2140074F010D21B6BB3F5804F0CD20748FFF774FE13
S214007500AB6A20461B6B5B689847BDE8384002486C
S214007510FFF70ABF38BD00BF6034002013B5002453
S214007520A36A0190B3F5804F13D21B6BB3F5804F5F
S2140075300FD20948FFF758FEA36A01211B6B01A86A
S2140075409B69984704460448FFF7EEFE204602B0C3
S21400755010BD4FF48174F9E76034002070B5002642
S214007560B36A0446B3F5804F0D4612D21B6BB3F5D3
S214007570804F0ED20848FFF737FEB36A20461B6BD3
S21400758029469B69984704460348FFF7CDFE2046E8
S21400759070BD4FF48174FAE76034002070B50026A1
S2140075A0B36A0446B3F5804F0D4612D21B6BB3F593
S2140075B0804F0ED20848FFF717FEB36A20461B6BB3
S2140075C02946DB69984704460348FFF7ADFE204688
S2140075D070BD4FF48174FAE760340020F8B50027D8
S2140075E0BB6A0446B3F5804F0D46164611D21B6B98
S2140075F07BB10948FFF7F8FDBB6A20461B6B324695
S21400760029465B6A984704460348FFF78DFE2046E6
S214007610F8BD4FF40174FAE76034002070B5002618
S214007620B36A0446B3F5804F0D4612D21B6BB3F512
S214007630804F0ED20848FFF7D7FDB36A20461B6B73
S21400764029469B6A984704460348FFF76DFE204686
S21400765070BD4FF40174FAE760340020F0B50027DF
S214007660BB6A0446B3F5804F0D461646ADF5337D2E
S21400767020D21B6BB3F5804F1CD21048FFF7B4FD29
S214007680BB6A20461B6B40F2C1225B6A01A9984781
S214007690044630B10948FFF747FE20460DF5337D16
S2140076A0F0BD836A32461B6B2946DB6A01A8984701
S2140076B00446EFE74FF40174EFE700BF60340020A4
S2140076C010B50024A36AB3F5804F10D21B6BB3F538
S2140076D0804F0CD20748FFF787FDA36A1B6B1B6B16
S2140076E0984704460348FFF71FFE204610BD0124B6
S2140076F0FBE700BF60340020F0B58FB0044601A859
S2140077000E461546FFF7EEFE9DF80C30012B12D103
S214007710B5F5402F27D8B4F5402F24D86319B3F514
S214007720402F20D821462A46304613F0B5FC0024C8
S21400773020460FB0F0BD0027BB6AB3F5804F15D2C8
S2140077401B6BB3F5804F11D20A48FFF74DFDBB6A9D
S2140077502A461B6B314620465B6B98470446054815
S214007760FFF7E2FDE4E740F20244E1E740F20114ED
S214007770DEE700BF60340020F0B58FB0044601A8F5
S2140077800E461546FFF7AEFE9DF80C30012B1FD1B6
S214007790B5F5402F06D8B4F5402F03D86319B3F5D6
S2140077A0402F13D940F2024420460FB0F0BDE258F5
S2140077B0013225D104339D42F9D82A463146204667
S2140077C02DF0E2F80028EDD00024EDE70023F2E7E4
S2140077D00027BB6AB3F5804F15D21B6BB3F5804FFD
S2140077E011D20A48FFF700FDBB6A2A461B6B3146DA
S2140077F020469B6B984704460448FFF795FDD3E761
S21400780040F20344D0E740F20114CDE76034002094
S21400781070B58EB0044601A80D46FFF763FE9DF8CE
S2140078200C30012B22D144EA0503C3F30C03002BD2
S21400783033D1B5F5402F04D940F2024420460EB0AD
S21400784070BDB4F5402FF7D82544B5F5402FF3D8D2
S214007850204604F500542DF090F8AC4202D00028E3
S214007860F6D1E9E70028E7D00024E7E70026B36A68
S214007870B3F5804F14D21B6BB3F5804F10D20A4875
S214007880FFF7B2FCB36A29461B6B2046DB6B9847B2
S21400789004460548FFF748FDD0E740F20444CDE72C
S2140078A040F20114CAE700BF60340020BFF34F8FD8
S2140078B00549064BCA6802F4E0621343CB60BFF387
S2140078C04F8F00BFFDE700BF00ED00E00400FA05A3
S2140078D070B5D0B1C9B10E4E431E013913F8014F31
S2140078E02046325D02F00302012A11F8012F08BF7C
S2140078F004F12000B55C05F00305012D08BF203219
S214007900801A01D1002CE9D170BD0120FCE700BF30
S21400791021B704000348044A0449121A92102DF0B5
S2140079207FB800BF34410000D04200005C650020F4
S21400793008B5154B83F30A8800F030F8FFF7EAFF26
S214007940124B13498B4212D30020124B12498B4222
S21400795018D3FDF7C7F9186850F82240586840F861
S2140079602240013298688242F5D30C33EAE70022BF
S214007970F8E71C6844F8220001325C68A242F8D39B
S2140079800833E4E70022F8E708000020E0DB040004
S214007990ECDB0400ECDB0400ECDB0400124B134AC7
S2140079A070B59A60D3F88820114D42F47002C3F87F
S2140079B088206FF0010205F50054226641F2FF723E
S2140079C062660222C3F8D020BFF34F8FBFF36F8FDB
S2140079D04FF44036032004F065F90320E66004F017
S2140079E045F92E6170BD00BF00ED00E000400000CC
S2140079F000800044014B1860704700BF30680020CC
S214007A00054B1860054B1B6F03F00703032B01D1D2
S214007A1035F032BB704700BF386800200080005049
S214007A202DE9F04104464FF001080C250D4E0CB927
S214007A30BDE8F08194FAA4F0B0FA80F00F2808FAB6
S214007A4000F2C8BF103824EA0204CABF05FB006271
S214007A5005FB0062B4325768002FE8D09168C0B2C8
S214007A60B847E4E77034002008B50C4837F0F0FA61
S214007A70192004F009F928B1192004F013F9192087
S214007A8004F0F4F81A2004F0FFF828B11A2004F0E5
S214007A9009F91A2004F0EAF8002008BD2492040030
S214007AA02DE9F0410E461746054618B30F2923D890
S214007AB00378DBB1013BDBB2022B19D8104AD35C4A
S214007AC06A78D340DB0717D50E4BD3F81043ACB912
S214007AD037F020FA80463A462846314602F042FE03
S214007AE0404637F012FA2046BDE8F0817F23E7E7EC
S214007AF00023E5E72224F6E72124F4E70224F2E750
S214007B001490040000C0035010B5044610B3037868
S214007B10E3B1013BDBB2022B1AD8104AD35C627881
S214007B20D340DB0718D537F0F5F9012261782378C2
S214007B308A4030214B4341F2100103F1A04303F584
S214007B4070335A5037F0E1F9002010BD7F23E6E786
S214007B500023E4E72220F8E72120F6E7149004004B
S214007B6010B5044610B30378E3B1013BDBB2022B39
S214007B701AD8104AD35C6278D340DB0718D537F0A2
S214007B80C9F90122617823788A4030214B4342F2BA
S214007B90100103F1A04303F570335A5037F0B5F9DE
S214007BA0002010BD7F23E6E70023E4E72220F8E765
S214007BB02120F6E71490040038B50D46044618B3A5
S214007BC011B30378E3B1013BDBB2022B1AD8104A9B
S214007BD0D35C6278D340DB0718D537F09BF93022A8
S214007BE02378534303F1A04303F570335B6962784F
S214007BF0D34003F001032B7037F087F9002038BD1F
S214007C007F23E6E70023E4E72220F8E72120F6E7D3
S214007C10149004002DE9F0410D4616469846044699
S214007C2000284FD000294DD00178002940D04B1EA7
S214007C30DBB2022B3ED8254AD25C6378DA40D20704
S214007C4001D4FF2940D1022E01D9042E3CD137F0B1
S214007C5061F923780746FF2B05D03246204629686F
S214007C6002F0C6FD28602B68013309D12378FF2B6C
S214007C7006D1174B6078D3F824142DF0ACFC28609E
S214007C8029684B1C18D00C23124A03FB0122069BC2
S214007C90C2F8048093602378FF2B04D001230E4A99
S214007CA08B40C2F82434384637F02FF9002007E01E
S214007CB07F22C2E70022C0E7384637F026F92D209B
S214007CC0BDE8F0812220FBE72120F9E714900400AC
S214007CD000C003507034002000D0035008B502F0F6
S214007CE037FD044B00F05530C3F82004BDE80840CB
S214007CF0FFF796BE00E0035008B502F029FD044BDE
S214007D0000F0AA30C3F82004BDE80840FFF788BE9C
S214007D1000E003502DE9F04F144605460E469B46FC
S214007D20C36B87B001225B6902A960689847EB6B5A
S214007D3001225B6903A93046984702A82DF06FFA26
S214007D40074648B10023A37563754FF0FF33A36061
S214007D50002007B0BDE8F08F03A82DF06DFA0123D0
S214007D60A375237E04EBC303DE611F846368B342FE
S214007D700ED1206003A82DF081FA4FF0FF33207556
S214007D80A360237D043B022B26D80023A375DFE7E0
S214007D9023681A1A53425341A37503A82DF06EFAAE
S214007DA0237D834218BFA77503A82DF049FA07461E
S214007DB002A82DF045FA874218BF002303A818BF73
S214007DC0A3752DF045FA074602A82DF041FA874222
S214007DD01CBF0023A375D4E703A82DF031FA80B1A9
S214007DE0EB6B022230465B6904A9984704A82DF085
S214007DF036FA0346207D032839D8DFE800F0383805
S214007E00040903A8F3E7CC22237E04EBC3031A84F9
S214007E1001F06EFC109B187003A8277E2DF004FA64
S214007E2004EBC70787F82200237E03A804EBC303EE
S214007E30B3F8209093F822702DF002FA804603A83B
S214007E402DF006FA8246B8F1000F15D0EB6B022231
S214007E5030465B6904A9984704A82DF0C5F96075FB
S214007E60637D6BB90023A3754FF0000838E0227ECF
S214007E7004EBC2021384CBE703A82DF0A0F9EEE7CB
S214007E8094F81680B8F1000FEED0B9F1000F09D1C2
S214007E90DFB10123E375637E002B4FD1012F42D162
S214007EA0677614E06B6C06EB0A015A4286EA01001C
S214007EB010421CBF0022A2755A1E0A409B1A994502
S214007EC0D0D8A37D002BE3D1CEE7E37D43B94FF0B6
S214007ED000084B465246314628462CF0EBFEA06082
S214007EE0A27D12B123694B4423611A49237E097887
S214007EF099422AD901332376BBF1000F27D032B33B
S214007F00E37D23B3B8F1000F21D1032F1FD0A16862
S214007F104B1C1CD0109B2246009328460123FFF7DB
S214007F20F9FEA07513E095F8343063B9EB6A0133B7
S214007F30CFD1032FCDD10123A376C8E7012FCFD011
S214007F40032FC4D1F7E79846C3E70023A375A07DA7
S214007F50FFE600BF389004002DE9F04F0E46984625
S214007F6000238BB004464FF0FF31104617468DF8BD
S214007F70133001F0A7FBB6F5801F20D2314605AAC4
S214007F8004F108002DF09DF8451C014603D1237C22
S214007F90BBB92D2010E0384601F094FB012239468B
S214007FA020460DF113032CF0D7FE0028EFD09DF8E5
S214007FB0133088F8003000200BB0BDE8F08FB01CFE
S214007FC0E5D1E56A691C36D12046616A2CF0B8FD19
S214007FD00546B31C18BF0123DFF8CC900193636AF3
S214007FE0626C0293236805A902FB053AE36B05223F
S214007FF05B695046984705A82DF0ACF92DF0CFF9EF
S21400800050462DF0D7F94FF0000B824601464B1C28
S21400801005D0636C81EA0A025B42134211D02946FE
S21400802020462CF08DFD029BAB422CD0BBF1000FFE
S2140080302CD10546D3E72368ED1A636CB5FBF3F540
S214008040C7E7484601F03EFB0DF1130349462046BC
S214008050019A2CF081FE034690B1B21C03D0D9F8E9
S2140080600020B2420CD19DF8132003930D4B88F8E4
S214008070002049461A68384613F00EF8039B9B46C4
S214008080D9F80810C3E7BBF1000F82D0B6F5801F01
S21400809091D2314698F800307A6804F1080001F071
S2140080A03FFA88E7349004004C3C00202DE9F34169
S2140080B00446174698460E46184D816AE36A8B4278
S2140080C001D04B1C02D102B0BDE8F081284601F079
S2140080D0F9FA0122294620460DF107032CF03CFE52
S2140080E038B14346294620469DF80720B847002861
S2140080F0E9D0A9684A1C04D1696820462CF0ADFD79
S2140081000146012EDAD16B6881EA0302636C5B429A
S2140081101A4218BF4FF0FF31D0E700BF203C0020C6
S2140081202DE9F04F4FF0FF334FF6FF72002504465F
S21400813000F10806C0E909238BB0C3620562056337
S214008140304688462CF08EFF20462CF0C9FC60BBDB
S214008150204641462CF044FD20462CF0C1FC60BB76
S2140081605E200BB0BDE8F08F2368E26B606C576949
S21400817000FB0530052205A9B84705A82DF0EAF84A
S214008180012807460CD1294620462CF0FAFC012F80
S214008190024600D10132294620462CF0C0FC03E0FE
S2140081A02DF002F90028EED10135E3699D42DBD3BC
S2140081B020462CF095FC0028CAD000254FF0FF3949
S2140081C04FF6FF73CA46A846C4E90853E3699845C4
S2140081D00AD3A5EB0905012D2CD84FF6FF72636A6A
S2140081E093423CD16720BCE72368E26B606C57691A
S2140081F000FB0830052205A9B84705A82DF0AAF807
S214008200834605A82DF07DF8074658462DF0C7F89A
S21400821068B1574538BFC4F82480B94528BFB94669
S214008220BD4238BF3D46BA46236A0133236208F191
S2140082300108CBE74FF6FF7300256362E3699D42B2
S214008240CBD2676C2068E36B052207FB05005B69F1
S21400825005A9984705A82DF054F80135EEE7E26B1E
S214008260676C2068694607FB030055690522A84726
S21400827068462DF046F8626A2368606C4B4D00FB3A
S21400828002302DF097F84FF0FF33A062E3622A46E3
S2140082906FF00101204605ABFFF75EFE002846D1D1
S2140082A0AD6829462046E5622CF0F6FB206320B92F
S2140082B02046E16A2CF0D1FCE062294620462CF0EC
S2140082C0CCFC0546A36A9D4233D120462CF0B7FB72
S2140082D000278046B946E36999453CD3B84559D945
S2140082E02046616A2CF02CFC0026054604F1400A64
S2140082F0B74212D8626C2368694602FB0539E36B05
S21400830005225B694846984768462CF0FAFF5346B4
S21400831002464946E06B2DF04FF8294620462CF0E1
S2140083200FFC0136B0450546E2D1642019E7A56A80
S214008330B7E7294620462CF0AFFB236B29460344BB
S2140083400746236320462CF088FC0546002FB9D14B
S214008350C4E90B07B6E7636C2568052203FB0955DD
S214008360E36B05A95B692846984705A82CF0F2FF41
S2140083702DF015F858B128462DF01CF80146204679
S2140083802CF08AFB636C143B984208BF013709F156
S2140083900109A0E730462CF065FE0023204619466A
S2140083A0034AFFF783FE0020DBE600BF783C002090
S2140083B0474D03002DE9F041036B9046826B07683A
S2140083C09A4288BF8363426C436A90B002FB03778D
S2140083D0C36B0E46052201A95B69044638469847DA
S2140083E001A82CF0B7FF01280146307057D0656C05
S2140083F0E26B2368606AD2F814C005FB00300522E1
S21400840006A9E04706A82CF0A5FF01284FF00005B6
S21400841023D0D4E90A3201219342CDE90B458DF8E9
S21400842034800E958DF83C102AD1194620462CF043
S21400843014FC236B626C14339B1AE06223630C9B60
S21400844053B99DF83C303BB1626A616C2368E06BBF
S21400845001FB02312CF036FF0C9DE36B05225B69B5
S21400846001A93846984701A82CF074FF30702846BA
S214008470236BA26B9A4288BFA36310B0BDE8F0815D
S214008480237C33B91C490BAA04F1080001F096F8C6
S214008490D5E72046194A0BABFFF708FECFE7237C4B
S2140084A023BB2246164904F1080001F087F8616AEA
S2140084B020462CF066FB616A421C20462CF02FFBFF
S2140084C0054620B9236B626C1344143B2363204695
S2140084D0A16A2CF0C2FB2368A062C01A636CB0FBD2
S2140084E0F3F0606220462CF0FBFBB6E70023204644
S2140084F0044AFFF7DBFDDAE7598C0000D58B000055
S214008500E14D03007D4D030073B50D46D11E4A4272
S2140085101C461B7E4A419A4226D129682368994206
S21400852022D3636899421FD8114E0DF107033246D5
S214008530FFF712FDC0B972686B689A4214D19DF8B5
S2140085400730DA1E53425341227E93420CD16369B0
S21400855001336361D4E90323934205D22968A268F4
S21400856042F8231001332361012002B070BD00BF22
S214008570783C00202DE9F04F9B4689B09DF84830A6
S2140085809046514A0193136907465B450D46C0F075
S2140085909580D94653680093B9F1000F7BD0FB6BEA
S2140085A001225B6905A90098984705A82CF044FEAF
S2140085B0454B1B68984240F0848005A82CF048FE86
S2140085C00428064615D105A82CF049FE009B044653
S2140085D01E44019B002B3ED1804512D91C46A8EBB9
S2140085E00008384600992CF038FBA9EB04090090E7
S2140085F0D2E7FB6B02225B69009806A9984706A89B
S214008600E2E7A0EB08045C4528BF5C46032C464422
S214008610ABEB040B1DD9FB6B294630465B69A20801
S214008620984724F0030304F0030A1E441D44DDF8B3
S2140086300480BAF1000FD4D0FB6B012206A93046A5
S2140086405B6998475246284606A912F025FD554410
S214008650C7E7A246EBE7824600F0030302932B1817
S21400866003930644039BA6EB0A00A3EB0A05029BB2
S2140086709A4514D1BAF1000FB3D0FB6B012206A9BC
S2140086805B6998475246284606A912F0C1FE0028A4
S214008690DDD04FF03609484609B0BDE8F08FFB6BD9
S2140086A0012206A95B6998470422284606A912F00B
S2140086B0AFFE0028EDD1AAF1040AD3E74FF0630914
S2140086C0E9E74FF06F09E6E7A43C00202DE9F0410A
S2140086D00F4616469846044688B060B390F8345065
S2140086E0FDB101212CF0F1F900210E9BCDE9051119
S2140086F0CDE902379DF83C30CDF804808DF81C306B
S214008700237C04968BB90D4901AA04F1080000F0F9
S21400871055FFDDE90553E06B002E08BF1D462CF023
S2140087206DFB284608B0BDE8F0812046044A01AB40
S214008730FFF7BCFCEDE70546F3E700BFAB4D0300D3
S214008740098500007FB590F84260044601920DF15D
S2140087500B030A46304611492CF058FB012E0546FD
S214008760E36B17D132465B6903A998479DF80B1057
S214008770039B019A59B19BB243EA02430122284661
S2140087800393E36B03A99B69984704B070BD62F33B
S2140087900F03F3E701229B6901A9F5E7A43C00203B
S2140087A02DE9F04F99B00E460D920A69416C0B9375
S2140087B01439D31DB3FBF1F3013302EBC302036B91
S2140087C004469342C0F001820023DFF80494089325
S2140087D0E36A48461946059300F074FFD6E9033766
S2140087E007930B9B022B4DD1CC2F40F0D7810D9BCE
S2140087F03BB1314620462CF05FFB656C149001209F
S21400880044E00120079B656C1B68149300F0010090
S21400881000280CBF04230823782F0E9349D8059A06
S2140088206B1E1340ED1A3B1D9D423CD2002F3DD0DF
S214008830082D3ED80023042506934FF0040A33681B
S21400884006990B98C9F80030C9F810702CF01AFD7C
S2140088504FEA9A030F93059B89F8140003930023AD
S21400886009930C9304930A93616C039B4A1E1A4067
S2140088708B1A27B35544AB4223D8236B5B1A134499
S21400888023632FE1782F656CB9D8F07D0D9B002B04
S214008890BCD0E36B01225B69706816A9984716A8DE
S2140088A02CF0CEFCB4E700250695C6E7042506970F
S2140088B0C3E7012300254FF0080A0693BFE7534598
S2140088C0DBD3A3EB0A029742039BB84628BF904629
S2140088D09742534428D90122D9F8101089F8172056
S2140088E08F4226D10399C9F80410049299F81720EC
S2140088F00AB399F818100398CA1C09EBC202506014
S21400890004980131A2F80880907289F81810B8F11E
S214008910000F07D00B9A022A40F08180099A72B1A4
S214008920012209929B46ABE0049A002A18BF032254
S214008930DBE70222D9E7039AC9F80420E7E70C9A96
S2140089404244032AEED9E26B1846956914A901221F
S2140089500993A847099B05460028E1D03D2D40F025
S2140089601E8104F1080303932368059A606CA2EB4A
S214008970030ABAFBF0FA00FB0A302CF01BFDE16A92
S214008980804620462CF069F9A26A824200F00F81E8
S214008990626CD9F80830511E0B40216B2768891A83
S2140089A00B442363089BE062DF1BB7FBF2F7BA4574
S2140089B040F0FA80059BB3EB080A12D0E36B4FEA4F
S2140089C09A0241469B6998478346E36A059A534450
S2140089D0E362236B03989B1A434423632CF042FB09
S2140089E0DA462368616CE06B01FB07312CF057FC1C
S2140089F020462CF075F820462CF072F92063BAF168
S214008A00000F00F0D4803269616CD31D1439B3FBBB
S214008A10F1F3013302EBC3029042A5D2BFE00D9AF8
S214008A20002A77D1B8F1030F4FEA98026ED9E16BAE
S214008A3018468D6907991093A847109B0546C0B93C
S214008A4018F0030515D0079A28F0030B02EB0B016C
S214008A509B444FF0FF3215A815922A46109312F049
S214008A601BFBE26B5846956915A90122A8470546E7
S214008A70109B9B46079A42440792002D40F08B803D
S214008A80049B16A80193069B009399F8142043466E
S214008A90316800F0CDFDE36B0F9A9B69039816A929
S214008AA09847039A051E089B18BF1346089343462B
S214008AB05246204603992CF0FDF8236B08F103027A
S214008AC0A3EB0A0322F003029B1AC9F808002363EB
S214008AD0002D7FF443AF0C9BA7EB080743440C9391
S214008AE0CDF80CB0204603992CF0B7F8002503907B
S214008AF0002F7FF4B9AE364A3168936804F1080057
S214008B00E36252680B9B00F00BFD49E09B4645462E
S214008B1007999EE79B4606F120021092F27D706848
S214008B20A2B1002296F818C00A99D5B2AC4511D960
S214008B30109D02F1010E35F832508D4228D90E985C
S214008B4006EBC2020144D069084403E00E9A0A9973
S214008B500A441044E26B15A9556901221193A847EF
S214008B60159A0A9B1392E26B0433956958460122C4
S214008B7013A90A93A847119B054603EB0802A2EB2C
S214008B800B02042A7FF679AF28B90BF1040BC5E770
S214008B907246491BC9E7CDF820B088E770252F46F6
S214008BA0384619B0BDE8F08F4FF0000A19E7326971
S214008BB0616CD31D1439B3FBF1F3013302EBC3022E
S214008BC0236B9342BFF404AEE9E71C27E8E700BF37
S214008BD04C3C0020032A2DE9F34106460D46174675
S214008BE01C4606D1237A012B23D0012002B0BDE813
S214008BF0F081DFF86080096842460DF10703FFF751
S214008C00ABF960600028EDD19DF80720237A032A8F
S214008C10E8D0D8F804106A689142E3D1012B29699C
S214008C20D4F80CC007D172690CEB0103934202D949
S214008C302074207CDAE708316144E1603B4601227B
S214008C4029463046FFF7ACFD60600028CAD00020F9
S214008C50CCE700BF783C00202DE9F341089C032AAE
S214008C601746266806D1237A012B24D0012002B0AD
S214008C70BDE8F081DFF89080304642460DF10703EC
S214008C80FFF76AF960600028EDD12568D8F804007F
S214008C90A96AD5F844C04840CCF100031840227AAF
S214008CA0E1D1012A09D1E268D8F81030134472697C
S214008CB0934202D92074207CD9E72868EB6A1B1AF5
S214008CC0081AB3FBFCF3B0FBFCF083420BD1706CCC
S214008CD0F36A421E1340326B121A1344284633635B
S214008CE02BF0BBFFE862D8F81020E3680832134484
S214008CF0E36001223B4604492068FFF751FD6060AF
S214008D000028B0D00020B2E7783C00202DE9F041E2
S214008D100025604B0E46D3F8008004461D6018B947
S214008D2021252846BDE8F08190F8347007B30A681C
S214008D3003689A4240F0A3804A6843689A4240F02B
S214008D409E808A6883689A4240F09980CA68C368A1
S214008D509A4240F094800A6943699A4240F08F80B4
S214008D608A69C36B9A4240F08A804B698361D8E770
S214008D7068223946856B11F0FFFFD6E90212336888
S214008D8004F1080023607368A56363603369636158
S214008D907369A3612CF078F9B36904F14000E363CA
S214008DA09B68984720B9676C17B16368B3FBF7F701
S214008DB094F84330E761002BB2D00023656C23663D
S214008DC0002D64D0002F62D02368B3FBF5F205FBBC
S214008DD01233002B55D16668B6FBF5F305FB13631B
S214008DE0002B4ED120462BF047FEA36904330344E4
S214008DF09E4248D340F634726369CC3B934244D8D3
S214008E00B5F5805F43D3032120462BF05EFED4E900
S214008E100001E36B1B6898470546E36B0220DB689E
S214008E209847CDB941462046FFF77AF964280546AB
S214008E3004D141462046FFF773F90546666C5DB9D6
S214008E40236A2046143E5E432BF016FEA3690433C5
S214008E5003449E4238BF5A25002D0CBF0123002331
S214008E6084F8343007D1D4E900010B4A1368013383
S214008E7013602CF0A3F9E06B2BF0C0FF51E75D25E3
S214008E804FE759254DE75A254BE75F2549E75B2510
S214008E9047E700BFDC350020D83500202DE9FF412C
S214008EA00C4616461F46054680B390F834307BB312
S214008EB0B1F5801F2ED2DFF8608001212BF005FE71
S214008EC02146424628460DF10F03FFF745F80446B3
S214008ED070B99DF80F30012B11D1D8F81030BB4275
S214008EE012D10246009031462846FFF743FB04465F
S214008EF0E86B2BF083FF204604B0BDE8F081022B20
S214008F0014BF2D246024F3E76324F1E72124F2E75D
S214008F101124F0E72924EEE7A43C00202DE9F043D5
S214008F2085B00C4617461E460546DDF8308098B3D9
S214008F3090F8343093B3B1F5801F31D2DFF86490E7
S214008F4001212BF0C2FD21464A4628460DF10F03AB
S214008F50FFF702F8044688B99DF80F30012B14D1AC
S214008F60D9F8102006EB08039A4213D30090434624
S214008F70324639462846FFF7FDFA0446E86B2BF0E2
S214008F803DFF204605B0BDE8F083022B14BF2D241C
S214008F906024F3E76324F1E72124F2E71124F0E7E5
S214008FA02924EEE7A43C002073B50C461646054679
S214008FB030B390F834302BB3B1F5801F24D20121A2
S214008FC02BF083FD21462846104A0DF10703FEF7D5
S214008FD0C3FF044680B99DF80730032B0CD0022B44
S214008FE00CD1284609492BF067FF3060E86B2BF060
S214008FF005FF204602B070BD2D24F7E76124F5E793
S2140090002124F6E71124F4E72924F2E7A43C002003
S2140090102DE9F3411E4600230C46174605463360ED
S21400902050B390F834304BB3B1F5801F28D2DFF838
S214009030548001212BF049FD2146424628460DF179
S2140090400703FEF789FF0446A0B99DF80730032BF7
S21400905010D0022B03BF01233B600423D8F8103046
S21400906018BF38603360E86B2BF0C8FE204602B0AD
S214009070BDE8F0812D24F6E72124F7E71124F5E773
S2140090802924F3E7A43C002073B50446056B2BF0B7
S214009090F3FC636E03449D422CBF002301238542EC
S2140090A094BF00252D1A207C84F85030656584F81E
S2140090B05800A8B100230C4E1A46194620460096C2
S2140090C02BF0BEFF002305461A461946204600969A
S2140090D02BF0BFFFE3682844984294BF0020C01AD4
S2140090E0E06502B070BD00BFFFFF0F002DE9F3473B
S2140090F01E4643690446B342884617469DF82890A4
S2140091004ED300258DF8075020462BF0B5FCD4F83A
S21400911030A082450AD2236AB5EB430F06D200225E
S21400912020460DF10701FFF745F9B8B39DF8073063
S214009130012B05D1002220460DF10701FFF73AF971
S214009140B9F1030F06D0314620462BF085FC256B7F
S214009150854227D3144D4FF0FF31284600F0B2FA6F
S2140091604B46294600222046C5E90376C5F800800E
S214009170FFF716FB236E054663B12046FFF784FF14
S21400918094F8503013B994F858301BB1236E04F19C
S21400919050009847284602B0BDE8F0870135B3E78F
S2140091A06225F7E71C25F5E7783C00202DE9FF410E
S2140091B00F4690461E46054698B390F8343093B353
S2140091C0B1F5801F31D21A4C02212BF07EFC2246CC
S2140091D0394628460DF10F03FEF7BEFE024678B16B
S2140091E0012342460093394633462846FFF77EFF62
S2140091F00446E86B2BF002FE204604B0BDE8F08182
S2140092009DF80F30012BEBD12169B142E8D10093D4
S214009210414633462846FFF7ADF904460028DFD11D
S214009220E7E72124E8E71124E6E72924E4E700BF7E
S214009230A43C00202DE9F04790F8423086B0012B80
S21400924005460391A1EB020740F0AA80FF2F03D842
S2140092501E464FF0640807E00226012B14BF4FF0AD
S21400926032084FF06408013600244FF6FF79DFF825
S21400927044A195F84230012B14BF322364239C424C
S21400928002D35FFA88F40DE005AB22465146284625
S2140092902BF0F0FD95F84230012B059B34D14B4561
S2140092A02DD1E4B295F84230012B14BF322264224D
S2140092B0121BB24217D3012E39D10022012B05977B
S2140092C08DF8132027D1082205A90DF113002CF0E4
S2140092D08DF89DF81330059A42EA03222146284667
S2140092E0FFF730FA40B10223324900932846CC23D8
S2140092F0096803AAFFF7FAFE06B0BDE8F087DBB2FE
S21400930003B902340134B4E7591CCAD09BB2002B0F
S214009310F8D10134F6E7102205A90DF113002CF060
S21400932065F89DF81330059A42EA0342D6E7039A99
S214009330012B059223D10823202205A90DF1130045
S2140093408DF813302CF052F89DF8132012022146A7
S2140093502846FFF7F7F995F84230611C012BC9B291
S2140093601AD10028BFD12846BDF81420FFF7EAF925
S2140093700028B8D10234BDF81620E1B2AFE71023BA
S214009380202205A90DF113008DF813302CF02EF8CD
S2140093909DF813201204DAE70028A4D1059A9EE768
S2140093A0B7F5803F4FF00106BFF457AF4FF03208D5
S2140093B05AE700BFA43C002070B586B00E460546AE
S2140093C00392A0B390F834309BB3B1F5801F32D22D
S2140093D002212BF07AFB31462846184A0DF1170376
S2140093E0FEF7BAFD044618B99DF81730032B0ED1C8
S2140093F00223314600932846CC2303AAFFF776FEC5
S2140094000446E86B2BF0FAFC204606B070BD022B33
S2140094100BD10A4928462BF04FFD0399024681429C
S214009420EFD02846FFF706FFEAE76124E9E72124A4
S214009430EAE71124E8E72924E6E700BFA43C002079
S214009440F7B50C461646054668B390F8343063B355
S214009450B1F5801F2BD202212BF037FB2146284680
S214009460144A0DF10703FEF777FDC0B99DF80730E3
S214009470032B14D0022B14D10E4928462BF01CFDCA
S214009480471C024639462846FFF7D4FE044606B176
S2140094903760E86B2BF0B2FC204603B0F0BD2D24FD
S2140094A0F7E76124F5E72124F6E71124F4E72924F9
S2140094B0F2E700BFA43C002030B50C46054685B058
S2140094C028B390F8343023B3B1F5801F23D202219D
S2140094D02BF0FBFA0DF10F03214628460F4AFEF744
S2140094E03BFD034688B99DF80F20032A0DD00322C2
S2140094F02146009202462846FFF7F8FD0446E86B30
S2140095002BF07CFC204605B030BD2D24F7E7212447
S214009510F8E71124F6E72924F4E700BFA43C00206E
S2140095202DE9F043466886B3056898464FF0000C70
S214009530A946AE4655F83C400CF1010CC4F313079F
S214009540013401D0B94217D0B4450EF1080EF1D15E
S2140095502F46002403E0B44207F1080712D055F85E
S214009560343001340133F6D1C1F3130141EA085116
S214009570C7E90012BDE8F08341EA0851CEE90012BF
S214009580BDE8F083B8F1030F03D101230372BDE8F1
S214009590F083002303E0B34209F10809F5D055F83B
S2140095A033400133C4F30754032CF4D1C1F313033F
S2140095B043EA0853C9E90032BDE8F0832DE9F041DB
S2140095C00646406882B0B8B10F469046002433681D
S2140095D053F8345003EBC403C5F30752C5F3130125
S2140095E0013506D05B683046CDF80080B84718B124
S2140095F0706801348442EAD302B0BDE8F08100BF4F
S214009600024B1968024B1868FFF780BB3C680020C5
S2140096105C68002008B535F070FC014B186008BD8A
S214009620D03C0020014B186835F062BCD03C0020CE
S21400963073B504462248012A00EAC1119DF8185065
S21400964023F07C4007D9961E012E28D9073303F055
S2140096507F03194308E09DF81C300A43DB0603F03D
S214009660C053134343F060410023C4E900108DF853
S2140096700730B5B1202221460DF107002BF0B6FECB
S2140096801A220DF10700211D2BF0B0FE082063689A
S2140096909DF8072043EA8263636002B070BD114301
S2140096A0E2E71B220DF1070021462BF09FFE236800
S2140096B09DF80720042043EAC2632360EDE700BF5D
S2140096C080FFFF0738B5094B0D461A68002104468F
S2140096D011F052FB00234FF0FF322383C4E900252C
S2140096E02361A260E382A37638BD00BF34900400F5
S2140096F00138C0B205289ABF014B185C012070479C
S214009700399004002DE9F0410746154600240E4620
S214009710596888B0490A012922464FEA510104F1E6
S2140097200104F8D8DC78997824031B88C90201F470
S214009730006104F480540C43C3F30A035203234429
S21400974092B24FF000089C18274B6FEA044403932C
S21400975025F07843ED4302A90DF107001B22029382
S2140097608DF807802BF042FE9DF80720029B02A989
S21400977043EAC2630DF107001B2225F078450493E7
S21400978002958DF807802BF031FE9DF80720029B8E
S2140097906FEA144443EAC26305934FF0FF3307941D
S2140097A0069307A9BB69012206F110009847BB691A
S2140097B005A90446012206F108009847BB69404502
S2140097C018BF044604A90122301D984701224045CF
S2140097D018BF0446BB69304603A99847404508BFF2
S2140097E0204608B0BDE8F08101009AB238B5104BAB
S2140097F00546D3F800310C4603F00303022B0BD0CA
S214009800032B0DD0012B0FD133F050FC032305B1F1
S214009810286004B1236038BD33F092FC0723F6E7D6
S21400982035F07EFB0623F2E701230020EFE700BFBA
S2140098300080005038B5134B0546D3F820010C467F
S21400984000F0070004281AD8DFE800F003090D111D
S2140098501500012305B1286004B1236038BD33F03C
S214009860EBFB0423F6E733F021FC0323F2E733F0A7
S21400987023FC0523EEE733F015FC0223EAE700237A
S2140098801846E7E70080005038B5104B0546D3F879
S21400989040310C4603F00303022B0BD0032B0DD0F4
S2140098A0012B0FD135F03EFB082305B1286004B12B
S2140098B0236038BD33F044FC0723F6E735F035FB6C
